:020000040800F2
:100000000010002059010008A1010008A10100080A
:10001000A1010008A1010008A101000800000000E2
:10002000000000000000000000000000A101000826
:10003000A101000800000000A1010008A1010008C2
:10004000A1010008A1010008A1010008A101000808
:10005000A1010008A1010008A1010008A1010008F8
:1000600000000000A1010008A1010008A101000892
:10007000A1010008A1010008A10100080000000082
:10008000A1010008A101000800000000A101000872
:10009000A1010008A1010008A1010008A1010008B8
:1000A000A1010008A1010008A1010008A1010008A8
:1000B000A101000800000000000000000000000096
:0C00C000A101000800000000A1010008E0
:1000CC000348044B834202D0034B03B118477047DB
:1000DC000000002000000020000000000548064B36
:1000EC001B1AD90F01EBA301491002D0034B03B12A
:1000FC00184770470000002000000020000000009E
:10010C0010B5064C237843B9FFF7DAFF044B13B153
:10011C000448AFF300800123237010BD00000020C1
:10012C0000000000700B000808B5054B1BB1054919
:10013C000548AFF30080BDE80840FFF7CFBF00BF14
:10014C000000000004000020700B0008002103E0F8
:10015C000B4B5B58435004310A480B4B42189A42E4
:10016C00F6D30A4A02E0002342F8043B084B9A42B9
:10017C00F9D300F0B7F900F0ABFC00F0B5F970471B
:10018C00900B000800000020000000200000002060
:10019C0034020020FEE70000084BDA68D10709D4CE
:1001AC00DA68520708D4D868C0F30010C0F1030015
:1001BC00C0B27047002070470120704700200240F9
:1001CC000549064B4A6A92B21A804B6A9B1A9BB23B
:1001DC009842FAD8704700BF00040040300200205B
:1001EC00114B1B78012B03D0104B00221A80704747
:1001FC000F4A136803F16043B3F5803FF4D853689A
:10020C0003F17843A3F58053B3F5802FECD872B685
:10021C0008490B6823F001030B60D2E900329D46BC
:10022C0083F3088810477047007C00082E020020DA
:10023C000010000800040040F0B500220B4F0546EA
:10024C001046914200DCF0BDAE5C082486EA000347
:10025C0043F300033B4083EA500398B2631E13F050
:10026C00FF044FEA5606F1D10132EAE701A0FFFF85
:10027C004FF0904304229A611A6822F0300242F047
:10028C0010021A605A6822F004025A60034B1B7861
:10029C0013B13420FFF794BF704700BF2C0200202D
:1002AC00F8B54FF0904604270546B7623420FFF7A7
:1002BC0087FF0824EB074CBFB761B7623420013CC1
:1002CC00FFF77EFF14F0FF044FEA5505F2D14FF013
:1002DC00904304229A61F8BD10B5074C01462046A4
:1002EC00FFF7AAFF631C5A5C635C43EA02231B1AE8
:1002FC005842584110BD00BF290100204FF09042D8
:10030C00136823F030031360D36823F0300343EAFF
:10031C000013D36070470120FFF7F0BF10B50446FF
:10032C00FFF7A6FF2046FFF7BBFFBDE81040FFF725
:10033C00F2BF000008B53020FFF7F0FF014B0022A0
:10034C001A8008BD2E02002008B5C120FFF7E6FF79
:10035C00024A13880133138008BD00BF2E0200200F
:10036C0008B5C220FFF7DAFF024A13880133138065
:10037C0008BD00BF2E02002038B504460D46FFF71D
:10038C0077FF254414F8010BFFF78AFF3420FFF7A1
:10039C0017FFAC42F6D1BDE83840FFF7BCBF0000F8
:1003AC0008B504480921FFF7E7FF034B01221A7037
:1003BC0008BD00BFE80F00082C02002010B5044651
:1003CC00FFF7EAFE00B904B910BDFFF7E5FE013CEA
:1003DC00F8E7000042EA01039B072DE9F0470646C7
:1003EC000F46154648D1254C254B6360C2F30908CE
:1003FC0003F188334FEA91096360B8F1000F10D113
:10040C00236943F0020323616261236943F04003D3
:10041C0023614FF08040FFF7D1FF236968F341035C
:10042C002361164C06EB8909B046A5EB060AC845B4
:10043C000DD1236943F0800323613A4629463046A7
:10044C0000F080FBB0FA80F04009BDE8F08723692A
:10045C00D8F8002043F0010323614FF480104AF8D0
:10046C000820FFF7ABFF236923F00103236103236B
:10047C00E36008F10408DAE70020E6E70020024018
:10048C002301674570B5144B5B6ADB00ADF5806DDD
:10049C001ED5124CA378132B1AD0013BDBB2FD2BCB
:1004AC0016D84FF480622146684600F03DFB0C4E96
:1004BC0013238DF802306D46224628464FF4807186
:1004CC0004F58074FFF786FFB44205F58075F3D10F
:1004DC000DF5806D70BD00BF00100240007C00085F
:1004EC0000800008704700002DE98048AE4BAF4CEF
:1004FC0083B040F253121A60236843F0010300AF3B
:10050C00236023689D07FCD5636823F003036360B5
:10051C00636813F00C0FC3F38102F9D1236823F045
:10052C00867323F48033236041F610736260E362B8
:10053C004FF4801323634FF41F03A360236843F02D
:10054C000103236023689807FCD5636823F4803388
:10055C00636063680D2262F39543636063680122F4
:10056C0062F35E736360E36A23F0E063E362236823
:10057C0043F08073236023689901FCD5636823F0F2
:10058C00F0036360636823F460536360636823F46F
:10059C00E0636360636D43F030036365636802225C
:1005AC0062F3010363606368C3F38103022BFAD126
:1005BC00636D23F030036365E36943F00203E36189
:1005CC007B4B77229A624FF6FF72DA621A6842F01E
:1005DC0001021A601A6822F440721A601A6822F03A
:1005EC0070021A605A6942F001025A61636943F45D
:1005FC0080236361636943F4003363610021042049
:10060C004FF090434FF0030E4FF0010CC2071FD573
:10061C001E684A000EFA02F526EA05061E601E68E0
:10062C001E605E680CFA01F826EA08065E605E68D9
:10063C005E609E6826EA05069E609E680CFA02F2D1
:10064C0032439A60DA6822EA0502DA60DA68DA6024
:10065C00013103294FEA5000D8D10220FFF74EFE9A
:10066C004FF4FA70FFF7ACFD4FF47A6600254FF0AB
:10067C00904840F2C319D8F810305B075CBF0135C5
:10068C00ADB20A20FFF79CFD4D4500F0B680013E4F
:10069C00F1D10120FFF732FE4FF4FA70FFF790FD15
:1006AC0004464FF090463369590758BF01354FF057
:1006BC000A0058BFADB2FFF783FD013CF3D1C5B1C1
:1006CC002046FFF71BFE4FF4FA70FFF779FD054645
:1006DC004FF0904633695A0758BF01344FF00A0067
:1006EC0058BFA4B2FFF76CFD013DF3D10CB1FFF77D
:1006FC0077FD0120FFF702FEFFF7C4FE2C4EDFF85A
:10070C00B480DFF8B4902B484FF0000B4FF481729B
:10071C00594689F800B0C24600F0FEF94446FFF78E
:10072C00FAFDC7F804B0254900230B70706A244BFE
:10073C0080B218804FF0904544F6206C2B695B0713
:10074C0062D5706A1E4B99F8002080B218804FF069
:10075C0090452B69590700F188801A20FFF730FD6E
:10076C002B6913F0040357D134203B60FFF728FDAD
:10077C004FF0904311491D693B6891F800C0C5F3D7
:10078C0080059D4045EA0C050133EDB2082B0D7038
:10079C00EAD1FFF715FD4FF090431A69094B520748
:1007AC001B7839D510E000BF002002400010024039
:1007BC0000040040290100202B020020240100200D
:1007CC003002002028010020012289F80020002B93
:1007DC0056D0984B7A681B8802339A421CD0134629
:1007EC0001339BB28AF800507B600BF1010BBBF517
:1007FC00817F0AF1010A96D10EE0636AD8003FF5B9
:10080C0048AFFFF7EDFC44E7736A1B1A9BB26345D4
:10081C0094D9894B65221A80DFF820A299F8002020
:10082C009AF80030002A00F04981002B44D0814B0B
:10083C001C882046FFF750FD00283AD04FF48072F8
:10084C007F48002100F068F97D4A0023A3422ADB8F
:10085C00FFF770FD00238AF80030774B1B88642B60
:10086C007FF64DAFFFF7BCFC49E7736A002A3FF4F3
:10087C0070AF1B1A9BB2B3F5827F7FF66AAFCBE7E2
:10088C00704A736A12889B1A9BB2FA2BC4D840F236
:10089C0001139B4508BF684A8AF8005002BF1388B1
:1008AC0014331380A1E718F8011B02F8011B013364
:1008BC00CCE7FFF755FDD0E7237C20787D2B0AD1C0
:1008CC00237A0D2BC9D1637A422BC6D1FFF768FD71
:1008DC0000232375C1E7237D7D2B05D1237B0D2BB5
:1008EC0002D1637B422BF1D094F828307D2B07D1B9
:1008FC0094F820300D2B03D194F82130422BE5D005
:10090C004D4D70B9A27863781343E278134301D14B
:10091C0065232B80C120FFF701FD2B8801332B8031
:10092C009BE701281ED10220FFF7D6FC0028C0D07F
:10093C00454B1A68454B9A4202D8FFF705FD8CE7E8
:10094C003C4B1988424B9A4204D1022982BF3C4B42
:10095C00132098703A48FFF73DFD0028EDD0FFF7C3
:10096C00E9FC7AE7FF2823D10420FFF7B5FC002827
:10097C009FD000232B806388334A5BBA9BB2A3F1D0
:10098C002001136003290DD8DFE801F00205070AE6
:10099C002F4B1360E3E72F4BFBE72F4B1B68F8E75C
:1009AC002E4BF6E7B3F5806FC7D303F10063F0E786
:1009BC00FE2813D10420FFF78FFC00283FF479AFF9
:1009CC00A3781C4A012B14BFE3784FF48073138077
:1009DC0001238AF80030FFF79EFC3EE7FD2809D181
:1009EC000220FFF779FC00283FF463AFC120FFF72A
:1009FC0095FC32E702280AD1FFF76EFC00283FF481
:100A0C0058AF114B1A68114B9A4296D9A7E7032895
:100A1C0080D10220E846FFF75FFC18B9FFF7A0FC75
:100A2C00C5461AE7DFF82090D9F80050C5B9FFF792
:100A3C008BFCF5E7260100202E0200202801002067
:100A4C00240000203002002020000020FF0F0008AE
:100A5C00007C0008E07B00081C000020E00F000870
:100A6C006478002C08BF4FF4807404F10A0323F05F
:100A7C000703ADEB030D04F1030A5246002168464F
:100A8C0000F04AF822462946684600F04DF8214607
:100A9C006846FFF7D1FB0DEB04030DF80400302280
:100AAC00000A58709A7051466846FFF765FC064B71
:100ABC0025441D600023C9F80030B1E7034A1388B0
:100ACC0001331380C9E600BF1C0000202E02002059
:100ADC0070B50D4D0D4C641BA4100026A64209D117
:100AEC000B4D0C4C00F03EF8641BA4100026A642E3
:100AFC0005D170BD55F8043B98470136EEE755F823
:100B0C00043B98470136F2E7880B0008880B000875
:100B1C00880B00088C0B000802440346934200D15A
:100B2C00704703F8011BF9E70A44914200F1FF33C7
:100B3C0000D1704710B511F8014B03F8014F9142E9
:100B4C00F9D110BD10B501390244904201D10020F9
:100B5C0005E0037811F8014FA34201D0181B10BD1A
:100B6C000130F2E7F8B500BFF8BC08BC9E467047F0
:0C0B7C00F8B500BFF8BC08BC9E467047EE
:040B8800350100082B
:040B8C000D0100084F
:100FE000DAE32559D963B84E343731021F060603B8
:0C0FF000301B000010E07B007C307C0017
:040000050800015995
:00000001FF
