:020000040800F2
:10100000003C002081430008C9430008215100082A
:1010100025510008295100082D510008000000004A
:101020000000000000000000000000003151000836
:101030003551000800000000395100083D510008FA
:10104000C9430008C9430008C9430008C943000850
:10105000C9430008C9430008C94300088152000879
:101060000000000041510008C94300086951000810
:10107000DD510008C9430008C94300080000000012
:101080005D520008C9430008000000002552000816
:101090004552000835520008C9430008C9430008FA
:1010A000C9430008C9430008C94300085952000851
:1010B000C94300080000000000000000000000001C
:0C10C000C943000800000000C9430008FC
:1010CC0053B94AB9002908BF00281CBF4FF0FF31A3
:1010DC004FF0FF3000F00CB8ADF1080C6DE904CE08
:1010EC0004F0B4FFDDF804E0DDE9022304B070473E
:1010FC00704700BF0348044B834202D0034B03B13B
:10110C0018477047C8030020C803002000000000E7
:10111C000548064B1B1AD90F01EBA301491002D04D
:10112C00034B03B118477047C8030020C8030020C5
:10113C000000000010B5064C237843B9FFF7DAFF26
:10114C00044B13B10448AFF300800123237010BD8E
:10115C003C080020000000006C63000808B5054B3B
:10116C001BB105490548AFF30080BDE80840FFF707
:10117C00CFBF00BF00000000400800206C630008D7
:10118C00904B914AB3F87CC018882DE9F04FACEB2A
:10119C00000115888D4C89B24A098D4287B0218097
:1011AC00628080F0E8808A4D2D888D4240F2E38089
:1011BC005968DFF82082091A89B28A42D3E9020100
:1011CC00A1EB000080B22CBF0027012782422CBF6C
:1011DC00002101210591A160D3E90451491B89B279
:1011EC008A42D3E90651A1EB050189B22CBF4FF01D
:1011FC00000E4FF0010E8A42D3E90851A1EB050114
:10120C0089B22CBF4FF0000A4FF0010A8A422CBF62
:10121C000021012104916161D3E90A51491B89B272
:10122C008A42D3E90C51A1EB050189B22CBF0020F5
:10123C0001208A422CBF002501250295E561D3E9E6
:10124C000E51491B89B28A42D3E91051A1EB050119
:10125C0089B22CBF002601268A422CBF4FF0000B0E
:10126C004FF0010B0390A061019626626760C4F8F1
:10127C000CE0C4F810A0C4F824B0D3E912514D1BF3
:10128C00D3E914618E1B0021A8F80010D3E91A01D0
:10129C00ADB2AA42B6B2A1EB000189B22CBF0025B7
:1012AC000125B2422CBF002601268A422CBF002108
:1012BC0001214FEA8108A163D3E91691A1EB090939
:1012CC00D3E918011FFA89F9091A4A4589B22CBFCA
:1012DC004FF000094FF001098A422CBF0021012177
:1012EC0048EAC1086163996F0398C4F83090ACEB7D
:1012FC00010189B28A422CBF0021012148EA010870
:10130C002164D3E91C31C91A89B28A42059B04991C
:10131C00A5622CBF00220122E26348EA420880EA5F
:10132C0003026A4081EA070392008BEA030342EA54
:10133C00C303019AE66282EA0A0289EA020943EAD5
:10134C000909029B83EA0E03734049EA4309224BC5
:10135C001B789BB1214B1B781BB1C8F10F085FFAAE
:10136C0088F8C8453CD0B4F8543000220133A4F8B6
:10137C00543084F8482007B0BDE8F08F174B1A782A
:10138C00002AE8D1019303F0B7FE019B48B194F811
:10139C0044200132D2B2642A84F8442084BF012252
:1013AC001A70D4E90172059262690492A2690392DF
:1013BC00E2690292226AE66A0192D4E903EAD4E96C
:1013CC0009B5C8E73807002024070020C80300200F
:1013DC00C0030020B40600207C060020C5060020B7
:1013EC00B4F8463084490133A4F84630236B00220C
:1013FC00012B0A8004BF814A1370059B049A5B027F
:10140C0043EA8723334343EA0E2343EACA1343EAEE
:10141C008213039A43EA4213029A43EA0213019A93
:10142C0043EAC20394F8482043EA8B0343EA45039A
:10143C00EAB92F2B2FDD94F84D10002940D1704DB7
:10144C002B78002B97D06F4A1278002A93D16E4AD2
:10145C001278002A8FD094F850209A4248D0052B4D
:10146C0084F850304FD9012384F84E3083E7012A99
:10147C0020D0022A18D0032A7FF47DAF252B7FF4CD
:10148C007AAF6249B4F84A2094F84C00885400238F
:10149C0084F848306FE7591E2E2919D85C49584DED
:1014AC000A80DBB22B70CEE7032284F84C3084F830
:1014BC00482060E70222A4F84A3084F848205AE712
:1014CC0053484F4984F84E209BB203800A7052E770
:1014DC00002BB4D194F84F204D49012A484A08BF3B
:1014EC0084F84D3000230B80137084F84E3042E7A3
:1014FC00052B08D994F84E200132D2B2052A84F873
:10150C004E207FF638AF0022013B84F84E20232B6F
:10151C0016D8DFE803F0126C6864605C554E4A46DE
:10152C00153E322B1515151515241F1515151515EA
:10153C001515151515151515151B364B01221A7099
:10154C00354A2978117000232B7014E7012384F895
:10155C004830F5E72D4A314B527C1A70F0E72B4B93
:10156C002E4A5B7CC3F101031370E9E700220123CF
:10157C0084F8512084F85330E2E794F84F3001227C
:10158C00934284F8512084F85220D9D184F84D30FC
:10159C00D6E700F09BFC1D4B1E4A5B7C013313709D
:1015AC00CEE71A4B01229A74CAE7184B00229A74A0
:1015BC00C6E71649194B0120002248741A70BFE780
:1015CC001249164B0020012248741A70B8E7144BCC
:1015DC0001221A70B4E70F4B05221A70B0E70D4BBD
:1015EC0004221A70ACE70B4B03221A70A8E7094BC4
:1015FC0002221A70A4E700BFB4060020AA0600203D
:10160C00E0060020640600207C0600200005002077
:10161C00660600207D060020E10600205400002014
:10162C00CA06002070B5B84D95F8513095F8521097
:10163C0095F8532033B195F85E60002E76D00023D8
:10164C0085F85E30A1B3002385F85230002A00F0F3
:10165C00B1800023AD4A85F853304EF6F173012169
:10166C0085F85E10AA496B6691F800E0AA660EF147
:10167C00010305EB83028021D166A64805EB8E029F
:10168C0000EB8300116F4FF0010C1322AC6E0CFABF
:10169C0002F32340D34083EAD111013AC901531C10
:1016AC0040F8041FF2D105EB8E050023EB6670BDEC
:1016BC00002ACED1984B1B78002B7FD0C30B40F067
:1016CC0009818313012B00F003814313012B00F0DC
:1016DC00FD800313012B00F0F780C312012B00F0E7
:1016EC00F1808312012B00F0EB804312012B00F0F0
:1016FC00C280030A83EA10138849C0F313224340C3
:10170C00DB438E5C03F00F03C0F3031200242C6642
:10171C008C5CCA5C43EA001300F00F0042EAC6324C
:10172C00095C42EA842242EA41129BE7B5F85C303C
:10173C00B5F85A40B5F858C001339BB201340CF1DE
:10174C00010CA4B21FFA8CFC272BA5F85C30A5F871
:10175C005A40A5F858C037D9714BA5F85C60B3F95D
:10176C00003000297FF46FAF002A7FF472AF6D4A0E
:10177C006A48D91782FB0323C1EB6311C9B241F448
:10178C00C06383EA131383F00603DB4341F4C061A7
:10179C0003F00F02C1F3031442EA0113825C045DEF
:1017AC0001F00F0142F43022415C42EA842242EA09
:1017BC00411254E75C4A4EF2010350E75B4A4FF684
:1017CC00F073072129664DE7C72C28D9584BA5F88B
:1017DC005A601B8800297FF436AF002A7FF439AF9A
:1017EC00504A4E48A2FB0321C1F3C70141F480616A
:1017FC0081EA111383F00403DB4303F00F02C1F3FE
:10180C00031442EA0113825C045D01F00F0142F4FF
:10181C006822415C42EA842242EA41121FE7BCF191
:10182C00C70F7FF60FAF434BA5F858601B881BB250
:10183C0000297FF408AF002A7FF40BAFD9B241F432
:10184C00007383EA131383F00203DB43334841F440
:10185C00007103F00F02C1F3031442EA0113825C1E
:10186C00045D01F00F0142F41022415C42EA842233
:10187C0042EA4112F3E60921083940FA01F242EA40
:10188C004122C2F30724C2F30B10604093B24340D1
:10189C00DB4303F00F0343EA021320481A13845C62
:1018AC0003F00F02825C42EAC432C3F30324045DEA
:1018BC0042EA8422C3F30314005D42EA401281E73A
:1018CC000A21D9E70B21D7E70C21D5E70D21D3E766
:1018DC000E21D1E7C11181EA1112104841F4606167
:1018EC0002F00F02C1F3031442EA0113825C045D9F
:1018FC0001F00F0142F4F022415C42EA842242EAF8
:10190C00411207215EE700BFC8030020FB3D070022
:10191C00C303002034040020640600208463000804
:10192C00AC0600201F85EB513B670700F9BD070093
:10193C00A6060020C606002030B5039C05468D4245
:10194C0009DC13E0A34213D0B1EB6C0F0DD075453D
:10195C0010DC0446724601EB020C181995424FEA52
:10196C006C0E4FEA6000EDDB204630BD9542FBDA91
:10197C00184630BD0EF101010346E0E70346401A5C
:10198C0048BFC81A704700BF04494A6A80B292B275
:10199C004B6A9B1A9BB28342FAD3704700480140B2
:1019AC0000F1FF3C58B106494A6A92B24B6A9B1A45
:1019BC009BB2B3F57A7FF9D3BCF1010CF4D270472A
:1019CC0000480140002968D002460144002026E06E
:1019DC005B00D8B25BB2002B2EDB4000C3B240B22E
:1019EC00002830DB5B00D8B25BB2002B32DB40004E
:1019FC00C3B240B2002834DB5B00D8B25BB2002B20
:101A0C0036DB4000C3B240B2002838DB5B00D8B2F2
:101A1C005BB2002B3ADB40009142C0B23CD012F8D2
:101A2C00013B434058B20028D2DA400080F0070056
:101A3C0043B2002BC0B2D0DA5B0083F0070358B27C
:101A4C000028DBB2CEDA400080F0070043B2002B56
:101A5C00C0B2CCDA5B0083F0070358B20028DBB2CB
:101A6C00CADA400080F0070043B2002BC0B2C8DADB
:101A7C005B0083F0070358B20028DBB2C6DA4000E3
:101A8C0080F0070043B2002BC0B2C4DA5B0083F0D5
:101A9C0007039142D8B2C2D170470846704700BFC5
:101AAC00026803FB03F303EB430C22EA0C0203FB77
:101ABC0001F10A430260704710B403FB03F304689E
:101ACC0003FB01F103FB02F203EB430324EA0304DF
:101ADC000C430460C16810BC21EA03031343C360C8
:101AEC00704700BF38B54FEA112C4FF0000E1C0A9E
:101AFC006CF3070E4FF0000CBDF8105064F3070C9C
:101B0C0061F30F2E63F30F2C130A0A4C63F3174E79
:101B1C002B0A63F3174C207062F31F6E65F31F6C76
:101B2C0009212046C4F801E0C4F805C0FFF74AFFBC
:101B3C00607238BDCC04002070B50B4C0B4E04F118
:101B4C003005B64620686168A268E368F446ACE8E4
:101B5C000F001034AC42E646F4D104483021FFF7B4
:101B6C0031FF86F8300070BD00050020CC04002049
:101B7C00BFF34F8F0549064BCA6802F4E06213436A
:101B8C00CB60BFF34F8F00BFFDE700BF00ED00E05F
:101B9C000400FA0570B5B84CB84D82B02968C02263
:101BAC00204603F015FC6378022B6ED84FF06413BB
:101BBC00B34AC4F809300021C4F80520C4F80D104C
:101BCC000123E27D2A2A02D8101F052869D8102289
:101BDC0084F8C020227EA2F10800C0B2882869D8FF
:101BEC0002EB8202A748A84E02EB82029200A0FBF5
:101BFC0002029208A548B0FBF2F2F262AA803129E7
:101C0C0036D803EB83035B0003F5C87189B2627E9F
:101C1C002B81A2F13200642898BF9B18A27EA98167
:101C2C0002EB82024FEAC20298BF9BB2143202202E
:101C3C006B81EA8102F0B0F96378002B40D1E8891E
:101C4C004FF4FA73009340F6B8324FF47A734FF4B2
:101C5C009671FFF771FEA37CA5F8500063B14FF4A9
:101C6C007A73C4F8C830237D84F8CC3002B070BDD0
:101C7C004FF4C8710023CAE74FF4FA63C4F8C830B4
:101C8C00237D84F8CC3002B070BD637B092BA37923
:101C9C0089BF002203F1FF3103F1FF316273C9B236
:101CAC008FE7032A00F20B81D200D2B202F10A00B4
:101CBC00E0758DE7744841F28732EA80C2629EE794
:101CCC00A07F0B2888BF052002F066F994F821301C
:101CDC0094F8202094F8221094F82300A87503F2AD
:101CEC006B335B006B8294F82830053B142B84BF5C
:101CFC00052384F8283094F8293002F27712013B3E
:101D0C005200092B2A8294F8252088BF0A2302F15D
:101D1C00FA0288BF84F8293094F82A302A830022EA
:101D2C0084F827205A1E01F25E51082AA98240F23B
:101D3C0081800A2384F82A3094F82B30617AE27A75
:101D4C00A07AA862463B462B84BFFF2384F82B3035
:101D5C0094F82C30013B632B9CBF012384F8C130D9
:101D6C0094F82D30013B092B84BF052384F82D30CA
:101D7C0094F82E3049005200092B6962EA6206D8A9
:101D8C00042B0CD8DFE803F00395910B8800404A34
:101D9C000023012184F8C23084F8C33011706379B8
:101DAC00092B2BD8092284F8C42085F8483085F8F3
:101DBC00493085F84A30E889E27E14289CBF00231C
:101DCC0085F84B30A2B12023B3FBF2F383B1314A37
:101DDC00A2FB00125209B2FBF3F2A5F84C20294ADF
:101DEC00A2FB0012D208B2FBF3F3A5F84E3027E7A2
:101DFC000023A5F84C30A5F84E3021E7002284F8DA
:101E0C00C42095F84810A2F13332A2FB0323DA0860
:101E1C00B1EBD30F88BF85F8482095F849309A422A
:101E2C0038BF85F8492095F84A309A4238BF85F872
:101E3C004A20C0E7C3EB4312C3EB82035B000733BA
:101E4C00DBB2C82B13D81A461846AB766B890E49F1
:101E5C0013446B812B8913442B81AB8B1344AB83C1
:101E6C00AB891A444B6CAA8103434B6464E7C823C7
:101E7C0018461A46E9E700BF0005002000000020C4
:101E8C00A001000AABAAAAAA002C0140F0821E00F5
:101E9C00150400201F85EB510A490B4A01230B70D6
:101EAC000021117084F8C23079E7012384F8C33023
:101EBC0075E7054A012384F8C23013706FE70A3ABC
:101ECC00D2B285E61704002015040020024B03480B
:101EDC001A68C02103F024BA00000020000500207D
:101EEC0038B5294C94F8542094F85530012A31D047
:101EFC005A1E12F0FF02254D25D084F8552003F010
:101F0C00010384F8523072B695F83D31002B35D070
:101F1C0062B603F0DDF9D5F8C830D5F8402103F5E9
:101F2C00FA7393423CBF012384F8563094F8553031
:101F3C00002285F83A2105EB430385F84421A26D74
:101F4C00A3F8462138BD0123062284F8552085F8D4
:101F5C003C31D6E70133DBB2062B0C4D99BF84F82C
:101F6C00553003F0010284F8552085F83C2184F8A3
:101F7C00522072B695F83D31002BC9D194F855001A
:101F8C0003F002FDC4E700BF0000002000050020A4
:101F9C00204AD36810B523F001031F4CD360FFF720
:101FAC009FFFB4F854211D49B4F856018B6D80B2D3
:101FBC0010FA82F203EB520394F82F205B088B6526
:101FCC00EAB98A6D94F8C03002FB03F3C3F38F13A4
:101FDC008A6D91F85610A4F85A31C3EB520292B2A2
:101FEC00A4F85C2199B1D4F8602142F20F739A42A3
:101FFC0004D8D4F860310133C4F8603110BD8A6D57
:10200C0094F8583102FB03F3C3F38F13E0E703F0AA
:10201C0057F9E8E7004401400005002000000020CB
:10202C0038B5184D95F85C3073B1002403E095F881
:10203C005C30A34208DD03F02FF995F8523098423A
:10204C0004F10104F3D138BD72B603F02DF90E4A38
:10205C000E4CB2F856110E4B89B2A2F85411606AAC
:10206C00002180B2A2F8560161625962B2F85C217B
:10207C0092B20132DA621961DA6842F00102DA6076
:10208C0062B638BD000000200005002000100040A2
:10209C000044014070B5B94CA37C82B0002B00F019
:1020AC00C48094F8C22094F82600B54D002A65D15E
:1020BC00AB7D5B0003F57A71002800F08381B4F8E6
:1020CC00660180B288421ADD667C95F85400B042F5
:1020DC0000F09F8394F83D218AB9B4F8660140F270
:1020EC00FF720023009280B284F86A314FF4FA62D6
:1020FC002F23FFF721FCAB7DA4F868015B00B4F83B
:10210C006611C3F57A7289B291421CDA617C95F83A
:10211C005460C1F10100864200F0058394F83D1132
:10212C0089B9B4F8660100212F2384F86A1180B2B2
:10213C00009340F2FF73FFF7FFFBAB7DA4F868013F
:10214C005B00C3F57A72B4F8661189B2914211DB67
:10215C00B4F8662103F57A7392B29A420ADC94F8C9
:10216C003D210023A4F8683122B1012284F83D31CD
:10217C0084F86A2194F8C230002B5BD094F8263096
:10218C00002B00F06C81B4F866319BB2B3F5836F11
:10219C0017D3627C95F85430934200F0F08294F897
:1021AC003D3173B9B4F8663195F85D109BB25B00A4
:1021BC006FF40066334400225B1A84F86A21A4F899
:1021CC006831B4F866319BB2B3F5836F1CD2B4F8A6
:1021DC0066319BB22F2B17D9637C95F85410C3F141
:1021EC000102914200F0808394F83D3163B9B4F858
:1021FC00663195F85D109BB25B00313B00225B1A97
:10220C0084F86A21A4F86831B4F866319BB22F2B9C
:10221C0010D894F83D210023A4F8683152B1012262
:10222C0084F83D3184F86A2104E0B4F86631544DE9
:10223C00A4F8683194F8702195F85E309A4203D96D
:10224C00A37D002B40F0B380E67C002E75D0B4F853
:10225C00680194F828201D2800F296800023A4F829
:10226C00723194F8283003EB8303B0EB830F4FEA01
:10227C00830180F2938094F86E31002B5BD194F83B
:10228C007C31002B57D0E27CB4F8720150232E2104
:10229C0013FB0213834280F2238194F86431002BE8
:1022AC0000F0D4822B89002A00F0EE814FF4FA6200
:1022BC000092283340F2FF728921FFF73DFB80B278
:1022CC0094F82620E67CA4F88001002A40F0CD8109
:1022DC00B4F8723184F83D212E21502212FB0612E3
:1022EC009A4280F2FD80667FD4F860111E22324142
:1022FC008A4200F2E681B5F8922082423CBFA4F8F3
:10230C008021104694F8C12032B1B5F99420904246
:10231C00C4BF90B2A4F88001D4F88C21002A0ADD45
:10232C002F2B08D91749D31781FB0212C3EB223389
:10233C000344A4F8803102B070BD94F87431C3B179
:10234C0094F87531002B40F0D980D4F878210D49E0
:10235C00D31781FB0212C3EB22339BB2B3F5006F90
:10236C00A4F87231C0F0458140F2FF73A4F87231C9
:10237C0081E7B4F86831A4F872317CE700050020DD
:10238C0000000020AD8BDB681E283FF46AAF02EB27
:10239C00820292008242114600F3CE8040F2FF721C
:1023AC000092A023FFF7C8FAA4F8720163E703F0C8
:1023BC00ADFA02F079FF00226623A4F8722184F8AA
:1023CC00703158E7B4F8662192B28A4214DD637C0E
:1023DC0095F854209A4200F0FF81B4F8660140F25F
:1023EC00FF73009380B22F234FF4FA62FFF7A4FA25
:1023FC00AB7DA4F868015B00B4F86611C3F57A7282
:10240C0089B2914217DA637C95F85400C3F101014B
:10241C00884200F0C681B4F866012F23009380B285
:10242C0040F2FF730021FFF787FAAB7DA4F8680137
:10243C005B00C3F57A72B4F8661189B29142FFF66B
:10244C0099AEB4F8662103F57A7392B29A423FF7CB
:10245C0091AE0023A4F8683184F86F318AE6B4F8A1
:10246C0066319BB2B3F5836F11D3637C95F854201E
:10247C009A4200F06981B4F8663195F85D209BB200
:10248C005B006FF4006003449B1AA4F86831B4F845
:10249C0066319BB2B3F5836F16D2B4F866319BB23A
:1024AC002F2B11D9637C95F85410C3F10102914282
:1024BC0000F00382B4F8663195F85D209BB25B00A6
:1024CC00313B9B1AA4F86831B4F866319BB22F2BC0
:1024DC003FF6B0AE0023A4F8683184F86F31A9E65A
:1024EC0094F87D31002B38D0013B042B32D8DFE837
:1024FC0013F02F00AA01A701A2012F00D5E9183271
:10250C000092B4F8680140F2FF722F21FFF714FA21
:10251C00E27ECA4B93FBF0F3520893FBF2F3B4F850
:10252C006821A4F876312E2A3FF60FAFA4F8726119
:10253C00AE66C4F878619EE6A02300931E212F237B
:10254C00FFF7FAF90346A4F87231B4F8680188E68B
:10255C0001F076FE002384F87D31227D94F86431FD
:10256C00002A4DD1A4F88021002B40F09980227FC5
:10257C00C4F86031012185F85610002A40F08E8095
:10258C0094F83D31002B00F0E38194F82630002BB9
:10259C003FF4D1AE94F8C230002B00F0BF81B4F8F8
:1025AC0066319BB2B3F5836F0ED2B4F866319BB231
:1025BC002F2B09D9B4F8663195F85D209BB25B00DE
:1025CC00313B9B1AA4F88231B4F866319BB2B3F557
:1025DC00836F80F0CD81B4F8823140F2CE72934299
:1025EC0040F2AE8103F080FB94F83D61002E60D088
:1025FC00A1E62F2B3FF63FAE3023A4F872313AE61A
:10260C00002B6BD0E17C94F83D6195F85530013B83
:10261C00C3EB0312B5F8903003EB82031AB2B2F598
:10262C00B47F9BB203DBA3F5B47293B212B2A4F8DD
:10263C00842103F1770212B2B2F5B47F80F21581D6
:10264C00A4F8862103F1EF0212B2B2F5B47F80F246
:10265C00108101294FF00003A4F8882108BF84F8E9
:10266C006E11A4F8803126B365E6B4F872315022AD
:10267C002E2112FB06129A42BFF632AF94F83D217E
:10268C00002A7FF458AE2EE64FF4FA6200922F2106
:10269C0040F2FF72FFF750F980B211E603F024FB11
:1026AC0094F8263094F83D61002B9FD0002E7FF4D7
:1026BC0071AFB4F87231B4F880012E2B7FF61BAEDB
:1026CC0011E66A89824284BFA4F880211046AA8947
:1026DC0082423CBFA4F8802110460CE6267FC4F849
:1026EC006031012285F8562084F83B31002E00F031
:1026FC000B81E17C002986D1012E84D194F82930FC
:10270C0003EB830303EB8303DB009BB240F2CE723B
:10271C009342A4F8823140F2398103F0E5FAE17C6E
:10272C0094F83D6171E794F86A6100204FF0010C58
:10273C00A4F8680184F83DC1002E3FF404AD85F87F
:10274C00541084F83D01ECE4AA6DB5F85010914298
:10275C0080F09280B4F86C2192B2C72A00F28C807F
:10276C00C3F101030026012285F85430C4F86061DE
:10277C0085F8562002F098FD84F86F617BE6012104
:10278C0084F83D1194F86A110022A4F868210029FC
:10279C003FF417ADC3F1010385F8543084F83D21A3
:1027AC0000E5A96DB5F85000884276D2B4F86C11EA
:1027BC0089B2C72971D80122002685F85620C4F8A1
:1027CC00606185F8543002F06FFDAA7D84F86F616A
:1027DC005200C2F57A721EE6AA6DB5F8500090420E
:1027EC0052D2B4F86C2192B2C72A4DD8C3F101036E
:1027FC000026012285F85430C4F8606185F8562013
:10280C0002F052FDA97D84F86F61490001F57A71DF
:10281C00E3E594F86A61A4F868214FF0010C84F8A0
:10282C003DC1002E3FF46BACACEB000085F85400BE
:10283C0084F83D2151E401F095FC8BE6008793036D
:10284C0001F05EFD86E601F02BFD83E603F05EF8F9
:10285C0095F8563053B36B89E27CB4F87201A4F846
:10286C007E31012184F864111CE5A3F1F102A4F876
:10287C008621793B1AB2ECE694F86E21002A7FF49B
:10288C006FAFA4F86621F6E594F86E21002AADD15D
:10289C004FF47A73A4F866319FE594F86E11002911
:1028AC0089D14FF47A73A4F86631B4E594F86431A5
:1028BC00002B50D002F004FDCDE7AA6DB5F85010F6
:1028CC00914224D2B4F86C2192B2C72A1FD80026A8
:1028DC000122C4F8606185F8562085F8543002F066
:1028EC00E3FC84F86F61E5E5012184F83D1194F86F
:1028FC006A110022A4F8682100293FF485AC85F800
:10290C00543084F83D2172E403F000F87AE694F830
:10291C006E21002ADBD1A4F86621CBE5B4F8661150
:10292C004FF47A7089B2FFF729F894F8C22000F5B9
:10293C007A739BB2A4F88231002A3FF44EAE2EE695
:10294C0002F0AAFF94F83D61002E3FF4B2AEF2E41F
:10295C0002F0DCFFA4E6FFF7C3FA0F4B42F2107152
:10296C0041F28832A9655A62012384F86431A1E7E7
:10297C00B4F8663195F85D209BB25B006FF4006192
:10298C000B449B1A9BB2A4F8823126E602F084FF1A
:10299C00E17C84F83D6138E60010004010B5104C25
:1029AC0094F89031012B15D094F89031022B03D070
:1029BC00BDE81040FFF76EBBD4F89401B0F5803F32
:1029CC00ACBF4FF6FF7080B2FEF72CFE002384F8EC
:1029DC00903110BDFEF7D4FB002384F89031E3E76F
:1029EC0000050020F8B54E4E4E4F96F85420B7F81F
:1029FC008431002A75D1013319B2B1F5B47FA8BF67
:102A0C001146B7F88621A7F88411013212B2B2F53B
:102A1C00B47FA8BF0022A7F88621B7F8882101321D
:102A2C0012B2B2F5B47F0B46A8BF002206EB4303EB
:102A3C00B6F86813B3F99830A7F88821B2883A4DE4
:102A4C003A4C0B4402FB03F385FB030197F82D2052
:102A5C00DB17C3EBE11302FB03F3D81784FB03234F
:102A6C00C0EBA30080B202F079FEB7F9863106EB19
:102A7C004303B3F99800B6F868331844B38803FBE2
:102A8C0000F085FB001297F82D30C017C0EBE21058
:102A9C0003FB00F084FB0023C017C0EBA30080B243
:102AAC0002F062FEB7F9883197F82D2006EB43034C
:102ABC00B3F99800B6F868331844B38803FB00F0F8
:102ACC0085FB0035C017C0EBE51002FB00F084FB62
:102ADC000034C017C0EBA40080B2BDE8F84002F08F
:102AEC0049BE013B1BB2002BB6BF40F267121A461F
:102AFC001346B7F88611A7F88421B7F88821013955
:102B0C00013A12B240F2671009B231EA210128BF32
:102B1C000146002AA7F88611B8BF024686E700BF17
:102B2C000000002000050020D34D62106766666629
:102B3C00294938B54B6A294C294D9BB20022A4F87F
:102B4C0056314A62B4F85631AA6D02EB420212FABF
:102B5C0083F39B08AB65AA6D94F8C03002FB03F3BA
:102B6C00AA6DC3F38F13C3EB520292B2A4F85A317D
:102B7C00A4F85C2103E0D4F86031042B05D94A6A2F
:102B8C00B4F85C319BB29A42F5D3FFF7A9F9002156
:102B9C0084F83A11D4F86031627F84F83B11013328
:102BAC00C4F8603194F826301A4305D1AA6DD4F8D4
:102BBC00C8309A4208D338BDD4F86031132BFAD9F7
:102BCC00AB6DB3F5FA6FF6D8002385F85630BDE837
:102BDC00384002F075BB00BF00100040000500201B
:102BEC0000000020F8B5CD4CB4F89821B4F89A3117
:102BFC00B4F88001A4F86C0101320133B4F89C11D3
:102C0C0094F8A001A4F89821A4F89A31B4F89E2164
:102C1C0094F87C31013101320343A4F89C11A4F8DF
:102C2C009E2141D194F8A121002A3DD0B4F86851DD
:102C3C00002D40F02682B4F8A23101339BB244F649
:102C4C0020618B42A4F8A2312ED9B4F8A4311E2BEA
:102C5C0040F2878294F8243001218B4284F87C1155
:102C6C0040F08482B4F8A611AD484B08A0FB0303D6
:102C7C00DB09B1F5B97F84F8A0310DD3A94F4AF621
:102C8C00AA2601F0A7FA6420FEF78AFE94F8A03178
:102C9C003E600135AB42F4DC94F8C33094F8C220AA
:102CAC00134301D184F82630E17F81B19E4BB4F8F7
:102CBC00A82193F86A33013B01320B4492B203EB27
:102CCC008303B2EB830FA4F8A82100F3FB8094F8E4
:102CDC006E61002E40F0C380934D94F8641195F80A
:102CEC005630002B40F0C180B4F89E31142B52D9D1
:102CFC00012294F8C13084F8AB210022A4F89E2163
:102D0C00002B40F02781637F002B00F0B28100295B
:102D1C0041D0B5F86E33AE6DD5F88023D5F8787305
:102D2C00D5F89003F61A07FB06228242A8BF02468A
:102D3C0040428242D5F88833C5F87063B8BF02466A
:102D4C00D5F87C03C5F88023F31A00FB03F3D5F800
:102D5C007403C5F8843300FB06331344D5F894236D
:102D6C00C5F888639342A8BF134652429342B8BF3A
:102D7C001346D4F88C21C5F88C331A446B4B22EAD9
:102D8C00E2729A42A8BF1A4694F87431C4F88C21A6
:102D9C00002B40F0308194F8C430B4F89C01B4F8A6
:102DAC007E21984235D90023A4F89C31D4F86031A7
:102DBC00952B00F2C18095F84830DBB2B4F86C0169
:102DCC0085F8983380B2801A984203DD981880B247
:102DDC00A4F86C01B4F86C0180B2101A83421ADAB0
:102DEC00D31A9BB2A4F86C3194F87C31BBB9C1B145
:102DFC00B4F872312E2B14D8637B012B00F07F8139
:102E0C00022B40F08281012384F8CC3084F8AE315F
:102E1C000FE0A4F86C2194F87C31002BE7D000294A
:102E2C0067D194F83D31002B53D1207F022800F05C
:102E3C002B81B4F86C31EA883D499BB202FB03F359
:102E4C00A1FB0313C3F3CF13A4F8B0313949B4F881
:102E5C006C01A4F87E01C1E90D33CA62CB63B4F8EE
:102E6C00B4310133A4F8B431F8BD00293FF43CAFC0
:102E7C0002F01AFA02F010FA95F85230002B40F0DA
:102E8C001A81002840F0348194F83B3195F8532096
:102E9C000133DBB29A4284F83B3138BF84F83A01F3
:102EAC0094F844315BB995F85230002B00F04C810A
:102EBC0094F83A3195F86B239A42C0F04C8194F80F
:102ECC00641111E70122002384F8AA21A4F8A83187
:102EDC00FDE6EA88B4F88231154902FB03F381FB65
:102EEC000301DB17A3EBE11313449BB2A4F8B0313D
:102EFC00ACE7B4F872312F2B7FF67CAF94F8AE317F
:102F0C00EA88002B00F0E6800023217D84F8AE31A6
:102F1C00B4F8B03184F8CC1098E700BF000500205D
:102F2C00B9D31FB1003000400000002060E3160050
:102F3C00D34D6210002C0140952A7FF63CAFD4F89B
:102F4C004031B3F5FA7F8CBF95F8493095F84A308B
:102F5C00DBB233E700293FF41EAF94F82C30B4F900
:102F6C00AC612A6BAF6A286C03EB830303EB83031E
:102F7C00A6EBC30607FB06228242A8BF02464042CC
:102F8C008242AB6B2E62B8BF0246E86A2A63F31A20
:102F9C0000FB03F3686A6B6300FB063313446A6C33
:102FAC00AE639342A8BF134652429342B8BF134636
:102FBC00704AEB6382FB0302DB17C3EB2233B5F8D9
:102FCC009420D31A2A891BB29342A5F89430BCBF23
:102FDC0013B2A5F89430B3F5FA6F03DD4FF4FA632E
:102FEC00A5F89430637F002B7FF493AE94F8743182
:102FFC00002B3FF4D0AEB4F87631D4F89461AA6FBC
:10300C002F6FD5F88800F61A07FB06228242A8BF5C
:10301C00024640428242D5F88030AE66B8BF0246C6
:10302C00686FAA67F31A00FB03F3E86EEB6700FB0B
:10303C0006331344D5F88C20C5F880609342A8BFA2
:10304C00134652429342B8BF1346D4F87821C5F8C0
:10305C0084301A44484B22EAE2729A42A8BF1A46BC
:10306C00D4F86031C4F87821632B9CBF0023AB6784
:10307C0091E694F87431002B3FF48DAE0029BAD14F
:10308C0089E6A4F8A2310FE694F87C31002B3FF4CA
:10309C00D0AE02F079FCEA88237B384902FB03F3BB
:1030AC00A1FB0313DB0903EB83035B0071339BB2BE
:1030BC00A4F8B031CAE6D8B194F83B3195F8532056
:1030CC000133DBB29A4284F83B31BFF4E9AE84F8A9
:1030DC003A61E5E6B4F86C3128499BB202FB03F384
:1030EC00A1FB0313DB0901339BB2A4F8B031ADE6AD
:1030FC0094F83A310133DBB284F83A31D0E600224D
:10310C0084F8CC2084F8AE3193E6DA1E062A3FF61A
:10311C0090AE94F8AE2152B9023B42F2107284F890
:10312C00B231A4F89821012384F8AE3181E694F8E9
:10313C00B231002BF7D194F8AE21012A04BFC4F8A8
:10314C00603184F86431EEE794F83A3195F86C23E9
:10315C009A42BFF4B4AE012384F84431FFF7E8FC83
:10316C00ADE684F8A151A4F8A2519DE501F032F826
:10317C0092E500BFAD8BDB68F0583801D34D62107F
:10318C002DE9F04F83B002F05BF94FF47063BF4A46
:10319C00D3F8E010914205D1BD4AD3F8E410914226
:1031AC0000F02E84BB4DBC4C02F026FA02F0F8FA6B
:1031BC00FEF7F0FCE378022B03D12379152B00F0FA
:1031CC00578441F202510423A4F803102A68B24830
:1031DC006370C02102F0A4F8637C227DA988E98089
:1031EC00013B18BF012385F8543002B9E27494F8FE
:1031FC002630BBB12889B5F89A136B8900220126B9
:10320C004FF47A77323032313233AF832881A5F8DC
:10321C009A1385F84B60C4F81260627384F8CC2062
:10322C00A2756B8100F05AFF0023A4F8A43102F0C0
:10323C0045F99A4B4AF6AA221A6001F0D9FE94F885
:10324C00753113B1012384F8743101F05BFF934F96
:10325C00DFF84C92DFF84C82DFF84CA24AF6AA2633
:10326C00B4F84A11B4F84831B4F84C21B4F84E0112
:10327C000B441344B4F85011B4F8522103440B44DA
:10328C001344D4F8602104335B10042AC4F894313D
:10329C0000F20982A37C002B14BF04220622637D5A
:1032AC0085F86B23012B85F86C233E6000F072824D
:1032BC00022B00F01382B4F8B43142F21072934234
:1032CC000BD994F87C2102F0FF0B002A40F07F838D
:1032DC0049F64042934200F2B183B4F8982144F687
:1032EC0020639A4216D9B4F9AC31D4F8B8211B0436
:1032FC0089FB03011944DB17C3EB212394F8B211AA
:10330C0013440022C4F8B831A4F8982111B1013942
:10331C0084F8B211D4F86021B4F86831B2F57A7F30
:10332C0000F2AE81002B40F0AE81D4F8601194F81D
:10333C00BC1184F87031002900F00482002384F859
:10334C007031D4F8942194F83C1188FB0203A3EB60
:10335C00E273C4F8403121B1D4F860310A2B00F289
:10336C00338294F8C531002B00F0A880AB6D322B62
:10337C0040F2A4804D4B1022002183F80B1383F8EC
:10338C00152383F80C2394F8AA3103F0FF0B002BC0
:10339C0040F0A48094F8CA31002B40F0F38194F8EB
:1033AC00ABB1BBF1010F00F0B48094F86E314FF06B
:1033BC00000B84F8DBB1002B40F02E8194F86431C3
:1033CC003B4AD4F894113B4892FBF1F213FB02F305
:1033DC009BB2A0FB032095F84B20A4F8C831C00881
:1033EC00A4F8DC01002A40F02C824FF4FA60B4F807
:1033FC00C63194F82B10A5F892001BB28B4200F347
:10340C002C82D4F86031632B00F2A081AB6DB3F544
:10341C00FA7F40F29B810C20AB6D85F85C00312B60
:10342C009CBF022385F85C3094F82F30002B40F0C1
:10343C002482214A526A4AF6C8739A427FF610AF28
:10344C0094F864314FF0000B84F8AEB1002B3FF4CC
:10345C0007AF94F87031013384F87031237D84F810
:10346C00CC3001F021FF012385F85630B4F87231CD
:10347C002F2B04D841F2883384F864B1AB65002358
:10348C00C4F86031FFF754FBEAE600BFDAE32559D4
:10349C00D963B84E00000020000500200030004029
:1034AC00B7600BB6565555551F85EB5100E100E042
:1034BC00C0270900CDCCCCCC00100040BC4B002266
:1034CC00102183F80B1383F8152383F80C2394F83D
:1034DC00AA3103F0FF0B002B3FF45CAFB4F8C6012C
:1034EC00B4F9BA31B4F8C821B4F8A61100929BB261
:1034FC00B4F8AC2140B2FEF7F5FA0A2002F090FCC9
:10350C0094F8ABB10023BBF1010F84F8AA317FF41E
:10351C004CAF01F0B5FC5946A64801F075F8B4F86B
:10352C00CC0101F04FFD94F8CD30B4F8D0E1A4F803
:10353C00CE0104EB43010133DBB2322B28BF002355
:10354C00A4F8C60184F8CD309B48B4F8CEC0D4F8AA
:10355C00D02040F6E44303FB0EFEA0FB0EB0AEEB16
:10356C00000E00EB5E00B1F8D4E0A1F8D4C06244C8
:10357C00A2EB0E02C4F8D020AAFB0221B5F89C23C2
:10358C00C00A02FB00F0AAFB0020B4F8A621C2EB93
:10359C00C20202EB5012C1F30F1000FB03F3C4F88C
:1035AC00D4018648A0FB030343F30F2323EAE37300
:1035BC00A4F8AC3194F82430D2100909012BA4F8EA
:1035CC00A621A4F8381100F09681022B0ED1237A93
:1035DC0003EB830392B203EB8303B2EB430F80F252
:1035EC009381B4F8D8310133A4F8D83194F86E3102
:1035FC007348B4F8D81142F2107200FB03229142C6
:10360C0000F38A8100224FF0000B84F8AB2184F880
:10361C00DBB1002B3FF4D2AEB4F87231302B44D96D
:10362C0094F87C21002A40D0313B0122572B84F89E
:10363C00AB2100F2908194F8DE31002B40F0ED814B
:10364C00FFF7D0F9E37EB4F8720141F6583140F23D
:10365C002A32B2FBF3F2B1FBF3F300923021782261
:10366C00FEF76AF9A5F8A00380B2FEF78DF9B5F85C
:10367C00A0234FF41673B3FBF2F3A4F8C831EFE5B3
:10368C00002284F87021D4F86021E17C642A4BD9A3
:10369C00C72B67D994F8BC21002A6FD0B3F5C87F2B
:1036AC00BFF44FAE4AE60322F9E594F81CB00122B0
:1036BC000023934584F8643184F8DE2100F0EB801C
:1036CC00BBF1020F00F003813E4AC2E90D33D36314
:1036DC0002F01CF90023A4F8C831C1E5D4F840313C
:1036EC00F92B0AD8D4F84031642B06D9D4F84031E0
:1036FC0003EB430203EB8203EB80D4F84031632BE2
:10370C0005D8D4F8403113B140F21453EB80D4F8FF
:10371C004031F92B04D8D4F84031002B7FF4CBADD9
:10372C0040F6B243EB80C6E594F8BC2100293CD0AE
:10373C009F2BB1D8002184F87011002A7FF4FEADC4
:10374C00952B1BD8642385F85E30FAE50C23009387
:10375C00D4F8400103234FF4FA726421FEF7ECF81D
:10376C00C0B259E6002284F8702194F8BC210029DB
:10377C00E3D09F2BDED9002A7FF4E0AD0A2385F835
:10378C005E30DEE5FEF7D8F9312002F049FB84F813
:10379C00CAB104E6AB88A86D0093C8225B0860210F
:1037AC00FEF7CAF8637DE88082E5002AC8D075E789
:1037BC0000E100E00024014001011000FF04EC4F87
:1037CC0054D9FFFF002C0140D4F84011D4F8C001AB
:1037DC00FEF7D4F8D4F84031B0EB530F24D9D4F819
:1037EC004031B3F5FA6F1FD294F8C431013384F829
:1037FC00C431A37C0022C4F86021EBB9B4F8723157
:10380C002F2B19D9002384F86431D4F86031642B40
:10381C0084BF41F28833C4F840316B8901225B08C4
:10382C0085F85620A4F87E31D4F84031C4F8C03164
:10383C00002284F83C2194E5AB6DB3F57A7FE4D992
:10384C00E0E7B5F89E330093AB8BB5F84E20B5F896
:10385C004C10FEF771F880B2C9E5B5F89E33B4F898
:10386C00C6010122009200B201F10A025B080A397A
:10387C00FEF762F8A5F89200C3E5B4F86C011723C3
:10388C00009380B20D234FF4FA626421FEF754F8D2
:10389C0084F85801CDE594F82930EA887B4903EB8C
:1038AC00830303EB8303DB009BB2A4F8823102FB9E
:1038BC0003F381FB0301DB17A3EBE11313449BB26E
:1038CC00632BA4F8B0313BD802F00EFA02E758464D
:1038DC0002F05AF8E988237B6D4A01FB03F36B492C
:1038EC00A1FB0313DB0903EB83035B007133C2E918
:1038FC000D33D363EEE694F8A031298B92B201FB21
:10390C0003F39A42FFF66DAE94F8DA31002B7FF494
:10391C006DAEA4F8D83169E601234FF0000B84F8A2
:10392C00DA31A4F872B101F0F1FF01F0BDFC94F8AA
:10393C006E3184F864B1A4F8A4B184F87CB161E66A
:10394C0001F0AAFF524BB4F8B02184F83DB1C3E9A1
:10395C000D22DA63BEE684F8DE21FFF743F8B4F8F3
:10396C007231C82B04D95023A4F884B1A5F8A03324
:10397C00B5F8A003FEF708F8B4F98431002B7FF4F6
:10398C006FAC84F86E3184F83D31424942F22833F1
:10399C00AB650122C4F8403185F8562084F86421C7
:1039AC00D4F840214B62C4F8C021637F95F8A22360
:1039BC0085F855201422C4F860211BB1B5F89A3350
:1039CC00A4F87E31FEF78CFA01F0DAFE48E401F03F
:1039DC009DFF2F4B002584F87C515D6384F8A15129
:1039EC009D63DD63A4F87251A4F8A45101F0D0FEDC
:1039FC0029484FF48072294602F0AAFCFEF7B8F869
:103A0C0093F8EC30254D2B2B38D0352B3AD01F2B7F
:103A1C0004BF234B2B60FFF7C6BB224AD36823F0AD
:103A2C000103D36001F040FC194BC3E90DBBC3F893
:103A3C003CB002F097F984F8DEB101E601F066FFC4
:103A4C00134B84F87CB1C3F834B084F8A1B1C3F83B
:103A5C0038B0C3F83CB0A4F872B1A4F8A4B101F02A
:103A6C0097FE4FF4807259460B4802F071FCC5E783
:103A7C006378032B3FF6B0ABFFF7A3BB0A4B2B606D
:103A8C00FFF791BB094B2B60FFF78DBBD34D621039
:103A9C00002C0140001000403807002000000020DE
:103AAC00007C00080044014000F8010800F8000800
:103ABC00F0B5634CD4E90020801A6FF4487240F2E0
:103ACC00765382189A4283B034D85E4E5E4D0023F2
:103ADC0033802B78002B4FD06B780146ABB9AB7889
:103AEC00002B00F09580A888584F01333988AB70B3
:103AFC00FDF744FF32286DD900223B882A706A7882
:103B0C00AB809AB1D4E90031C91A40F2E14291423A
:103B1C00AB7909D84E480288C2EBC20201330A4481
:103B2C00DBB2D208AB7102804B2B74D80023A8688F
:103B3C00338004E04449474B886800221A80464988
:103B4C00464A0B8812689BB2C31A93420B8805DD58
:103B5C0012FA83F39BB20B8003B0F0BD9BB21B1A1D
:103B6C009A4205DA0B889B1A9BB20B8003B0F0BD0E
:103B7C0080B2088003B0F0BD394A947C7CB1394ADC
:103B8C00128890421AD832494FF47A7409880094FA
:103B9C00FDF7D2FE04460023AC603380CFE72B4BFD
:103BAC001A882B4B198840F2FF7300932F23FDF7D3
:103BBC00C3FE3028CCBF04462046ECE7234B511CF7
:103BCC001A884FF4FA63009340F2E933FDF7B4FE20
:103BDC000446E0E73A8863682168C2EBC2025B1ACC
:103BEC001344AA78C3F3CF03322A3B8087D9193BFD
:103BFC009BB23B80A3F2D663194A03EBD3735B10E1
:103C0C0082F8213001236B7000F01AFB3B8876E7B9
:103C1C0080B2A88068E70E4A1149138819339BB209
:103C2C001380A3F2EE2303EBD3735B10002481F813
:103C3C0020302C70FEF74AF9AC7100F031FB75E7BF
:103C4C0038070020B40600200C07002012000020CA
:103C5C0010000020A406002066060020B8030020F7
:103C6C0000050020140000205E4BF0B55E4F196873
:103C7C00002544F6206E1A46A7F804E003F17804F8
:103C8C00AC462E4652F8043F9942A3EB010019466C
:103C9C0006D070453CBF1FFA80FE012684440125E6
:103CAC009442EFD10DB14FEA5C15504850496EB1BA
:103CBC000378A7F804E0012BCD6037D04D4A147877
:103CCC00012C0DD00BB91478ECB1F0BD0378CD609C
:103CDC00012B00F08480474A44F6206E1478F1E7FB
:103CEC00AEF1C904A4B244F65656B442EAD8DFF891
:103CFC0008C1424E012414708CF8004077243470B3
:103D0C000224BC71DEE70EF1FF34022C2DD83B2DC2
:103D1C00DBD83A4A3A4C13700123374A0B740E2104
:103D2C00217020210370B9711370F0BD0EF1FF32B8
:103D3C00022A3FD83B2D43D82F4E304C304A0B74BF
:103D4C0003703370002323700E2313702023BB7178
:103D5C00284A1478012CE3B2B7D1AEF1C904A4B24D
:103D6C0044F65656B442C2D9AFE7AEF10403042B65
:103D7C0010D9AEF1C9039BB244F656518B42A4D86C
:103D8C0001231E4813701C49772202700222BA715B
:103D9C000B70F0BD632D98D8184A194C0123137081
:103DAC0003220A740721144A217020210370B9716F
:103DBC001370F0BDAEF10402042AC9D8632D02D9E8
:103DCC000C4B1B78F0BD0D4A0B4C137023700C4A36
:103DDC0003230B74072313702023BB71B8E744F63D
:103DEC00206EB5E738070020B8030020C20500207C
:103DFC000C070020C3050020A1060020C2030020F0
:103E0C00C303002070B5564C237813B1554B1B7867
:103E1C003BB9554B1A78002A6FD01B78012B0AD06E
:103E2C0070BD524B1B78002B54D001F0E1F8504B75
:103E3C0002221A7070BD4B4B1B78002B50D14D4D8C
:103E4C002B78012B74D04C4B1B78012B67D023782B
:103E5C00002BE5D12B78EBB1484A537C072B19D8B2
:103E6C0047490988052915D94648C16F00680133AF
:103E7C00091A5069DBB210FA81F1082B53745161A5
:103E8C0008D1C1F3CF034048C1F3CF115C185B1AC2
:103E9C00048113833D4C2088002838D03C4BDD79BD
:103EAC00002DBDD1364A40F2DC5398421580B7D96B
:103EBC00324E718BFDF762FD32284FD8337F0133C0
:103ECC00DBB2322B337702D97578002D42D02388A0
:103EDC00738370BD01F0C6F8254B01221A7070BDBA
:103EEC00224B1B787BB12B4B1888FDF79BFBFDF706
:103EFC0047F9BDE8704001F07BB8FFF7B5FEBDE8AF
:103F0C00704001F075B8BDE8704001F0ABB81B4BC8
:103F1C001B7893B91A4A13880133138070BD01F0D2
:103F2C00EBF8194B88B103229A7101F061F88EE716
:103F3C00FDF726F901F05CF885E7154BDB79002BD2
:103F4C007FF46EAF0E4A138070BD02229A71FFF798
:103F5C00AFFDEAE700F0D4F9012333703577B6E70B
:103F6C007C060020C5060020A10600203407002096
:103F7C0090060020C2050020C30500200C0700207D
:103F8C00A406002038070020B80300206806002093
:103F9C0000050020940600200B28034B28BF0B20A3
:103FAC0000EB400018707047290700202DE9F84FEE
:103FBC00404E414FDFF80491DFF804B1032001F0CB
:103FCC00E3FC344606F17C0A00254AF6AA2833E0C5
:103FDC00002A53D03B494FF47A604FF0F70C1CFB8E
:103FEC00020C4FF0090E384A3848B2FBFCF2B0FB19
:103FFC00F2F0374AC1F828E080B2C862127800FBB0
:10400C0002F28BFB0202D20AC1E90D22CA63FF2223
:10401C0012FB05302F4B0CFB00F0A3FB0030C0F360
:10402C004F30FDF7BDFC96F83300EF284FF000053C
:10403C0015D80234544521D094F8343094F83520F6
:10404C00C9F8008000213980002BC1D0FF2B24D16E
:10405C002AB396F833000135EF28EDB2E9D9194BA4
:10406C00C0F1FF00002200EB8000C3E90D22DA63EF
:10407C0040000234FDF794FC5445DDD101F046FCC0
:10408C001548104A00880D4900239362D0624AF605
:10409C00AA223B800A60BDE8F88F002A9AD1094A0F
:1040AC000021FF20C2E90D11D16300FB0530FDF7A3
:1040BC0077FCB8E700050020B40600200030004073
:1040CC0057EAE068002C014080969800001BB7006E
:1040DC00290700205172A6BE0400002010B572B64C
:1040EC00032001F051FC1A4B93F83030FF2B07D012
:1040FC00FFF75CFF174A184B1288DA6262B610BDE4
:10410C00154C164B41F28732E2621B78E363C4E92B
:10411C000D33032001F038FC3723A362C820FDF7D0
:10412C003FFC052001F030FC2823A362C820FDF7DA
:10413C0037FC062001F028FC1923A362C820FDF7E8
:10414C002FFC01F0E3FB064A0023A3621380D1E7A6
:10415C000005002004000020002C0140290700204D
:10416C00B406002070B5164C41F28733E36272B688
:10417C00144D154B3C224AF6AA262E60A2621B78DF
:10418C00E363C4E90D33012001F0FEFB4B20FDF786
:10419C0007FC5023A3624B20FDF702FC5A23A362B9
:1041AC004B202E60FDF7FCFB01F0B0FB074A0849E1
:1041BC0012880023A3620B80E26262B670BD00BF5E
:1041CC00002C014000300040290700200400002092
:1041DC00B406002010B572B6144C154A154B4AF6AD
:1041EC00AA2141F28730E06211605022A2621B7852
:1041FC00E363C4E90D33032001F0C6FB6420FDF733
:10420C00CFFB4623A3626420FDF7CAFB2823A362DD
:10421C006420FDF7C5FB01F079FB074A07491288BA
:10422C000023A3620B80E26262B610BD002C014039
:10423C00003000402907002004000020B4060020B4
:10424C0010B5124C124B41F287313222E162A2625C
:10425C001B78E363C4E90D33022001F095FB962033
:10426C00FDF79EFB0B4A4AF6AA211E2311609620ED
:10427C00A362FDF795FB01F049FB074A0749128839
:10428C000023A3620B80E26210BD00BF002C014032
:10429C00290700200030004004000020B406002054
:1042AC0010B5124C124B41F287312822E162A26206
:1042BC001B78E363C4E90D33022001F065FB962003
:1042CC00FDF76EFB0B4A4AF6AA215023116096208B
:1042DC00A362FDF765FB01F019FB074A0749128839
:1042EC000023A3620B80E26210BD00BF002C0140D2
:1042FC00290700200030004004000020B4060020F4
:10430C002DE9F041154D41F28733EB6272B6144B37
:10431C00DFF850801B78144FEB63C5E90D3377241D
:10432C004AF6AA26A7FB04300009C8F8006001F081
:10433C002BFB0A2063100344AB62023CFDF730FBFD
:10434C00631CEFD101F0E2FA084A094912880023F4
:10435C00AB620B80EA6262B6BDE8F081002C0140D2
:10436C002907002000300040CDCCCCCC040000202C
:10437C00B4060020002103E00B4B5B584350043182
:10438C000A480B4B42189A42F6D30A4A02E0002321
:10439C0042F8043B084B9A42F9D301F0B9FD01F005
:1043AC00B3FFFEF7EDFE7047D46300080000002059
:1043BC00C8030020C803002058080020FEE70000B6
:1043CC00836861F300038360704700BF4FF0807314
:1043DC000360704743680A7862F30823436083687C
:1043EC004A7862F34103836083688A7862F3CB2353
:1043FC008360CB78C26A013B63F31752C262704789
:10440C00836861F308238360704700BF836843F0BF
:10441C0008038360704700BF8068C0F3C00070471A
:10442C00836843F004038360704700BF8068C0F367
:10443C008000704710B4112917D8DFE811F0120072
:10444C0079007E00830088008D00920097009C000C
:10445C00A100A600AB00B000B500BA00BF00C400BC
:10446C007400046963F302040461013A0F2A0DD845
:10447C00DFE802F013181D22272C31363B40454A49
:10448C004F54080EC36A61F38E23C36210BC70478D
:10449C00C36A61F3D333C362F8E7436B61F304037C
:1044AC004363F3E7436B61F349134363EEE7436BF9
:1044BC0061F38E234363E9E7436B61F3D3334363C7
:1044CC00E4E7436B61F318534363DFE7436B61F33A
:1044DC005D634363DAE7036B61F304030363D5E7BE
:1044EC00036B61F349130363D0E7036B61F38E2312
:1044FC000363CBE7036B61F3D3330363C6E7036B4F
:10450C0061F318530363C1E7036B61F35D630363EA
:10451C00BCE7C36A61F30403C362B7E7C36A61F320
:10452C004913C362B2E7C46863F35754C4609CE791
:10453C00046963F3C504046197E7046963F38814A1
:10454C00046192E7046963F34B2404618DE7046909
:10455C0063F30E34046188E7046963F3D1340461B6
:10456C0083E7046963F3944404617EE7046963F3AD
:10457C005754046179E7046963F31A64046174E7BE
:10458C00046963F3DD6404616FE7C46863F30204D8
:10459C00C4606AE7C46863F3C504C46065E7C468B3
:1045AC0063F38814C46060E7C46863F34B24C4608D
:1045BC005BE7C46863F30E34C46056E7C46863F306
:1045CC00D134C46051E7C46863F39444C4604CE7CD
:1045DC0001F00703072981688CBF41F0007121F0BD
:1045EC0000718160816863F353418160836862F379
:1045FC0014538360704700BF024B9A6860F3D75224
:10460C009A60704700240140836861F3965383607D
:10461C00704700BF20B9034BDA6961F30002DA611D
:10462C00704700BF0000014010B412490B6843F002
:10463C0001030B600B689B07FCD54B680D4A23F0FC
:10464C0003034B60536813F00C0FC3F38101F9D1D2
:10465C00136823F0867323F48033136041F61074CF
:10466C004FF480104FF41F035160D462106310BCE0
:10467C009360704700100240030C03F1804303F574
:10468C00043300F01F001A680123834093430CBFCE
:10469C0001200020704700BF030C03F1804303F599
:1046AC000433012900F01F0019684FF0010202FACF
:1046BC0000F20CBF0A4321EA02021A60704700BFE5
:1046CC00030C03F1804303F50433012900F01F00B0
:1046DC0019684FF0010202FA00F20CBF0A4321EAFA
:1046EC0002021A60704700BF042809D8DFE800F006
:1046FC00090F151B03000F4B5A6A61F300025A6233
:10470C0070470C4B1A6861F300021A607047094B32
:10471C001A6861F310421A607047064B1A6861F30D
:10472C0018621A607047034B1A6A61F300021A622E
:10473C00704700BF00100240024B5A6860F307122A
:10474C005A60704700100240024B5A6860F30A220C
:10475C005A60704700100240024B5A6860F3CD2239
:10476C005A60704700100240054B5A6860F38F3254
:10477C005A605A68C0F3800060F31C725A6070472C
:10478C0000100240134B5A68A0B960F310425A60F3
:10479C004FF0000C0F4B5A6861F395425A605A68FF
:1047AC00C1F3011060F35E725A60DA6A6CF31A623C
:1047BC00DA62704742F480325A6001285A6803D09A
:1047CC0042F400325A60E3E722F400324FF0020C5C
:1047DC005A60DFE700100240024B5A6860F3010296
:1047EC005A60704700100240024B5868C0F38100B9
:1047FC00704700BF0010024038B53F4D6B6813F096
:10480C000C0F0446C3F381024CD0022A26D03B4B3A
:10481C003949236048683A4A3A4DC0F30310105C9A
:10482C00C34063604868C0F302201044007C23FA44
:10483C0000F0E0604868C0F3C220285CC340A3606D
:10484C0048684968C0F30070C1F3813141EA8001C6
:10485C000A44127EB3FBF2F3236138BD6968EB6A3C
:10486C00002BC1F3004128DAEA6AEB6AC2F3031C9D
:10487C00EA6AC3F3082302F00702002936D06968FC
:10488C00214811F4003F1D4908BF08460021A3FB35
:10489C00000503FB01F10CFA02F20023FCF710FCFB
:1048AC000346B5E76B6D9905B1D5296B134A174BC8
:1048BC0011F0007F08BF1346AAE76B686A6812F014
:1048CC00C04FC3F38343C2F341700BD10F2B09D0FC
:1048DC00023319B1084A5268920309D50A4A02FBFD
:1048EC0003F395E7013303EB0013F2E70648CEE739
:1048FC00024A02FB03F38BE70010024000127A001D
:10490C0094630008A463000800093D00006CDC02FD
:10491C00044A536D01280CBF43F0300323F03003DD
:10492C0053657047001002400168002221F001011C
:10493C00C3B210B4083B0160026042608260C26086
:10494C00A2F13332064CA2FB03231B0961689B00C6
:10495C000F2202FA03F30B43636010BC704700BFD5
:10496C0000000240036861F300030360704700BF5E
:10497C00034B1B68034214BF01200020704700BF8B
:10498C00000002400023C0E90033C0E90233038277
:10499C00704700BF03684BF6EF72134010B403600E
:1049AC0002680B891343036003684A7C62F30D337E
:1049BC0003600368CA7B62F38B23036003688A7B02
:1049CC0062F30923036003684A7B62F3C713036035
:1049DC0003680A7B62F3861303600A7C036862F344
:1049EC0045130360D1E900234C8944608260C360A5
:1049FC0010BC7047014BD860704700BF00200240CC
:104A0C00024B0349034A59605A6070470020024028
:104A1C0023016745AB89EFCD024A136943F080034C
:104A2C0013617047002002401B4A136943F00203D4
:104A3C0013615061136943F040031361D368D907C4
:104A4C0009D4D3685B0720D50120134A136923F0DE
:104A5C000203136170474FF08043D168C80703F11C
:104A6C00FF330CD4D16849070DD4D068C0F30010C3
:104A7C00C0F10300C0B2002B08BF0420E5E7002BF7
:104A8C00EBD10420E1E70120F5E7D068C0F300107A
:104A9C00C0F10300C0B2D8E700200240194A1369E4
:104AAC0043F0010313610160D368D90709D4D368BB
:104ABC005B0720D50120134A136923F0010313610E
:104ACC0070474FF48013D168C80703F1FF330CD43F
:104ADC00D16849070DD4D068C0F30010C0F10300B1
:104AEC00C0B2002B08BF0420E5E7002BEBD104205B
:104AFC00E1E70120F5E7D068C0F30010C0F1030036
:104B0C00C0B2D8E7002002400A88002A3CD02DE928
:104B1C00F041002303254FF0010E4FEA430CD4075C
:104B2C0005FA0CF60EFA03F728D5046824EA0604F5
:104B3C0004608C79D0F8008004FA0CF444EA080480
:104B4C000460446824EA070444600C7947689C407C
:104B5C003C434460846824EA06048460CC7987680A
:104B6C0004FA0CF43C438460C46824EA0604C46070
:104B7C004C79C66804FA0CF43443C460520803F14F
:104B8C000103CAD1BDE8F081704700BF01F0070CEA
:104B9C004FEA8C0C0F2303FA0CF3C90802FA0CF23F
:104BAC006FEA030306D0416A0B404362436A134326
:104BBC0043627047016A0B400362036A134303624A
:104BCC00704700BF1E4BDB68C3F3022300B5C3F173
:104BDC00070EBEF1040F03F1040C28BF4FF0040EB6
:104BEC00BCF1060F22D9A3F1030C4FF0FF3303FAEB
:104BFC000CF322EA03024FF0FF3303FA0EF321EA1F
:104C0C00030303FA0CF313431B010028DBB210DB84
:104C1C000C4A111881F800330123410900F01F00E0
:104C2C0003FA00F042F821005DF804FB00229446E0
:104C3C00E1E7054A00F00F00024413765DF804FB2F
:104C4C0000ED00E000E100E0FCEC00E008B52E4BCC
:104C5C0098421CD02D4B984223D02D4B98422AD0F1
:104C6C002C4B984209D02C4B98422ED02B4B98426F
:104C7C0035D02B4B98423CD008BD2A480121FFF778
:104C8C001FFDBDE8084027480021FFF719BD264845
:104C9C000121FFF715FDBDE8084023480021FFF76F
:104CAC000FBD22480121FFF70BFDBDE808401F484E
:104CBC000021FFF705BD1E480121FFF701FDBDE8EE
:104CCC0008401B480021FFF7FBBC1A480121FFF7E5
:104CDC00F7FCBDE8084017480021FFF7F1BC164867
:104CEC000121FFF7EDFCBDE8084013480021FFF758
:104CFC00E7BC12480121FFF7E3FCBDE808400F4870
:104D0C000021FFF7DDBC00BF002C01400004004077
:104D1C0000100040002000400040014000440140D1
:104D2C0000480140080010000B000C0001001000AE
:104D3C000400100010000C0011000C0012000C00FC
:104D4C00036861F3C7130360704700BF062909D8D5
:104D5C00DFE801F013080E0809080400C36962F3C8
:104D6C00CB23C3617047C36962F3C303C36170474C
:104D7C00836962F3CB2383617047836962F3C30356
:104D8C0083617047062909D8DFE801F0090E131872
:104D9C001D220400036A62F30C3303627047036A3A
:104DAC0062F3000303627047036A62F382030362D7
:104DBC007047036A62F3041303627047036A62F379
:104DCC00861303627047036A62F308230362704719
:104DDC00036A62F38A230362704700BF2DE9F04136
:104DEC0086B0054601A817461E468846FFF704FD07
:104DFC00DDE90334114A954208BF1C4604EB8404D8
:104E0C006400B4FBF8F10E4CA4FB0134E40804EB91
:104E1C008403A1EB43010429AB6888BF0134A4B21D
:104E2C0064F30F03AB60EB6867F30C33EB602B6937
:104E3C0066F30D332B6106B0BDE8F08100380140FC
:104E4C00CDCCCCCCC36861F34D33C360704700BF8D
:104E5C00C36861F3C303C360704700BFC36861F3E9
:104E6C008203C360704700BF436961F3C71343619A
:104E7C00704700BF436961F3C3034361704700BFD0
:104E8C00064B0748B3F806C00649074AA0F800C00D
:104E9C0018885B8808801380704700BF2C0700209F
:104EAC00CC060020D0060020CE05002010B54023F3
:104EBC0086B0002203214FF09040FCF7F1FD08234F
:104ECC00002203214FF09040FCF7EAFD01214FF442
:104EDC00A010FFF7E1FB3448344CFFF725FD01A887
:104EEC00FFF750FD3248334A0492CDE901044FF4E8
:104EFC00802300F55B4001A90393BC3040F20123F1
:104F0C00ADF81430FFF746FD27480121FFF72AFDC5
:104F1C0001212948FFF7C0FB0720FFF725FC684655
:104F2C00FFF754FA254B264800936946FFF752FACF
:104F3C000323194622480122FFF77CFA2048032359
:104F4C0002220621FFF776FA03231A461C48112188
:104F5C00FFF770FA0723042210211948FFF76AFAA9
:104F6C000120FFF749FB012215480721FFF730FB11
:104F7C0013480121FFF744FA11480121FFF720FAE9
:104F8C000F48FFF743FA0E48FFF746FA0028FAD10C
:104F9C000B480B4CFFF744FA2046FFF747FA002862
:104FAC00FAD106B010BD00BF080002402C0700204B
:104FBC004C2401400001010109001800010000040B
:104FCC000024014048F2E80303FB00F00028B8BFBE
:104FDC0000F6FF70054B0013C0F5485083FB00230F
:104FEC00C017A0EBE300193000B27047310CC3308E
:104FFC0038B5164D164CAB6DAB652046FFF726FE4B
:10500C00144B41210B22A16122621A78A2624FF645
:10501C00FF73E3626269104B002142F0010262618E
:10502C0003F8041B0D4A61622A660D4A6B661378FD
:10503C00EB65E36843F40073E360236843F001031A
:10504C0040F68B122360AA6538BD00BF00000240F9
:10505C0000400140C20300203407002034400140CE
:10506C00BE03002038B51D4D1D4CAB6D43F0100335
:10507C00AB652046FFF7EAFD60210323194AA161C5
:10508C0023621278184BA2624C210122E1621A7041
:10509C0063691649164A43F001036361154B29668F
:1050AC006A665B781733EB65AB6D43F00203AB6557
:1050BC00AB6D43F00803AB65AB6D43F00103AB651F
:1050CC00E36843F40073E360636C43F4004363648C
:1050DC00236843F00103236038BD00BF0000024089
:1050EC00004001401C0700203407002034400140E0
:1050FC0034040020C20300204FF09043186900F0E4
:10510C00040070470423012202214FF09040FCF769
:10511C00D3BC00BFFEE700BFFEE700BFFEE700BF49
:10512C00FEE700BF704700BF704700BF704700BF6D
:10513C00704700BF10B50220FFF71AFC012800D001
:10514C0010BD054C6060FFF79BFE0820FFF710FCBC
:10515C00012808BF606010BD0000024010B5194B5B
:10516C001C788CB94FF40030FFF702FC01281AD0E0
:10517C004FF40020FFF7FCFB012800D010BD124BB0
:10518C004FF480325A6010BD0F4B4FF480325A608E
:10519C009A6D22F001029A65FEF734FE0B4B4FF428
:1051AC0000421A6110BD084B4FF480325A609A6D60
:1051BC0064F300029A65FEF725FE044B4FF400429F
:1051CC001A61D5E7C205002000000240000401402E
:1051DC0008B50D4A0D4B5B6A1268B3EB520F07D939
:1051EC000B4B4FF400125A61BDE80840FCF718BF96
:1051FC0000F052F8074B1B78984200D008BD044BC6
:10520C004FF400125A6108BD400600200010004007
:10521C000004014052000020024B4FF6FE721A614E
:10522C00FDF7E0BC00200040024B00221A61FCF7A5
:10523C00AFBE00BF00440140034B4FF6FE714FF66A
:10524C00FD7219611A61704700400140704700BF40
:10525C00074B1A69910744BF4FF6FD721A61044B54
:10526C001A69D20744BF4FF6FE721A61704700BF2D
:10527C0000040040064A07491368013313604B6968
:10528C001B0400D470474FF400434B61FDF786BB01
:10529C003808002000040140024BD869C0F380702C
:1052AC00704700BF00000140044B1A684FF4001116
:1052BC0022F400121A605961704700BF00040140CB
:1052CC00024A136843F40013136070470004014052
:1052DC000F4B1A68B2F5C87F04D20E49CA6922F086
:1052EC000402CA611B68B3F5167F04D9094AD36955
:1052FC0043F00403D3610849084A0B78B3FA83F3EB
:10530C005B095B0593600B785B05D360704700BF4E
:10531C004006002000000140520000200004014023
:10532C002DE9F0430029B4BFCE1C0E4626F0030332
:10533C00073383B023F0070300AFADEB030DB610BA
:10534C006D4688468146144600213246284600F0B8
:10535C00FFFFB8F1030F17DD4846291F00228378A1
:10536C0090F8038090F800E090F801C01B0443EA29
:10537C00086343EA0E03013243EA0C23964241F8D8
:10538C00043F00F10400EADC3E60FFF739FBC4F394
:10539C000903CBB100230CE078687B6804EB800038
:1053AC0055F82310FFF77AFB0320FFF723FB7B68EC
:1053BC0001337B607A683B689A42EDD3FFF72CFB94
:1053CC000C37BD46BDE8F0832046FFF72DFBE1E727
:1053DC00002A12DD531E052B01F1010C03D9A0EBA1
:1053EC000C03022B0AD8431E1A44ACEB0000C15C20
:1053FC0003F8011F9342FAD17047704730B522F081
:10540C0003054C190B46A0EB010ED3F800C04EF867
:10541C0003C00433A342F8D1AA420FD022F00303F5
:10542C006C1C13F801C000F803C0A24206DD023563
:10543C000B5D0355AA4201DD4B5D435530BD00BFEA
:10544C0062B670471C4B40F2531210B51A60FFF74E
:10545C00EBF801210020FFF747F90120FFF70CF9C9
:10546C0001280446F9D11D210020FFF78BF92146B4
:10547C000220FFF739F91920FFF7FEF8012804463E
:10548C00F9D10020FFF758F90020FFF765F900204B
:10549C00FFF75AF92046FFF73BFA0220FFF79CF979
:1054AC00FFF7A2F90228FBD10020FFF731FABDE883
:1054BC00104000F05DBD00BF00200240084B10B44E
:1054CC004CF6CC4245F255541C6003201A604FF444
:1054DC007A614AF6AA22586010BC99601A6070472B
:1054EC000030004038B53F483F4C0121FFF7D4F85D
:1054FC000025682341F2873146F66802E1622046B6
:10550C00A5622946A261E3610122FFF71FFC204638
:10551C0001220221FFF71AFC012220460421FFF789
:10552C0015FC20460121FFF70BFC636C2F48712200
:10553C0062F3070363640121FFF7AEF82C4C2D488E
:10554C000121FFF7A9F802232A4619462046FCF749
:10555C00A7FA2A46204601230221FCF7A1FA802350
:10556C002A4602214FF09040FCF79AFA204602227C
:10557C000121FFF70BFB294620460222FFF706FB11
:10558C00022207214FF09040FFF700FB2A464FF410
:10559C00806302214FF09040FCF782FA2A464FF4C8
:1055AC00007302214FF09040FCF77AFA4FF48073AD
:1055BC002A4602214FF09040FCF772FA02220A218F
:1055CC004FF09040FFF7E2FA022209214FF0904091
:1055DC00FFF7DCFABDE83840022208214FF090407A
:1055EC00FFF7D4BA0B001800002C01401100140076
:1055FC0000040048120014002DE9F84F4B4CFFF743
:10560C0021FF102601214FF4A010FFF745F884F874
:10561C000B634FF40068C4F80080FFF763FF444845
:10562C000121FFF739F8434B43484FF6FF774FF012
:10563C003B0ADF620121C3F828A0FFF72DF83F4B8E
:10564C0032224FF0770BDA62C3F828B0302384F89B
:10565C0013334FF400232360DFF8E4900121484614
:10566C00FFF71AF801214FF4C010FFF715F80223C9
:10567C00002203214FF09040FCF712FA0025202362
:10568C00002203214FF09040FCF70AFA84F80C53E7
:10569C004FF48053236001212846FEF7BBFF2948B5
:1056AC000121FEF7F9FF284B2848DF62C3F828B028
:1056BC001A6842F080021A600121FEF7EDFF244BBC
:1056CC004FF4FA72DA62C3F828A084F815534FF439
:1056DC000013236001214846FEF7DEFF1D4801211F
:1056EC00FEF7DAFF2A46042302214FF09040FCF724
:1056FC00D7F901214FF4A010FEF7CEFF164B40F660
:10570C008A129A6584F80B63C4F80080A3F54043B1
:10571C00DF629E621A6842F080021A601A6842F0D8
:10572C0001021A60BDE8F84F00F088BB00E100E010
:10573C0004001C000010004008001C000020004069
:10574C00110014001200180000480140110018004C
:10575C00004401401000180000000240014B586347
:10576C00704700BF002C0140014B9863704700BF8D
:10577C00002C0140014BD863704700BF002C014046
:10578C00024A536943F0010353617047002C0140F6
:10579C00024B0022DA625A62704700BF004001409F
:1057AC0038B5374C374D204601220021FFF7EAFA75
:1057BC00204601220221FFF7E5FA204601220421AE
:1057CC00FFF7E0FA012211462046FFF7DBFA2046EC
:1057DC0001220321FFF7D6FA204601220521FFF70B
:1057EC00D1FA2368284A294943F001032360636CEA
:1057FC0043F400436364636943F00103636110681D
:10580C00234B40F001001060506940F001005061E2
:10581C00D06820F00100D0602A6842F001022A60B2
:10582C000A6842F001020A604A6942F001024A61C8
:10583C001A6842F001021A605A6942F001025A6178
:10584C00DA6842F00102DA6004F5A054FFF72EFB8F
:10585C00012200212046FFF795FA23680D4A2021EA
:10586C0043F00103236082F807138023136002F1D5
:10587C00C04202F50C52136843F40043136038BD68
:10588C00002C014000480140004401400010004041
:10589C000020004000E100E070B54FF480634FF051
:1058AC009044002201214FF09040FCF7F9F84FF49E
:1058BC008063A36220464FF4007300220121FCF7A1
:1058CC00EFF84FF40072104DA26220464FF4807333
:1058DC0000220121FCF7E4F802234FF48072A2624B
:1058EC00194628460022FCF7DBF828460123002243
:1058FC000221FCF7D5F820468023BDE87040002239
:10590C000221FCF7CDB800BF0004004870B51D4E55
:10591C000223002201213046FCF7C2F802224FF08C
:10592C0090444FF48063B262012100224FF090400A
:10593C00FCF7B6F801234FF4806201251946A262E8
:10594C0030460022FCF7ACF84FF4007300222946D5
:10595C002046B562FCF7A4F84FF400728023A262D3
:10596C00294600222046FCF79BF880224FF48073D6
:10597C00A262294600222046FCF792F84FF480736D
:10598C00A36270BD000400480138F8B5052848D85A
:10599C00DFE810F08A0006000501CC003D0148004C
:1059AC00CB4D02230022012128460227FCF778F870
:1059BC004FF090444FF48063002201214FF090404F
:1059CC00AF62FCF76DF801234FF480621946A262B6
:1059DC00284600220126FCF763F84FF400730022DE
:1059EC00AE6131462046FCF75BF84FF40072B94BC0
:1059FC00A2621B7803F0FF02002B40F05B81802336
:105A0C0031462046FCF74CF88023A3624FF4807398
:105A1C00002202214FF09040FCF742F8AE4BAF4A07
:105A2C00DA61F8BDAA4E0123012519460022304641
:105A3C00FCF736F84FF090444FF4007300222946DF
:105A4C004FF09040B562FCF72BF84FF40073A36253
:105A5C000022802329462046FCF722F880224FF4AE
:105A6C008073A261294600222046FCF719F84FF4F6
:105A7C008072984BA2621B7803F0FF02002B40F05F
:105A8C00FD80022329463046FCF70AF80223B36254
:105A9C004FF48063002202214FF09040FCF700F895
:105AAC008D4B8F4ADA61F8BD4FF090448023002271
:105ABC0001214FF09040FBF7F3FF8023844DA3624C
:105ACC0000224FF4807301212046FBF7E9FF0123EC
:105ADC004FF480721946A262284600220126FBF779
:105AEC00DFFF4FF400730022AE6131462046FBF716
:105AFC00D7FF4FF40072774BA2621B7803F0FF02C2
:105B0C00002B40F0C980022331462846FBF7C8FF22
:105B1C000223AB624FF48063002202214FF09040CD
:105B2C00FBF7BEFF6C4B6F4ADA61F8BD4FF0904447
:105B3C008023002201214FF09040FBF7B1FF80231E
:105B4C00634DA36200224FF4807301212046FBF7C2
:105B5C00A7FF4FF48073A362002202230121284681
:105B6C000226FBF79DFF4FF480630022AE610121FA
:105B7C002046FBF795FF4FF48062564BA2621B78D0
:105B8C0003F0FF02002B40F08E80012319462846BB
:105B9C00FBF786FF0123AB624FF40073BCE74C4E5E
:105BAC0001230125194600223046FBF779FF4FF0FF
:105BBC0090444FF40073002229464FF09040B56298
:105BCC00FBF76EFF4FF40073A362002202232946F9
:105BDC0030460227FBF764FF4FF480630022B76165
:105BEC0029462046FBF75CFF4FF48062394BA262DA
:105BFC001B7803F0FF02002B63D18023294620463B
:105C0C00FBF74EFF8023A3624FF4807342E7304DC5
:105C1C0002230022012128460226FBF741FF4FF008
:105C2C0090444FF48063002201214FF09040AE620B
:105C3C00FBF736FF4FF48063A3620022802301211F
:105C4C002046FBF72DFF80224FF48073A2610121C7
:105C5C0000222046FBF724FF4FF480721D4BA262FA
:105C6C001B7803F0FF0283B9012319462846FBF782
:105C7C0017FF0123AB624FF40073C9E60223002225
:105C8C0019463046FBF70CFF02E701230022314690
:105C9C002846FBF705FFEEE70223002219462846AB
:105CAC00FBF7FEFE36E70123002231462846FBF7C0
:105CBC00F7FE71E78023002239462046FBF7F0FE01
:105CCC00A4E68023002239462046FBF7E9FE9BE739
:105CDC0000040048CC05002000000140D500004025
:105CEC00C5000040E500004070B51D4E02230022A7
:105CFC0001213046FBF7D4FE02224FF090444FF4C2
:105D0C008063B261012100224FF09040FBF7C8FE86
:105D1C0001234FF4806201251946A262304600220D
:105D2C00FBF7BEFE4FF40073002229462046B561F6
:105D3C00FBF7B6FE4FF400728023A26229460022C4
:105D4C002046FBF7ADFE80224FF48073A2612946FA
:105D5C0000222046FBF7A4FE4FF48073A36270BDB3
:105D6C000004004870B52C4C2378002B3DD12B4DF2
:105D7C0003F0FF02012102232846FBF791FE0223C8
:105D8C00AB624FF48063002202214FF09040FBF78E
:105D9C0087FE237803F0FF02B3BB204D0123194685
:105DAC002846FBF77DFE0123AB624FF40073002203
:105DBC0002214FF09040FBF773FE237803F0FF02B3
:105DCC00D3B9802301214FF09040FBF769FE4FF0CF
:105DDC00904380229A62BDE870404FF48073002299
:105DEC0002214FF09040FBF75BBE02230B480022D0
:105DFC001946FBF755FEC4E78023002202214FF021
:105E0C009040FBF74DFEE6E70448012300220221F7
:105E1C00FBF746FEC9E700BFCC0500200004004894
:105E2C00054BDA6922F00102DA611862DA6942F094
:105E3C000102DA61704700BF0000024030B52B4808
:105E4C002B4C2C4D89B00121FEF726FC2A48012150
:105E5C00FEF722FC01214FF4A010FEF71DFC274B8E
:105E6C00402201A92046CDE90123FEF74DFE204634
:105E7C00234C00220621FEF789FE2046FEF754FD36
:105E8C0003A8FEF77FFD1F4B1F4A039220461F4CB1
:105E9C00CDE9043503A900254FF480730693ADF8C2
:105EAC001C50FEF777FD2B462A4620464FF4E13175
:105EBC00FEF794FF20460121FEF7CAFF2046012180
:105ECC00FEF7CCFF20460121FEF7D4FF204601212E
:105EDC00FEF7CAFF20460121FEF7B4FF2A46032134
:105EEC000A20FEF76FFE09B030BD00BF0E0018008F
:105EFC0000040048100031001200140000010201DF
:105F0C001C000240CC040020043801400038014041
:105F1C0030B414490B6843F001030B600B689B070A
:105F2C00FCD54B680F4A23F003034B60536813F006
:105F3C000C0FC3F38101F9D113680B480B4C23F000
:105F4C00867323F48033136041F610754FF480137D
:105F5C005160D56213634FF41F039360846030BCAF
:105F6C00704700BF0010024000ED00E00010000878
:105F7C0010B5FEF739FC002831D002280AD02D4884
:105F8C002D4B2E495B682E4AC3F30313CB5CD840D0
:105F9C00106010BD284B5968DA6A002AC1F3004121
:105FAC0029DAD86ADC6ADA6AC0F3031EC4F308245F
:105FBC0002F00702002937D05B68224813F4003F37
:105FCC001C4B4FF0000108BF18460EFA02F20023DA
:105FDC00A4FB000E04FB01F1FBF772F8D0E7164BA3
:105FEC005A6D9205CBD51A6B124B174812F0007FE5
:105FFC0008BF1846C4E758685B6813F0C04FC0F37D
:10600C008340C3F341720BD10F2809D0023019B170
:10601C00094B5B689B0309D50A4B03FB00F0AFE708
:10602C00013000EB0210F2E70648CEE7014B03FB10
:10603C0000F0A5E700127A0000100240B4630008DB
:10604C00C403002000093D00006CDC022DE9F04780
:10605C00089D0E4604460F46002B4AD194468C45AB
:10606C00B2FA82F260D942B1C2F12003974020FA11
:10607C0003F30CFA02FC1F4394404FEA1C4E1FFA28
:10608C008CF6B7FBFEF1230C0EFB117743EA0743AA
:10609C0001FB06F098420AD91CEB030301F1FF3710
:1060AC0080F01581984240F21281023963441B1A28
:1060BC00A4B2B3FBFEF00EFB103344EA034400FB26
:1060CC0006F6A6420AD91CEB040400F1FF3380F05B
:1060DC000081A64240F2FD806444023840EA01404F
:1060EC00A41B00211DB1D4400023C5E90043BDE829
:1060FC00F0878B4205D90DB1C5E900010021084696
:10610C00F5E7B3FA83F1002946D1B34202D38242B8
:10611C0000F2F580841A66EB030201201746002D6D
:10612C00E5D0C5E90047E2E7002A40F09380A1EBF7
:10613C000C034FEA1C471FFA8CFE0121B3FBF7F648
:10614C0007FB1630230C43EA00430EFB06F0984283
:10615C0008D91CEB030306F1FF3802D2984200F277
:10616C00D08046461B1AA4B2B3FBF7F007FB1033E2
:10617C0044EA03440EFB00FEA64508D91CEB0404BC
:10618C0000F1FF3302D2A64500F2B6801846A4EB0C
:10619C000E0440EA0640A5E7C1F120078B4022FA25
:1061AC0007FC4CEA030C06FA01FE20FA07F426FA67
:1061BC0007F344EA0E0400FA01F84FEA1C404FEAD8
:1061CC001449B3FBF0FE1FFA8CF600FB1E3349EAB0
:1061DC0003430EFB06F9994502FA01F20BD91CEBAD
:1061EC0003030EF1FF3A80F08580994540F28280DE
:1061FC00AEF1020E6344A3EB0909A4B2B9FBF0F3B0
:10620C0000FB139944EA094403FB06F6A64208D99D
:10621C001CEB040403F1FF3068D2A64266D9023BA2
:10622C00644443EA0E40A41BA0FB02E6B44273464E
:10623C00B14652D34FD05DB1B8EB030264EB090405
:10624C0004FA07F722FA01F31F43CC40C5E90074A6
:10625C0000214CE7C2F1200120FA01F30CFA02FCF8
:10626C0026FA01F1964033434FEA1C471FFA8CFE85
:10627C00B1FBF7F007FB1016190C41EA064100FBC5
:10628C000EF68E4204FA02F408D91CEB010100F15F
:10629C00FF382DD28E422BD902386144891B9BB218
:1062AC00B1FBF7F607FB161143EA014306FB0EF1AF
:1062BC00994208D91CEB030306F1FF3814D299421A
:1062CC0012D9023E63445B1A46EA004136E739466E
:1062DC00EDE6184602E7F045ADD2BEEB020366EBE5
:1062EC000C060138B146A6E74646ECE7034698E7AC
:1062FC004046D3E7D6467EE76444023847E7084673
:10630C000DE7023E63442DE770B50D4D0D4C641B3B
:10631C00A4100026A64209D10B4D0C4C00F020F81D
:10632C00641BA4100026A64205D170BD55F8043B91
:10633C0098470136EEE755F8043B98470136F2E7EB
:10634C00CC630008CC630008CC630008D063000861
:10635C0002440346934200D1704703F8011BF9E74E
:10636C00F8B500BFF8BC08BC9E467047F8B500BF36
:08637C00F8BC08BC9E46704706
:10638400191B12131D1516171A090A0B1E0D0E0FD1
:1063940000000000000000000102030406070809D1
:1063A400000000000102030402040608020C0810A5
:1063B40000000000000000000102030406070809B1
:0863C40094FCFF7F01000000C2
:0463CC00691100084B
:0463D000411100086F
:1063D400007C00088713871371007800C800D00779
:1063E4004C046C07DC0564004A0171009001000054
:1063F400000000009001000000000000E80300001D
:106404000000000000000000000000000000000088
:10641400204E0000A0860100020610011400460070
:10642400DC05010501010100D430000005010A006A
:10643400E803000010270000000000000A0000002C
:1064440000000000640000000000000000000000E4
:1064540000000000000000001027000050C30000EE
:10646400B400D007D0070000B400B700BA00BD00E4
:10647400C100C400C700CA00CD00D000D300D600BC
:10648400D900DC00E000E300E600E900EC00EF00E6
:10649400F200F500F700FA00FD0000010301060117
:1064A40009010B010E0111011301160119011B0150
:1064B4001E0120012301250128012A012C012F019D
:1064C40031013301350138013A013C013E014001FB
:1064D400420144014601470149014B014D014E016E
:1064E40050015101530154015601570158015A01F9
:1064F4005B015C015D015E015F016001610162019C
:106504006301630164016501650166016601670158
:106514006701670168016801680168016801680131
:106524006801680168016701670167016601660126
:106534006501650164016301630162016101600138
:106544005F015E015D015C015B015A015801570165
:10655400560154015301510150014E014D014B01AB
:106564004901470146014401420140013E013C0109
:106574003A0138013501330131012F012C012A017F
:1065840028012501230120011E011B011901160107
:10659400130111010E010B010901060103010001A0
:1065A400FD00FA00F700F500F200EF00EC00E9004E
:1065B400E600E300E000DC00D900D600D300D00000
:1065C400CD00CA00C700C400C100BD00BA00B700B6
:1065D400B400B100AE00AB00A700A400A1009E006F
:1065E4009B009800950092008F008C008800850025
:1065F40082007F007C0079007600730071006E00D9
:106604006B006800650062005F005D005A0057007F
:10661400550052004F004D004A0048004500430019
:1066240040003E003C0039003700350033003000A4
:106634002E002C002A00280026002400220021001D
:106644001F001D001B001A0018001700150014007D
:106654001200110010000E000D000C000B000A00C7
:1066640009000800070006000500050004000300F7
:10667400030002000200010001000100000000000C
:106684000000000000000000000000000000010005
:1066940001000100020002000300030004000500E1
:1066A400050006000700080009000A000B000C00A2
:1066B4000D000E0010001100120014001500170048
:1066C40018001A001B001D001F00210022002400D6
:1066D400260028002A002C002E003000330035004C
:1066E400370039003C003E004000430045004800AC
:1066F4004A004D004F005200550057005A005D00FB
:106704005F006200650068006B006E00710073003A
:10671400760079007C007F008200850088008C0070
:106724008F009200950098009B009E00A100A40099
:10673400A700AB00AE00B10071001E030300641992
:106744000000000001000000000000003200000012
:106754000000000000000000000000000000000035
:106764001027000050C30000020071004100D00750
:1067740064000500E8030614013278004B000100B0
:106784005A005A001E000201FA000000204E2000A8
:0867940050C3110700127A0046
:107BE000434845415044524F4E455F463432310080
:107BF0000000000000000000000000000000000085
:04000005080043812B
:00000001FF
