:020000040800F2
:10100000003C0020DD42000825430008DD4D0008BB
:10101000E14D0008E54D0008E94D00080000000022
:10102000000000000000000000000000ED4D00087E
:10103000F14D000800000000F54D0008F94D0008D2
:1010400025430008254300082543000825430008E0
:10105000254300082543000825430008794F000870
:1010600000000000FD4D000825430008254E000843
:10107000D54E000825430008254300080000000065
:10108000554F000825430008000000001D4F0008D0
:101090003D4F00082D4F0008254300082543000858
:1010A000254300082543000825430008514F000848
:1010B00025430008000000000000000000000000C0
:0C10C00025430008000000002543000844
:1010CC0053B94AB9002908BF00281CBF4FF0FF31A3
:1010DC004FF0FF3000F00CB8ADF1080C6DE904CE08
:1010EC0004F0CCFDDDF804E0DDE9022304B0704728
:1010FC00704700BF0348044B834202D0034B03B13B
:10110C0018477047D0040020D004002000000000D5
:10111C000548064B1B1AD90F01EBA301491002D04D
:10112C00034B03B118477047D0040020D0040020B3
:10113C000000000010B5064C237843B9FFF7DAFF26
:10114C00044B13B10448AFF300800123237010BD8E
:10115C0048090020000000009C5F000808B5054B02
:10116C001BB105490548AFF30080BDE80840FFF707
:10117C00CFBF00BF000000004C0900209C5F00089E
:10118C00904B914AB3F87CC018882DE9F04FACEB2A
:10119C00000115888D4C89B24A098D4287B0218097
:1011AC00628080F0E8808A4D2D888D4240F2E38089
:1011BC005968DFF82082091A89B28A42D3E9020100
:1011CC00A1EB000080B22CBF0027012782422CBF6C
:1011DC00002101210591A160D3E90451491B89B279
:1011EC008A42D3E90651A1EB050189B22CBF4FF01D
:1011FC00000E4FF0010E8A42D3E90851A1EB050114
:10120C0089B22CBF4FF0000A4FF0010A8A422CBF62
:10121C000021012104916161D3E90A51491B89B272
:10122C008A42D3E90C51A1EB050189B22CBF0020F5
:10123C0001208A422CBF002501250295E561D3E9E6
:10124C000E51491B89B28A42D3E91051A1EB050119
:10125C0089B22CBF002601268A422CBF4FF0000B0E
:10126C004FF0010B0390A061019626626760C4F8F1
:10127C000CE0C4F810A0C4F824B0D3E912514D1BF3
:10128C00D3E914618E1B0021A8F80010D3E91A01D0
:10129C00ADB2AA42B6B2A1EB000189B22CBF0025B7
:1012AC000125B2422CBF002601268A422CBF002108
:1012BC0001214FEA8108A163D3E91691A1EB090939
:1012CC00D3E918011FFA89F9091A4A4589B22CBFCA
:1012DC004FF000094FF001098A422CBF0021012177
:1012EC0048EAC1086163996F0398C4F83090ACEB7D
:1012FC00010189B28A422CBF0021012148EA010870
:10130C002164D3E91C31C91A89B28A42059B04991C
:10131C00A5622CBF00220122E26348EA420880EA5F
:10132C0003026A4081EA070392008BEA030342EA54
:10133C00C303019AE66282EA0A0289EA020943EAD5
:10134C000909029B83EA0E03734049EA4309224BC5
:10135C001B789BB1214B1B781BB1C8F10F085FFAAE
:10136C0088F8C8453CD0B4F8543000220133A4F8B6
:10137C00543084F8482007B0BDE8F08F174B1A782A
:10138C00002AE8D1019303F013FD019B48B194F8B6
:10139C0044200132D2B2642A84F8442084BF012252
:1013AC001A70D4E90172059262690492A2690392DF
:1013BC00E2690292226AE66A0192D4E903EAD4E96C
:1013CC0009B5C8E7440800202C080020D0040020F0
:1013DC00C0030020BC07002084070020CD0700209C
:1013EC00B4F8463084490133A4F84630236B00220C
:1013FC00012B0A8004BF814A1370059B049A5B027F
:10140C0043EA8723334343EA0E2343EACA1343EAEE
:10141C008213039A43EA4213029A43EA0213019A93
:10142C0043EAC20394F8482043EA8B0343EA45039A
:10143C00EAB92F2B2FDD94F84D10002940D1704DB7
:10144C002B78002B97D06F4A1278002A93D16E4AD2
:10145C001278002A8FD094F850209A4248D0052B4D
:10146C0084F850304FD9012384F84E3083E7012A99
:10147C0020D0022A18D0032A7FF47DAF252B7FF4CD
:10148C007AAF6249B4F84A2094F84C00885400238F
:10149C0084F848306FE7591E2E2919D85C49584DED
:1014AC000A80DBB22B70CEE7032284F84C3084F830
:1014BC00482060E70222A4F84A3084F848205AE712
:1014CC0053484F4984F84E209BB203800A7052E770
:1014DC00002BB4D194F84F204D49012A484A08BF3B
:1014EC0084F84D3000230B80137084F84E3042E7A3
:1014FC00052B08D994F84E200132D2B2052A84F873
:10150C004E207FF638AF0022013B84F84E20232B6F
:10151C0016D8DFE803F0126C6864605C554E4A46DE
:10152C00153E322B1515151515241F1515151515EA
:10153C001515151515151515151B364B01221A7099
:10154C00354A2978117000232B7014E7012384F895
:10155C004830F5E72D4A314B527C1A70F0E72B4B93
:10156C002E4A5B7CC3F101031370E9E700220123CF
:10157C0084F8512084F85330E2E794F84F3001227C
:10158C00934284F8512084F85220D9D184F84D30FC
:10159C00D6E700F06DFC1D4B1E4A5B7C01331370CB
:1015AC00CEE71A4B01229A74CAE7184B00229A74A0
:1015BC00C6E71649194B0120002248741A70BFE780
:1015CC001249164B0020012248741A70B8E7144BCC
:1015DC0001221A70B4E70F4B05221A70B0E70D4BBD
:1015EC0004221A70ACE70B4B03221A70A8E7094BC4
:1015FC0002221A70A4E700BFBC070020B20700202B
:10160C00E60700206C070020840700200806002055
:10161C006E07002085070020E707002054000020FB
:10162C00CE07002070B5B84D95F8513095F8521092
:10163C0095F8532033B195F85E60002E76D00023D8
:10164C0085F85E30A1B3002385F85230002A00F0F3
:10165C00B1800023AD4A85F853304EF6F173012169
:10166C0085F85E10AA496B6691F800E0AA660EF147
:10167C00010305EB83028021D166A64805EB8E029F
:10168C0000EB8300116F4FF0010C1322AC6E0CFABF
:10169C0002F32340D34083EAD111013AC901531C10
:1016AC0040F8041FF2D105EB8E050023EB6670BDEC
:1016BC00002ACED1984B1B78002B7FD0C30B40F067
:1016CC0009818313012B00F003814313012B00F0DC
:1016DC00FD800313012B00F0F780C312012B00F0E7
:1016EC00F1808312012B00F0EB804312012B00F0F0
:1016FC00C280030A83EA10138849C0F313224340C3
:10170C00DB438E5C03F00F03C0F3031200242C6642
:10171C008C5CCA5C43EA001300F00F0042EAC6324C
:10172C00095C42EA842242EA41129BE7B5F85C303C
:10173C00B5F85A40B5F858C001339BB201340CF1DE
:10174C00010CA4B21FFA8CFC272BA5F85C30A5F871
:10175C005A40A5F858C037D9714BA5F85C60B3F95D
:10176C00003000297FF46FAF002A7FF472AF6D4A0E
:10177C006A48D91782FB0323C1EB6311C9B241F448
:10178C00C06383EA131383F00603DB4341F4C061A7
:10179C0003F00F02C1F3031442EA0113825C045DEF
:1017AC0001F00F0142F43022415C42EA842242EA09
:1017BC00411254E75C4A4EF2010350E75B4A4FF684
:1017CC00F073072129664DE7C72C28D9584BA5F88B
:1017DC005A601B8800297FF436AF002A7FF439AF9A
:1017EC00504A4E48A2FB0321C1F3C70141F480616A
:1017FC0081EA111383F00403DB4303F00F02C1F3FE
:10180C00031442EA0113825C045D01F00F0142F4FF
:10181C006822415C42EA842242EA41121FE7BCF191
:10182C00C70F7FF60FAF434BA5F858601B881BB250
:10183C0000297FF408AF002A7FF40BAFD9B241F432
:10184C00007383EA131383F00203DB43334841F440
:10185C00007103F00F02C1F3031442EA0113825C1E
:10186C00045D01F00F0142F41022415C42EA842233
:10187C0042EA4112F3E60921083940FA01F242EA40
:10188C004122C2F30724C2F30B10604093B24340D1
:10189C00DB4303F00F0343EA021320481A13845C62
:1018AC0003F00F02825C42EAC432C3F30324045DEA
:1018BC0042EA8422C3F30314005D42EA401281E73A
:1018CC000A21D9E70B21D7E70C21D5E70D21D3E766
:1018DC000E21D1E7C11181EA1112104841F4606167
:1018EC0002F00F02C1F3031442EA0113825C045D9F
:1018FC0001F00F0142F4F022415C42EA842242EAF8
:10190C00411207215EE700BFD0040020FB3D070019
:10191C00C90400203C0500206C070020B45F0008BF
:10192C00B40700201F85EB513B670700F9BD07008A
:10193C00AE070020D407002030B5039C05468D422D
:10194C0009DC13E0A34213D0B1EB6C0F0DD075453D
:10195C0010DC0446724601EB020C181995424FEA52
:10196C006C0E4FEA6000EDDB204630BD9542FBDA91
:10197C00184630BD0EF101010346E0E70346401A5C
:10198C0048BFC81A704700BF04494A6A80B292B275
:10199C004B6A9B1A9BB28342FAD3704700480140B2
:1019AC0000F1FF3C58B106494A6A92B24B6A9B1A45
:1019BC009BB2B3F57A7FF9D3BCF1010CF4D270472A
:1019CC0000480140002968D002460144002026E06E
:1019DC005B00D8B25BB2002B2EDB4000C3B240B22E
:1019EC00002830DB5B00D8B25BB2002B32DB40004E
:1019FC00C3B240B2002834DB5B00D8B25BB2002B20
:101A0C0036DB4000C3B240B2002838DB5B00D8B2F2
:101A1C005BB2002B3ADB40009142C0B23CD012F8D2
:101A2C00013B434058B20028D2DA400080F0070056
:101A3C0043B2002BC0B2D0DA5B0083F0070358B27C
:101A4C000028DBB2CEDA400080F0070043B2002B56
:101A5C00C0B2CCDA5B0083F0070358B20028DBB2CB
:101A6C00CADA400080F0070043B2002BC0B2C8DADB
:101A7C005B0083F0070358B20028DBB2C6DA4000E3
:101A8C0080F0070043B2002BC0B2C4DA5B0083F0D5
:101A9C0007039142D8B2C2D170470846704700BFC5
:101AAC00026803FB03F303EB430C22EA0C0203FB77
:101ABC0001F10A430260704710B403FB03F304689E
:101ACC0003FB01F103FB02F203EB430324EA0304DF
:101ADC000C430460C16810BC21EA03031343C360C8
:101AEC00704700BF70B50B4C0B4E04F13005B64679
:101AFC0020686168A268E368F446ACE80F00103413
:101B0C00AC42E646F4D104483021FFF75BFF86F87F
:101B1C00300070BD08060020D4050020BFF34F8FA5
:101B2C000549064BCA6802F4E0621343CB60BFF36D
:101B3C004F8F00BFFDE700BF00ED00E00400FA0589
:101B4C0070B5BC4CBC4D82B02968C022204603F055
:101B5C00BBFA6378022B6ED84FF06413B74AC4F803
:101B6C0009300021C4F80520C4F80D100123E27DD2
:101B7C002A2A02D8101F052869D8102284F8C02000
:101B8C00227EA2F10800C0B2882869D802EB82023A
:101B9C00AB48AC4E02EB82029200A0FB0202920810
:101BAC00A948B0FBF2F2F262AA80312936D803EBD5
:101BBC0083035B0003F5C87189B2627E2B81A2F1AD
:101BCC003200642898BF9B18A27EA98102EB820286
:101BDC004FEAC20298BF9BB2143202206B81EA8199
:101BEC0002F088F96378002B40D1E8894FF4FA733E
:101BFC00009340F6B8324FF47A734FF49671FFF7B6
:101C0C009BFEA37CA5F84C0063B14FF47A73C4F827
:101C1C00C830237D84F8CC3002B070BD4FF4C8714D
:101C2C000023CAE74FF4FA63C4F8C830237D84F864
:101C3C00CC3002B070BD637B092BA37989BF002225
:101C4C0003F1FF3103F1FF316273C9B28FE7032A4D
:101C5C0000F20881D200D2B202F10A00E0758DE7E1
:101C6C00784841F28732EA80C2629EE7A07F0B2857
:101C7C0088BF052002F03EF994F8213094F820201A
:101C8C0094F8221094F82300A87503F26B335B00D0
:101C9C006B8294F82830053B142B84BF052384F801
:101CAC00283094F8293002F27712013B5200092BAC
:101CBC002A8294F8252088BF0A2302F1FA0288BFF1
:101CCC0084F8293094F82A302A83002284F82720BB
:101CDC005A1E01F25E51082AA98240F281800A2321
:101CEC0084F82A3094F82B30617AE27AA07A686210
:101CFC00463B462B84BFFF2384F82B3094F82C30C2
:101D0C00013B632B9CBF012384F8C13094F82D3028
:101D1C00013B092B84BF052384F82D3094F82E3019
:101D2C0049005200092B2962AA6206D8042B0CD850
:101D3C00DFE803F003927B0B7200444A002301217D
:101D4C0084F8C23084F8C33011706379092B2BD816
:101D5C00092284F8C42085F8443085F8453085F88C
:101D6C004630E889E27E14289CBF002385F8473072
:101D7C00A2B12023B3FBF2F383B1354AA2FB0012CC
:101D8C005209B2FBF3F2A5F848202D4AA2FB00122F
:101D9C00D208B2FBF3F3A5F84A3027E70023A5F8E5
:101DAC004830A5F84A3021E7002284F8C42095F881
:101DBC004410A2F13332A2FB0323DA08B1EBD30FA8
:101DCC0088BF85F8442095F845309A4238BF85F88D
:101DDC00452095F846309A4238BF85F84620C0E732
:101DEC00C3EB4312C3EB82035B006A8915495B3B6F
:101DFC00DBB21A446A812A8985F84E301A442A814A
:101E0C00B5F850201A44A5F85020AA891A44AA8182
:101E1C004A6C13434B6465E70E490C4A01230B7063
:101E2C000021117084F8C2308FE7012384F8C3308D
:101E3C008BE700BF0806002000000020A001000A6C
:101E4C00ABAAAAAA002C0140F0821E001D0500209E
:101E5C001F85EB511F050020044A012384F8C23072
:101E6C00137072E70A3AD2B288E600BF1D05002053
:101E7C00024B03481A68C02103F0CEB800000020C2
:101E8C000806002038B5294C94F8542094F85530A5
:101E9C00012A31D05A1E12F0FF02254D25D084F8AC
:101EAC00552003F0010384F8523072B695F83D3199
:101EBC00002B35D062B603F087F8D5F8C830D5F8CA
:101ECC00402103F5FA7393423CBF012384F856304A
:101EDC0094F85530002285F83A2105EB430385F838
:101EEC004421A26DA3F8462138BD0123062284F8B3
:101EFC00552085F83C31D6E70133DBB2062B0C4D6F
:101F0C0099BF84F8553003F0010284F8552085F808
:101F1C003C2184F8522072B695F83D31002BC9D182
:101F2C0094F8550003F0B2FBC4E700BF000000209A
:101F3C0008060020204AD36810B523F001031F4C7B
:101F4C00D360FFF79FFFB4F854211D49B4F8560134
:101F5C008B6D80B210FA82F203EB520394F82F20AF
:101F6C005B088B65EAB98A6D94F8C03002FB03F309
:101F7C00C3F38F138A6D91F85610A4F85A31C3EB42
:101F8C00520292B2A4F85C2199B1D4F8602142F2C9
:101F9C000F739A4204D8D4F860310133C4F860311D
:101FAC0010BD8A6D94F8583102FB03F3C3F38F1301
:101FBC00E0E703F001F8E8E70044014008060020E0
:101FCC000000002038B5184D95F85C3073B1002432
:101FDC0003E095F85C30A34208DD02F0D9FF95F8D8
:101FEC005230984204F10104F3D138BD72B602F0BC
:101FFC00D7FF0E4A0E4CB2F856110E4B89B2A2F80E
:10200C005411606A002180B2A2F8560161625962D3
:10201C00B2F85C2192B20132DA621961DA6842F0EC
:10202C000102DA6062B638BD00000020080600200C
:10203C00001000400044014070B5B94CA37C82B044
:10204C00002B00F0C48094F8C22094F82600B54D03
:10205C00002A65D1AB7D5B0003F57A71002800F096
:10206C008381B4F8660180B288421ADD667C95F8EB
:10207C005400B04200F09F8394F83D218AB9B4F823
:10208C00660140F2FF720023009280B284F86A313C
:10209C004FF4FA622F23FFF74FFCAB7DA4F86801D5
:1020AC005B00B4F86611C3F57A7289B291421CDAFE
:1020BC00617C95F85460C1F10100864200F0058303
:1020CC0094F83D1189B9B4F8660100212F2384F8E6
:1020DC006A1180B2009340F2FF73FFF72DFCAB7DC9
:1020EC00A4F868015B00C3F57A72B4F8661189B282
:1020FC00914211DBB4F8662103F57A7392B29A42DD
:10210C000ADC94F83D210023A4F8683122B10122A5
:10211C0084F83D3184F86A2194F8C230002B5BD0EE
:10212C0094F82630002B00F06C81B4F866319BB229
:10213C00B3F5836F17D3627C95F85430934200F05B
:10214C00F08294F83D3173B9B4F8663195F85D10AE
:10215C009BB25B006FF40066334400225B1A84F878
:10216C006A21A4F86831B4F866319BB2B3F5836F79
:10217C001CD2B4F866319BB22F2B17D9637C95F81F
:10218C005410C3F10102914200F0808394F83D3168
:10219C0063B9B4F8663195F85D109BB25B00313BC6
:1021AC0000225B1A84F86A21A4F86831B4F866310D
:1021BC009BB22F2B10D894F83D210023A4F8683142
:1021CC0052B1012284F83D3184F86A2104E0B4F85C
:1021DC006631544DA4F8683194F8702195F85E304E
:1021EC009A4203D9A37D002B40F0B380E67C002EED
:1021FC0075D0B4F8680194F828201D2800F2968058
:10220C000023A4F8723194F8283003EB8303B0EB6D
:10221C00830F4FEA830180F2938094F86E31002B88
:10222C005BD194F87C31002B57D0E27CB4F872016E
:10223C0050232E2113FB0213834280F2238194F846
:10224C006431002B00F0D4822B89002A00F0EE813F
:10225C004FF4FA620092283340F2FF728921FFF7A3
:10226C006BFB80B294F82620E67CA4F88001002A4F
:10227C0040F0CD81B4F8723184F83D212E215022EA
:10228C0012FB06129A4280F2FD80667FD4F8601130
:10229C001E2232418A4200F2E681B5F89220824237
:1022AC003CBFA4F88021104694F8C12032B1B5F996
:1022BC0094209042C4BF90B2A4F88001D4F88C2131
:1022CC00002A0ADD2F2B08D91749D31781FB0212DC
:1022DC00C3EB22330344A4F8803102B070BD94F8F0
:1022EC007431C3B194F87531002B40F0D980D4F817
:1022FC0078210D49D31781FB0212C3EB22339BB219
:10230C00B3F5006FA4F87231C0F0458140F2FF7351
:10231C00A4F8723181E7B4F86831A4F872317CE723
:10232C000806002000000020AD8BDB681E283FF45F
:10233C006AAF02EB820292008242114600F3CE8019
:10234C0040F2FF720092A023FFF7F6FAA4F8720194
:10235C0063E703F05DF902F023FE00226623A4F884
:10236C00722184F8703158E7B4F8662192B28A422F
:10237C0014DD637C95F854209A4200F0FF81B4F888
:10238C00660140F2FF73009380B22F234FF4FA6280
:10239C00FFF7D2FAAB7DA4F868015B00B4F86611C4
:1023AC00C3F57A7289B2914217DA637C95F85400BE
:1023BC00C3F10101884200F0C681B4F866012F23F5
:1023CC00009380B240F2FF730021FFF7B5FAAB7DAA
:1023DC00A4F868015B00C3F57A72B4F8661189B28F
:1023EC009142FFF699AEB4F8662103F57A7392B276
:1023FC009A423FF791AE0023A4F8683184F86F310C
:10240C008AE6B4F866319BB2B3F5836F11D3637C63
:10241C0095F854209A4200F06981B4F8663195F829
:10242C005D209BB25B006FF4006003449B1AA4F820
:10243C006831B4F866319BB2B3F5836F16D2B4F839
:10244C0066319BB22F2B11D9637C95F85410C3F1D4
:10245C000102914200F00382B4F8663195F85D20D8
:10246C009BB25B00313B9B1AA4F86831B4F866311F
:10247C009BB22F2B3FF6B0AE0023A4F8683184F842
:10248C006F31A9E694F87D31002B38D0013B042B39
:10249C0032D8DFE813F02F00AA01A701A2012F0008
:1024AC00D5E918320092B4F8680140F2FF722F217E
:1024BC00FFF742FAE27ECA4B93FBF0F3520893FB10
:1024CC00F2F3B4F86821A4F876312E2A3FF60FAF58
:1024DC00A4F87261AE66C4F878619EE6A0230093FE
:1024EC001E212F23FFF728FA0346A4F87231B4F803
:1024FC00680188E601F052FE002384F87D31227DCC
:10250C0094F86431002A4DD1A4F88021002B40F0BE
:10251C009980227FC4F86031012185F85610002A79
:10252C0040F08E8094F83D31002B00F0E38194F85C
:10253C002630002B3FF4D1AE94F8C230002B00F0C3
:10254C00BF81B4F866319BB2B3F5836F0ED2B4F889
:10255C0066319BB22F2B09D9B4F8663195F85D2002
:10256C009BB25B00313B9B1AA4F88231B4F8663104
:10257C009BB2B3F5836F80F0CD81B4F8823140F219
:10258C00CE72934240F2AE8103F030FA94F83D6182
:10259C00002E60D0A1E62F2B3FF63FAE3023A4F8DF
:1025AC0072313AE6002B6BD0E17C94F83D6195F8E2
:1025BC005530013BC3EB0312B5F8903003EB8203AB
:1025CC001AB2B2F5B47F9BB203DBA3F5B47293B22B
:1025DC0012B2A4F8842103F1770212B2B2F5B47FDF
:1025EC0080F21581A4F8862103F1EF0212B2B2F544
:1025FC00B47F80F2108101294FF00003A4F88821E8
:10260C0008BF84F86E11A4F8803126B365E6B4F8DF
:10261C00723150222E2112FB06129A42BFF632AFB3
:10262C0094F83D21002A7FF458AE2EE64FF4FA625E
:10263C0000922F2140F2FF72FFF77EF980B211E673
:10264C0003F0D4F994F8263094F83D61002B9FD018
:10265C00002E7FF471AFB4F87231B4F880012E2BD8
:10266C007FF61BAE11E66A89824284BFA4F88021F2
:10267C001046AA8982423CBFA4F8802110460CE681
:10268C00267FC4F86031012285F8562084F83B314E
:10269C00002E00F00B81E17C002986D1012E84D123
:1026AC0094F8293003EB830303EB8303DB009BB229
:1026BC0040F2CE729342A4F8823140F2398103F099
:1026CC0095F9E17C94F83D6171E794F86A6100201A
:1026DC004FF0010CA4F8680184F83DC1002E3FF4C2
:1026EC0004AD85F8541084F83D01ECE4AA6DB5F8FE
:1026FC004C10914280F09280B4F86C2192B2C72AAF
:10270C0000F28C80C3F101030026012285F85430BD
:10271C00C4F8606185F8562002F042FC84F86F61C1
:10272C007BE6012184F83D1194F86A110022A4F88B
:10273C00682100293FF417ADC3F1010385F854302B
:10274C0084F83D2100E5A96DB5F84C00884276D29D
:10275C00B4F86C1189B2C72971D80122002685F80A
:10276C005620C4F8606185F8543002F019FCAA7D3B
:10277C0084F86F615200C2F57A721EE6AA6DB5F844
:10278C004C00904252D2B4F86C2192B2C72A4DD868
:10279C00C3F101030026012285F85430C4F86061AE
:1027AC0085F8562002F0FCFBA97D84F86F61490086
:1027BC0001F57A71E3E594F86A61A4F868214FF0A9
:1027CC00010C84F83DC1002E3FF46BACACEB000067
:1027DC0085F8540084F83D2151E401F071FC8BE63E
:1027EC000087930301F03AFD86E601F007FD83E6CE
:1027FC0002F00EFF95F8563053B36B89E27CB4F8B7
:10280C007201A4F87E31012184F864111CE5A3F156
:10281C00F102A4F88621793B1AB2ECE694F86E2109
:10282C00002A7FF46FAFA4F86621F6E594F86E21C8
:10283C00002AADD14FF47A73A4F866319FE594F871
:10284C006E11002989D14FF47A73A4F86631B4E57E
:10285C0094F86431002B50D002F0AEFBCDE7AA6D9A
:10286C00B5F84C10914224D2B4F86C2192B2C72A1C
:10287C001FD800260122C4F8606185F8562085F81F
:10288C00543002F08DFB84F86F61E5E5012184F88A
:10289C003D1194F86A110022A4F8682100293FF434
:1028AC0085AC85F8543084F83D2172E402F0B0FE1A
:1028BC007AE694F86E21002ADBD1A4F86621CBE5E8
:1028CC00B4F866114FF47A7089B2FFF757F894F8A0
:1028DC00C22000F57A739BB2A4F88231002A3FF42F
:1028EC004EAE2EE602F05AFE94F83D61002E3FF4F7
:1028FC00B2AEF2E402F08CFEA4E6FFF7C3FA0F4B83
:10290C0042F2107141F28832A9655A62012384F8AF
:10291C006431A1E7B4F8663195F85D209BB25B0099
:10292C006FF400610B449B1A9BB2A4F8823126E62B
:10293C0002F034FEE17C84F83D6138E60010004082
:10294C0010B5104C94F89031012B15D094F89031AF
:10295C00022B03D0BDE81040FFF76EBBD4F89401F6
:10296C00B0F5803FACBF4FF6FF7080B2FEF75AFE59
:10297C00002384F8903110BDFEF702FC002384F88C
:10298C009031E3E708060020F8B54E4E4E4F96F80E
:10299C005420B7F88431002A75D1013319B2B1F53E
:1029AC00B47FA8BF1146B7F88621A7F8841101326D
:1029BC0012B2B2F5B47FA8BF0022A7F88621B7F8EF
:1029CC008821013212B2B2F5B47F0B46A8BF0022A7
:1029DC0006EB4303B6F86813B3F99830A7F88821CF
:1029EC00B2883A4D3A4C0B4402FB03F385FB0301CE
:1029FC0097F82D20DB17C3EBE11302FB03F3D81779
:102A0C0084FB0323C0EBA30080B202F029FDB7F9CD
:102A1C00863106EB4303B3F99800B6F868331844D3
:102A2C00B38803FB00F085FB001297F82D30C0171C
:102A3C00C0EBE21003FB00F084FB0023C017C0EBDB
:102A4C00A30080B202F012FDB7F9883197F82D205F
:102A5C0006EB4303B3F99800B6F868331844B3880F
:102A6C0003FB00F085FB0035C017C0EBE51002FB43
:102A7C0000F084FB0034C017C0EBA40080B2BDE8AA
:102A8C00F84002F0F9BC013B1BB2002BB6BF40F280
:102A9C0067121A461346B7F88611A7F88421B7F8BF
:102AAC0088210139013A12B240F2671009B231EAB9
:102ABC00210128BF0146002AA7F88611B8BF02469B
:102ACC0086E700BF0000002008060020D34D6210EE
:102ADC0067666666294938B54B6A294C294D9BB205
:102AEC000022A4F856314A62B4F85631AA6D02EBB2
:102AFC00420212FA83F39B08AB65AA6D94F8C030BE
:102B0C0002FB03F3AA6DC3F38F13C3EB520292B211
:102B1C00A4F85A31A4F85C2103E0D4F86031042BFA
:102B2C0005D94A6AB4F85C319BB29A42F5D3FFF7E7
:102B3C00A9F9002184F83A11D4F86031627F84F845
:102B4C003B110133C4F8603194F826301A4305D197
:102B5C00AA6DD4F8C8309A4208D338BDD4F8603185
:102B6C00132BFAD9AB6DB3F5FA6FF6D8002385F8B1
:102B7C005630BDE8384002F01FBA00BF00100040CC
:102B8C000806002000000020F8B5CD4CB4F89821C0
:102B9C00B4F89A31B4F88001A4F86C010132013315
:102BAC00B4F89C1194F8A001A4F89821A4F89A31D7
:102BBC00B4F89E2194F87C31013101320343A4F81E
:102BCC009C11A4F89E2141D194F8A121002A3DD05A
:102BDC00B4F86851002D40F02682B4F8A2310133CC
:102BEC009BB244F620618B42A4F8A2312ED9B4F8E2
:102BFC00A4311E2B40F2878294F8243001218B42A1
:102C0C0084F87C1140F08482B4F8A611AD484B08CE
:102C1C00A0FB0303DB09B1F5B97F84F8A0310DD318
:102C2C00A94F4AF6AA2601F083FA6420FEF7B8FEF3
:102C3C0094F8A0313E600135AB42F4DC94F8C3301B
:102C4C0094F8C220134301D184F82630E17F81B17E
:102C5C009E4BB4F8A82193F86A33013B01320B4424
:102C6C0092B203EB8303B2EB830FA4F8A82100F319
:102C7C00FB8094F86E61002E40F0C380934D94F865
:102C8C00641195F85630002B40F0C180B4F89E3199
:102C9C00142B52D9012294F8C13084F8AB210022B4
:102CAC00A4F89E21002B40F02781637F002B00F0BD
:102CBC00B281002941D0B5F86E33AE6DD5F88023C2
:102CCC00D5F87873D5F89003F61A07FB06228242E2
:102CDC00A8BF024640428242D5F88833C5F87063DB
:102CEC00B8BF0246D5F87C03C5F88023F31A00FB65
:102CFC0003F3D5F87403C5F8843300FB063313448F
:102D0C00D5F89423C5F888639342A8BF1346524262
:102D1C009342B8BF1346D4F88C21C5F88C331A44AF
:102D2C006B4B22EAE2729A42A8BF1A4694F87431AD
:102D3C00C4F88C21002B40F0308194F8C430B4F8E6
:102D4C009C01B4F87E21984235D90023A4F89C311B
:102D5C00D4F86031952B00F2C18095F84430DBB289
:102D6C00B4F86C0185F8983380B2801A984203DD70
:102D7C00981880B2A4F86C01B4F86C0180B2101AE7
:102D8C0083421ADAD31A9BB2A4F86C3194F87C31D2
:102D9C00BBB9C1B1B4F872312E2B14D8637B012BA3
:102DAC0000F07F81022B40F08281012384F8CC302B
:102DBC0084F8AE310FE0A4F86C2194F87C31002B30
:102DCC00E7D0002967D194F83D31002B53D1207FF7
:102DDC00022800F02B81B4F86C31EA883D499BB293
:102DEC0002FB03F3A1FB0313C3F3CF13A4F8B0311D
:102DFC003949B4F86C01A4F87E01C1E90D33CA62FB
:102E0C00CB63B4F8B4310133A4F8B431F8BD002964
:102E1C003FF43CAF02F0C4F802F0BAF895F8523027
:102E2C00002B40F01A81002840F0348194F83B319B
:102E3C0095F853200133DBB29A4284F83B3138BF0A
:102E4C0084F83A0194F844315BB995F85230002B70
:102E5C0000F04C8194F83A3195F86B239A42C0F00B
:102E6C004C8194F8641111E70122002384F8AA2103
:102E7C00A4F8A831FDE6EA88B4F88231154902FBC2
:102E8C0003F381FB0301DB17A3EBE11313449BB2A8
:102E9C00A4F8B031ACE7B4F872312F2B7FF67CAFCD
:102EAC0094F8AE31EA88002B00F0E6800023217DF7
:102EBC0084F8AE31B4F8B03184F8CC1098E700BF88
:102ECC0008060020B9D31FB10030004000000020DC
:102EDC0060E31600D34D6210002C0140952A7FF65A
:102EEC003CAFD4F84031B3F5FA7F8CBF95F8453040
:102EFC0095F84630DBB233E700293FF41EAF94F867
:102F0C002C30B4F9AC61EA6A6F6AE86B03EB8303AB
:102F1C0003EB8303A6EBC30607FB06228242A8BF82
:102F2C000246404282426B6BEE61B8BF0246A86A11
:102F3C00EA62F31A00FB03F3286A2B6300FB0633E7
:102F4C0013442A6C6E639342A8BF134652429342B9
:102F5C00B8BF1346704AAB6382FB0302DB17C3EBAB
:102F6C002233B5F89420D31A2A891BB29342A5F8C0
:102F7C009430BCBF13B2A5F89430B3F5FA6F03DDEF
:102F8C004FF4FA63A5F89430637F002B7FF493AE73
:102F9C0094F87431002B3FF4D0AEB4F87631D4F8F9
:102FAC009461AA6F2F6FD5F88800F61A07FB0622DA
:102FBC008242A8BF024640428242D5F88030AE66BB
:102FCC00B8BF0246686FAA67F31A00FB03F3E86EFA
:102FDC00EB6700FB06331344D5F88C20C5F88060F2
:102FEC009342A8BF134652429342B8BF1346D4F83B
:102FFC007821C5F884301A44484B22EAE2729A428E
:10300C00A8BF1A46D4F86031C4F87821632B9CBF52
:10301C000023AB6791E694F87431002B3FF48DAE2E
:10302C000029BAD189E6A4F8A2310FE694F87C31D4
:10303C00002B3FF4D0AE02F029FBEA88237B384901
:10304C0002FB03F3A1FB0313DB0903EB83035B001C
:10305C000F339BB2A4F8B031CAE6D8B194F83B3127
:10306C0095F853200133DBB29A4284F83B31BFF41C
:10307C00E9AE84F83A61E5E6B4F86C3128499BB2C4
:10308C0002FB03F3A1FB0313DB0901339BB2A4F88E
:10309C00B031ADE694F83A310133DBB284F83A3111
:1030AC00D0E6002284F8CC2084F8AE3193E6DA1E08
:1030BC00062A3FF690AE94F8AE2152B9023B42F28A
:1030CC00107284F8B231A4F89821012384F8AE313F
:1030DC0081E694F8B231002BF7D194F8AE21012A95
:1030EC0004BFC4F8603184F86431EEE794F83A31E7
:1030FC0095F86C239A42BFF4B4AE012384F84431A2
:10310C00FFF7E8FCADE684F8A151A4F8A2519DE5C7
:10311C0001F00EF892E500BFAD8BDB68F05838017A
:10312C00D34D62102DE9F04F83B002F005F84FF447
:10313C007063C34AD3F8E010914205D1C14AD3F869
:10314C00E410914200F00B84BF4DC04C02F0D0F85B
:10315C0002F0A8F9FEF7F4FCE378022B03D12379F3
:10316C00152B00F0348441F202510423A4F803100F
:10317C002A68B6486370C02101F04EFF637C227D43
:10318C00A988E980013B18BF012385F8543002B9A6
:10319C00E27494F82630C3B12889B5F89A136B8978
:1031AC00002201264FF47A77323032313233A5F8CF
:1031BC0050702881A5F89A1385F84760C4F81260FE
:1031CC00627384F8CC20A2756B8100F035FF00236C
:1031DC00A4F8A43101F0EEFF9D4B4AF6AA221A6026
:1031EC0001F062FD94F8753113B1012384F8743148
:1031FC0001F0E6FD964FDFF85C92DFF85C82DFF8B9
:10320C005CA24AF6AA26B4F84A11B4F84831B4F8CC
:10321C004C21B4F84E010B441344B4F85011B4F8DB
:10322C00522103440B441344D4F8602104335B1043
:10323C00042AC4F8943100F23181A37C002B14BF12
:10324C0004220622637D85F86B23012B85F86C2301
:10325C003E6000F0C781022B00F06E81B4F8B431EF
:10326C0042F2107293420BD994F87C2102F0FF0BBE
:10327C00002A40F05B8349F64042934200F28D8372
:10328C00B4F8982144F620639A4216D9B4F9AC31BB
:10329C00D4F8B8211B0489FB03011944DB17C3EBD9
:1032AC00212394F8B21113440022C4F8B831A4F8C5
:1032BC00982111B1013984F8B211D4F86021B4F815
:1032CC006831B2F57A7F00F2D380002B40F0D380C6
:1032DC00D4F8601194F8BC1184F87031002900F016
:1032EC006181002384F87031D4F8942194F83C1156
:1032FC0088FB0203A3EBE273C4F8403121B1D4F88C
:10330C0060310A2B00F2FA8194F8C531002B00F0E1
:10331C008D80AB6D322B40F28980514B10220021F5
:10332C0083F80B1383F8152383F80C2394F8AA3134
:10333C0003F0FF0B23B994F8C631002B40F01B822D
:10334C0094F8ABB1BBF1010F00F0578194F86E31DA
:10335C004FF0000B84F8D7B1002B40F0A18094F80B
:10336C006431404AD4F894113F4892FBF1F213FBBC
:10337C0002F39BB2A0FB032095F84720A4F8D831A8
:10338C00C008A4F8DA01002A40F01B824FF4FA605E
:10339C00B4F8CC3194F82B10A5F892001BB28B42E8
:1033AC0000F3FF81D4F86031632B00F2FF80AB6D2A
:1033BC00B3F5FA7F40F2FA800C20AB6D85F85C0017
:1033CC00312B9CBF022385F85C3094F82F30002BF6
:1033DC0040F0D981254A526A4AF6C8739A427FF660
:1033EC0012AF94F864314FF0000B84F8AEB1002B9F
:1033FC003FF409AF94F87031013384F87031237DB8
:10340C0084F8CC3001F0CCFD012385F85630B4F8AB
:10341C0072312F2B04D841F2883384F864B1AB6538
:10342C000023C4F86031FFF755FBECE60C4B00228F
:10343C00102183F80B1383F8152383F80C2375E7FD
:10344C00DAE32559D963B84E0000002008060020A5
:10345C0000300040B7600BB6565555551F85EB51E3
:10346C0000E100E0C0270900CDCCCCCC001000401E
:10347C00002284F87021D4F86021E17C642A40F2A7
:10348C008180C72B40F29E8094F8BC21002A00F06A
:10349C00A580B3F5C87FBFF427AF22E70322D1E69E
:1034AC00B4F87231302B2ED994F87C215AB3313BBD
:1034BC000122572B84F8AB2100F2FC8194F8DC310B
:1034CC00002B40F05982FFF75FFAE37EB4F87201EB
:1034DC0041F6583140F22A32B2FBF3F2B1FBF3F36E
:1034EC00009230217822FEF727FAA5F8A00380B2CB
:1034FC00FEF74AFAB5F8A0234FF41673B3FBF2F3B8
:10350C00A4F8D8317FE694F81CB00122002393452F
:10351C0084F8643184F8DC2100F06081BBF1020F87
:10352C0000F07881C54AC2E90D33D36302F070F81C
:10353C000023A4F8D83166E6D4F84031F92B0AD828
:10354C00D4F84031642B06D9D4F8403103EB430254
:10355C0003EB8203EB80D4F84031632B05D8D4F80D
:10356C00403113B140F21453EB80D4F84031F92BB5
:10357C0004D8D4F84031002B7FF470AE40F6B2433F
:10358C00EB806BE694F8BC21002900F0B3809F2BF4
:10359C003FF67CAF002184F87011002A7FF4A1AEB5
:1035AC00952B1BD8642385F85E309DE60C23009385
:1035BC00D4F8400103234FF4FA726421FEF7BCF9EE
:1035CC00C0B2FAE6002284F8702194F8BC210029DC
:1035DC00E3D09F2BDED9002A7FF483AE0A2385F833
:1035EC005E3081E6AB88A86D0093C8225B08602131
:1035FC00FEF7A2F9637DE8802DE601F08BFA5946BF
:10360C008F4800F0AFFFB4F8C80101F037FB94F815
:10361C00CD30B4F8CEE1A4F8CA0104EB4301013378
:10362C00DBB2322B28BF0023A4F8CC0184F8CD30B8
:10363C008448B4F8CEC0D4F8D02040F6E44303FB61
:10364C000EFEA0FB0EB0AEEB000E00EB5E00B1F870
:10365C00D4E0A1F8D4C06244A2EB0E02C4F8D0208E
:10366C00AAFB0221B5F89C23C00A02FB00F0AAFBBE
:10367C000020B4F8A621C2EBC20202EB5012C1F337
:10368C000F1000FB03F3C4F8D0016F48A0FB030339
:10369C0043F3CF2323EAE373A4F8AC3194F824303A
:1036AC00D2100909012BA4F8A621A4F8381100F0B6
:1036BC00D180022B0ED1237A03EB830392B203EB5E
:1036CC008303B2EB430F80F2CE80B4F8D4310133D4
:1036DC00A4F8D43194F86E315C48B4F8D41142F2A9
:1036EC00107200FB0322914200F3C580002284F883
:1036FC00AB212DE6002A3FF453AFCAE6D4F84011B3
:10370C00D4F8C001FEF73AF9D4F84031B0EB530FBE
:10371C0024D9D4F84031B3F5FA6F1FD294F8C431E0
:10372C00013384F8C431A37C0022C4F86021EBB9C6
:10373C00B4F872312F2B19D9002384F86431D4F8E2
:10374C006031642B84BF41F28833C4F840316B89FB
:10375C0001225B0885F85620A4F87E31D4F840315C
:10376C00C4F8C031002284F83C21CDE5AB6DB3F533
:10377C007A7FE4D9E0E7FEF7B5F9312002F0D2F90F
:10378C0084F8C6B1DCE5B4F86C011723009380B261
:10379C000D234FF4FA626421FEF7CEF884F8580139
:1037AC0018E6B5F89E33B4F8CC010122009200B2B1
:1037BC0001F10A025B080A39FEF7BEF8A5F892007F
:1037CC00F0E5B5F89E330093B5F85030B5F84A20C3
:1037DC00B5F84810FEF7B0F880B2D9E594F8293066
:1037EC00EA881B4903EB830303EB8303DB009BB2E7
:1037FC00A4F8823102FB03F381FB0301DB17A3EB7B
:10380C00E11313449BB2632BA4F8B03147D802F0F8
:10381C00EDF88DE6584601F039FFE988237B074A1D
:10382C0001FB03F30A49A1FB0313DB0903EB83033D
:10383C005B000F33C2E90D33D36379E6002C0140F2
:10384C000024014001011000FD0FC0FF54D9FFFFFF
:10385C00D34D621094F8A031298B92B201FB03F383
:10386C009A42FFF632AF94F8D631002B7FF432AF88
:10387C00A4F8D4312EE701234FF0000B84F8D63195
:10388C00A4F872B101F0C4FE01F08AFB94F86E3119
:10389C0084F864B1A4F8A4B184F87CB126E701F0F3
:1038AC007DFE524BB4F8B02184F83DB1C3E90D2232
:1038BC00DA633DE684F8DC21FFF766F8B4F8723180
:1038CC00C82B04D95023A4F884B1A5F8A033B5F8BB
:1038DC00A003FEF759F8B4F98431002B7FF493ACB4
:1038EC0084F86E3184F83D31414942F22833AB659E
:1038FC000122C4F8403185F8562084F86421D4F8AC
:10390C0040214B62C4F8C021637F95F8A22385F84F
:10391C0055201422C4F860211BB1B5F89A33A4F8D1
:10392C007E31FEF7AFFA01F0ADFD6CE401F070FEF4
:10393C002E4B002584F87C515D6384F8A1519D6366
:10394C00DD63A4F87251A4F8A45101F0A3FD294839
:10395C004FF48072294602F013FBFEF7DFF893F860
:10396C00EC30254D2B2B38D0352B3AD01F2B04BFE8
:10397C00224B2B60FFF7E9BB214AD36823F00103EC
:10398C00D36001F00DFB194BC3E90DBBC3F83CB080
:10399C0002F06AF884F8DCB195E501F039FE134BBE
:1039AC0084F87CB1C3F834B084F8A1B1C3F838B052
:1039BC00C3F83CB0A4F872B1A4F8A4B101F06AFD4C
:1039CC004FF4807259460B4802F0DAFAC5E7637877
:1039DC00032B3FF6D3ABFFF7C6BB0A4B2B60FFF7AD
:1039EC00B4BB094B2B60FFF7B0BB00BF002C0140F0
:1039FC00001000404408002000000020007C00085B
:103A0C000044014000F8010800F80008F0B5634CD0
:103A1C00D4E90020801A6FF4487240F27653821871
:103A2C009A4283B034D85E4E5E4D002333802B789F
:103A3C00002B4FD06B780146ABB9AB78002B00F064
:103A4C009580A888584F01333988AB70FDF796FFE5
:103A5C0032286DD900223B882A706A78AB809AB1E3
:103A6C00D4E90031C91A40F2E1429142AB7909D84C
:103A7C004E480288C2EBC20201330A44DBB2D208C0
:103A8C00AB7102804B2B74D80023A868338004E000
:103A9C004449474B886800221A804649464A0B889D
:103AAC0012689BB2C31A93420B8805DD12FA83F39A
:103ABC009BB20B8003B0F0BD9BB21B1A9A4205DA85
:103ACC000B889B1A9BB20B8003B0F0BD80B20880B0
:103ADC0003B0F0BD394A947C7CB1394A12889042CB
:103AEC001AD832494FF47A7409880094FDF724FFF0
:103AFC0004460023AC603380CFE72B4B1A882B4B4A
:103B0C00198840F2FF7300932F23FDF715FF30281F
:103B1C00CCBF04462046ECE7234B511C1A884FF4CB
:103B2C00FA63009340F2E933FDF706FF0446E0E741
:103B3C003A8863682168C2EBC2025B1A1344AA7804
:103B4C00C3F3CF03322A3B8087D9193B9BB23B800E
:103B5C00A3F2D663194A03EBD3735B1082F82130BE
:103B6C0001236B7000F01AFB3B8876E780B2A880CB
:103B7C0068E70E4A1149138819339BB21380A3F2DC
:103B8C00EE2303EBD3735B10002481F820302C70F0
:103B9C00FEF76EF9AC7100F031FB75E744080020BC
:103BAC00BC07002014080020120000201000002088
:103BBC00AC0700206E070020B80300200806002088
:103BCC00140000205E4BF0B55E4F1968002544F6DA
:103BDC00206E1A46A7F804E003F17804AC462E4692
:103BEC0052F8043F9942A3EB0100194606D07045E8
:103BFC003CBF1FFA80FE0126844401259442EFD17C
:103C0C000DB14FEA5C15504850496EB10378A7F8D6
:103C1C0004E0012BCD6037D04D4A1478012C0DD027
:103C2C000BB91478ECB1F0BD0378CD60012B00F02A
:103C3C008480474A44F6206E1478F1E7AEF1C9044B
:103C4C00A4B244F65656B442EAD8DFF808C1424E44
:103C5C00012414708CF80040772434700224BC7159
:103C6C00DEE70EF1FF34022C2DD83B2DDBD83A4A7F
:103C7C003A4C13700123374A0B740E21217020210A
:103C8C000370B9711370F0BD0EF1FF32022A3FD8E8
:103C9C003B2D43D82F4E304C304A0B74037033708D
:103CAC00002323700E2313702023BB71284A147831
:103CBC00012CE3B2B7D1AEF1C904A4B244F6565606
:103CCC00B442C2D9AFE7AEF10403042B10D9AEF164
:103CDC00C9039BB244F656518B42A4D801231E480B
:103CEC0013701C49772202700222BA710B70F0BD5E
:103CFC00632D98D8184A194C0123137003220A74A7
:103D0C000721144A217020210370B9711370F0BD82
:103D1C00AEF10402042AC9D8632D02D90C4B1B78CE
:103D2C00F0BD0D4A0B4C137023700C4A03230B741B
:103D3C00072313702023BB71B8E744F6206EB5E758
:103D4C0044080020B8030020CA06002014080020F4
:103D5C00CB060020A9070020C8040020C9040020BD
:103D6C0070B5564C237813B1554B1B783BB9554B5A
:103D7C001A78002A6FD01B78012B0AD070BD524BD9
:103D8C001B78002B54D000F08FFF504B02221A707E
:103D9C0070BD4B4B1B78002B50D14D4D2B78012B0C
:103DAC0074D04C4B1B78012B67D02378002BE5D1BA
:103DBC002B78EBB1484A537C072B19D84749098813
:103DCC00052915D94648C16F00680133091A506995
:103DDC00DBB210FA81F1082B5374516108D1C1F395
:103DEC00CF034048C1F3CF115C185B1A04811383D5
:103DFC003D4C2088002838D03C4BDD79002DBDD1BE
:103E0C00364A40F2DC5398421580B7D9324E718B4A
:103E1C00FDF7B4FD32284FD8337F0133DBB2322BA0
:103E2C00337702D97578002D42D02388738370BD07
:103E3C0000F074FF254B01221A7070BD224B1B78C9
:103E4C007BB12B4B1888FDF7EDFBFDF799F9BDE81D
:103E5C00704000F029BFFFF7B5FEBDE8704000F0E0
:103E6C0023BFBDE8704000F059BF1B4B1B7893B9C2
:103E7C001A4A13880133138070BD00F099FF194B57
:103E8C0088B103229A7100F00FFF8EE7FDF778F9E5
:103E9C0000F00AFF85E7154BDB79002B7FF46EAF42
:103EAC000E4A138070BD02229A71FFF7AFFDEAE74C
:103EBC0000F0D4F9012333703577B6E7840700207E
:103ECC00CD070020A90700204008002098070020FB
:103EDC00CA060020CB06002014080020AC070020E6
:103EEC0044080020B80300207007002008060020BA
:103EFC009C0700200B28034B28BF0B2000EB400035
:103F0C0018707047310800202DE9F84F404E414F92
:103F1C00DFF80491DFF804B1032001F0B7FB34465D
:103F2C0006F17C0A00254AF6AA2833E0002A53D071
:103F3C003B494FF47A604FF0F70C1CFB020C4FF02E
:103F4C00090E384A3848B2FBFCF2B0FBF2F0374AA3
:103F5C00C1F828E080B2C862127800FB02F28BFB39
:103F6C000202D20AC1E90D22CA63FF2212FB0530FC
:103F7C002F4B0CFB00F0A3FB0030C0F34F30FDF7D0
:103F8C000FFD96F83300EF284FF0000515D80234DA
:103F9C00544521D094F8343094F83520C9F8008079
:103FAC0000213980002BC1D0FF2B24D12AB396F8E5
:103FBC0033000135EF28EDB2E9D9194BC0F1FF0000
:103FCC00002200EB8000C3E90D22DA6340000234CA
:103FDC00FDF7E6FC5445DDD101F01AFB1548104AFB
:103FEC0000880D4900239362D0624AF6AA223B80D6
:103FFC000A60BDE8F88F002A9AD1094A0021FF20F7
:10400C00C2E90D11D16300FB0530FDF7C9FCB8E71F
:10401C0008060020BC0700200030004057EAE0688A
:10402C00002C014080969800001BB700310800203E
:10403C005172A6BE0400002010B572B6032001F028
:10404C0025FB1A4B93F83030FF2B07D0FFF75CFFA2
:10405C00174A184B1288DA6262B610BD154C164B13
:10406C0041F28732E2621B78E363C4E90D3303202B
:10407C0001F00CFB3723A362C820FDF791FC05204F
:10408C0001F004FB2823A362C820FDF789FC06205D
:10409C0001F0FCFA1923A362C820FDF781FC01F0A2
:1040AC00B7FA064A0023A3621380D1E70806002062
:1040BC0004000020002C014031080020BC07002027
:1040CC0070B5164C41F28733E36272B6144D154B42
:1040DC003C224AF6AA262E60A2621B78E363C4E94E
:1040EC000D33012001F0D2FA4B20FDF759FC50237F
:1040FC00A3624B20FDF754FC5A23A3624B202E6085
:10410C00FDF74EFC01F084FA074A08491288002397
:10411C00A3620B80E26262B670BD00BF002C01404E
:10412C00003000403108002004000020BC070020B3
:10413C0010B572B6144C154A154B4AF6AA2141F229
:10414C008730E06211605022A2621B78E363C4E9FD
:10415C000D33032001F09AFA6420FDF721FC46236D
:10416C00A3626420FDF71CFC2823A3626420FDF7E6
:10417C0017FC01F04DFA074A074912880023A36285
:10418C000B80E26262B610BD002C01400030004092
:10419C003108002004000020BC07002010B5124C90
:1041AC00124B41F287313222E162A2621B78E36347
:1041BC00C4E90D33022001F069FA9620FDF7F0FBFB
:1041CC000B4A4AF6AA211E2311609620A362FDF722
:1041DC00E7FB01F01DFA074A074912880023A36286
:1041EC000B80E26210BD00BF002C014031080020A2
:1041FC000030004004000020BC07002010B5124C19
:10420C00124B41F287312822E162A2621B78E363F0
:10421C00C4E90D33022001F039FA9620FDF7C0FBFA
:10422C000B4A4AF6AA21502311609620A362FDF78F
:10423C00B7FB01F0EDF9074A074912880023A36286
:10424C000B80E26210BD00BF002C01403108002041
:10425C000030004004000020BC0700202DE9F04194
:10426C00154D41F28733EB6272B6144BDFF8508078
:10427C001B78144FEB63C5E90D3377244AF6AA2655
:10428C00A7FB04300009C8F8006001F0FFF90A2010
:10429C0063100344AB62023CFDF782FB631CEFD15D
:1042AC0001F0B6F9084A094912880023AB620B8069
:1042BC00EA6262B6BDE8F081002C014031080020B2
:1042CC0000300040CDCCCCCC04000020BC0700203A
:1042DC00002103E00B4B5B58435004310A480B4B55
:1042EC0042189A42F6D30A4A02E0002342F8043BF1
:1042FC00084B9A42F9D301F023FC01F01DFEFEF7A6
:10430C0011FF7047E45F000800000020D00400207B
:10431C00D004002064090020FEE70000836861F3EC
:10432C0000038360704700BF4FF0807303607047D9
:10433C0043680A7862F30823436083684A7862F31F
:10434C004103836083688A7862F3CB238360CB78E4
:10435C00C26A013B63F31752C2627047836861F310
:10436C0008238360704700BF836843F008038360B1
:10437C00704700BF8068C0F3C0007047836843F08B
:10438C0004038360704700BF8068C0F380007047EF
:10439C0010B4112917D8DFE811F0120079007E0053
:1043AC00830088008D00920097009C00A100A6005D
:1043BC00AB00B000B500BA00BF00C40074000469C3
:1043CC0063F302040461013A0F2A0DD8DFE802F00E
:1043DC0013181D22272C31363B40454A4F54080EEA
:1043EC00C36A61F38E23C36210BC7047C36A61F366
:1043FC00D333C362F8E7436B61F304034363F3E71E
:10440C00436B61F349134363EEE7436B61F38E2314
:10441C004363E9E7436B61F3D3334363E4E7436BF3
:10442C0061F318534363DFE7436B61F35D634363ED
:10443C00DAE7036B61F304030363D5E7036B61F302
:10444C0049130363D0E7036B61F38E230363CBE75C
:10445C00036B61F3D3330363C6E7036B61F3185348
:10446C000363C1E7036B61F35D630363BCE7C36A7A
:10447C0061F30403C362B7E7C36A61F34913C36210
:10448C00B2E7C46863F35754C4609CE7046963F3F0
:10449C00C504046197E7046963F38814046192E727
:1044AC00046963F34B2404618DE7046963F30E34F0
:1044BC00046188E7046963F3D134046183E7046918
:1044CC0063F3944404617EE7046963F35754046115
:1044DC0079E7046963F31A64046174E7046963F3AC
:1044EC00DD6404616FE7C46863F30204C4606AE7C7
:1044FC00C46863F3C504C46065E7C46863F38814D7
:10450C00C46060E7C46863F34B24C4605BE7C468B1
:10451C0063F30E34C46056E7C46863F3D134C460EB
:10452C0051E7C46863F39444C4604CE701F007039B
:10453C00072981688CBF41F0007121F00071816006
:10454C00816863F353418160836862F31453836021
:10455C00704700BF024B9A6860F3D7529A6070475D
:10456C0000240140836861F396538360704700BF59
:10457C0020B9034BDA6961F30002DA61704700BFBE
:10458C000000014010B412490B6843F001030B60AA
:10459C000B689B07FCD54B680D4A23F003034B605B
:1045AC00536813F00C0FC3F38101F9D1136823F096
:1045BC00867323F48033136041F610744FF480102B
:1045CC004FF41F035160D462106310BC93607047AA
:1045DC0000100240030C03F1804303F5043300F098
:1045EC001F001A680123834093430CBF0120002055
:1045FC00704700BF030C03F1804303F5043301291A
:10460C0000F01F0019684FF0010202FA00F20CBF13
:10461C000A4321EA02021A60704700BF030C03F13F
:10462C00804303F50433012900F01F0019684FF093
:10463C00010202FA00F20CBF0A4321EA02021A60DC
:10464C00704700BF042809D8DFE800F0090F151BDC
:10465C0003000F4B5A6A61F300025A6270470C4B0D
:10466C001A6861F300021A607047094B1A6861F30B
:10467C0010421A607047064B1A6861F318621A6090
:10468C007047034B1A6A61F300021A62704700BF4D
:10469C0000100240024B5A6860F307125A607047D0
:1046AC0000100240024B5A6860F30A225A607047AD
:1046BC0000100240024B5A6860F3CD225A607047DA
:1046CC0000100240054B5A6860F38F325A605A68EA
:1046DC00C0F3800060F31C725A60704700100240F7
:1046EC00134B5A68A0B960F310425A604FF0000C9B
:1046FC000F4B5A6861F395425A605A68C1F3011026
:10470C0060F35E725A60DA6A6CF31A62DA627047AE
:10471C0042F480325A6001285A6803D042F40032C5
:10472C005A60E3E722F400324FF0020C5A60DFE7E4
:10473C0000100240024B5A6860F301025A60704745
:10474C0000100240024B5868C0F38100704700BF54
:10475C0000100240044A536D01280CBF43F0300393
:10476C0023F03003536570470010024001680022AB
:10477C0021F00101C3B210B4083B01600260426039
:10478C008260C260A2F13332064CA2FB03231B09E8
:10479C0061689B000F2202FA03F30B43636010BCA9
:1047AC00704700BF00000240036861F30003036020
:1047BC00704700BF034B1B68034214BF012000204D
:1047CC00704700BF000002400023C0E90033C0E97D
:1047DC0002330382704700BF03684BF6EF7213403D
:1047EC0010B4036002680B891343036003684A7CAE
:1047FC0062F30D3303600368CA7B62F38B2303609F
:10480C0003688A7B62F30923036003684A7B62F3C3
:10481C00C713036003680A7B62F3861303600A7C88
:10482C00036862F345130360D1E900234C894460AB
:10483C008260C36010BC7047014BD860704700BFEA
:10484C0000200240024B0349034A59605A607047EA
:10485C000020024023016745AB89EFCD024A136962
:10486C0043F0800313617047002002401B4A136918
:10487C0043F0020313615061136943F04003136169
:10488C00D368D90709D4D3685B0720D50120134A14
:10489C00136923F00203136170474FF08043D16812
:1048AC00C80703F1FF330CD4D16849070DD4D06885
:1048BC00C0F30010C0F10300C0B2002B08BF0420ED
:1048CC00E5E7002BEBD10420E1E70120F5E7D06808
:1048DC00C0F30010C0F10300C0B2D8E700200240C2
:1048EC00194A136943F0010313610160D368D907B6
:1048FC0009D4D3685B0720D50120134A136923F030
:10490C000103136170474FF48013D168C80703F19A
:10491C00FF330CD4D16849070DD4D068C0F3001014
:10492C00C0F10300C0B2002B08BF0420E5E7002B48
:10493C00EBD10420E1E70120F5E7D068C0F30010CB
:10494C00C0F10300C0B2D8E70020024001F0070C10
:10495C004FEA8C0C0F2303FA0CF3C90802FA0CF281
:10496C006FEA030306D0416A0B404362436A134368
:10497C0043627047016A0B400362036A134303628C
:10498C00704700BF08B52E4B98421CD02D4B984257
:10499C0023D02D4B98422AD02C4B984209D02C4B2B
:1049AC0098422ED02B4B984235D02B4B98423CD072
:1049BC0008BD2A480121FFF731FEBDE80840274811
:1049CC000021FFF72BBE26480121FFF727FEBDE88B
:1049DC00084023480021FFF721BE22480121FFF7A0
:1049EC001DFEBDE808401F480021FFF717BE1E48FA
:1049FC000121FFF713FEBDE808401B480021FFF71B
:104A0C000DBE1A480121FFF709FEBDE80840174802
:104A1C000021FFF703BE16480121FFF7FFFDBDE89B
:104A2C00084013480021FFF7F9BD12480121FFF798
:104A3C00F5FDBDE808400F480021FFF7EFBD00BFB2
:104A4C00002C0140000400400010004000200040F9
:104A5C0000400140004401400048014008001000A3
:104A6C000B000C00010010000400100010000C00E2
:104A7C0011000C0012000C00036861F3C7130360F3
:104A8C00704700BF062909D8DFE801F013080E08AB
:104A9C0009080400C36962F3CB23C3617047C3697F
:104AAC0062F3C303C3617047836962F3CB238361F1
:104ABC007047836962F3C30383617047062909D881
:104ACC00DFE801F0090E13181D220400036A62F3DB
:104ADC000C3303627047036A62F30003036270478E
:104AEC00036A62F3820303627047036A62F304137E
:104AFC0003627047036A62F3861303627047036AAA
:104B0C0062F3082303627047036A62F38A23036229
:104B1C00704700BF084B094AB3F808C00848A2F810
:104B2C0000C00849B3F806C0074AA0F800C01888AE
:104B3C005B8808801380704734080020D007002061
:104B4C00EC070020D6070020D606002010B5402325
:104B5C0086B0002203214FF09040FCF7A1FF042304
:104B6C00002203214FF09040FCF79AFF082300220B
:104B7C0003214FF09040FCF793FF01214FF4A0105C
:104B8C00FFF738FD3648374CFFF7F0FD01A8FFF76B
:104B9C001BFE3548354A0492CDE901044FF4A0239D
:104BAC0000F55B4001A90393BC3040F20123ADF842
:104BBC001430FFF711FE2A480121FFF7F5FD012102
:104BCC002B48FFF717FD0720FFF77CFD6846FFF722
:104BDC00ABFB284B284800936946FFF7A9FB2648F6
:104BEC00032301220221FFF7D3FB234803230222D4
:104BFC000621FFF7CDFB03231A461F481121FFF7AF
:104C0C00C7FB1D48072304221021FFF7C1FB032318
:104C1C00194605221848FFF7BBFB0120FFF79AFC49
:104C2C00012215480721FFF781FC13480121FFF7EA
:104C3C0095FB11480121FFF771FB0F48FFF794FB1F
:104C4C000D48FFF797FB0028FAD10B480A4CFFF7E9
:104C5C0095FB2046FFF798FB0028FAD106B010BD53
:104C6C0008000240340800204C24014000010101DE
:104C7C000900180001000005002401408209511CA4
:104C8C00084B53F8222053F8213000F03F00D31A80
:104C9C0000FB03F3002BB8BF3F33A2EBA31000B211
:104CAC00704700BFC403002038B5164D164C6B6C12
:104CBC006B642046FFF766FE144B41210B22A16169
:104CCC0022621A78A2624FF6FF73E3626269104B9C
:104CDC00002142F00102626103F8041B0D4A61627B
:104CEC00EA640D4A2B651378AB64E36843F40073F4
:104CFC00E360236843F0010340F68B1223606A647F
:104D0C0038BD00BF0000024000040040C804002071
:104D1C004008002034040040BE03002038B51D4D6F
:104D2C001D4C6B6C43F010036B642046FFF72AFE9E
:104D3C0060210323194AA16123621278184BA262E5
:104D4C004C210122E1621A7063691649164A43F03C
:104D5C0001036361154BE9642A655B781733AB6417
:104D6C006B6C43F002036B646B6C43F008036B6475
:104D7C006B6C43F001036B64E36843F40073E36012
:104D8C00636C43F400436364236843F001032360C2
:104D9C0038BD00BF00000240000400402408002081
:104DAC0040080020340400403C050020C8040020CA
:104DBC00024B186900F01000704700BF0004004857
:104DCC000248102301220221FCF776BE00040048A1
:104DDC00FEE700BFFEE700BFFEE700BFFEE700BF37
:104DEC00704700BF704700BF704700BF704700BFDF
:104DFC0010B50220FFF7DEFC012800D010BD054CD9
:104E0C006060FFF787FE0820FFF7D4FC012808BF7D
:104E1C00606010BD0000024008B5264B1B78002BCB
:104E2C0039D14FF48040FFF7C5FC012811D04FF465
:104E3C000050FFF7BFFC01281ED04FF40040FFF7D5
:104E4C00B9FC012800D008BD1B4B4FF480525A60AE
:104E5C0008BD1A4B1B78002BE9D0194A1649136A66
:104E6C004FF4804043F00203136248604FF400504B
:104E7C00FFF7A0FC0128E0D10F4B4FF480525A6091
:104E8C005A6C22F001025A64FEF76AFF0D4B4FF484
:104E9C0000421A61D1E7084B4FF480525A605A6CA9
:104EAC0022F001025A64FEF75BFF064B4FF40042FE
:104EBC001A6108BDCA06002000000240CB06002083
:104ECC00000400400004014008B50D4A0D4B5B6A1C
:104EDC001268B3EB520F07D90B4B4FF400125A6107
:104EEC00BDE80840FDF76EB800F052F8074B1B7890
:104EFC00984200D008BD044B4FF400125A6108BD13
:104F0C00480700200010004000040140520000201F
:104F1C00024B4FF6FE721A61FDF736BE00200040C0
:104F2C00024B00221A61FDF705B800BF0044014096
:104F3C00034B4FF6FE714FF6FD7219611A61704703
:104F4C0000400140704700BF074B1A69910744BFEE
:104F5C004FF6FD721A61044B1A69D20744BF4FF623
:104F6C00FE721A61704700BF00040040064A0749F0
:104F7C001368013313604B691B0400D470474FF462
:104F8C0000434B61FDF7DCBC4409002000040140E8
:104F9C00024BD869C0F38070704700BF000001401D
:104FAC00044B1A684FF4001122F400121A60596174
:104FBC00704700BF00040140024A136843F4001319
:104FCC0013607047000401400F4B1A68B2F5C87F9C
:104FDC0004D20E49CA6922F00402CA611B68B3F5F7
:104FEC00167F04D9094AD36943F00403D3610849F5
:104FFC00084A0B78B3FA83F35B095B0593600B7873
:10500C005B05D360704700BF4807002000000140DB
:10501C0052000020000401402DE9F0430029B4BFE8
:10502C00CE1C0E4626F00303073383B023F0070390
:10503C0000AFADEB030DB6106D46884681461446A5
:10504C0000213246284600F09BFFB8F1030F17DD14
:10505C004846291F0022837890F8038090F800E0DE
:10506C0090F801C01B0443EA086343EA0E030132C3
:10507C0043EA0C23964241F8043F00F10400EADCB9
:10508C003E60FFF7DFFBC4F30903CBB100230CE058
:10509C0078687B6804EB800055F82310FFF720FC40
:1050AC000320FFF7C9FB7B6801337B607A683B68A0
:1050BC009A42EDD3FFF7D2FB0C37BD46BDE8F08327
:1050CC002046FFF7D3FBE1E7002A12DD531E052B28
:1050DC0001F1010C03D9A0EB0C03022B0AD8431EDF
:1050EC001A44ACEB0000C15C03F8011F9342FAD1E7
:1050FC007047704730B522F003054C190B46A0EBF6
:10510C00010ED3F800C04EF803C00433A342F8D10B
:10511C00AA420FD022F003036C1C13F801C000F854
:10512C0003C0A24206DD02350B5D0355AA4201DD28
:10513C004B5D435530BD00BF62B670471C4B40F20F
:10514C00531210B51A60FFF71DFA01210020FFF76A
:10515C0079FA0120FFF73EFA01280446F9D11D2106
:10516C000020FFF7BDFA21460220FFF76BFA192049
:10517C00FFF730FA01280446F9D10020FFF78AFA2C
:10518C000020FFF797FA0020FFF78CFA2046FFF774
:10519C00E1FA0220FFF7CEFAFFF7D4FA0228FBD18E
:1051AC000020FFF7D7FABDE8104000F0F9BC00BFB3
:1051BC0000200240084B10B44CF6CC4245F255543A
:1051CC001C6003201A604FF47A614AF6AA225860D8
:1051DC0010BC99601A6070470030004038B53F48E9
:1051EC003F4C0121FFF706FA0025682341F2873175
:1051FC0046F66802E1622046A5622946A261E36197
:10520C000122FFF73FFC204601220221FFF73AFC66
:10521C00012220460421FFF735FC20460121FFF72F
:10522C002BFC636C2F480F2262F30703636401218C
:10523C00FFF7E0F92C4C2D480121FFF7DBF9022395
:10524C002A4619462046FCF72BFC2A462046012309
:10525C000221FCF725FC80232A4602214FF09040C6
:10526C00FCF71EFC204602220121FFF76FFB2946AA
:10527C0020460222FFF76AFB022207214FF09040E2
:10528C00FFF764FB2A464FF4806302214FF09040F5
:10529C00FCF706FC2A464FF4007302214FF09040B5
:1052AC00FCF7FEFB4FF480732A4602214FF090402E
:1052BC00FCF7F6FB02220A214FF09040FFF746FB69
:1052CC00022209214FF09040FFF740FBBDE8384027
:1052DC00022208214FF09040FFF738BB0B0018005A
:1052EC00002C0140110014000004004812001400AE
:1052FC002DE9F0474C4CFFF721FF102501214FF40D
:10530C00A010FFF777F984F80B534FF40068C4F83A
:10531C000080FFF763FF45480121FFF76BF9444B11
:10532C0044484FF6FF774FF03B09DF620121C3F889
:10533C002890FFF75FF9404B32224FF0770ADA6280
:10534C00C3F828A0302384F813334FF400232360D0
:10535C003A480121FFF74EF901214FF4C010FFF735
:10536C0049F90223002203214FF09040FCF798FBEF
:10537C0000262023002203214FF09040FCF790FBE5
:10538C0084F80C634FF48053236001213046FFF7FF
:10539C00EFF82B480121FFF72DF92A4B2A48DF6241
:1053AC00C3F828A01A6842F080021A600121FFF7A6
:1053BC0021F9264B4FF4FA72DA62C3F8289084F87C
:1053CC0015634FF40013236021480121FFF712F9F4
:1053DC0020480121FFF70EF932461F4E2B4630466E
:1053EC000221FCF75DFB304601220421FFF7AEFAE7
:1053FC0001214FF4A010FFF7FDF8184B40F68A126C
:10540C005A6484F80B53C4F80080A3F5FE33DF62B2
:10541C009D621A6842F080021A601A6842F001021A
:10542C001A60BDE8F08700BF00E100E004001C003A
:10543C000010004008001C00002000401100140067
:10544C0012001800004801401100180000440140EF
:10545C001200140001001C0000040048000002406F
:10546C00014B5863704700BF002C0140014B9863FF
:10547C00704700BF002C0140014BD863704700BF40
:10548C00002C0140024A536943F0010353617047F9
:10549C00002C0140024B0022DA625A62704700BFB6
:1054AC000004004038B5374C374D2046012200210E
:1054BC00FFF704FB204601220221FFF7FFFA2046EA
:1054CC0001220421FFF7FAFA012211462046FFF7C8
:1054DC00F5FA204601220321FFF7F0FA20460122BB
:1054EC000521FFF7EBFA2368284A294943F0010309
:1054FC002360636C43F400436364636943F001030A
:10550C0063611068234B40F001001060506940F05B
:10551C0001005061D06820F00100D0602A6842F090
:10552C0001022A600A6842F001020A604A6942F0EC
:10553C0001024A611A6842F001021A605A6942F08B
:10554C0001025A61DA6842F00102DA60A4F594347F
:10555C00FFF7FCFA012200212046FFF7AFFA23687F
:10556C000D4A202143F00103236082F807138023A6
:10557C00136002F1C04202F50C52136843F400436D
:10558C00136038BD002C014000480140004401402C
:10559C00001000400020004000E100E070B54FF426
:1055AC0080634FF09044002201214FF09040FCF7B3
:1055BC0077FA4FF48063A36220464FF40073002205
:1055CC000121FCF76DFA4FF40072104DA2622046D7
:1055DC004FF4807300220121FCF762FA02234FF48E
:1055EC008072A262194628460022FCF759FA284616
:1055FC00012300220221FCF753FA20468023BDE848
:10560C00704000220221FCF74BBA00BF0004004896
:10561C0070B51D4E0223002201213046FCF740FAE2
:10562C0002224FF090444FF48063B26201210022B9
:10563C004FF09040FCF734FA01234FF480620125BF
:10564C001946A26230460022FCF72AFA4FF4007386
:10565C00002229462046B562FCF722FA4FF400726C
:10566C008023A262294600222046FCF719FA8022E8
:10567C004FF48073A262294600222046FCF710FAF0
:10568C004FF48073A36270BD000400480138F8B574
:10569C00052848D8DFE810F08A0006000501CC0088
:1056AC003D014800CB4D0223002201212846022750
:1056BC00FCF7F6F94FF090444FF48063002201217F
:1056CC004FF09040AF62FCF7EBF901234FF480628E
:1056DC001946A262284600220126FCF7E1F94FF494
:1056EC0000730022AE6131462046FCF7D9F94FF425
:1056FC000072B94BA2621B7803F0FF02002B40F042
:10570C005B81802331462046FCF7CAF98023A362D3
:10571C004FF48073002202214FF09040FCF7C0F947
:10572C00AE4BAF4ADA61F8BDAA4E012301251946EA
:10573C0000223046FCF7B4F94FF090444FF400735C
:10574C00002229464FF09040B562FCF7A9F94FF4BE
:10575C000073A3620022802329462046FCF7A0F99F
:10576C0080224FF48073A261294600222046FCF768
:10577C0097F94FF48072984BA2621B7803F0FF02EA
:10578C00002B40F0FD80022329463046FCF788F9B7
:10579C000223B3624FF48063002202214FF0904049
:1057AC00FCF77EF98D4B8F4ADA61F8BD4FF09044CF
:1057BC008023002201214FF09040FCF771F98023E7
:1057CC00844DA36200224FF4807301212046FCF724
:1057DC0067F901234FF480721946A2622846002211
:1057EC000126FCF75DF94FF400730022AE613146DF
:1057FC002046FCF755F94FF40072774BA2621B78E8
:10580C0003F0FF02002B40F0C980022331462846EA
:10581C00FCF746F90223AB624FF4806300220221AD
:10582C004FF09040FCF73CF96C4B6F4ADA61F8BDD5
:10583C004FF090448023002201214FF09040FCF760
:10584C002FF98023634DA36200224FF48073012152
:10585C002046FCF725F94FF48073A3620022022343
:10586C00012128460226FCF71BF94FF48063002225
:10587C00AE6101212046FCF713F94FF48062564BC0
:10588C00A2621B7803F0FF02002B40F08E800123F4
:10589C0019462846FCF704F90123AB624FF4007358
:1058AC00BCE74C4E01230125194600223046FCF77B
:1058BC00F7F84FF090444FF40073002229464FF054
:1058CC009040B562FCF7ECF84FF40073A362002231
:1058DC000223294630460227FCF7E2F84FF4806396
:1058EC000022B76129462046FCF7DAF84FF48062B3
:1058FC00394BA2621B7803F0FF02002B63D180238B
:10590C0029462046FCF7CCF88023A3624FF4807321
:10591C0042E7304D02230022012128460226FCF7E3
:10592C00BFF84FF090444FF48063002201214FF0F8
:10593C009040AE62FCF7B4F84FF48063A36200228F
:10594C00802301212046FCF7ABF880224FF48073B2
:10595C00A261012100222046FCF7A2F84FF48072CC
:10596C001D4BA2621B7803F0FF0283B90123194679
:10597C002846FCF795F80123AB624FF40073C9E697
:10598C000223002219463046FCF78AF802E701236D
:10599C00002231462846FCF783F8EEE7022300226A
:1059AC0019462846FCF77CF836E7012300223146DD
:1059BC002846FCF775F871E780230022394620460B
:1059CC00FCF76EF8A4E68023002239462046FCF74B
:1059DC0067F89BE700040048D40600200000014053
:1059EC00E5000040C5000040D500004070B51D4EDC
:1059FC000223002201213046FCF752F802224FF01C
:105A0C0090444FF48063B261012100224FF090402A
:105A1C00FCF746F801234FF4806201251946A26277
:105A2C0030460022FCF73CF84FF400730022294664
:105A3C002046B561FCF734F84FF400728023A26263
:105A4C00294600222046FCF72BF880224FF4807365
:105A5C00A261294600222046FCF722F84FF48073FD
:105A6C00A36270BD0004004870B52C4C2378002B49
:105A7C003DD12B4D03F0FF02012102232846FCF7F8
:105A8C000FF80223AB624FF48063002202214FF027
:105A9C009040FCF705F8237803F0FF02B3BB204DD0
:105AAC00012319462846FBF7FBFF0123AB624FF499
:105ABC000073002202214FF09040FBF7F1FF237896
:105ACC0003F0FF02D3B9802301214FF09040FBF784
:105ADC00E7FF4FF0904380229A62BDE870404FF48C
:105AEC008073002202214FF09040FBF7D9BF0223B4
:105AFC000B4800221946FBF7D3FFC4E78023002292
:105B0C0002214FF09040FBF7CBFFE6E7044801235E
:105B1C0000220221FBF7C4FFC9E700BFD406002016
:105B2C0000040048054BDA6922F00102DA611862C0
:105B3C00DA6942F00102DA61704700BF00000240EE
:105B4C0030B414490B6843F001030B600B689B07DE
:105B5C00FCD54B680F4A23F003034B60536813F0DA
:105B6C000C0FC3F38101F9D113680B480B4C23F0D4
:105B7C00867323F48033136041F610754FF4801351
:105B8C005160D56213634FF41F039360846030BC83
:105B9C00704700BF0010024000ED00E0001000084C
:105BAC0010B5FEF7CFFD002831D002280AD02D48C1
:105BBC002D4B2E495B682E4AC3F30313CB5CD840A4
:105BCC00106010BD284B5968DA6A002AC1F30041F5
:105BDC0029DAD86ADC6ADA6AC0F3031EC4F3082433
:105BEC0002F00702002937D05B68224813F4003F0B
:105BFC001C4B4FF0000108BF18460EFA02F20023AE
:105C0C00A4FB000E04FB01F1FBF75AFAD0E7164B8C
:105C1C005A6D9205CBD51A6B124B174812F0007FB8
:105C2C0008BF1846C4E758685B6813F0C04FC0F350
:105C3C008340C3F341720BD10F2809D0023019B144
:105C4C00094B5B689B0309D50A4B03FB00F0AFE7DC
:105C5C00013000EB0210F2E70648CEE7014B03FBE4
:105C6C0000F0A5E700127A0000100240C45F0008A3
:105C7C00CC04002000093D00006CDC022DE9F0474B
:105C8C00089D0E4604460F46002B4AD194468C457F
:105C9C00B2FA82F260D942B1C2F12003974020FAE5
:105CAC0003F30CFA02FC1F4394404FEA1C4E1FFAFC
:105CBC008CF6B7FBFEF1230C0EFB117743EA07437E
:105CCC0001FB06F098420AD91CEB030301F1FF37E4
:105CDC0080F01581984240F21281023963441B1AFC
:105CEC00A4B2B3FBFEF00EFB103344EA034400FBFA
:105CFC0006F6A6420AD91CEB040400F1FF3380F02F
:105D0C000081A64240F2FD806444023840EA014022
:105D1C00A41B00211DB1D4400023C5E90043BDE8FC
:105D2C00F0878B4205D90DB1C5E900010021084669
:105D3C00F5E7B3FA83F1002946D1B34202D382428C
:105D4C0000F2F580841A66EB030201201746002D41
:105D5C00E5D0C5E90047E2E7002A40F09380A1EBCB
:105D6C000C034FEA1C471FFA8CFE0121B3FBF7F61C
:105D7C0007FB1630230C43EA00430EFB06F0984257
:105D8C0008D91CEB030306F1FF3802D2984200F24B
:105D9C00D08046461B1AA4B2B3FBF7F007FB1033B6
:105DAC0044EA03440EFB00FEA64508D91CEB040490
:105DBC0000F1FF3302D2A64500F2B6801846A4EBE0
:105DCC000E0440EA0640A5E7C1F120078B4022FAF9
:105DDC0007FC4CEA030C06FA01FE20FA07F426FA3B
:105DEC0007F344EA0E0400FA01F84FEA1C404FEAAC
:105DFC001449B3FBF0FE1FFA8CF600FB1E3349EA84
:105E0C0003430EFB06F9994502FA01F20BD91CEB80
:105E1C0003030EF1FF3A80F08580994540F28280B1
:105E2C00AEF1020E6344A3EB0909A4B2B9FBF0F383
:105E3C0000FB139944EA094403FB06F6A64208D971
:105E4C001CEB040403F1FF3068D2A64266D9023B76
:105E5C00644443EA0E40A41BA0FB02E6B442734622
:105E6C00B14652D34FD05DB1B8EB030264EB0904D9
:105E7C0004FA07F722FA01F31F43CC40C5E900747A
:105E8C0000214CE7C2F1200120FA01F30CFA02FCCC
:105E9C0026FA01F1964033434FEA1C471FFA8CFE59
:105EAC00B1FBF7F007FB1016190C41EA064100FB99
:105EBC000EF68E4204FA02F408D91CEB010100F133
:105ECC00FF382DD28E422BD902386144891B9BB2EC
:105EDC00B1FBF7F607FB161143EA014306FB0EF183
:105EEC00994208D91CEB030306F1FF3814D29942EE
:105EFC0012D9023E63445B1A46EA004136E7394642
:105F0C00EDE6184602E7F045ADD2BEEB020366EBB8
:105F1C000C060138B146A6E74646ECE7034698E77F
:105F2C004046D3E7D6467EE76444023847E7084646
:105F3C000DE7023E63442DE770B50D4D0D4C641B0F
:105F4C00A4100026A64209D10B4D0C4C00F020F8F1
:105F5C00641BA4100026A64205D170BD55F8043B65
:105F6C0098470136EEE755F8043B98470136F2E7BF
:105F7C00DC5F0008DC5F0008DC5F0008E05F000805
:105F8C0002440346934200D1704703F8011BF9E722
:105F9C00F8B500BFF8BC08BC9E467047F8B500BF0A
:085FAC00F8BC08BC9E467047DA
:105FB400191B12131D1516171A090A0B1E0D0E0FA5
:105FC40000000000000000000102030406070809A5
:085FD400B4FCFF7F0100000096
:045FDC00691100083F
:045FE0004111000863
:105FE400007C0008871387130F007800C800D007CF
:105FF4004C046C07DC0564004A010000000000004A
:106004009001000000000000E80300000000000010
:10601400000000000000000000000000204E00000E
:10602400A08601000206100114004600DC050F00E2
:106034009001010501010100D430000005010A00AE
:10604400E803000010270000000000000A00000020
:1060540000000000640000000000000000000000D8
:1060640000000000000000001027000050C30000E2
:10607400B400D007D0070000B400B700BA00BD00D8
:10608400C100C400C700CA00CD00D000D300D600B0
:10609400D900DC00E000E300E600E900EC00EF00DA
:1060A400F200F500F700FA00FD000001030106010B
:1060B40009010B010E0111011301160119011B0144
:1060C4001E0120012301250128012A012C012F0191
:1060D40031013301350138013A013C013E014001EF
:1060E400420144014601470149014B014D014E0162
:1060F40050015101530154015601570158015A01ED
:106104005B015C015D015E015F016001610162018F
:10611400630163016401650165016601660167014C
:106124006701670168016801680168016801680125
:10613400680168016801670167016701660166011A
:10614400650165016401630163016201610160012C
:106154005F015E015D015C015B015A015801570159
:10616400560154015301510150014E014D014B019F
:106174004901470146014401420140013E013C01FD
:106184003A0138013501330131012F012C012A0173
:1061940028012501230120011E011B0119011601FB
:1061A400130111010E010B01090106010301000194
:1061B400FD00FA00F700F500F200EF00EC00E90042
:1061C400E600E300E000DC00D900D600D300D000F4
:1061D400CD00CA00C700C400C100BD00BA00B700AA
:1061E400B400B100AE00AB00A700A400A1009E0063
:1061F4009B009800950092008F008C008800850019
:1062040082007F007C0079007600730071006E00CC
:106214006B006800650062005F005D005A00570073
:10622400550052004F004D004A004800450043000D
:1062340040003E003C003900370035003300300098
:106244002E002C002A002800260024002200210011
:106254001F001D001B001A00180017001500140071
:106264001200110010000E000D000C000B000A00BB
:1062740009000800070006000500050004000300EB
:106284000300020002000100010001000000000000
:1062940000000000000000000000000000000100F9
:1062A40001000100020002000300030004000500D5
:1062B400050006000700080009000A000B000C0096
:1062C4000D000E001000110012001400150017003C
:1062D40018001A001B001D001F00210022002400CA
:1062E400260028002A002C002E0030003300350040
:1062F400370039003C003E004000430045004800A0
:106304004A004D004F005200550057005A005D00EE
:106314005F006200650068006B006E00710073002E
:10632400760079007C007F008200850088008C0064
:106334008F009200950098009B009E00A100A4008D
:10634400A700AB00AE00B1000F001E0303006419E8
:106354000000000001000000000000003200000006
:106364000000000000000000000000000000000029
:106374001027000050C3000002000F006E00D00779
:1063840064000500E8030614013278004B000100A4
:106394005A005A001E000201FA000000204E20009C
:1063A40050C30000C8000000BA00000094000000C0
:1063B400800000007300000069000000620000001B
:1063C4005B00000056000000510000004C0000007B
:1063D4004800000045000000410000003E000000AD
:1063E4003C000000390000003600000034000000CA
:1063F400320000002F0000002D0000002B000000E0
:1064040029000000270000002500000023000000F0
:1064140022000000200000001E0000001C000000FC
:106424001B00000019000000170000001600000007
:106434001400000012000000110000000F00000012
:106444000D0000000C0000000A000000080000001D
:106454000700000005000000030000000100000028
:1064640000000000FEFFFFFFFCFFFFFFFAFFFFFF3D
:10647400F8FFFFFFF6FFFFFFF3FFFFFFF1FFFFFF52
:10648400EEFFFFFFEBFFFFFFE8FFFFFFE5FFFFFF6E
:10649400E1FFFFFFDDFFFFFFD7FFFFFFD0FFFFFF9F
:1064A400C5FFFFFFC4FFFFFF1107000000127A00C1
:107BE0005249444745335F463432310000000000BB
:107BF0000000000000000000000000000000000085
:04000005080042DDD0
:00000001FF
