:020000040800F2
:100000000010002059010008A1010008A10100080A
:10001000A1010008A1010008A101000800000000E2
:10002000000000000000000000000000A101000826
:10003000A101000800000000A1010008A1010008C2
:10004000A1010008A1010008A1010008A101000808
:10005000A1010008A1010008A1010008A1010008F8
:1000600000000000A1010008A1010008A101000892
:10007000A1010008A1010008A10100080000000082
:10008000A1010008A101000800000000A101000872
:10009000A1010008A1010008A1010008A1010008B8
:1000A000A1010008A1010008A1010008A1010008A8
:1000B000A101000800000000000000000000000096
:0C00C000A101000800000000A1010008E0
:1000CC000348044B834202D0034B03B118477047DB
:1000DC000000002000000020000000000548064B36
:1000EC001B1AD90F01EBA301491002D0034B03B12A
:1000FC00184770470000002000000020000000009E
:10010C0010B5064C237843B9FFF7DAFF044B13B153
:10011C000448AFF300800123237010BD00000020C1
:10012C0000000000640B000808B5054B1BB1054925
:10013C000548AFF30080BDE80840FFF7CFBF00BF14
:10014C000000000004000020640B0008002103E004
:10015C000B4B5B58435004310A480B4B42189A42E4
:10016C00F6D30A4A02E0002342F8043B084B9A42B9
:10017C00F9D300F0B7F900F0A5FC00F0B5F9704721
:10018C00840B00080000002000000020000000206C
:10019C0034020020FEE70000084BDA68D10709D4CE
:1001AC00DA68520708D4D868C0F30010C0F1030015
:1001BC00C0B27047002070470120704700200240F9
:1001CC000549064B4A6A92B21A804B6A9B1A9BB23B
:1001DC009842FAD8704700BF00040040300200205B
:1001EC00114B1B78012B03D0104B00221A80704747
:1001FC000F4A136803F16043B3F5803FF4D853689A
:10020C0003F17843A3F58053B3F5802FECD872B685
:10021C0008490B6823F001030B60D2E900329D46BC
:10022C0083F3088810477047007C00082E020020DA
:10023C000010000800040040F0B500220B4F0546EA
:10024C001046914200DCF0BDAE5C082486EA000347
:10025C0043F300033B4083EA500398B2631E13F050
:10026C00FF044FEA5606F1D10132EAE701A0FFFF85
:10027C00094B10229A611A6822F4407242F480727F
:10028C001A605A6822F010025A60044B1B7813B1A2
:10029C003420FFF795BF7047000400482C02002063
:1002AC00F8B50C4E10270546B7623420FFF788FFCF
:1002BC000824EB074CBFB761B7623420013CFFF751
:1002CC007FFF14F0FF044FEA5505F2D1014B1022C9
:1002DC009A61F8BD0004004810B5074C0146204651
:1002EC00FFF7AAFF631C5A5C635C43EA02231B1AE8
:1002FC005842584110BD00BF29010020054A13681F
:10030C0023F440731360D36823F4407343EA00234F
:10031C00D3607047000400480120FFF7EFBF10B511
:10032C000446FFF7A5FF2046FFF7BAFFBDE81040D3
:10033C00FFF7F2BF08B53020FFF7F1FF014B0022A9
:10034C001A8008BD2E02002008B5C120FFF7E7FF78
:10035C00024A13880133138008BD00BF2E0200200F
:10036C0008B5C220FFF7DBFF024A13880133138064
:10037C0008BD00BF2E02002038B504460D46FFF71D
:10038C0077FF254414F8010BFFF78AFF3420FFF7A1
:10039C0017FFAC42F6D1BDE83840FFF7BDBF0000F7
:1003AC0008B504480921FFF7E7FF034B01221A7037
:1003BC0008BD00BFE80F00082C02002010B5044651
:1003CC00FFF7EAFE00B904B910BDFFF7E5FE013CEA
:1003DC00F8E7000042EA01039B072DE9F0470646C7
:1003EC000F46154648D1254C254B6360C2F30908CE
:1003FC0003F188334FEA91096360B8F1000F10D113
:10040C00236943F0020323616261236943F04003D3
:10041C0023614FF08040FFF7D1FF236968F341035C
:10042C002361164C06EB8909B046A5EB060AC845B4
:10043C000DD1236943F0800323613A4629463046A7
:10044C0000F07AFBB0FA80F04009BDE8F087236930
:10045C00D8F8002043F0010323614FF480104AF8D0
:10046C000820FFF7ABFF236923F00103236103236B
:10047C00E36008F10408DAE70020E6E70020024018
:10048C002301674570B5144B5B6ADB00ADF5806DDD
:10049C001ED5124CA378132B1AD0013BDBB2FD2BCB
:1004AC0016D84FF480622146684600F037FB0C4E9C
:1004BC0013238DF802306D46224628464FF4807186
:1004CC0004F58074FFF786FFB44205F58075F3D10F
:1004DC000DF5806D70BD00BF00100240007C00085F
:1004EC0000800008704700002DE98048AA4BAB4CF7
:1004FC0083B040F253121A60236843F0010300AF3B
:10050C00236023689D07FCD5636823F003036360B5
:10051C00636813F00C0FC3F38102F9D1236823F045
:10052C00867323F48033236041F610736260E362B8
:10053C004FF4801323634FF41F03A360236843F02D
:10054C000103236023689807FCD5636823F4803388
:10055C00636063680D2262F39543636063680122F4
:10056C0062F35E736360E36A23F0E063E362236823
:10057C0043F08073236023689901FCD5636823F0F2
:10058C00F0036360636823F460536360636823F46F
:10059C00E0636360636D43F030036365636802225C
:1005AC0062F3010363606368C3F38103022BFAD126
:1005BC00636D23F030036365E36943F00203E36189
:1005CC00774B77229A624FF6FF72DA621A6842F022
:1005DC0001021A601A6822F440721A601A6822F03A
:1005EC0070021A605A6942F001025A61636943F45D
:1005FC0080236361636943F400336361694B0021B9
:10060C0010204FF0030E4FF0010CC2071FD51E68CF
:10061C004A000EFA02F526EA05061E601E681E60E8
:10062C005E680CFA01F826EA08065E605E685E6099
:10063C009E6826EA05069E609E680CFA02F232431A
:10064C009A60DA6822EA0502DA60DA68DA60013167
:10065C0005294FEA5000D8D10220FFF74FFE4FF486
:10066C00FA70FFF7ADFDDFF83C814FF47A66002598
:10067C0040F2C319D8F81030DB065CBF0135ADB2BF
:10068C000A20FFF79DFD4D4500F0B180013EF1D1F0
:10069C000120FFF733FE4FF4FA70FFF791FD414E46
:1006AC0004463369D90658BF01354FF00A0058BFCC
:1006BC00ADB2FFF785FD013CF3D1BDB12046FFF78C
:1006CC001DFE4FF4FA70FFF77BFD364E054633697D
:1006DC00DA0658BF01344FF00A0058BFA4B2FFF736
:1006EC006FFD013DF3D10CB1FFF77AFD0120FFF74F
:1006FC0005FEFFF7C7FE2A4EDFF8AC80DFF8AC90A2
:10070C0029484FF0000B4FF48172594689F800B01C
:10071C00C24600F0FBF94446FFF7FEFDC7F804B0F3
:10072C002349204D00230B70706A224B80B2188035
:10073C0044F6206C2B69DB0660D5706A1D4B99F86A
:10074C000020184D80B218802B69D90600F18780E3
:10075C001A20FFF735FD2B6913F0100356D1342006
:10076C003B60FFF72DFD0F4B11491D693B6891F85C
:10077C0000C0C5F300159D4045EA0C050133EDB2F0
:10078C00082B0D70EBD1FFF71BFD064B1A690A4BBA
:10079C00D2061B783AD511E000200240001002402E
:1007AC000004004000040048290100202B02002016
:1007BC00240100203002002028010020012289F8A9
:1007CC000020002B56D0984B7A681B8802339A4233
:1007DC001CD0134601339BB28AF800507B600BF19E
:1007EC00010BBBF5817F0AF1010A99D10EE0636A16
:1007FC00D8003FF54DAFFFF7F3FC49E7736A1B1ABE
:10080C009BB2634596D9894B65221A80DFF820A2EA
:10081C0099F800209AF80030002A00F04981002B4A
:10082C0044D0814B1C882046FFF756FD00283AD057
:10083C004FF480727F48002100F068F97D4A002354
:10084C00A3422ADBFFF776FD00238AF80030774BB2
:10085C001B88642B7FF650AFFFF7C2FC4CE7736A22
:10086C00002A3FF471AF1B1A9BB2B3F5827F7FF65F
:10087C006BAFCBE7704A736A12889B1A9BB2FA2B48
:10088C00C4D840F201139B4508BF684A8AF800504F
:10089C0002BF138814331380A1E718F8011B02F868
:1008AC00011B0133CCE7FFF75BFDD0E7237C2078FD
:1008BC007D2B0AD1237A0D2BC9D1637A422BC6D159
:1008CC00FFF76EFD00232375C1E7237D7D2B05D13A
:1008DC00237B0D2B02D1637B422BF1D094F8283073
:1008EC007D2B07D194F820300D2B03D194F82130B7
:1008FC00422BE5D04D4D70B9A27863781343E27862
:10090C00134301D165232B80C120FFF708FD2B88F1
:10091C0001332B809BE701281ED10220FFF7DCFC62
:10092C000028C0D0454B1A68454B9A4202D8FFF7B5
:10093C000BFD8CE73C4B1988424B9A4204D102299F
:10094C0082BF3C4B132098703A48FFF743FD0028B8
:10095C00EDD0FFF7EFFC7AE7FF2823D10420FFF757
:10096C00BBFC00289FD000232B806388334A5BBAE2
:10097C009BB2A3F12001136003290DD8DFE801F02D
:10098C000205070A2F4B1360E3E72F4BFBE72F4BB6
:10099C001B68F8E72E4BF6E7B3F5806FC7D303F16E
:1009AC000063F0E7FE2813D10420FFF795FC002824
:1009BC003FF479AFA3781C4A012B14BFE3784FF4B2
:1009CC008073138001238AF80030FFF7A5FC3EE703
:1009DC00FD2809D10220FFF77FFC00283FF463AF0C
:1009EC00C120FFF79CFC32E702280AD1FFF774FC08
:1009FC0000283FF458AF114B1A68114B9A4296D904
:100A0C00A7E7032880D10220E846FFF765FC18B958
:100A1C00FFF7A6FCC5461AE7DFF82090D9F800507E
:100A2C00C5B9FFF791FCF5E7260100202E02002046
:100A3C00280100202400002030020020200000208B
:100A4C00FF0F0008007C0008E07B00081C00002061
:100A5C00E00F00086478002C08BF4FF4807404F198
:100A6C000A0323F00703ADEB030D04F1030A52460E
:100A7C000021684600F04AF822462946684600F0F4
:100A8C004DF821466846FFF7D7FB0DEB04030DF834
:100A9C0004003022000A58709A7051466846FFF7DD
:100AAC006BFC064B25441D600023C9F80030B1E7F0
:100ABC00034A138801331380C9E600BF1C000020D1
:100ACC002E02002070B50D4D0D4C641BA410002699
:100ADC00A64209D10B4D0C4C00F03EF8641BA4103F
:100AEC000026A64205D170BD55F8043B9847013647
:100AFC00EEE755F8043B98470136F2E77C0B00080B
:100B0C007C0B00087C0B0008800B00080244034699
:100B1C00934200D1704703F8011BF9E70A44914254
:100B2C0000F1FF3300D1704710B511F8014B03F8F9
:100B3C00014F9142F9D110BD10B5013902449042D8
:100B4C0001D1002005E0037811F8014FA34201D038
:100B5C00181B10BD0130F2E7F8B500BFF8BC08BC9B
:100B6C009E467047F8B500BFF8BC08BC9E4670475F
:040B7C003501000837
:040B80000D0100085B
:100FE000DAE32559D963B84E343731141F060603A6
:0C0FF000301B000010E07B007C307C0017
:040000050800015995
:00000001FF
