:020000040800F2
:1010000000400020154500082168000825680008F8
:1010100000000000000000000000000000000000D0
:101020000000000000000000000000002968000827
:1010300000000000000000002D6800083168000872
:1010400065450008654500086545000865450008D8
:10105000654500086545000865450008E56A000823
:101060006545000835680008F1680008696A0008ED
:101070005569000865450008654500086545000894
:10108000D9690008216A0008654500083D6A000822
:1010900065450008FD6900086545000865450008CC
:1010A0006545000865450008654500086545000878
:0C10B0006545000865450008654500081E
:1010C000002243088B4274D303098B425FD3030A87
:1010D0008B4244D3030B8B4228D3030C8B420DD39A
:1010E000FF22090212BA030C8B4202D31212090228
:1010F00065D0030B8B4219D300E0090AC30B8B4266
:1011000001D3CB03C01A5241830B8B4201D38B0313
:10111000C01A5241430B8B4201D34B03C01A5241B8
:10112000030B8B4201D30B03C01A5241C30A8B42FB
:1011300001D3CB02C01A5241830A8B4201D38B02E6
:10114000C01A5241430A8B4201D34B02C01A52418A
:10115000030A8B4201D30B02C01A5241CDD2C309FC
:101160008B4201D3CB01C01A524183098B4201D378
:101170008B01C01A524143098B4201D34B01C01A63
:10118000524103098B4201D30B01C01A5241C308DB
:101190008B4201D3CB00C01A524183088B4201D34A
:1011A0008B00C01A524143088B4201D34B00C01A36
:1011B0005241411A00D20146524110467047FFE7A2
:1011C00001B5002000F0F0F802BDC0460029F7D0BC
:1011D00076E7704703460B437FD4002243088B42D7
:1011E00074D303098B425FD3030A8B4244D3030BAE
:1011F0008B4228D3030C8B420DD3FF22090212BA73
:10120000030C8B4202D31212090265D0030B8B42EE
:1012100019D300E0090AC30B8B4201D3CB03C01AD8
:101220005241830B8B4201D38B03C01A5241430BB3
:101230008B4201D34B03C01A5241030B8B4201D3A3
:101240000B03C01A5241C30A8B4201D3CB02C01A0E
:101250005241830A8B4201D38B02C01A5241430A86
:101260008B4201D34B02C01A5241030A8B4201D375
:101270000B02C01A5241CDD2C3098B4201D3CB011C
:10128000C01A524183098B4201D38B01C01A5241CB
:1012900043098B4201D34B01C01A524103098B42CF
:1012A00001D30B01C01A5241C3088B4201D3CB00BA
:1012B000C01A524183088B4201D38B00C01A52419D
:1012C00043088B4201D34B00C01A5241411A00D24D
:1012D00001465241104670475DE0CA0F00D04942B6
:1012E000031000D34042534000229C4603098B4226
:1012F0002DD3030A8B4212D3FC22890112BA030AAE
:101300008B420CD3890192118B4208D3890192112F
:101310008B4204D389013AD0921100E08909C309B4
:101320008B4201D3CB01C01A524183098B4201D3B6
:101330008B01C01A524143098B4201D34B01C01AA1
:10134000524103098B4201D30B01C01A5241C30819
:101350008B4201D3CB00C01A524183088B4201D388
:101360008B00C01A5241D9D243088B4201D34B00A3
:10137000C01A5241411A00D20146634652415B10E5
:10138000104601D34042002B00D5494270476346C6
:101390005B1000D3404201B5002000F005F802BD0B
:1013A0000029F8D016E770477047C0460448054B3F
:1013B00010B5834203D0044B002B00D0984710BDDA
:1013C000DC030020DC030020000000000648074981
:1013D000091A8B10C90FC91810B5491003D0044B56
:1013E000002B00D0984710BDDC030020DC03002058
:1013F0000000000010B5074C2378002B09D1FFF73F
:10140000D5FF054B002B02D0044800E000BF0123AC
:10141000237010BD5008002000000000746B00080D
:10142000054B10B5002B03D00449054800E000BF70
:10143000FFF7CCFF10BDC04600000000540800209C
:10144000746B0008F0B54E464546DE465746D44B11
:10145000E0B5D96F1D88D34E89B2481BD24C80B2FB
:10146000368842098BB020806280864200D3CFE06C
:10147000CE4E3688864200D8CAE0CD480600099094
:101480000020308058689E68401BDD6880B2AD1B2C
:10149000ADB2AA42AD416D421E69A846A5605D6924
:1014A00082428041AD1BADB2AA42AD416D429E6900
:1014B0000695E560DD694042AD1BADB2AA42AD4183
:1014C0006E4205965D6A26611E6A0790AD1BADB23D
:1014D000AA42AD419E6A6F42DD6A0497AD1BADB270
:1014E000AA42AD416D421E6B0395A5615D6B6761BC
:1014F000AD1BADB2AA42AD416E420296DD6BE66114
:101500009E6B6060AD1BADB2AA42AD416F420197C8
:1015100027621E6C5D6C9F6DAD1BADB2AA42AD41E2
:101520006D429E6CAB466562DD6C986EAD1BADB2D4
:10153000AA42AD416D421E6DAC46A5625D6DAD1B0C
:10154000ADB2AA42AD416D42AA46E562DD6D1E6EA6
:10155000EF1B5D6EBFB2AE1BDD6EB6B22D1AADB223
:10156000AA42AD41684281465D6FA063186F9B6FD0
:101570002D1AC91A89B2ADB2BA42BF41B242B641C0
:10158000AA42AD418A429241079804995342424689
:101590004140584608932364039B41405A4013003E
:1015A00060464340C9009B00019A0B4305997F4266
:1015B0005140524627634F401F430299069B764293
:1015C0004B4053405B001F434B4666639B00F60055
:1015D0001E43089B6D421E43E563764B6D009946A2
:1015E0001B783543744E002B03D13378002B00D188
:1015F00072E03378002B02D00F235D1BEDB2BD42A9
:101600000DD05422A35A0133A35248230022E2549E
:101610000BB0F0BCBB46B246A946A046F0BD0023C5
:10162000099A13804622A35A0133A352236B012B3C
:1016300001D1624A13704246079B52029B02134338
:1016400052461343069A482112021343059AD201C7
:101650001343049A92011343039A52011343029ACB
:1016600012011343019AD20013435A4692001343C6
:10167000624652001343625C002A1CD12F2B4FDDBF
:101680004D21615C00295ED14D4D2B78002BBFD0E0
:101690004C4A1278002ABBD14A461278002AB7D0A9
:1016A0005022A15C994267D0A354052B6ED94E23DA
:1016B0000122E254ACE7012A40D0022A39D0032AA1
:1016C000A6D1252BA4D14C2047323F4BA25A205CF7
:1016D0009854002363549BE703F07AFE002808D057
:1016E0004422A35C0133DBB2A354642B01D9012350
:1016F000337063680793A3689846E3680693236989
:10170000059363690493A3690393E3690293236ACE
:101710000193636A9B46A36A9C46E36A9A4668E71C
:10172000591E2E2917D82949254DDBB20A802B7066
:10173000AEE74A32A3540323635469E74932A35204
:101740000223635464E721499BB20B801C4B1A703F
:101750004E23E2545CE7002B96D14F22A25C012A73
:1017600001D14C32A35400210022184B1980144B94
:101770001A704E23E2544BE7052B07D94E21625CC9
:101780000132D2B26254052A00D841E74E2200212C
:10179000A154242B21D80E4A9B00D3589F46C04603
:1017A0004C07002038070020DC030020C403002081
:1017B00008060020D005002019060020FE050020A4
:1017C00032060020B805002060060020BA0500207F
:1017D0008C6B000801222E4B1A702E4B2A781A703F
:1017E00000232B7014E748230122E254F5E72A4A2C
:1017F0002A4B527C1A70F0E7274A284B517C012271
:10180000521A1A70E9E751230022E25402330132DE
:10181000E254E2E701235122A354D218A3544E33D9
:10182000E35C012BD9D1053AA354D6E700F024FCA0
:10183000194A174B527C01321A70CEE70122164B1F
:101840009A74CAE70022144B9A74C6E70122124B1D
:101850005A740022114B1A70BFE700220E4B5A74C3
:101860000E4B01321A70B8E701220D4B1A70B4E723
:101870000522074B1A70B0E70422054B1A70ACE73B
:101880000322034B1A70A8E70222014B1A70A4E747
:10189000D1050020330600206006002054000020FF
:1018A0001A060020F8B5CE464746522380B5BB4CF9
:1018B000E15C0133E25C023BE35C002B0AD058237D
:1018C0009846230058339D79AC46002D00D178E02E
:1018D00000259D71002934D052230021E154002AB3
:1018E00000D1A8E053230022E254AD4BAD4A2100C1
:1018F000012058318871A366AB4B62661F78AB4BF1
:1019000080229C4661467B1C9B00CA506346BF00F8
:101910000433D95963460126D8196D3A35009540EC
:10192000A36EC9092B40D3405940C90181600430DE
:10193000013AF3D200236246D351C0BCB946B04647
:10194000F8BD002ACED19A4B1B78002B76D0C3135A
:10195000012B00D1FEE08313012B00D1F8E04313EB
:10196000012B00D1F2E00313012B00D1ECE0C312F4
:10197000012B00D1E6E08312012B00D1E0E04312FD
:10198000012B00D1B9E000230F21020A23660309CD
:1019900053400A004340874D9A4300010243000B25
:1019A0002B5C08001040285CDB0303431012084046
:1019B000285C8002034310110140695C49010B431C
:1019C00099E75E8847460136B6B2B1465E80464624
:1019D0009D88E75B01350137ADB2BFB29D80A7534B
:1019E000272D30D974480025405F65469D80002929
:1019F00000D071E7002A00D074E76431FFF7EAFBFA
:101A0000C022FF23D20018401300034306201A000F
:101A1000190941404A400F210800904302000D007F
:101A20001B0164481A431B0A0B40C35C1540465D0A
:101A30009B02B02558E0614B614A58E70721614B92
:101A4000614A216657E74D46C72D25D965465F484F
:101A50005D800088002900D03EE7002A00D041E7E1
:101A60001931FFF72DFBFF23184080230421DB00F1
:101A700003431A094A400F2108005A4090430200CC
:101A80000D001B014B481A431B0A0B40C35C154059
:101A9000465D9B02E82527E0C72F00D81AE7654678
:101AA0004B4BA5531B881BB2002900D014E7002A1A
:101AB00000D017E78022FF31920019401300022066
:101AC0000B431A00190941404A400F210800904376
:101AD00002000D001B0137481A431540465D902552
:101AE0001B0A0B40C35C9B022D0335432B4315118E
:101AF0002940415C49010B43F9E6092108390841B5
:101B00004B02184383B21D0A1A096A400F2553403D
:101B10002A002E009A430001024326481313C35C97
:101B20001640865DDB03334316122E40865D216628
:101B3000B602334316113540405D40010343DAE6F7
:101B40000A21DBE70B21D9E70C21D7E70D21D5E7E7
:101B50000E21D3E7E02212011300C01103430F2529
:101B60000F211A0018096840424008009043020003
:101B70000D001B010F481A431540465DF0251B0A56
:101B80000B40C35CED0235439B022B4315112940EA
:101B9000415C49010B4307212166ACE6DC030020D0
:101BA000FB3D0700F1EF0000C70300204C040020BC
:101BB000B8050020206C0008000600203B670700E5
:101BC00001E00000F9BD0700F0FF0000FA05002069
:101BD0002006002070B50600049D8E420CDC0FE04C
:101BE000AB420FD08C18581964104010A14206D097
:101BF000A64209DC050022009642F1DB280070BDF8
:101C00009642FBDA1800FAE70300611CE5E7C046DC
:101C10000300401A00D5C81A7047C046044980B274
:101C20004A6A92B24B6A9B1A9BB28342FAD37047BC
:101C30000048014010B5441E00280BD0FA20064988
:101C400080004A6A92B24B6A9B1A9BB28342FAD3D3
:101C5000013CF6D210BDC0460048014070B50400FA
:101C60000D1E63D000220020072128E04000C6B2EC
:101C700040B200282EDB7600F0B276B2002E2FDBC9
:101C80004000C3B240B2002830DB5B00D8B25BB288
:101C9000002B31DB4000C3B240B2002832DB5B00D6
:101CA000DEB25BB2002B33DB7600F0B276B2002EF0
:101CB00034DB01324000D3B2C0B29D4235D9A35CBF
:101CC000584046B2002ED1DA76004E4070B2F6B2DD
:101CD0000028D0DA43004B405EB2D8B2002ECFDAF3
:101CE00076004E4070B2F3B20028CEDA4000484091
:101CF00043B2C0B2002BCDDA5B004B4058B2DBB22E
:101D00000028CCDA46004E4073B2F6B2002BCBDA94
:101D10005800484046B2C0B2002ECADA76000132FE
:101D20004E40D3B2F0B29D42C9D870BD0020FCE74E
:101D300010B5064C30222000054904F011FF302177
:101D40002000FFF78BFF3023E05410BDE00400209B
:101D500060060020F0B5C64600B5BB4CBB4DC022A6
:101D60002000296882B003F09FFC6378022B67D8BB
:101D7000A02363719F3BE380B54B0126A360002342
:101D80009846E3602374E37D10222A2B02D8191FA2
:101D900005295FD8AF4F3A70227E1300083BDBB2B3
:101DA000882B67D8642006215043FFF713FA0100FF
:101DB000A948FFF70FFAA94BA880D8624346312BF8
:101DC00036D8B300F3185B001A009132FF3292B29A
:101DD0002B81617E08003238642801D8CB189BB271
:101DE000AA8128226B81A37E022053431433EB8106
:101DF00002F08AF96378002B41D1EE89FA239B0027
:101E000098469621F53BFF3B009330004346944AA9
:101E10004900FFF7DFFE4C23E852A37C002B0BD0D8
:101E20004346BB60237D3B7302B080BCB846F0BD27
:101E3000C82200235200CBE7FA23DB00BB60F1E7A6
:101E4000637B092B01D900236373A679731EDBB270
:101E5000984698E7032B00D9E8E0DB00DAB21300DC
:101E60007C4F0A333A70227EE3751300083BDBB2E5
:101E7000882B97D97B4B794AEB80D3629EE7A07F72
:101E80000B2800D87BE0052002F03EF92023E35C1C
:101E9000754A7833FF335B002B8221239446E35C41
:101EA000724A63445B006B8222239446E35C002207
:101EB0006344AB822323E35CAB752523E35CFA33F5
:101EC0002B832723E2542832A35C053B142B01D932
:101ED0000523A3542922A35C013B092B01D90A2322
:101EE000A3542A23E25C511E08292DD90A22E25468
:101EF0002B22A35C463B462B01D9FF23A3542C2362
:101F0000E35C013B632B01D801237B702D22637AB4
:101F10005B002B62A37A6B62E37A5B00AB62A35C2B
:101F2000013B092B01D90523A3542E23E35C092B84
:101F300028D8022B77D000D97BE0002B23D00123B7
:101F40004B4ABB70137023E053019B1A9B009B1AF2
:101F50004E2250215B00423BDBB2AB546A899A1897
:101F60006A812A899A182A816A5A9A186A52AA8911
:101F70009A18AA81394A516C0B435364B8E702F0AE
:101F8000C3F883E700230122BB70FB70384B1A7043
:101F90006079092831D809233B713B33E854013378
:101FA000E8540133E854EE89142E02D84723002266
:101FB000EA54E17E00291AD02020FFF70BF9804671
:101FC000002814D064213000FFF77AF8414680B22F
:101FD000FFF700F948230C21E8523000FFF770F8B2
:101FE000414680B2FFF7F6F84A23E85206E700239D
:101FF0004822AB520232AB5200E700230A213B7168
:10200000FFF75EF84423EA5CC0B2904200D2E85485
:102010004523EA5C904200D2E8544623EA5C9042B1
:10202000C1D2E854BFE70123FB70B1E70A3BDAB243
:10203000B0E6042BACD1012200210E4BBA701A700D
:102040000B4B1970A4E7C04660060020000000207A
:102050000A6400641405002010441000002C0140A4
:10206000B80B0000690A00006B0300005E05000069
:10207000290400202B04002010B5034BC0211A684E
:10208000024803F071FA10BD000000206006002035
:102090005423552170B5264CE25C635C012A2FD095
:1020A0005A1ED2B2002A23D062540122214D13407D
:1020B0005222A35472B67D23EB5C002B2ED062B665
:1020C00003F0C0F9AA681C4BF5321968FF328A4246
:1020D00002D256220121A15400227A216A541A7197
:1020E0005532A25CA16D013A52009B18198170BD56
:1020F000062301220F4D63547633EA547B3BD7E726
:102100000133DBB2062B0ED80A4D63541A4052231A
:10211000E25472B67D23EB5C002BD0D15533E05CEA
:1021200004F07EF8CBE77C23024D6254EA54EEE7DC
:1021300000000020140500209405002001211B4A06
:1021400010B5D3688B43D360FFF7A2FF184C194A30
:10215000A38AE08A916D1B185B105B182F215B0826
:102160009365154B5B5C002B17D11449936D09786F
:102170004B439B099BB2916D63834908CB1A9BB279
:10218000A3835623D35C002B0DD0226A0C4B9A42BA
:1021900002D8236A0133236210BD936D217E4B4325
:1021A0009B099BB2E7E703F041F9EEE7002000400E
:1021B0009405002000000020600600201405002087
:1021C0000F270000F8B55C23154DEB5C002B0DD0FC
:1021D000002452265C2703E0EB5D0134A34205DDB9
:1021E00003F00CF9AB5D9842F6D1F8BD72B603F07E
:1021F0000DF9802000210B4AC005D38A9BB293823F
:10220000436A9BB2D382084B41625962928B01327E
:10221000DA621961DA6801310A43DA6062B6E4E72A
:10222000000000209405002000200040F0B5D646B4
:102230004F464646C0B5C34D82B0AB7C002B57D04D
:102240002623C14FE85CBA78C04E002A00D1F3E0E3
:10225000BF4C2623EB5C002B00D1C5E18323E28C2D
:10226000DB009A4215D35423697CF25C8A4200D188
:10227000FAE27D23FB5C002B0BD12A230022E254DF
:10228000B44AE38C94465D225B00B25C63449B1AC3
:1022900023858323E28CDB009A421AD2E38C2F2B16
:1022A00017D95422B35C697C9C460123581A844593
:1022B00001D100F0B7FB7D23FB5C002B09D12A2361
:1022C0000022E254E38C5D32B25C5B00313B9B1A2E
:1022D0002385E38C2F2B0FD8002323857D33FA5CD5
:1022E000002A09D00022FA540122533BE25403E0B1
:1022F000974C964EE38C238530275E23E25DF35C9A
:102300009A4203D9AB7D002B00D012E1EF7C002F65
:1023100000D179E02823208DEB5C1D2800D9F7E05F
:10232000002363862823EB5C9900C9188900884242
:1023300000DBF7E02E23E35C002B5FD13C33E35C52
:10234000002B5BD0EA7C608E93009B181B012E3320
:10235000834200DB7DE12427E35D002B00D11BE3FA
:102360003389002A00D138E2FA22D20028330092C1
:102370008921794AFFF72EFC83B2984640234246D2
:10238000E2521A3BEB5C002B00D016E27D226E4F2E
:10239000BB54E97C628E8B005B181B012E339A4282
:1023A00000DC57E11E23687F216A03418B420BD971
:1023B0007389434502D9402198466352B389434506
:1023C00002D240219846635264494B8A434502D267
:1023D0004020984623527B78002B04D01423CB5EF8
:1023E000984500DD18E2E06C002807DD2F2A05D9AA
:1023F0005B49FEF7EFFE40234044E05202B0E0BCF0
:10240000BA46B146A846F0BD3423E35C002B00D1A8
:102410007BE03523E35C002B00D025E1A06B504925
:10242000FEF7D8FE802380B260861B01984200D25E
:1024300083E1494B63867DE7FA2189008946B37DB4
:10244000434C5B009944002800D18BE0E08C484568
:102450001BDD687C80465420315C8C46414500D1B0
:1024600081E27D22BA5C002A0FD12A230022E254A5
:10247000FA22E08C384B4946009380B22F23D200D9
:10248000FFF7A8FBB37D20855B00FA22E18C920068
:10249000D21A91421FDA697C8C4654218A46715CBB
:1024A000604689460121081A814500D112E27D214A
:1024B000795C00290FD12A230021E08CE1540533F7
:1024C000009380B2244BFFF785FBFA22B37D920084
:1024D0005B002085D21AE18C914211DBFA21890040
:1024E0008C46E28C63449A420ADC002323857D33C8
:1024F000FA5C002A04D00022FA540122533BE25431
:10250000BB78002B00D1F7E6A3E6238D638611E7A5
:102510001E2800D106E79A00D218920011008242CC
:1025200000DDBAE00C4AA0230092FFF753FB60865F
:1025300000E703F031FE02F069FF00236386663393
:10254000E355F7E660060020140500200000002097
:1025500094050020FFF7FFFFFF0700008000002028
:1025600010270000E28C4A4512DD54226B7CB25CDD
:102570009A4200D1D8E1FA22E08CC34B494600933D
:1025800080B22F23D200FFF725FBB37D20855B00AF
:10259000FA22E18C9200D21A914215DA5423697C16
:1025A000F05C533B5B1A984200D1A2E12F23E08CF0
:1025B0000021009380B2B44BFFF70CFBFA22B37DED
:1025C00092005B002085D21AE18C914298DBFA21BF
:1025D00089008C46E28C63449A4291DC00230022FD
:1025E00023852F33E2548BE78323E28CDB009A426E
:1025F0000ED354226B7CB25C9A4200D152E1A34AC2
:10260000E38C94465D225B00B25C63449B1A238595
:102610008323E28CDB009A4211D2E38C2F2B0ED95C
:1026200054236A7CF15C533B9B1A994200D1E5E14B
:102630005D22E38CB25C5B00313B9B1A2385E38C0B
:102640002F2B00D958E60023002223852F33E25494
:1026500052E68F4F3D23E35C002B2CD0052B27D86F
:102660008C4A9B00D3589F46726E336E2F21208D6B
:102670000092854AFFF7AEFA01008748FEF7AAFDEF
:10268000E97E4908FEF7A6FD238DE0862E2B00D9B2
:10269000C4E66786B766A7634CE6A0231E210093B5
:1026A000713BFFF797FA6086208D3BE601F098FEBC
:1026B0003D230022E25424232A7DE35C002A42D1F8
:1026C00040216252002B00D093E056323F39B15482
:1026D00023622B7F002B00D089E07D23FB5C002B45
:1026E00000D1CDE12623EB5C002B00D186E6BB7840
:1026F000002B00D1ADE18323E28CDB009A420AD2A9
:10270000E38C2F2B07D95D22E38CB25C5B00313B5D
:102710009B1A4222A3528323E28CDB009A4200D30D
:10272000BCE14223E35A5D4A934200D8A2E103F0A0
:10273000DFFE7D23FB5C98463BE02F2800D9F9E5BE
:1027400030236386F6E5002B6CD0EA7C7D23FB5CAE
:10275000984655233C21F35C013B4B435049098A81
:102760005B18B42198B21BB249008B4204DB030012
:10277000693BFF3B98B21BB2442163520100B42372
:1027800077315B0009B29C46994200DB12E1233BA2
:10279000FF3BE1520300EF331BB2634500DB0DE169
:1027A00048216352012A01D12E23E2544023002202
:1027B000E2524346002B27D020E6E97C628E8B0054
:1027C0005B181B012E33934200DB42E77D23304F21
:1027D000FB5C002B00D011E6E4E5FA22D200009267
:1027E0002F21294AFFF7F6F983B29846C6E503F090
:1027F0007FFE7D23FB5C98462623EB5C002BD8D024
:102800004346002B00D072E74023628EE35A98467D
:102810002E2A00D8D8E5C5E59BB29846402341460C
:10282000E152E0E556220121B15425322362BB5426
:102830002B7F9846002B00D102E1EA7C002A85D14B
:10284000012B00D082E72923C822EB5C5343863A50
:10285000A352124A934200D82CE103F049FE7D2393
:10286000FB5CEA7C984674E70021012021857D31DC
:1028700078542930205C002800D10AE50120821A12
:10288000F25400237B54F8E4FF070000FFF7FFFF3A
:1028900014050020306C000800879303CE07000069
:1028A000800000204C21B26D715A914200D388E023
:1028B000A28DC72A00D984E00122D31A542200270E
:1028C000B3545623533AF254276202F09FFD2F234C
:1028D000E75494E6002020857D3039542931615C2D
:1028E000002900D1F7E563465146735400233B5459
:1028F000E1E54C20B36D305A984271D2A38DC72BBD
:102900006ED800230122984623625633F254023BCC
:10291000F15402F07BFD2F234246E254FA22B37DAC
:1029200092005B00D21A41E64C20B26D305A9042C0
:102930004ED2A28DC72A4BD80122D31A5422B354A7
:1029400000239846533A23625633F25402F05EFD58
:102950002F234246E254FA239B009C46B17D490056
:102960006144894607E6012122857D22B954293137
:10297000615C002900D188E5012361465B1A33546C
:102980000023BB5471E501F0B9FC91E601F08CFD28
:102990008EE601F057FD8BE603F0FEFB5623F35C59
:1029A000002B25D024230122E2547389608EE38713
:1029B000EA7CD5E403004621F13B6352793803B247
:1029C000EEE62E22A25C002A00D075E7E28416E62D
:1029D0002E22A25C002AAFD1FA239B00E384CAE531
:1029E0002E23E35C002B8CD1FA239B00E384DDE5EE
:1029F000E35D002B47D002F019FDD3E74C21B36D06
:102A0000715A99421FD2A38DC72B1CD8562301217E
:102A10000027F154023BF254276202F0F7FC2F2307
:102A2000E75405E6002020857D303B542933E35CE4
:102A3000002B00D14DE40023B1543B54FFF73FFC81
:102A400003F0AAFB81E62E23E35C002BDED1E384B6
:102A5000EEE5FA20E18C800089B2FFF7D9F8FA237D
:102A600042229B00C3189BB2A352BA78002A00D11D
:102A700059E640E603F050FB7D23FB5C984698E660
:102A800003F08AFBB5E6FFF703FB0E4B0E4AB36576
:102A90008023DB055A620123E355ACE70B4AE38C44
:102AA00094465D225B00B25C63449B1A42229BB257
:102AB000A35238E603F030FB42467D23FA54EA7C09
:102AC00047E6C0461027000088130000FFF7FFFF0D
:102AD00070B550250F4C635D012B12D05023E35C81
:102AE000022B02D0FFF7A2FB70BD8023606D5B025A
:102AF00098420BDA80B2FEF7D5FE50230022E25452
:102B0000F2E7FEF79FFC00236355E7E70248FEF774
:102B1000C9FEF2E794050020FFFF0000F0B546462D
:102B2000D6464F4654224423C0B5494E494CB25C68
:102B3000E35A002A1ED1013369321BB2FF3293429D
:102B400000DB7DE01A00442163524623E35A25311D
:102B500001331BB2FF318B4200DB0023462163525D
:102B60004823E35A233101331BB2FF318B421BDB75
:102B7000002319E0013B1AB21B0400D563E01300E7
:102B8000442163524623E35A013B19B21B0401D589
:102B90006821FF314623E1520233E15A01390BB279
:102BA000090401D56823FF3348218A466352FA217C
:102BB000294F5200D35F294AB0889146D28AC90072
:102BC0009B185843FEF706FB2D23254D9846EB5CDA
:102BD0000A215843FEF7FEFA80B203F0D1F94623EA
:102BE000E35EFA215B00DB5F4A46D28AB0889B181D
:102BF0005843C900FEF7EEFA4346EB5C0A215843FE
:102C0000FEF7E8FA80B203F0C1F95346E35EFA2119
:102C10005B00DB5F4A46D28AB0889B185843C900E4
:102C2000FEF7D8FA4346EB5C0A215843FEF7D2FA86
:102C300080B203F0B1F9E0BCBA46B146A846F0BD97
:102C4000002300227FE76823FF331A0098E7C0467D
:102C50000000002094050020D80000208000002003
:102C6000600600208021C9054B6A70B5234C9BB2D9
:102C7000E3820023224D4B62E08AAA6D214E53006D
:102C80009B181B189B08AB65AB6D32785343AA6D3C
:102C90009B099BB252086383D31A9BB2A38302E0C1
:102CA000236A042B03D94A6AA38B9A42F8D3A38BD5
:102CB000154A9BB2D362FFF7EBF900237A22262153
:102CC000B3540132B354236A104A01332362537F51
:102CD000525C134304D1AA6DB3689A4208D370BD05
:102CE000236A132BFBD9FA23AA6DDB009A42F6D88C
:102CF00056230022EA5402F099FBF0E794050020E5
:102D00000000002014050020002000406006002084
:102D1000F8B540235822CE4647466025AF4C80B5D3
:102D2000E35A615DA385A35A0133A3520232A35A29
:102D30000133A3520232A35A0133A3520232A35ADF
:102D40000133A352223AA35C0B4304D16121605C9E
:102D5000002800D0E2E0A24EF17F00290ED06820CA
:102D6000A04A235A127E0133013A521891009BB2B5
:102D70008A1823529200934200DD7EE02E23E35C0A
:102D80009846002B43D12433E35C974D9946562354
:102D9000EB5C002B43D1954F5E23E25A142A00D8F6
:102DA00075E06B220121A1540022E2527B78002BB6
:102DB00069D1737F002B00D124E14B46002B66D0F4
:102DC000884B9846D1E1A2853C23E35C002B00D1DF
:102DD00084E04B46002B00D0E1E07D23FB5C002B20
:102DE00000D08FE0337F022B00D153E1FA21A08D78
:102DF000ED88C9006843FEF7EDF9702380B2E05218
:102E0000A38DE3877A4BDD6258639863D86374229D
:102E1000A35A0133A352C0BCB946B046F8BD4B46D5
:102E2000002BB8D002F0F2FA02F0E8FA5223EB5C81
:102E30006E4F002B00D044E1002800D0E1E17B225E
:102E4000BB5C0133DBB2BB54283AAA5C9A4201D284
:102E50007A23F8542379002B0BD15223EB5C002BFF
:102E600000D1F6E17A235F4AFB5C527E9A4200D29F
:102E7000F6E12423E35C99468EE76A230122E254BB
:102E8000002323527AE74B46002B00D02AE15C2333
:102E90003979E05AE28F884200D894E70021E15264
:102EA000236A952B00D98AE04423EB5CDBB24820EF
:102EB0004C490B54A18D891A994202DD991889B2A7
:102EC000A185A18D511A8B4200DB7DE7D31A9BB2FD
:102ED000A3853C23E35C002B00D07AE74B46002B14
:102EE00000D17AE7638E2E2B00D976E7737B012B16
:102EF00000D18CE1022B00D08EE16E22013B3B73AE
:102F0000A35473E74223ED88E05A3A496843FEF739
:102F100061F97023281880B2E05271E7208D0028F3
:102F200000D0B4E06226A35B334F01339BB2A353BE
:102F3000BB4200D80FE76423E35A1E2B00D894E16C
:102F40000123274EA3542333F35C012B00D090E1DF
:102F5000B9216533E75A49003800FEF7B1F8B923C3
:102F600060555B0000259F4210D3244B6027994693
:102F7000234B984601F0FCF96420FEF75BFE4B46BC
:102F800042461A60E35D0135AB42F3DC174FFB7834
:102F9000BA78134300D0DFE62622B354DCE6638E12
:102FA0002F2BA0D96E23E25CED88002A00D11DE111
:102FB0000022E254337D3B737023E05A20E7952AC8
:102FC00000D871E7FA2321685B00994200D809E133
:102FD000B03BFF3BEB5CDBB269E7C04694050020E9
:102FE0006006002080000020000000201405002062
:102FF000002C014030F8FFFF204E00000030004060
:10300000AAAA00003423E35C002B00D13FE74B4623
:10301000002B00D13BE7E38E616D2A6FC91A88232C
:103020004A43A86FEB581218A9669A4200DD1A00AD
:103030005B429A4200DA1A0080239846E8586B6F88
:10304000081A43439C46EB674346E9500C33E85863
:10305000EB6EAA674B4363449B18834200DD030079
:103060004042834200DA03008422AB50A26BD318A3
:10307000DA43D2171340804A934200DD1300A36362
:10308000236A632B00D902E70023AB67FFE66222C5
:10309000A35260E63A33E35C002B00D1A6E602209F
:1030A00003F0BEF8FA21307BED88C9006843FEF7D3
:1030B00091F88300181870234000283080B2E05245
:1030C0009EE6002800D19CE07B22BB5C0133DBB292
:1030D000BB54283AAA5C9A4200D3BBE67A23424604
:1030E000FA54B7E66C23E25E2C23F15C9C334B432D
:1030F000D21A6B6AE86A5343E96B1B18EA618B4288
:1031000000DD0B0049428B4200DA0B00686BA96AB4
:10311000101A41438C46286A29635043296C604445
:10312000C018EB626A63884200DD080049428842A9
:1031300000DA0800514B52499846A863FEF74AF856
:1031400043469B8A181A434600B298822B899842BC
:1031500002DA18B243469882FA23DB00984201DD76
:1031600042469382737F002B36D0434642469B8B68
:10317000A96D4046C91A4346926A006B4A431962D8
:103180001B6C12189A4200DD1A005B429A4200DA68
:103190001A004346986B1A63DB6A081A43439C463D
:1031A0004346604699635863586C5B6A4B4363447B
:1031B0009B18834200DD03004042834200DA030093
:1031C0004246D363E26CD318DA43D21713402D4A38
:1031D000934200DD1300E3643423E35C002B00D052
:1031E00019E754E64623EB5CDBB260E6FA21A08DDA
:1031F000C9006843FDF7EEFF7023013080B2E05252
:10320000FEE57A22BB5C0133DBB2BB5422E600222E
:103210003A736E32A354E9E5DA1E062A00D9E5E5D1
:103220006E22A15C002909D1023B0432A354582329
:10323000134AE2526E230122E254D7E57223E35C83
:10324000002BF7D1A25C012AF4D123322362A354CC
:10325000F0E77A23094AFB5C927E9A4200D308E6A3
:1032600001232371FFF7FEFC03E6A0536054064ED2
:1032700072E501F07DF889E6F05838018000002001
:103280001027000060E3160060060020F0B5DE465F
:103290004E4657464546E0B585B002F039FAFE2362
:1032A0001B01C64A1968C64E914205D1C54A5968E4
:1032B000914201D100F033FC02F07AFD02F082FE6F
:1032C000FEF748FDC04FFB78022B04D13B79152B4C
:1032D00001D100F061FC0223FB7013333B71C0216C
:1032E000113B380032687B7002F03EF97B7C013B79
:1032F0005A1E93415422B354B388F3803B7D002B74
:1033000000D1FB742623FB5C002B01D000F0E6FB10
:10331000AE4B9946AE4B984600F0AAFF64230022BC
:10332000AC4CE25202F018FBAB4BAC4A1A6001F015
:10333000C5FF3523E35C002B02D034230122E25485
:1033400002F04EF8A64D628923899B18A2899B182A
:10335000E2899B18228A9B18628A9B180433226A8E
:103360005B1063650223042A03D8BB7C5A42534195
:103370000333424653769376974B984A1A607B7D87
:10338000012B00D1D1E1022B00D18BE17423954AAE
:10339000E35A93420BD93C229246A25CD1B2002A56
:1033A00000D07CE3904A934201D900F0D5FB58232A
:1033B0009A4652468D4BA25A9A4212D96C23B42196
:1033C000E05E49000004FDF705FFA36F5246C018F8
:1033D0000023A3521A32A35CA067002B01D0013B4B
:1033E000A354FA22216A238D9200914200D9D0E0A1
:1033F000002B00D0D0E03022A354236A7C23E25C6F
:10340000002A00D17CE130230022E2540321606DC8
:10341000FDF7E0FE7C234A46D35C2060002B03D0FE
:10342000236A0A2B00D92FE26B79002B00D19AE096
:10343000B36D3C2B00D896E0C2216D4A89005358E9
:103440006C480340C4205350802180001358C905A4
:103450001B021B0A0B43C3211350FF208900535842
:103460008343BF38034353506A23E35CDAB2924686
:10347000002B03D1AB79002B00D057E26B23E35C28
:10348000012B00D15CE12E23E25C00239A46EB7510
:10349000002A00D0B6E0616D5748FDF79BFE24235B
:1034A000E35C0A21584380B22883FDF709FE4723D5
:1034B000F35C80B26883002B00D017E2FA20C000D2
:1034C00043462B225882AB89B95C1BB28B4200DD8C
:1034D000C8E1236A632B05D8FA23B26D0C205B0088
:1034E0009A4209D80C23FA222068642100935200E2
:1034F000093BFEF76FFBC0B25C23B26DF054312A7A
:1035000001D80222F2542F23FB5C002B00D001E2F1
:103510008023DB055A6A394B9A4200D813E700230F
:103520009B465A466E33E2544A3B9A46E35C002B74
:1035300000D108E73032A35C0133A3544A463B7DF7
:10354000137301F063FF56230122F254638E2F2B75
:1035500004D853465A46E254294BB36500232362EC
:10356000FFF780FBEFE6C220214B80001958214A6B
:1035700011408022D2010A43C4211A50FF20890041
:103580005A581202120A5A5004395A5882435A5051
:103590006AE730220021A154226A642A00D89EE002
:1035A000C72B00D8B0E07C22A25C002A00D1B8E092
:1035B000C8225200934200D328E724E7DAE32559D2
:1035C00000000020D963B84E6006002014050020DA
:1035D000800000209405002000300040AAAA0000CE
:1035E0001406002010270000409C0000204E000020
:1035F00000E100E0FF00FFFFC0270900C8AF0000A6
:1036000088130000638E302B36D93C22A25C002A3E
:1036100032D001226B21313B6254572B00D903E297
:103620002B7F002B00D087E2FFF778FAFB7ECE4895
:1036300019009A46FDF7CEFD628E51460390CB48A5
:103640009346FDF7C7FD30217822039B0090584632
:10365000FEF7C0FA50239A46434652469852000459
:10366000000CFEF7DBFA434652469620995A80003A
:10367000FDF7B0FD288366E624220023A354233AF5
:103680002A773A7F9246012A00D157E1022A00D1D7
:1036900086E1B74A53639363D36302F07DFD002351
:1036A0002B8350E62368F92B06D82368642B03D9B3
:1036B0002268D3009B1AF3802368632B05D8236804
:1036C000002B02D0AF239B00F3802368F92B03D893
:1036D0002368002B00D059E6A64BF38056E67C22E7
:1036E000F97CA25C002900D1B8E09F2B00D95CE7EF
:1036F000302100206054002A00D084E6952B10D899
:103700005E236422F25481E630220021A154F97C28
:103710004C32A25C0029EED09F2BE9D9002A00D0C0
:1037200071E65E230A22F25470E6B288B06D530847
:1037300000926021C822FEF74DFAF0807B7D22E6E0
:1037400001F022FC8C4A8D49936828890B400421A2
:103750000B4393608A4B8B491B889B468A4B58438B
:103760009A46FDF7ADFC5B46C31A64205843874B6D
:1037700019885B46C91AFDF72DFD53461E3000B26D
:103780006881A881E88982495843FDF723FD4246B4
:103790004C23D35A64215843FDF71CFD6622A15ADD
:1037A000CB005B1AC018C310A3524A469B464B4637
:1037B000D2895B7B94464A465900106949448A8AFB
:1037C00060440391801A312100220133DBB2994217
:1037D000524152421340624603998A824A4632213C
:1037E00053731061FDF76CFC78224946030488523C
:1037F00050461B0C58432B616649FDF7EBFC03B2A6
:10380000DB43DB1718406C23E052483BFB5C012B89
:1038100000D1D8E0022B0BD132223B7A5A435B46CF
:103820001B041B0C9A4200DCD7E0AB8A0133AB824D
:103830002E23E25C9A469000801803011B1A58015F
:103840001B1855489B0084465B42A98A63449942F1
:1038500000DDC8E06B230021E15416E6002A00D108
:103860004CE7A5E642464E23D35A0A005B089A4627
:103870000123A8890A32009300B253460A39FEF7A1
:10388000A9F94346588224E621682868FEF7C0F962
:1038900023685B0898421CD9FA232268DB009A420D
:1038A00017D2002323622B7901332B71BB7C002BB1
:1038B00016D1638E2F2B13D924230022E2545623D2
:1038C0000122F254236A642B00D925E173895B0835
:1038D000E3877C2300224946CA5423682B60A3E572
:1038E000FA23B26D9B009A42E9D9E5E750234A22B8
:1038F000F35A48219A46B35A715A9B464E239C4626
:10390000434662469B5A5A4600935346FEF762F975
:1039100080B2D5E51723FA22A08D6421009380B2EE
:103920000A3BD200FEF756F92076F1E5FEF700FAE1
:10393000312002F055FF5346AB719FE52933F85C07
:103940009F335843863BE052F388144958439B46C3
:10395000FDF740FC7023584480B29B46E052632838
:1039600055D802F0C5FD9AE6581B00002A03000056
:10397000002C0140D606000000240140E8FFFF7F34
:10398000A875FF1FB80B0000E40C0000CA75FF1FEC
:10399000FF0F0000020800001027000030F8FFFFB2
:1039A000022002F03DFCFA213B7BF088C90058431D
:1039B000FDF710FC83001B187F4A5B00283353631C
:1039C0009363D3636BE65B461A046023E15C338B3D
:1039D000120C4B439A4200DA27E7AB7D002B00D054
:1039E00026E7AB8224E70123AB7500239B46638661
:1039F00002F0D2FB01F00AFD002224235946E254D2
:103A00004033E152283BE2545346E25C22E702F0A5
:103A100083FB5B46E25A684B51465A639A63DA630A
:103A20007D234A46D1543AE62A77FFF777F8638E2A
:103A3000C82B05D944235246E25242460C33D35296
:103A400050234246D05AFEF7E9F84423E35E002BA8
:103A500000D078E42E222421A3542D3A625432312E
:103A60007254564AB2652260216829608021C905D6
:103A70004A6214224946226269328B5442465233CA
:103A8000D25C0333F2547B7F002B03D04A2342469F
:103A9000D35AE387FEF7FCFA02F084FA53E402F00B
:103AA0007BFB00255346E5542533E5540333E552AB
:103AB000414B65865D639D63DD6302F07BFA802286
:103AC000290052003E4803F043F8BFF34F8F3D4BAF
:103AD0003D4ADA60BFF34F8FC046FDE7FA2250231C
:103AE0009200F2520122093BF25400237A82374AB3
:103AF0007B731373BB82BB75338991463233338139
:103B0000334B4A22984641469B5A32338B52738933
:103B100032337381FFF700FC2E4B2360D6E61B7B0C
:103B20002B2B40D0352B42D01F2B01D0FFF7C4FBED
:103B3000294B3360FFF7C0FB2849CB689343CB6028
:103B400001F064FC52461C4B5A639A63DA6302F03C
:103B500013FD53462B7767E58B4602F01DFB5A4653
:103B60005346E2546123E2540333E252124B62861D
:103B70005A639A63DA6302F01DFA80220021520030
:103B80000F4802F0E5FFBFF34F8F0E4B0E4ADA608D
:103B9000BFF34F8FC046FDE77B78032B01D9FFF7BA
:103BA000A5FBFFF798FB0E4B3360FFF785FB0D4B32
:103BB0003360FFF781FBC046002C01402823000042
:103BC0004C07002000ED00E00400FA051405002079
:103BD0008000002088130000007C000800200040C6
:103BE00000F8010800F80008F0B5674C83B02368BE
:103BF0006068C01A654B0100C218654B9A4245D8EF
:103C00000023644E644D33802B78002B53D06B78A7
:103C1000002B17D1AB78002B00D19CE0A8885F4F18
:103C200001333988AB70FDF7F3FF322800D872E01A
:103C300000232B703B88AB806B78002B13D061681E
:103C40002368C91A564AAB79914209D855480133BD
:103C50000488DBB2E200121B5218D208AB7102805A
:103C60004B2B00D97AE000234F49504AA868338093
:103C700012680B88C31A934214DC0B881B1A9A42F1
:103C800016DA0B889B1A9BB20B800FE00022484B80
:103C90001A80414B98684449444A0B881268C31AF9
:103CA0009342EADD0B889B189BB20B8003B0F0BDFA
:103CB00080B20880FAE73F4B9B7C002B10D03E4B34
:103CC0001A8890421BD8374B1988FA239B0000931F
:103CD0000023FDF77FFF0300AB6000233380DAE7AA
:103CE0002E4B1A882F4B1988344B00932F23FDF746
:103CF00071FF03003028EFDC00230020ECE7274BA6
:103D0000511C1C88FA23DB00009322002C4BFDF78A
:103D100061FF0300E0E73988226863689B1ACA00E4
:103D2000521A9B18DB08AA789BB23B80322A00D833
:103D300081E72449193B8C469BB23B806344D90FF1
:103D4000CB1821211B4A5B10535401236B7000F0E8
:103D500047FB3B886FE780B2A88060E7114A0024E8
:103D60001388144919339BB21380174A2C70944658
:103D70006344DA0FD31820225B108B54FEF77CF9D2
:103D8000AC7100F05FFB6EE74C070020DFFCFFFF2B
:103D90007605000008060020200700201200002001
:103DA000E104000010000020BA050020BC03002040
:103DB000F80500206006002014000020FF07000026
:103DC000E90300002AF9FFFF12FDFFFFF0B54746A7
:103DD000CE465B4D80B52A00002600200027594BB7
:103DE000594C9C469C8008CA7C3511688B4206D091
:103DF000CB1AA34201D201279CB20126C01804327B
:103E00000B009542F1D1002E34D04009002F14D080
:103E100063464E4D4E499C802B78C860012B3ED0A6
:103E20004C4A1678012E12D0002B02D11678002EA3
:103E300022D0C0BCB946B046F0BD444D44492B78B1
:103E4000C860012B7AD0434A14783F4CECE7260037
:103E5000414FC93EB6B2BE42E6D801263F27B14621
:103E600016703E4E377002266746BE714F463C4E76
:103E70003770D9E70020C9E7661E022E2DD83B28EF
:103E8000D7D80B740E21354A1370364B01221970A6
:103E9000202361468B71324B2A701A70C9E7621E6B
:103EA000022A3DD83B2840D800262C4A0E741670B2
:103EB0002C4A2B700E36167020226646B271284AA4
:103EC0001370244A1678F3B2012EB2D12600224F85
:103ED000C93EB6B2BE42C0D9ABE7231F042B0FD9EF
:103EE000C93C1D4BA4B29C42A3D8012111703F22B2
:103EF0001A4B1A70022362469371194B197098E796
:103F0000632896D801230B740721144A2B70137071
:103F1000144A1170202261468A71114A137088E791
:103F2000221F042ACDD8632802D90A4B1B7880E7C8
:103F30000A4A072613700B740A4ABCE7024CC0E712
:103F40004C070020BC030020204E00001605002076
:103F50002007002017050020564D0000C603002052
:103F6000F5050020C703002070B5584C2378002BBE
:103F700003D0574B1B78002B08D1564B1A78002AD8
:103F800000D170E01B78012B0AD070BD524B1B781A
:103F9000002B55D001F092F90222504B1A70F4E731
:103FA0004B4B1B78002B51D14D4D2B78012B75D0ED
:103FB0004C4B1B78012B67D02378002BE5D12B7855
:103FC000002B1DD0484A537C072B19D84749098834
:103FD000052915D946480133C16F0068DBB2091ABB
:103FE000506989B2091853745161082B08D1CB0864
:103FF000C9099BB289B23F485C185B1A04811383DC
:104000003D4C2088002836D03C4BDB79002BBCD1BE
:10401000364A002613803A4B9842B6D9324D698B06
:10402000FDF7F6FD32284FD82B7F0133DBB22B771B
:10403000322B02D96B78002B42D023886B83A4E704
:1040400001F080F90122254B1A709EE7224B1B7864
:10405000002B0DD02B4B1888FDF724FCFDF7F2F94F
:1040600001F02CF991E7FFF7B1FE01F027F98CE799
:1040700001F068F989E71C4B1B78002B13D11B4A10
:1040800013880133138080E701F0A2F9194B00284F
:1040900011D003229A7101F011F98DE7FDF7D2F9E1
:1040A00001F00CF984E7154BDB79002B00D06CE7AD
:1040B0000E4A138069E702229A71FFF795FDEAE73D
:1040C00000F0F2F901232B702E77B6E7D00500201F
:1040D00019060020F505002048070020E40500200F
:1040E000160500201705002020070020F8050020F5
:1040F0004C070020BC030020BC0500206006002007
:10410000DC050000E80500200449021C0B2800D94A
:104110000B2253009B180B707047C0463D070020D0
:10412000F0B5DE464E4657464546E0B5032083B01F
:1041300002F076F87C239B460026414B414C984682
:10414000414BA3449A46414B9946414B01935346F8
:104150004A461A6000234246257813802A00637875
:104160001A4316D0FF2D28D0002B3CD10022394B0A
:104170003002801B5A6340199A63DA63FDF75AFDD7
:104180003322354B00269B5CEF2B1FD80234A3450E
:10419000DDD102F001F8002330492E4A09889362EC
:1041A000D16242461380284B284A1A6003B0F0BC03
:1041B000BB46B246A946A046F0BD002BD6D033225E
:1041C000254B01369B5CF6B2EF2BDFD90021214A4B
:1041D00051639163D163FF22D31A9800C018400045
:1041E000FDF728FDD2E75A01D21AD200D31AFA22DB
:1041F0001201944663441A000923164F1100BB6252
:1042000017480092FCF75CFF01001648FCF7E2FF3C
:10421000019BF8621B7814495843FCF7DBFF786375
:10422000B863F8633002009A801B401950430F496D
:10423000FCF746FF0004000CFDF7FCFCA0E7C046BD
:10424000080600209406002000300040AAAA0000C2
:104250003D070020002C01406006002004000020E3
:104260008096980000A86100690A0000F82A000002
:1042700010B572B6032001F0D3FF3022194B9B5CBE
:10428000FF2B07D0FFF74CFF174B1A88174BDA624A
:1042900062B610BD154C164B0320E362154B1B781C
:1042A0006363A363E36301F0BBFF3723C820A3620A
:1042B000FDF7C0FC052001F0B3FF2823C820A3624E
:1042C000FDF7B8FC062001F0ABFF1923C820A3625C
:1042D000FDF7B0FC01F060FF0023074AA3621380E2
:1042E000D2E7C0466006002004000020002C0140F8
:1042F000690A00003D0700200806002070B5154B34
:10430000154CE36272B63C23144D154E01202E600D
:10431000A362144B1B786363A363E36301F080FF24
:104320004B20FDF787FC50234B20A362FDF782FC56
:104330005A234B20A3622E60FDF77CFC01F02CFF7A
:104340000023094AA3621380084B1B88E36262B60C
:1043500070BDC046690A0000002C014000300040DA
:10436000AAAA00003D070020080600200400002043
:1043700010B572B6134C144B144AE362144B03206D
:104380001A605023A362134B1B786363A363E36338
:1043900001F046FF6420FDF74DFC46236420A36234
:1043A000FDF748FC28236420A362FDF743FC01F0DD
:1043B000F3FE0023084AA3621380084B1B88E362C4
:1043C00062B610BD002C0140690A0000AAAA0000D4
:1043D000003000403D0700200806002004000020B7
:1043E00010B5114B114C0220E3623223A362104B33
:1043F0001B786363A363E36301F012FF9620FDF76C
:1044000019FC0C4A0C4B96201A601E23A362FDF780
:1044100011FC01F0C1FE0023084AA3621380084B7F
:104420001B88E36210BDC046690A0000002C0140F1
:104430003D070020AAAA0000003000400806002026
:104440000400002010B5114B114C0220E362282318
:10445000A362104B1B786363A363E36301F0E0FE88
:104460009620FDF7E7FB0C4A0C4B96201A60502370
:10447000A362FDF7DFFB01F08FFE0023084AA36271
:104480001380084B1B88E36210BDC046690A000018
:10449000002C01403D070020AAAA00000030004087
:1044A0000806002004000020F8B5134D134BEB6202
:1044B00072B67724124B134F1B78134E6B63AB63AA
:1044C000EB63142120003E60FCF784FE01F0A8FE9F
:1044D00063100A330A20AB62023CFDF7ABFB631C9E
:1044E000EFD101F059FE0023084AAB621380084B5C
:1044F0001B88EB6262B6F8BD002C0140690A00001F
:104500003D07002000300040AAAA00000806002055
:10451000040000200D488546002103E00C4B5B5849
:10452000435004310B480C4B42189A42F6D30B4AC5
:1045300002E0002313600432094B9A42F9D302F0DF
:10454000DBFA02F0E1FAFEF7A1FEFEE700400020F0
:10455000006D000800000020DC030020DC030020C8
:104560006C080020FEE700008268030010B50120FF
:10457000D20710D48C684A68D8682243CC6809688E
:104580002243054C204002430020DA601A69920061
:1045900092080A431A6110BDC73FFFFF82680300FB
:1045A000F0B50120D20715D4DC6848680A68CF68E6
:1045B0000E694D69A4020ED43A433243DC682A43A3
:1045C0000A4D89682C4022430A43DA609A6A024302
:1045D00000209A62F0BDF028EED1D968034C3A432E
:1045E00032432A4321400A43DA60EFE73CC2FEFF30
:1045F0000368020010B50120002B10DB4C680B682B
:10460000106823438C682343CC6823430C694969B1
:1046100023430B430249014000200B43136010BDAC
:104620000F7C00FEF0B557464E46DE4645464A68CA
:104630000B6891468A46E0B5013A002B00D1A8E00C
:10464000012A26D90025012634001A00AC40224058
:10465000234213D052435400A4464C469444674628
:1046600054430168B9430C430460C168884651460D
:104670000C6962434446BC432243C2601A000135C0
:10468000EA40E1D10020F0BCBB46B246A946A046B4
:10469000F0BD49460022012602294ED135001C00FA
:1046A00095402C402B422DD02500654369008C4657
:1046B000A846E044414607688F4361460F43514690
:1046C00007600F6981686F4389465146BC468F6811
:1046D00049466F43BB464746B9435F460F43414691
:1046E0008760C7688F4361460F435146C7604F6973
:1046F000FF2C13D86D432901491B7D43046A8C4369
:104700002C4304621C000132D440C7D15146426898
:10471000C9689A434B4313434360B3E7240A644395
:10472000644321016743091B1C00456A01328D4324
:104730003D43D4404562B1D1E8E7002435001A007A
:10474000A5402A402B4218D05146524307685500D5
:10475000AD18AF43174307600F6981685743884618
:104760005146BC468F6861467A434746AF433A4359
:104770008260C268AA430A43C2601A000134E24060
:10478000DCD151464268C9689A434B4313434360A6
:1047900078E7012A00D975E7B8E7C0463823214AEF
:1047A00070B5916804000B40082B39D0102B31D123
:1047B0000320D36818400338434258411A4B404203
:1047C00018401A4B9C46D368D1685B0449065B0EBF
:1047D000D5686044490F58430131FCF771FC690FFB
:1047E0000131FCF76DFC03001F200E4D2360AA6809
:1047F0000F491205120F920052580E490240D34041
:104800006360AA685204520F920052580240D3408B
:10481000A36070BD1268054B9204520FD340E3E7CA
:10482000054BE1E70010024000EE85FF0024F40094
:10483000986C0008D86C000800127A00030010B5CC
:10484000032838D000200C2B00D010BD6F494A6DD2
:104850001340C022120313436D4A93424DD06D4A58
:10486000934200D196E06C4A93425ED138238A6825
:104870001340082B00D1B8E0102B00D0BFE0CB686C
:1048800003301840033843425841644B40421840BB
:10489000634BCA689C4652046044520E5043CB6836
:1048A000CC685906490F0131FCF70AFC610F013150
:1048B000FCF706FCC9E7C022544C9202616D01402E
:1048C0000A4358498A422ED057498A4210D0574944
:1048D0008A421BD13822A1680A40082A00D184E00C
:1048E000102A6FD023684E489B045B0FD840ACE77A
:1048F000E06D8007C00FC003A7E70A68802310009F
:10490000DB0018401A42A0D045489EE73822A16833
:104910000A40082A6BD0102A41D0236840489B04E3
:104920005B0FD84023E02268E8E738238A68134009
:10493000082B5CD0102B5CD10320CB68CA681840D0
:10494000033843425841354B40421840344B5204DF
:104950009C46520E60445043CB68CC685906490FC0
:104960000131FCF7ADFB610F0131FCF7A9FB1F2101
:10497000264B2F4C9A689B681205120F9200125911
:104980005B040A40D0405B0F2A4A9B009B580B40B7
:10499000D8405AE7C86D8007C00FC00355E7E068EC
:1049A00018400338434258411C4B404218401C4BAE
:1049B0009C46E368E1685B0460445B0E5843E4682E
:1049C0004906CCE7E0681840033843425841134B8E
:1049D00040421840124B9C46E368E1685B04604427
:1049E0005B0E5843E46849065CE713482DE712481C
:1049F000BDE70B680A489B045B0FD840B7E70B681C
:104A000007489B045B0FD8401FE7C04600100240D8
:104A100008000C000C000C0004000C0000EE85FFE8
:104A20000024F4000200030003000300010003005F
:104A3000986C0008D86C000800127A001C4A30B547
:104A400003688D680C8890422DD08022D205904258
:104A50001DD0184A90421AD0174A90421BD0174ACC
:104A6000904205D0164A904202D0164A904216D182
:104A7000154A1340CA6813430360C56284620B7C05
:104A800003630122436913434361002030BD702258
:104A900093434A6813430C4A1340CA6813430360A4
:104AA000C5628462EDE7702293434A681343DFE7EF
:104AB000002C014000040040002000400040014064
:104AC0000044014000480140FFFCFFFF802370B517
:104AD0005B01994200D11BE140D8102900D1DCE0F4
:104AE00080235B00994200D19CE001296BD1036ACD
:104AF0009E4E8B430362036A44688569354016689D
:104B000035430226B343166933438B4351680B4345
:104B10009749884208D09749884205D096498842EB
:104B200002D09649884212D108218B4351698900ED
:104B300019430423994393689B000B4390492140F8
:104B4000946921438F4C2140D46964000C43D2689E
:104B50004460856142630362002035E080235B028C
:104B6000994232D080235B0399422CD1036A864D4F
:104B7000864C2B400362016A436D23401468240273
:104B80001C43834B194013691B050B4351682B4091
:104B900009050B437649884208D07649884205D0FA
:104BA0007549884202D07549884206D145689169A5
:104BB000784E8902354029434160D2684465C26518
:104BC0000362002000E0012070BD036A724D2B409B
:104BD0000362016A714B446D1C4013681C43704BA7
:104BE000194013691B040B4351682B4009041943F6
:104BF0005F4B984208D05F4B984205D05E4B98427D
:104C000002D05E4B984206D145689369624E1B0202
:104C100035402B434360D3684465826D83650162F0
:104C20000020D1E7036A564E33400362046A4F4BBB
:104C30004568C169194013681943524B1C401369F8
:104C40001B0223435468334024021C43484B9842C0
:104C500008D0484B984205D0474B984202D0474B6A
:104C6000984213D14F4B1C4053699B0223434E4C37
:104C700023409468A4021C434C4B1D4093691B01C4
:104C80002B434B4D2B40D5696D011D43D3684560C7
:104C9000C161C3630462002096E7036A454C8B43FD
:104CA0000362066A456883692340146824021C4332
:104CB00020239E4313691B0133438B435168090131
:104CC00019432B4B984208D02A4B984205D02A4BC7
:104CD000984202D0294B984213D1802399435369BB
:104CE0009B010B4340218B439168890119432E4B53
:104CF0001D4093699B002B432A4D2B40D569ED0045
:104D00001D43D368456084618363016200205BE7D3
:104D1000036A264E274D33400362046A4168C36923
:104D20002B4015682D021D43214B1C4013691B03AA
:104D3000234354683340240323430D4CA04208D03E
:104D40000C4CA04205D00C4CA04202D00B4CA0420F
:104D500004D1194C0C40916989012143D26841600A
:104D6000C5610264036200202EE7C0468CFFFEFF8F
:104D7000002C014000400140004401400048014037
:104D8000FFFEFFFFFFFDFFFFFFFFEFFFFF8FFFFEB7
:104D9000FFFFDFFFFFFFFBFFFFFFFEFF8FFFFEFFB9
:104DA000FFFFFDFFFFF7FFFFFFFBFFFFFFEFFFFF31
:104DB000FFDFFFFFFF8CFFFEFFBFFFFF8B680A7B5B
:104DC0001A43194B1A404B681A43184B1A400B6888
:104DD0001A43174B1A40CB891343164A13400A69EA
:104DE0001343154A1340CA6A1343144A904202D02F
:104DF000436400207047124A13404A691343114A22
:104E000013408A691343104A13404A6A13430F4AF6
:104E10001340CA6913430E4A13400A6A13430D4AEA
:104E200013408A6A1343E3E7FFFBFFFFFFF7FFFF2F
:104E3000FFEFFFFFFFDFFFFFFF3FFFFF002C014001
:104E4000FFFFF0FFFFFFFFEFFFFF0FFFFFFFFFFE82
:104E5000FFFFFFFDFFFFFFDFF0B5036804000D005B
:104E6000012085B0DB072BD48B68096922680B43CE
:104E700069690B43E9690B432F490A4013432360D7
:104E800063682E4A1340EA6813436360A3682C4AA0
:104E90001340AA691343A3602A4B9C4212D02A4BA9
:104EA0009C4236D0294B9C422ED0294B9C422BD081
:104EB0002E680F22E36A36049343360C3343E362D1
:104EC00005B0F0BD0230FFF7B9FC030001202E68E9
:104ED000002BEED06F68002FEBD00B2E12D81D4A9E
:104EE000B10089581800FCF7EBF88023EA697908CB
:104EF0001B029A4212D040183900FCF7E1F8030473
:104F00001B0CE3600020D4E701A8FFF747FC039BDC
:104F1000DCE70C20FFF792FC0300D7E740004018C5
:104F20003900FCF7CDF80C4B03400007400F184345
:104F3000E0600020BDE7C046F369FFEFFFCFFFFF51
:104F4000FFFCFFFF003801400044004000480040E3
:104F5000004C00404C6C0008F0FF0000FA2110B536
:104F60008900FCF7ADF80022034B013858609A60C5
:104F700005321A6010BDC04610E000E0014B186019
:104F80007047C046D8030020054A064B9188198017
:104F90005188054B12881980044B1A807047C0460F
:104FA000400700201C0600202206002022050020C9
:104FB000C220124B80001958114A1140C02212041D
:104FC0000A431A508022D2001A600E490E4B0F4A33
:104FD00099600321DA605A68120C12040A435A607D
:104FE0001A6801390A431A601A6806310A431A60BE
:104FF0001A6807390A431A607047C04600E100E0AA
:10500000FFFF00FF402401401C0002404007002039
:10501000002300B583B0009301932A4B9A68D2070E
:105020004DD49968284A1140802252050A439A605B
:10503000264B27491868FCF743F8830018180A2103
:105040008000FCF73DF80090009B002B05D0009BF2
:10505000013B0093009B002BF9D10321194AD3682F
:105060000B400193D3688B43D3609168194B19406F
:1050700018330B4393609368002BFCDB03200199EA
:10508000D36883430B43D36040230093009B002BE2
:1050900005D0009B013B0093009B002BF9D1094AEE
:1050A0000C4993680B4001210B439360136819422C
:1050B000FCD08023084A1B0411680B43136003B023
:1050C00000BDC04600240140E8FFFF6FD803002068
:1050D000400D0300E8FFFF7F08270140F0B5C646FA
:1050E000802600B592B01822002106A801F030FDFC
:1050F0001022002102A801F02BFD102200210EA891
:1051000001F026FD01215D4B76031A6CA024324389
:105110001A641A6CE40532400192019A5A6B88466F
:105120000A435A635B6B40220B400093009B0323AE
:105130000CA9200000250C920D93FFF773FA202292
:1051400003230CA920000C920D931095FFF76AFA27
:10515000FF2105274A4A4B4C136820008B433B43F1
:105160001360494B49491A680A401A601968484A4D
:105170001140802292010A4320211A601A680A43D2
:105180001A601A6820318A431A601A6840310A434B
:105190001A6019683F4A1140802292000A431A603F
:1051A00019683D4A11408022D2000A433B491A60E7
:1051B0000A683B4B1A403B4B13430B60F0231B0226
:1051C00001220793002306A90A920B9306950895DE
:1051D0000995FFF7E3F94246236970219343236160
:1051E0002269314B20001A4080239B041343802204
:1051F0002361E368920313438022E360236912036F
:105200009B009B0813430722236163699343033A7E
:105210001343636163690B436361636802A993434A
:105220006360636804329343636003950495059556
:10523000FFF79AF90F22A36A93433B43A362636982
:105240001A4A1340F0226361A36A9343903A1343CE
:10525000A3626369164A13406361A26A154B1A4040
:10526000C0231B011343A3626369134A13401E4307
:10527000666112B080BCB846F0BDC0460010024066
:1052800004080240002401401C000240EFBFFFFF61
:10529000FFCFFFFFFFFCFFFFFFF3FFFF08270140E9
:1052A000FFFF3FFE001000B0FFFFFFDFFFDFFFFF4B
:1052B000FFBFFFFFFFF0FFFFFFFFEFFF0221174BD4
:1052C0000020DA6A0A43DA62DA6A8A43DA62412241
:1052D000134B01399A61373A1A62124A12789A626C
:1052E000114ADA625A690A435A61104A10705862C8
:1052F0000F4A1048D0601048906010480078506005
:105300000F4810608022D86892000243DA601A6A5F
:105310000A431A621A680A431A6070470010024072
:1053200000040040C6030020FFFF000048070020E3
:10533000080002404C07002034040040C203002053
:105340008B0900000221194B1948DA6A0A43DA6214
:10535000DA6A8A43DA626022164B17499A615D3A2B
:105360001A62164A12789A625C22DA625B3A0A7012
:105370005969114359611249C8601248886012483E
:10538000407817304860114808608021D86889004B
:105390000143D960196A114319628021586C0902CE
:1053A0000143596419680A431A60704700100240AB
:1053B0004C04002000040040480700203007002073
:1053C0000800024034040040C60300209B0900008E
:1053D0001020024B1B6918407047C0460004005063
:1053E0000449054BCA681A4080235B001343CB6015
:1053F0007047C04600040050FFFCFFFF024B1B68D3
:1054000018684000C00F7047C80300208021054B7A
:1054100005485A5802405A508022D202DA601A6176
:105420007047C04600180240FFFFFBFF802203497F
:1054300003488B58406803438B5070470018024064
:10544000C8030020C8233E4A30B511685B0099426A
:1054500058D23C490B78002B31D13B4B1068962237
:105460009200904209D91C68384A20681040802276
:10547000D2020243226001220A70354A1278012AC0
:1054800026D0042A24D0022A47D11868314A01685C
:1054900011409C2292000A4302602F4A5B681278F6
:1054A000002A22D02D4A2E4811680140116011684F
:1054B0002C480140116051680B43536030BD224BB2
:1054C000224D1C6820682840206000200870C5E735
:1054D0001868204A01681140A02292000A43026025
:1054E0001D4A5B681278002ADCD11C4A11680B4304
:1054F000136053681B490B405360536818490B40B5
:105500005360DBE7962312689B009A4203D90D494A
:105510000B78002B11D00C4BAFE7052AB5D0032A2E
:1055200008D118680B4A01681140982292000A437A
:105530000260B2E7062AF4D0AFE7034B93E7C04618
:10554000940500204D080020C8030020FFFFF3FF52
:10555000550000200FFCFFFF520000200018024001
:10556000FFFFFBFFFFFFFDFFF0B5CE4647460326DA
:10557000884680B585B015006A46CB171E40464464
:10558000B610B3000733DB08DB00D31A00AF9D462B
:105590006C46814632000021200001F0D9FA4346D2
:1055A000032B13DD4846002293009C468178C37884
:1055B00009041B060B43017801320B434178043088
:1055C00009020B43614663509642EDDC8021344A68
:1055D0007E60490213690B42FCD15369002B04DA47
:1055E000304B196891605B6893606B051BD1022199
:1055F0002B4A53690B4353615169EB0ADB000B43A0
:1056000080215361536949020B43536113690B4273
:10561000FCD1012311690B4200D013610221204A01
:1056200053698B4353610023BB60FB60FA687B685E
:105630009A4228D280220126194952024B693343EB
:105640004B61F868BB68800000595B191860F86806
:10565000BB6801308000005904335B1918600B6986
:105660001342FCD10B691E4200D00E614B69B3435B
:105670004B61BB680833BB60FB680233FB60F868B2
:105680007B689842DAD38023BD46054A1B065169E0
:105690000B43536105B0C0BCB946B046F0BDC0462F
:1056A00000200240D0030020F0B5002A26DD531E62
:1056B000062B24D903000B439B0720D14B1CC31A94
:1056C000022B1CD90B009608B6008F19441A1D68CE
:1056D000E5500433BB42FAD1B2420FD00323140089
:1056E0009C432300645CC454731C9A4206DDCC5C6A
:1056F0000236C454B24201DD8B5D8355F0BD8A1879
:10570000441A0B78635401318A42FAD1F6E7C04655
:10571000024B034A9A6062B67047C04600ED00E053
:105720000010000807212C4A10B513688B43053977
:105730000B43136013688022284B520019680A43F8
:1057400080211A60C9001A680A42FCD001211A6E31
:105750000A431A66214B01311A6E1142FCD0D968F6
:105760001F4A11401F4A0A43DA6080221968520416
:105770000A431A608022D96852050A438021DA6000
:10578000164B89041A680A42FCD09A681649134CD1
:105790000A4007219A609A688A4305390A439A6049
:1057A0003822A3681340102BFBD1104AA36810487D
:1057B0001340A360FFF7D2FB0D48FFF7DFFB0C4857
:1057C000FFF7DCFB636D0B4A13406365636D9B0061
:1057D0009B08636510BDC0460020024000100240D7
:1057E0008C80FF1F02080020FFF0FFFFFF8FFFFFEC
:1057F0000090D003FFFFBFFFF0B5C64600B590B0E4
:10580000182200210AA801F0A3F91022002106A8FD
:1058100001F09EF90122444C9046636BA020134393
:105820006363636B04A913400393039B0223626BBE
:10583000C0051A436263626B002513400293042281
:10584000029B032304920593FEF7ECFEA02008269A
:10585000032704A9C005049605970895FEF7E2FE04
:1058600004A93248049605970895FEF7DBFE8022CE
:10587000032304A92D48049205930895FEF7D2FE50
:105880004246236C0AA913432364236C284C13401B
:105890000193019B80239B000B93813BFF3B2000E6
:1058A0000C930D950E950F95FEF7A2FE2368214AE5
:1058B00021491340236023680B4023601F4B1A6863
:1058C0000A401A6022681E490A4022601A680A408B
:1058D0001A601C4B1C4918680095FBF7F1FBC823A4
:1058E00043430093009B002B05D0009B013B00939A
:1058F000009B002BF9D18421144B15485A580240C3
:105900005A5004395A5802405A50C321FF20114BB3
:1059100089005A5882435A50802252011A6010B0AE
:1059200080BCB846F0BDC0460010024000040050E4
:1059300004020140FFFFF3FFFFF7FFFF00020140F9
:10594000FFBFFFFFD803002080841E000018024024
:10595000FFFFFBFF00E100E0084B094A07211A6046
:10596000084A1A6000225A60074A9A60DA681142AF
:10597000FCD1054A1A61054A1A60704700300040A0
:10598000CCCC000055550000FF0F0000AAAA000073
:10599000F0B5DE4657464E464546E0B5A3B0142264
:1059A000002103A801F0D4F8202200210EA801F064
:1059B000CFF83022002116A801F0CAF818220021E1
:1059C00008A801F0C5F880227F4E1201336C7F4D8C
:1059D00013433364336C03A913400293029B7C4B43
:1059E000280090460593FFF729F880222B68794F0D
:1059F00013432B603B689146783A134300243B6085
:105A00006023934601210EAA28000E931294149449
:105A1000139415940F9410941194FFF757F80422DF
:105A20003B689246934342463B603B6810211343D8
:105A30003B600EAA28000F941094FFF747F85946D0
:105A40003B68654A280013403B60644F3B680B434A
:105A50003B600EAB1A00F8310F941094FFF736F844
:105A600051463B6828008B4341463B603B680B43F3
:105A700080213B600EAB1A0049010F941094FFF790
:105A800025F83B68544A802113405A463B60544FE6
:105A900028003B68490213433B600EAA0F94109400
:105AA000FFF714F852463B68642193433B606B68F0
:105AB0006C3293436B606B684A4A280013404A4635
:105AC0006B60AB6802279343AB6000220023169201
:105AD00017936A4628235218137066226B469B1848
:105AE0001C8080239B011A93802316A99B041E937C
:105AF00018941B941C941D941F9420942194FFF7D8
:105B00005DF901220225736B904613437363736B37
:105B100008A913400193019B736B2B437363736B51
:105B200000262B400093009B4B460893A023DB05E7
:105B3000180099460C960D9709950A940B94FEF758
:105B400071FD43460893284B08A9984618000C9607
:105B50000D9709950A940B94FEF764FD08A9404639
:105B60000C960D97089509950A940B94FEF75AFD2B
:105B7000802308A95B00484608930C960D97099569
:105B80000A940B94FEF74EFD802308A99B0048461B
:105B900008930C960D9709950A940B94FEF742FD15
:105BA00080234846DB0008A90C960D9708930995B9
:105BB0000A940B94FEF736FD23B0F0BCBB46B24608
:105BC000A946A046F0BDC04600100240002C01408E
:105BD000690A0000182C0140FFFBFFFF1C2C01404C
:105BE000542C0140FFFF0FFF00040050F0B58FB0B0
:105BF00003AD14220021280000F0AAFF0C2200218E
:105C00000AA800F0A5FF022201263D4B3D48D96BB2
:105C100080271143D963D96B3B4C11400291029903
:105C2000596B11435963596B0A400192019A5A6B9F
:105C300008A932435A635B6B102233400093009BE8
:105C400002230D9608920993FEF7ECFCFF21202019
:105C50002E4A13688B43034313602D4B1A6822406E
:105C60001A601A682B4C22401A601A682A4C824328
:105C70001A601A68203082431A601A68BA433A439D
:105C80001A601868254A10408022520002431A60A8
:105C90001868234A1040802212010243C4201A606F
:105CA000204B80001A588A431A50802252021A60F0
:105CB00000231D4A290020002B800493059206939F
:105CC000FEF7BCFE702203212368BB432360636898
:105CD00093436360A368BB43A360144B1A688A4371
:105CE00032431A601A6809318A431A601A68E4312B
:105CF0008A431A600A22236A134323620FB0F0BD5D
:105D00000010024000040050EFBFFFFF00080240F7
:105D100008000240FFCFFFFF00040040FFFCFFFF30
:105D2000FFF3FFFF00E100E0FFFF00001804004068
:105D300030B587B06B4612220021981D00F008FF95
:105D40001023C420164A8000D16B01AD1943D163E2
:105D5000D26B144C13400093009B134B134A1958F9
:105D60001140802212020A431A50802292021A60C5
:105D70003F232B800023290002932000323303931A
:105D8000FEF75CFE802270212368934323606368E2
:105D90008B436360A3689343A36007B030BDC046E4
:105DA000001002400010004000E100E0FF00FFFF93
:105DB000F0B5CE46474601258022082180B5664CC5
:105DC0008FB0236C52052B432364236C634E2B400E
:105DD0000493049BE36B80271343E363E36B13405B
:105DE0000393039B5E4B1A680A431A601A680831D2
:105DF0000A431A6080235B4A5B0011680B431360FF
:105E0000FFF790FC636B2B436363636B2B40019341
:105E1000019B0223626B1A436263626B134002931D
:105E2000029BA36B504A2B43A363A36B2B400893A5
:105E3000089BC2239B00F15811408022D2010A43E3
:105E4000F250802292003260F158484A114080227C
:105E5000D2030A43F250F8333360FFF7CDFCFFF76B
:105E600097FD26236B4412220021180000F070FEDB
:105E7000E36B09A92B43E363E36B1D400795079B85
:105E80001F23994680254A466B46ED059A84384B78
:105E9000280098460B93FEF7D1FD2B68354ABB438B
:105EA0002B60AB6813407022AB606B6893436B60F0
:105EB000AB68BB43AB60FFF799FE26236B4412220D
:105EC0000021180000F044FE8022236C12021343CC
:105ED0002364236C284D1340C42206939200069B32
:105EE000B35809A91B021B0AB35080231B0333605C
:105EF0004A466B469A840023424628000A930B9236
:105F00000C93FEF79BFD2B681222BB432B602623CC
:105F10006B440021180000F01BFE8022236CD2028B
:105F200013432364236C154C134005936A46059B69
:105F30003F239384434609A920000B93FEF77EFD7F
:105F400023683B432360FFF7F3FE00F077FB0FB0BD
:105F5000C0BCB946B046F0BD0010024000E100E010
:105F60000000014000200240FF00FFFFFFFF00FF94
:105F7000FFFF0000F8BFFEFF002000400048014086
:105F8000014B58637047C046002C0140014B986399
:105F90007047C046002C0140014BD8637047C04693
:105FA000002C01400121024A53690B4353617047A1
:105FB000002C01400022024B9A625A627047C04690
:105FC0000004004010B501241021494B82B01A6A28
:105FD00022431A621A6A0A431A628022196A52001C
:105FE0000A4304211A621A6A0A431A621A6A3C3185
:105FF0000A431A628022196AD2000A431A62802276
:10600000196A52020A431A628022196A52010A432B
:106010001A6264221A641A6822431A608022596C38
:1060200012020A435A645A6922435A61314B1A6A6E
:1060300022431A621A6822431A602F4B1A682243BD
:106040001A605A6922435A61DA682243DA60DA68D0
:10605000A243DA60294B1A6822431A605A69224324
:106060005A618023DB051A6822431A605A69224369
:106070005A61234B1A6822431A605A6922435A61B3
:10608000DA682243DA60FFF729F8FEF791FFFEF79E
:10609000BFFF00231B4A019313681B49234313606E
:1060A0001A4B1868FBF70CF8830018180A21000136
:1060B000FBF706F80190019B002B05D0019B013BEB
:1060C0000193019B002BF9D1C1208021104A80004F
:1060D000135809061B021B0A0B431350802313603D
:1060E00080220C491202C8580243CA5002B010BDA7
:1060F000002C014000040040002000400048014006
:106100000010004004020140400D0300D8030020AD
:1061100000E100E000180240A023DB051968194ADD
:106120000C201140802252030A431A608022D200C0
:106130009A621968144A11408022D2020A431A60F6
:10614000802292009A621968104A114080225202FD
:106150000A431A6080220E4952009A620A688243FA
:10616000043802430A600A68053882430138024352
:106170000A601968074A1140802212020A431A6015
:106180007047C046FFFFCFFFFFFFF3FFFFFFFCFF9D
:1061900000040050FF3FFFFF0C211C4A13688B4393
:1061A00008390B43136002239362A023DB051868B0
:1061B00017490840802149030143196080210320C9
:1061C000C9009962116881430238014311609062ED
:1061D0001968104A11408022D2020A431A608022B4
:1061E00092009A6219680C4A11408022D2010A4337
:1061F0001A6080229A621968084A1140802252026D
:106200000A431A60802252009A62704700040050CC
:10621000FFFFCFFFFFFFF3FFFF3FFFFFFFFFFCFF8D
:1062200010B5062840D8AB4B80001B589F46032171
:10623000A94A13688B4302390B431360A023916270
:10624000DB051868A54908408021C902014319608F
:106250008021890099621868A14908408021C901FC
:10626000014319608021996118689E490840802186
:106270004902014319608021490099629A4B1B78B9
:10628000002B00D01FE11368F4398B4308390B430E
:10629000136002239362A021C9050A68934B1A4038
:1062A00080239B0313430B6010BDA023DB051968FB
:1062B0008B4A032011408022D2010A431A608022B7
:1062C0009A621968874A1140802252020A431A6072
:1062D000802252009A62804A116881430238014349
:1062E0001160906118687D4908408021C90201430E
:1062F00019608021890099627B4B1B78002B00D0AC
:10630000E1E0F5391368FF39BFE70C21724A1368E1
:106310008B4308390B43136002239362A023DB05F0
:10632000186872490840802149030143196080219F
:106330000320C9009962116881430238014311604A
:1063400090611968654A11408022D2020A431A609E
:10635000802292009A62644A12781968002A3CD11D
:106360005F4A11408022D2010A431A6080229A6259
:10637000A021C9050A685B4B1A4080239B02134386
:106380000B6091E70321544A13688B4302390B4396
:106390001360A0239162DB051868504908408021F2
:1063A000C9020143196080210C208900996211689B
:1063B00081430838014311600221916119684B4AF9
:1063C0001140802252030A431A608022D2009A624E
:1063D000454A12781968002AC2D0414A11408022E9
:1063E00012020A431A60C3E7A023DB0519683C4A7E
:1063F0000C2011408022D2010A431A6080229A6246
:106400001968384A02241140802252020A431A6055
:10641000802252009A62304A116881430838014351
:106420001160946118683149084080214903014393
:1064300019608021C90099622B4B1B78002B3CD13D
:10644000032113688B4302390B4313609162A0212F
:10645000C9050A68214B1A4080231B0313430B60B4
:1064600022E70C211C4A022413688B4308390B4392
:106470001360A0239462DB0518681C490840802142
:106480004903014319608021C900996218681449C1
:1064900008408021C9010143196080219961186871
:1064A00010490840802149020143196080214900B8
:1064B00099620D4B1B78002BC2D0032113688B43CC
:1064C00023431360C3E70C2113688B4304390B4348
:1064D0001360E0E67C6C000800040050FFFFF3FF4F
:1064E000FF3FFFFFFFFFFCFF20050020FFFFCFFF66
:1064F0000C211C4A13688B4308390B431360022399
:106500009361A023DB0518681749084080214903DF
:106510000143196080210320C900996211688143F9
:1065200002380143116090611968104A11408022BD
:10653000D2020A431A60802292009A6219680C4AB9
:1065400011408022D2010A431A6080229A611968A0
:10655000084A1140802252020A431A6080225200E7
:106560009A62704700040050FFFFCFFFFFFFF3FF68
:10657000FF3FFFFFFFFFFCFF2A4A2B491378002B48
:106580003AD10C200B688343083803430B60022385
:106590008B62A020C0050168244B194080239B0317
:1065A0000B43036013782049002B33D103200B6881
:1065B0008343023803430B608862A023DB0518681D
:1065C0001B490840802109030143196012781968AA
:1065D000002A18D1174A11408022D2010A431A60BA
:1065E00080229A62A021C9050A68134B1A408023B1
:1065F0009B0213430B6070470C200B6883430438E5
:1066000003430B60C5E70B4A1140802212020A4384
:106610001A60E7E703200B688343013803430B60EC
:10662000CBE7C0462005002000040050FFFFCFFF4D
:10663000FFFFF3FFFF3FFFFFFFFFFCFF30B591B00F
:106640002022002108A800F083FA1022002104A8CB
:1066500000F07EFA8021524BC9011A6C01250A43D1
:106660001A641A6C4F480A400192019A0222596B2F
:106670004D4C114359635B6B02A91A400092009B79
:10668000402202230595029203930695FDF7CAFF67
:10669000C620C021454A8000135809061B021B0A68
:1066A0000B4313508023FF211B051360404A002039
:1066B00013688B43CC390B4313603E4B3E491A6839
:1066C0000A4010210A431A601A683C490A402021F6
:1066D0001A601A688A431A601A6820318A431A605D
:1066E0001A6840310A431A601A6835490A401A602C
:1066F0001A6834490A401A600C21E12200230C90E8
:106700000D91520208A92000089309920A930B9355
:106710000F93FEF7A1FBA3682B4ADB00DB08A36005
:10672000A36880211340A3602368284AC90313404B
:1067300023606368264A134022226360A368934360
:10674000A360A3681A3A13438022A36023689203CC
:106750002B432360E3691342FCD0E3690B42F9D079
:10676000144B1C481A681C490240102A13D01B4ABB
:106770009960DA6031210F4A53681B0C1B040B43EC
:10678000536013682F390B431360136806310B43B2
:10679000136011B030BD114AD9609A60EAE7C04673
:1067A00000100240000400500038014000E100E009
:1067B0000808024030000240EFBFFFFFFFCFFFFF9D
:1067C000FFFCFFFFFFF3FFFFFFFFFFF1FFFFFFDF16
:1067D000FFB7FFFF10400000E00400202838014010
:1067E00010B50C2408210C4A1368A3430B430B4932
:1067F00013604B681B0C1B04034380204B609368A1
:10680000034393600B687F3803430B6004211368D4
:10681000A3430B43136010BD003801403000024019
:106820007047C046FEE7C0467047C0467047C04646
:106830007047C04610B5254B1B78002B03D0244B66
:106840001B78002B2AD10422224B19680A420BD054
:1068500021490978002907D00A242048016AA14368
:10686000083C214301625A601A4B1A68920705D40A
:106870001A68120701D501225A6010BD01215A6819
:106880000A435A600022164B1A60FDF76DFB802305
:10689000144A1B0291680B439360EEE701240D4AF2
:1068A00053682343536000220D4B1A600E4B1B7834
:1068B000002B05D0FEF702FD02220C4B1A70E6E712
:1068C000FEF740FD094B1C70E1E7C046D0050020F3
:1068D00019060020000002401705002000040040B7
:1068E000080002400018024048070020E40500208C
:1068F000154A10B513689B0603D510235360FEF7A5
:1069000043FB8022104B19680A4200D05A600E4B9C
:106910001A6892050BD41A68120507D58022012146
:1069200052005A60094A13688B43136010BD00215E
:10693000074A11708022012152005A60034A1368ED
:106940008B431360F2E7C046000002403000024073
:10695000FE05002070B580251C4CED0223692B42FA
:106960001BD1E3682B4208D180252369AD022B425D
:1069700013D1E3682B4200D170BD8023DB055A6A36
:10698000134B1B685B089A421BD8FEF737FD114B6F
:106990001B789842F0D1E560EEE78023DB055A6A68
:1069A0000B4B1B685B089A4207D8FEF727FD094B83
:1069B0001B789842E0D12561DEE72561FBF702FCF8
:1069C000DAE7E560FBF7FEFBD6E7C04600180240B9
:1069D0009405002052000020074A13699B0702D546
:1069E00003235B421361044A1369DB0702D50223C8
:1069F0005B4213617047C04600040040074A1369B8
:106A00009B0702D503235B421361044A1369DB072A
:106A100002D502235B4213617047C0460044014027
:106A2000054A10B51369DB0704D502235B421361E5
:106A3000FCF76EF910BDC0460010004070B5074D60
:106A4000074C6B6A2380FBF779FB0222054B52420D
:106A50001A616B6A22889B1A238070BD004801402E
:106A60004E08002000200040194B30B51A68196804
:106A70008022080092031040114213D0802201218D
:106A800052035A60134A144813688B431360134B24
:106A90005A6C02405A641A688A431A600022104BEA
:106AA0001A7030BD1A681202FBD5012409490A4D3B
:106AB0000A68A2430A60094A516C2940516411686E
:106AC000A1431160064A1070802252035A60E8E721
:106AD000000002406C000240FF7FFFFF00440140C5
