:020000040800F2
:10000000001000206D010008BD010008BD010008BE
:1000100000000000000000000000000000000000E0
:10002000000000000000000000000000BD0100080A
:100030000000000000000000BD010008BD01000834
:10004000BD010008BD010008BD010008BD01000898
:10005000BD010008BD010008BD010008BD01000888
:10006000BD010008BD010008BD010008BD01000878
:10007000BD010008BD010008BD010008BD01000868
:10008000BD010008BD01000800000000BD0100081E
:10009000BD010008BD010008BD010008BD01000848
:1000A000BD010008BD010008BD010008BD01000838
:1000B000BD01000800000000BD01000800000000B4
:1000C00002B4714649084900095C49008E4402BCEB
:1000D0007047C0460448054B10B5834203D0044B1B
:1000E000002B00D0984710BD000000200000002029
:1000F0000000000006480749091A8B10C90FC918EB
:1001000010B5491003D0044B002B00D0984710BD08
:1001100000000020000000200000000010B5074C87
:100120002378002B09D1FFF7D5FF054B002B02D018
:10013000044800E000BF0123237010BD0000002030
:1001400000000000940B0008054B10B5002B03D0F5
:100150000449054800E000BFFFF7CCFF10BDC046D2
:100160000000000004000020940B00080D488546A4
:100170000D480E490E4A002302E0D458C4500433FF
:10018000C4188C42F9D30B4A0B4C002301E01360D6
:100190000432A242FBD300F0B9F900F0B7FC00F042
:1001A000B7F9FEE70010002000000020000000204A
:1001B000B40B00080000002034020020FEE700001D
:1001C0008021C9054A6A044B92B21A804B6A9B1A75
:1001D0009BB29842FAD8704730020020F7B500224F
:1001E0000D4B0400012710009C460191019B934296
:1001F00000DCFEBD0821A55C2B00664643403B4069
:100200005B423340400801395840C9B280B26D08A2
:100210000029F1D10132E9E701A0FFFF902304207A
:100220003022DB0510B5986119689143203A0A43E2
:100230001A605A6882435A60034B1B78002B02D025
:100240003030FFF7BDFF10BD2C020020F8B590261E
:100250000423F6050500B3623420FFF7B1FF08243C
:10026000012704233D420DD0B361013C3420E4B2A8
:10027000FFF7A6FF6D08002CF3D190230422DB05C5
:100280009A61F8BDB362F0E770B50400074D010054
:100290002800FFF7A3FF064B1A5D2B5D12021343E4
:1002A000181A42425041C0B270BDC0462901002018
:1002B0002A01002090223021D205136800018B43CF
:1002C0001360D3688B430343D360704710B501209C
:1002D000FFF7F0FF10BD10B50400FFF79FFF2000EF
:1002E000FFF7B4FFFFF7F2FF10BD000010B530209C
:1002F000FFF7F1FF0022014B1A8010BD2E020020F3
:1003000010B5C120FFF7E7FF024A138801331380BD
:1003100010BDC0462E02002010B5C220FFF7DBFF43
:10032000024A13880133138010BDC0462E020020FC
:1003300070B504000D00FFF771FF65192078FFF715
:1003400085FF01343420FFF73BFFAC42F6D1FFF7C5
:10035000BDFF70BD10B509210348FFF7E9FF012279
:10036000024B1A7010BDC046E80F00082C02002096
:100370000123F0B5150087B00A4300900E0000205D
:100380001A4232D14A08294C0192E2681A42FCD141
:1003900023691B0603D5264B6360264B6360AB05C0
:1003A0000FD102332361656122693E331343236118
:1003B0000123E268110019401A42FAD12023E360B8
:1003C00021610023012704930593059B019A9A421A
:1003D0000DD880232269290013432361320000983D
:1003E00000F0C9FB43425841C0B207B0F0BD0599C7
:1003F000009B4900591802AB0222981D00F0B2FB85
:100400002761049B02AAD288EB181A80E3681A00BD
:100410003A403B42FAD12023E3602261049B02333D
:100420000493059B01330593CFE7C04600200240AB
:1004300023016745AB89EFCD70B5154B154C5B6A51
:10044000A544DB0020D5144B1B78132B1CD0013B9B
:10045000DBB2FD2B18D880226846D2000F4900F08D
:1004600081FB802613236A46802500249370760042
:10047000ED002000094B3100E21801346844FF34DC
:10048000FFF776FFAC42F4D18023DB009D4470BDC2
:100490000010024000FCFFFF027C0008007C000806
:1004A00010B5144B1978012903D00022124B1A8081
:1004B00010BDE022114C120623689B1880225202C4
:1004C0009342F2D80E480F4A03689B188022D2024A
:1004D0009342EAD872B60C4B1A690A431A611A6938
:1004E0008A431A61236802689D4683F3088810478F
:1004F000DEE7C046007C00082E0200200010000845
:100500000410000800F0FFF70010024070470000E0
:100510001023F0B5D74989B00A68D74C13430B6054
:1005200001230A6800AF9A431A430A602268134302
:100530002360022322681A42FCD0F82322689A43DF
:10054000783B134323600123626B134363630223ED
:10055000626B1A42FCD0F823626B9A43783B1343D8
:1005600063630123626A134363620223626A1A426D
:10057000FCD06268C14B1A40A0239B0313430F2297
:100580006360E36A9343E362802322685B0413435E
:10059000236080239B0422681A42FCD0F022636807
:1005A000934363606368B64A1340636003236268E1
:1005B0009A43013B13430C22636063681340082B8A
:1005C000FBD1B04BB04A00255A6005229D601A60ED
:1005D000E369043A1343E361E369AC4813407B6188
:1005E0007B698023DB0519688026014019600121A1
:1005F0004942D962303199625969A548114359611C
:100600001968B14319609968014070209960596870
:10061000814359609968B143996019689026814374
:1006200019601968F6050A431A6080226369D202CC
:10063000134363616369302113408022FB61FB69CE
:10064000636992021343636163696E381340BB614F
:10065000BB6933688B4333601023F2688A431343CA
:10066000F360FFF727FEFA204000FFF7A9FDFA2309
:100670001B01FB6004223369134201D10135ADB285
:100680000A20FFF79DFDC423FF339D4200D1A9E05E
:10069000FB68013BFB60002BECD10120FFF70AFE59
:1006A000FA20FA2490264000FFF78AFD6400F60540
:1006B00004223369134201D10135ADB20A20013C55
:1006C000FFF77EFD002CF3D1002D1AD02000FFF79C
:1006D000F1FDFA20FA2590264000FFF771FD6D002C
:1006E000F60504223369134201D10134A4B20A2071
:1006F000013DFFF765FD002DF3D1002C01D0FFF780
:10070000CFFE0120FFF7D6FDFFF796FE0022002660
:10071000604B614C1A7003320021FF32200000F060
:1007200019FAFFF7D3FD5D4BFC60BE607B600022D1
:100730007B6890241A7080230420DB055A6A58498C
:1007400092B2584D0A80E4052369034251D08023B8
:1007500090250424DB055A6A4E4B92B20A80197820
:10076000ED052B69234276D11A20FFF729FD2B696D
:100770001D002540234246D13420FFF721FD902360
:10078000DB051C690123A4081C40AC40434B013528
:100790001A781443E4B21C70082DEDD13420FFF711
:1007A0000FFD9023DB05404A1B6912785B072AD5B1
:1007B0000121384B1970002A00D17DE03B4BBA680B
:1007C0001B8802339A421ED0FB681C7053189BB2E0
:1007D000BB60FB6801360133FB6081235B009E42F6
:1007E000A5D110E0636ADB0000D556E7FFF758FE9D
:1007F00053E78023DB055B6A9B1A9BB2AB42A3D90C
:1008000065222B4B1A80234A274E12783378002A10
:1008100000D162E1204C002B6BD0244B1D882800B6
:10082000FFF732FD002861D08022224B0021180002
:100830005200FB6000F08EF90023AB4251DBFFF762
:1008400055FD002333701A4B1B88642B00D85DE7DD
:10085000FFF726FE5AE78023DB055B6A002900D1FB
:100860007FE782209B1A9BB24000834200D878E742
:10087000C9E7C0460020024000100240FFFFC2FF4F
:10088000FFF8FFFF10E000E07FBB00008FFCFFFFE0
:10089000F8BFFFFF2B0200202901002024010020C7
:1008A00030020020204E00002801002026010020F8
:1008B0002E0200202400002080238A4ADB055B6A88
:1008C00012889B1A9BB2FA2B9DD8FB681C700223DE
:1008D000FF339E4200D07CE7834A13881433138091
:1008E00077E7E25CF968CA540133A6E7FFF714FD25
:1008F000A9E7237C20787D2B0AD1237A0D2BA2D166
:10090000637A422B9FD1FFF725FD002323759AE7D9
:10091000237D7D2B05D1237B0D2B02D1637B422BC5
:10092000F1D0230028331B787D2B07D1631CDB7F9C
:100930000D2B03D1A31CDB7F422BE4D06A4D002892
:100940000ED1A27863781343E278134301D1653363
:100950002B80C120FFF7BFFC2B8801332B8072E76F
:1009600001281DD10130FFF78FFC0028BED05F4B5E
:100970001A685F4B9A4202D8FFF7C2FC63E75D4BEF
:100980005D4819885D4B9A4203D1022901D913238E
:100990008370FFF7EDFC0028EED0FFF7A7FC52E7CD
:1009A000FF2828D1FB38FFF76FFC00289ED00023DA
:1009B0002B80E378A2781B0213435BBA9BB218002A
:1009C0004A4A2038136003280DD8FFF779FB020547
:1009D000070A4A4B1360E0E7494BFBE7494B1B68AA
:1009E000F8E7494BF6E78021C9008B42C4D3802148
:1009F00009055B18EEE7FE2813D1FA38FFF744FC2F
:100A0000002800D172E7A378012B07D0E378394A98
:100A1000138001233370FFF759FC14E780235B0038
:100A2000F5E7FD2809D1FB38FFF72EFC002800D19F
:100A30005CE7C120FFF74FFC05E702280AD1FFF76A
:100A400023FC002800D151E7284B294A1B68934218
:100A500092D9A2E7032800D07BE76B460138FB6000
:100A6000FFF712FC002804D1FFF756FCFB689D46F7
:100A7000E9E61E4E3568002D02D1FFF741FCF5E78F
:100A80006478002C01D10134FF3423006A460A3314
:100A9000DB08DB00D31A9D460021E21C6846BB60E0
:100AA00000F058F822002900684600F05BF82100A9
:100AB0006846FFF793FBBB68302218552300000AF5
:100AC0006B4458709A706846E11CFFF731FC0D4B7F
:100AD0002D191D6000233360C8E7034A13880133D2
:100AE0001380B0E6300200202E02002020000020FB
:100AF000FF0F00082601002024000020007C0008D1
:100B0000E07B00081C000020E00F000870B5002604
:100B10000C4C0D4D641BA410A64209D1002600F018
:100B200039F80A4C0A4D641BA410A64205D170BDC9
:100B3000B300EB5898470136EEE7B300EB589847FF
:100B40000136F2E7AC0B0008AC0B0008B00B000854
:100B5000AC0B000803008218934200D17047197053
:100B60000133F9E7002310B59A4200D110BDCC5CE7
:100B7000C4540133F8E730B500240139A24201D151
:100B8000002005E0035D01340D5DAB42F6D0581B3B
:100B900030BD0000F8B5C046F8BC08BC9E467047A2
:0C0BA000F8B5C046F8BC08BC9E46704783
:040BAC0049010008F3
:040BB0001D0100081B
:100FE000DAE32559D963B84E343731021F060603B8
:0C0FF000301B000010E07B007C307C0017
:040000050800016D81
:00000001FF
