:020000040800F2
:100000000010002069010008B9010008B9010008CA
:1000100000000000000000000000000000000000E0
:10002000000000000000000000000000B90100080E
:100030000000000000000000B9010008B90100083C
:10004000B9010008B9010008B9010008B9010008A8
:10005000B9010008B9010008B9010008B901000898
:10006000B9010008B9010008B9010008B901000888
:10007000B9010008B9010008B9010008B901000878
:10008000B9010008B9010008B9010008B901000868
:10009000B9010008B9010008B9010008B901000858
:1000A000B9010008B9010008B9010008B901000848
:0C00B000B9010008B9010008B9010008FE
:1000BC0002B4714649084900095C49008E4402BCEF
:1000CC007047C0460448054B10B5834203D0044B1F
:1000DC00002B00D0984710BD00000020000000202D
:1000EC000000000006480749091A8B10C90FC918EF
:1000FC0010B5491003D0044B002B00D0984710BD0D
:10010C0000000020000000200000000010B5074C8B
:10011C002378002B09D1FFF7D5FF054B002B02D01C
:10012C00044800E000BF0123237010BD0000002034
:10013C0000000000880B0008054B10B5002B03D005
:10014C000449054800E000BFFFF7CCFF10BDC046D6
:10015C000000000004000020880B00080D488546B4
:10016C00002103E00C4B5B58435004310B480C4B03
:10017C0042189A42F6D30B4A02E000231360043271
:10018C00094B9A42F9D300F0DFF900F0B3FC00F010
:10019C00DDF9FEE700100020A80B0008000000208D
:1001AC00000000200000002034020020FEE70000C8
:1001BC00054B82B05A6B02435A635B6B184001903B
:1001CC00019B02B07047C046001002408021C90557
:1001DC004A6A044B92B21A804B6A9B1A9BB29842A1
:1001EC00FAD8704730020020F7B500220D4B0400FE
:1001FC00012710009C460191019B934200DCFEBD3F
:10020C000821A55C2B00664643403B405B423340D3
:10021C00400801395840C9B280B26D080029F1D1AB
:10022C000132E9E701A0FFFF10200A4B10B59861DD
:10023C001968094A1140802252000A431A605A6810
:10024C0082435A60054B1B78002B02D02430FFF7F9
:10025C00BDFF10BD00040050FFFCFFFF2C0200206E
:10026C00F8B510270B4E0500B7623420FFF7AEFF30
:10027C00082401231D420BD0B761013C3420E4B2A9
:10028C00FFF7A4FF6D08002CF3D11023B361F8BD68
:10029C00B762F2E70004005070B50400074D01008E
:1002AC002800FFF7A1FF064B1A5D2B5D12021343CA
:1002BC00181A42425041C0B270BDC04629010020FC
:1002CC002A010020024B1869C006C00F7047C046B7
:1002DC0000040050054A0649136800020B401360E5
:1002EC00D3680B400343D3607047C04600040050F2
:1002FC00FFFCFFFF10B50120FFF7ECFF10BD10B5A0
:10030C000400FFF791FF2000FFF7AAFFFFF7F2FFB1
:10031C0010BD000010B53020FFF7F1FF0022014B9B
:10032C001A8010BD2E02002010B5C120FFF7E7FF88
:10033C00024A13880133138010BDC0462E020020E0
:10034C0010B5C220FFF7DBFF024A1388013313807C
:10035C0010BDC0462E02002070B504000D00FFF742
:10036C0063FF65192078FFF77BFF01343420FFF71A
:10037C002DFFAC42F6D1FFF7BDFF70BD10B50921C2
:10038C000348FFF7E9FF0122024B1A7010BDC0466B
:10039C00E80F00082C0200201300F0B50B4385B0C9
:1003AC0000900F00150000205B0738D12B4C2C4A15
:1003BC008B0821690A432261802252022169114271
:1003CC00FCD16269002A03DA264AA260264AA2609E
:1003DC006A050ED1023262616169EA0AD2000A43EF
:1003EC0080216261626949020A43626122690A42A0
:1003FC00FCD12E0001335B08DB005B190193019BE0
:10040C009E420ED1802362691B06134363613A003E
:10041C002900009800F0A3FB43425841C0B205B03C
:10042C00F0BD009B0822591B891902A800F08EFB15
:10043C0001236361029B3360039B736080228021E4
:10044C002369520249021A400B42F7D10121236958
:10045C0008360B4323616261D1E7C046002002409D
:10046C00FAC3000023016745AB89EFCD70B5154B7E
:10047C00154C1B6EA544DB0020D5144B1B78132B9D
:10048C001CD0013BDBB2FD2B18D880226846D20071
:10049C000F4900F05BFB802613236A46802500245D
:1004AC0093707600ED002000094B3100E218013406
:1004BC006844FF34FFF770FFAC42F4D18023DB00BB
:1004CC009D4470BD0010024000FCFFFF02F80008C4
:1004DC0000F8000810B5154B1878012803D000223D
:1004EC00134B1A8010BDE021124A090613685B18E1
:1004FC00802149028B42F2D80F4C104923685B18BB
:10050C008021C9028B42EAD872B60D4BD96A0143DD
:10051C00D962D96A81430B48D96213682168826019
:10052C009D4683F308880847DCE7C04600F80008BE
:10053C002E020020001000080410000800F0FFF745
:10054C000010024000ED00E0704700000723D54981
:10055C00F0B50A6889B09A43053B13430B608023BE
:10056C00D14C5B00226800AF134323608023DB0077
:10057C0022681A42FCD0E268CC4B1A40CC4B134395
:10058C00E360802322685B04134323608023E268CA
:10059C005B051343E36080239B0422681A42FCD062
:1005AC00A368C44A1340A3600723A2689A43053B7F
:1005BC0013433822A360A3681340102BFBD1A3680C
:1005CC00BD4A00251340A360BC4ABD4B01205A60B4
:1005DC0005229D601A60E36BBA490343E363E36B46
:1005EC0080260340FB61FB698023DB051A680A4007
:1005FC001A6001225242DA6240329A625A69B24956
:10060C0002435A611A68B2431A609A680A40702110
:10061C009A605A688A435A609A68B2439A601A6818
:10062C008A431A601A6802431A60FFF7C1FD022060
:10063C00FFF7BEFD0420FFF7BBFDA44AA44901351A
:10064C00052D07D0042DFAD113680B401360D36825
:10065C000B40D3600220FFF73DFEFA20FA26400043
:10066C00FFF7B4FD00253601FFF72CFE002801D161
:10067C000135ADB20A20FFF7A9FDC423FF339D421B
:10068C0000D19DE0013E002EEED10120FFF722FEAD
:10069C00FA20FA244000FFF799FD6400FFF712FEE0
:1006AC00002801D10135ADB20A20013CFFF78EFDC7
:1006BC00002CF3D1002D18D02000FFF70BFEFA20F0
:1006CC00FA254000FFF782FD6D00FFF7FBFD0028C7
:1006DC0001D10134A4B20A20013DFFF777FD002DB2
:1006EC00F3D1002C01D0FFF7F5FE0120FFF7F2FD4E
:1006FC00FFF7BCFE0022774B774E1A7003320021B5
:10070C00FF323000FB6000F019FAFFF7F3FD002315
:10071C007B61BB60714B3E617B6000227B68704DDE
:10072C001A708023DB055C6AA4B22C80FFF7CAFD2B
:10073C008023DB0500284AD05C6AA4B22C80822579
:10074C006D00FFF7BFFD002871D11A30FFF73EFD99
:10075C00FFF7B8FD041E43D13420FFF737FDFFF738
:10076C00B1FDA0405D4B01341D780543EDB21D7009
:10077C00082CF1D13420FFF729FDFFF7A3FD594BCD
:10078C001B7800282CD00122F9680A70002B5CD051
:10079C00554BBA681B8802339A4221D03B691D70B5
:1007AC00130001339BB2BB6081227B695200013381
:1007BC007B613B6901333B617B699342ADD10FE0B7
:1007CC00236EDB0000D560E7FFF784FE5DE75B6A14
:1007DC00464A1B1B9BB29342A8D96522444B1A80F4
:1007EC00FA68404C12782378002A00D16AE1002B79
:1007FC0048D03D4B1D882800FFF74EFD00283ED009
:10080C0080223C4B0021180052007B6100F096F9CD
:10081C000023AB422EDBFFF77DFD00232370344B0E
:10082C001B88642B00D865E7FFF754FE62E7802332
:10083C00FA68DB0512785B6A002A00D181E71B1B82
:10084C009BB2AB4200D87CE7CAE78023244ADB0585
:10085C005B6A12889B1A9BB2FA2BC1D83B697A69E6
:10086C001D700223FF339A429ED1214A1388143300
:10087C00138099E7F25C7969CA540133C9E7FFF731
:10088C005FFDCCE7337C30787D2B35D1337A0D2B63
:10089C00C5D1737A422BC2D1FFF770FD002333759B
:1008AC00BDE7C04600200240001002408C80FF1FB4
:1008BC0002080020FFF0FFFFFF8FFFFFFFF9000091
:1008CC0010E000E08FFCFFFFF8BFFEFF00040050BB
:1008DC00FFFCFFFF2B020020290100202401002037
:1008EC00300200202801002026010020204E0000AC
:1008FC002E02002024000020337D7D2B05D1337B7C
:10090C000D2B02D1737B422BC6D0330028331B78BE
:10091C007D2B07D1731CDB7F0D2B03D1B31CDB7F2D
:10092C00422BB9D06A4D00280ED1B278737813439C
:10093C00F278134301D165332B80C120FFF7DFFC24
:10094C002B8801332B806AE701281DD10130FFF77A
:10095C00A3FC002893D05F4B1A685F4B9A4202D8D5
:10096C00FFF7E2FC5BE75D4B5D4819885D4B9A42F3
:10097C0003D1022901D913238370FFF70DFD002841
:10098C00EED0FFF7C7FC4AE7FF2829D1FB38FFF769
:10099C0083FC002800D172E700232B80F378B27817
:1009AC001B0213435BBA9BB218004A4A20381360EF
:1009BC0003280DD8FFF77CFB0205070A494B13608F
:1009CC00DFE7494BFBE7494B1B68F8E7484BF6E779
:1009DC008021C9008B42C3D3802109055B18EEE747
:1009EC00FE2813D1FA38FFF757FC002800D146E750
:1009FC00B378012B07D0F378384A13800123237086
:100A0C00FFF778FC0BE780235B00F5E7FD2809D1A5
:100A1C00FB38FFF741FC002800D130E7C120FFF77D
:100A2C006EFCFCE602280AD1FFF736FC002800D148
:100A3C0025E7284B284A1B68934291D9A1E7032844
:100A4C0000D07AE76B4601387B61FFF725FC002864
:100A5C0004D1FFF775FC7B699D46E0E61D4D2C68C3
:100A6C00002C02D1FFF760FCF5E77678002E01D15F
:100A7C000136FF3633006A460A33DB08DB00D31A33
:100A8C009D460021F21C68463B6100F057F832008D
:100A9C002100684600F05AF831006846FFF7A4FBC5
:100AAC003B69302298553300000A6B4458709A7099
:100ABC006846F11CFFF750FC0C4BA4191C6000237A
:100ACC002B60C8E7024A138801331380A7E6C0469F
:100ADC002E02002020000020FF0F0008260100201D
:100AEC002400002000F80008E0F700081C0000209B
:100AFC00E00F000870B500260C4C0D4D641BA410C3
:100B0C00A64209D1002600F039F80A4C0A4D641BA4
:100B1C00A410A64205D170BDB300EB58984701361E
:100B2C00EEE7B300EB5898470136F2E7A00B00084C
:100B3C00A00B0008A40B0008A00B000803008218EF
:100B4C00934200D1704719700133F9E7002310B5B7
:100B5C009A4200D110BDCC5CC4540133F8E730B5D7
:100B6C0000240139A24201D1002005E0035D0134CB
:100B7C000D5DAB42F6D0581B30BD0000F8B5C04639
:100B8C00F8BC08BC9E467047F8B5C046F8BC08BC1B
:040B9C009E467047BA
:040BA0004501000803
:040BA400190100082B
:100FE000DAE32559D963B84E343731143506060390
:0C0FF000301B000010E0F700F830F800A3
:040000050800016985
:00000001FF
