:020000040800F2
:10000000F0FF012045AE0408ADAE0408B59001082C
:10001000ADAE0408ADAE0408ADAE040800000000AB
:10002000000000000000000000000000ADAE040869
:10003000ADAE040800000000ADAE040829AC000815
:10004000ADAE0408ADAE0408ADAE0408ADAE040814
:10005000ADAE0408ADAE04083D7D0008457D000846
:100060004D7D0008557D00085D7D0008097B000876
:100070001D7B0008317B0008457B0008597B000888
:100080006D7B0008817B0008ADAE0408ADAE0408AE
:10009000F1360408ADAE0408ADAE0408657D000875
:1000A000219600083595000831960008259500082E
:1000B0005D9500086D9500087D9500084979000858
:1000C0003D7900087D79000871790008ADAE04081B
:1000D000ADAE0408B5290408C1290408CD290408D7
:1000E0006D7D0008ADAE0408ADAE0408ADAE0408E9
:1000F00011960008ADAE040801960008ADAE0408E4
:10010000ADAE0408ADAE04088D950008ADAE040890
:10011000D9290408E52904089D950008C16D040843
:10012000A97B0008BD7B0008D17B0008E57B0008A7
:10013000F97B0008ADAE0408ADAE0408ADAE04080E
:10014000ADAE0408ADAE0408ADAE0408ADAE040813
:10015000ADAE0408ADAE0408ADAE0408ADAE040803
:10016000ADAE0408ADAE0408ADAE0408ADAE0408F3
:10017000ADAE0408ADAE0408ADAE0408ADAE0408E3
:1001800041960008ADAE0408E5790008D979000869
:10019000ADAE040800000000ADAE0408ADAE04082A
:1001A000ADAE0408ADAE0408ADAE0408F1290408F4
:1001B000B1790008A5790008ADAE0408ADAE040819
:1001C000957B00080D7C0008217C0008357C000828
:0801D000ADAE0408ADAE040859
:0801D80088AB040001000000E7
:10600000074BD0F8C4105B68D0F8D0205B1A9A42D6
:10601000B8BFC0F8D030012380F8FC3000207047B2
:10602000001000E0027A0B4B0168134410B413F81F
:10603000013CCC5824F00104CC50CA181368DB078B
:10604000FCD4027D5DF8044B0223934043F00C0323
:106050004B607047BC4505084368C26C10B49A6138
:10606000EFF31182502383F312884168046C0B68AC
:1060700023EA0403846C2343D2B20B6082F31188B9
:10608000436981681A68096822F001021A60D0E940
:1060900008421C605A60D0E90A429C60DA60B0F89D
:1060A0006420CA6200235DF8044B0377704700BF89
:1060B000002A4FEA014C30B503460ABFE6468E4639
:1060C0008C4600F1C005002419689A6841EA0C0169
:1060D00042EA0E029A60C3E900140C33AB42F3D1DA
:1060E000D0F8C030C0F8C44043EA0E03C0F8C03056
:1060F000C0F8C84030BD00BF83695969B3F810C00B
:106100000A6830B49C6822F0010224680A60E268E0
:1061100022EA0C02E260046890F814C020680822A9
:1061200002FA0CF202403AD123480578022000FA24
:106130000CF06060002D30D0187F012830D0D3F8EB
:10614000D8200132C3F8D820EFF31181502282F316
:10615000128858681C6C026822EA04025C6C2243B4
:10616000C9B2026081F31188D3E90C405A69996879
:10617000096814605060D3E90E409460D060B3F8B1
:106180009C00C86210680124204310601C7783F8CB
:10619000D540CA681B8A1343CB6030BC7047FEE70A
:1061A00083F8D520D3F8DC000A68013022F0010220
:1061B000C3F8DC000A60F0E75018002010B40C4C63
:1061C0006368002B11DD002004F1080C0146DCF8A7
:1061D000943003F1C00259600C339342FBD16368E1
:1061E000013083420CF1E40CF1DC5DF8044B7047A4
:1061F00050180020704700BF024B03EB401393F888
:10620000B503704750180020F8B58469D4F8DC70E5
:10621000D4F8E0303D68D4F89C1003F01F0304224A
:106220009A4015420E6804F19C0017D016F0040F36
:1062300014D00B689B0603D40B6823F004030B6097
:10624000D4F8CC307A6013B19847D4F89C104B68DE
:106250001BB90B6823F001030B60F8BD02229A40C2
:10626000154218D016F0020F15D00B689D0606D403
:106270000B6823F00A030B60012384F8C130D4F8C3
:10628000C8307A60002284F8C020002BDFD0984705
:10629000D4F89C10DBE708229A402A42D7D0320774
:1062A000D5D50A6822F00E020A60012202FA03F331
:1062B0007B60002384F8C030D4F8D030C4F8D820F4
:1062C00084F8C120002BBFD1C1E7D0E90920131AFF
:1062D00058425841704790F8573830B53BB990F85C
:1062E000551890F856380124DAB2914200D830BDE2
:1062F000B0F85E5804FA03F22A43A0F85E2801338E
:10630000F2E70379024613F0010006D0D2E9073123
:10631000D2685B1A013A03EA0200704710B50379AC
:1063200013F0010304460ED0FFF7EBFF034650B114
:10633000226A6369E1689B5C0132B2FBF1F001FB08
:106340001022DBB22262184610BD03799B070AD5E2
:10635000436A8269D154436A02690133B3FBF2F1A3
:1063600002FB113343627047704701717047037934
:10637000014613F0020007D00B69D1E90921013B66
:10638000521A1A40D2B2981A704700BF3D4BD3F848
:1063900004358BB93C4A4FF4A87002232A214010DF
:1063A000C2F8A804C2F89834C2F89C34C2F8A034E9
:1063B000C2F8A414012070473449334AA1FB0313E7
:1063C0009B0C10B4A3F108010324C2F898441329CC
:1063D00027D8DFE801F0462626262626262646264A
:1063E0002626262626264626310A294B294903EB4E
:1063F00040031B8A5B00A3F5AB7381FB0301DB1732
:10640000C3EBA1035B00263303EBC300032102248B
:10641000B0F50C7FC2F89C44C2F8A014C2F8A434B2
:1064200003DB00205DF8044B70474010C2F8A8045D
:106430005DF8044B01207047154B174903EB4003EF
:106440001B895B00A3F5A97381FB0301DB17C3EB79
:10645000E1035B001A3303EB430003EB80000221EE
:10646000D5E70B4C34F810004000C3F3C401B0F57D
:10647000A87344BF6FF4A073C3181B115B002A33C9
:10648000D800C4E7002000405018002083DE1B43E2
:1064900064CC0408398EE3384FECC44E10B5844602
:1064A0004FEA810E102312F4004F14BF0E2407246C
:1064B0005200013BCCF8004092B2F444F3D100EB1F
:1064C00081128C01035142F82130122010BD00BF0F
:1064D00010B584464FEA810E0424130B03EB4303EB
:1064E00018331201013CCCF8003092B2F444F4D1DC
:1064F00000EB01130A01845043F82140062010BD2F
:10650000704700BF704700BF034B00EB400003EB38
:10651000C00393F8BD04704750180020064B93F851
:106520006C25824283BF00EB400003EBC003D3F82D
:10653000C0040020704700BF501800200B4890F89E
:106540006D1589B101EB4101002310B4490000F23F
:10655000AC401C4650F82320063302B114608B4235
:10656000F8D15DF8044B7047704700BF5018002009
:106570000B4890F86D1589B101EB4101002310B46F
:10658000490000F2AC401C4650F82320063302B10B
:1065900014608B42F8D15DF8044B7047704700BF20
:1065A00050180020204B1B78002B3CD12DE9F041E6
:1065B0001E4C94F86D25A2B31D4E04F2AC42502738
:1065C0004FF02C0E1D4607E094F86D1552F8180B8D
:1065D00001338B42056024DA117C0029F4D0516824
:1065E000880AA0F5801006EB000854284FF0FE0C36
:1065F00098BF98F818C0EFF3118087F31288D1F88C
:1066000024800EFB0C4C08F10108CCF89885D1F8D9
:1066100014C04CF0010CC0B2C1F814C080F3118852
:10662000D2E7BDE8F081704700000020501800203C
:1066300064CC040800EE100AB8EE400A704700BFB0
:10664000BCEEC00A10EE103A98B2704707280AD87C
:10665000064B4FF49A7202FB0033B3F8AC07B0FA62
:1066600080F0400970470020704700BF501800209C
:10667000072807D8044B4FF49A7202FB003301221B
:1066800083F8AE27704700BF50180020072808D8AD
:10669000044B03EB401393F8B42312B1012283F8A7
:1066A0009A23704750180020072808D8054B03EBA1
:1066B0004013B3F89803B0FA80F040097047002007
:1066C000704700BF50180020054B93F86C2582429C
:1066D00086BF03EB4013D3F8A4030020704700BF2C
:1066E00050180020012343770020704708B5034667
:1066F0008269006BD96A02449A6101B1884700201F
:1067000008BD00BF436A1B681B6A5B685B78024672
:1067100013F0010008BF5077704700BFC26281616B
:10672000704700BF704700BF043070470B4B93F8B1
:106730005820596D0244D2B283F8582093F858205B
:1067400001441206596505D593F8582082F080025D
:1067500083F85820024B01225A70704748290020C4
:10676000000000202DE9F047144FFD6DED0A1FD009
:106770000026B14607F1940874193B6E1048D3F80F
:1067800028A0C7F88C9004EBD47464101023424600
:10679000E102D0470F280BDD0A4B03F1100153F83B
:1067A000042B013207D18B42F9D12546B542E3DCF7
:1067B000E802BDE8F087661CF8E700BF4829002022
:1067C000A8290020DC290020194BD3F8A410D3F805
:1067D000A8208A1A322A05DCD3F8BC208A1A002A9B
:1067E00011DC7047D3F8AC1049B193F8B820888811
:1067F000096802F00102120100FA02F28A61002225
:10680000C3F8BC207047D3F8AC206AB110689288F6
:1068100010B44469224218BF120432315DF8044BAF
:106820008261C3F8BC1070473231C3F8BC107047A6
:1068300048290020074AD2F8AC304BB192F8B82072
:106840009988186802F00102130101FA03F38361C9
:106850000020704748290020044B4FF40070D3F803
:10686000C830108000200B60704700BF482900200E
:1068700000207047012070470120704700207047BA
:10688000164AD0F8C0305268D0F8B81010B5044697
:1068900073B1501A83420BDC94F8B030C4F8B820BE
:1068A000012B10D0D4F8B4300133C4F8B43010BD8B
:1068B000D4F8C430C4F8B8200B44C4F8BC3094F801
:1068C000B030012BEED104F1C801201D3BF078FC63
:1068D000D4F8B4300133C4F8B43010BD001000E077
:1068E000CB070DD470B590F82830C468012B8CB05C
:1068F00007D0B4F1807F01D9012303770CB070BDBC
:1069000070471B4A1B4BD2F8F8505B68466AB5EBE0
:10691000530F4FEA530228D20721022352085B008B
:1069200095429BB201D20139F8D1B4F1807FB38096
:10693000E4D9012201A9002302770291B72402A918
:106940003046CDE903328DF814208DF82820CDE9AA
:106950000633CDE908338DF804400B933BF030FC4F
:106960003268136A002BFCD1C8E70223DDE700BFC1
:10697000482900200000002030B590F82830012B75
:106980008BB0044608D0407F10B901200BB030BD59
:10699000002363770BB030BD456A2B681A7B2ABB96
:1069A000637F002BF1D01449009114490191022119
:1069B000002301220291284669468DF80C208DF8AB
:1069C0002020CDE90433CDE9063309933BF0F8FBF1
:1069D0002A68136A002BFCD1094B93F8FD30D84389
:1069E00003F0010300F001006377D3E71B6A002B7B
:1069F000D6D00020CAE700BF08000020442A0020AB
:106A00004829002030B504468BB094F82830012B7B
:106A100008D0637F0BB10023637701200BB030BD3A
:106A20001B6A23B1656A2B681A7B002AF8D1637F41
:106A3000002BF2D01049009110490191022100234E
:106A400001220291284669468DF80C208DF82020FD
:106A5000CDE90433CDE9063309933BF0B1FB2A6855
:106A6000136A002BFCD1064B93F8FD3003F00102B2
:106A7000DB076277D1D5C8E708000020442A002050
:106A80004829002030B5204A204B95B004462048C4
:106A90000493CDE900200023151D083ACDE90A230F
:106AA000CDE90E331B480990626A207F0595069355
:106AB000109313931193012312688DF80C30022563
:106AC00007938DF820308DF834308DF84830031D51
:106AD00002950C93136A002BFCD198B10E4B0A0E51
:106AE0005A730E330A0A080C5A7099701870606A4B
:106AF00069463BF065FB636A1A68136A002BFCD198
:106B000015B030BD054BEDE7140000200567000807
:106B1000482A0020E5660008000000200D00002043
:106B200010B5044694B050220749684645F04CFE23
:106B3000606A69463BF044FB636A1A68136A002B7B
:106B4000FCD114B010BD00BFD4CC0408F8B5054684
:106B5000406A0068046A002CFCD12C7FA869002CD4
:106B600036D0244C060E6677052704F11E06B07059
:106B70004FEA104C000A86F800C07070086867651C
:106B800016682066012B4FF00000A6662E63A067F2
:106B900023D0022B1BD1536820674A6862671E44CA
:106BA000154A84F86C000121E3672E6384F8801095
:106BB000C4F88420114B6A7F686AA3F11401002A8B
:106BC00008BF19463BF0FCFAEB6A6BB1286BF8BDC5
:106BD0000B4E0427A6F11D04C9E7074A84F86C3060
:106BE000C4E91C20E067E5E76B6A1A68136A002BAA
:106BF000FCD1EBE700000020ED6600083800002023
:106C00001D00002000B583B081610192049A0093B9
:106C1000C26201236A4601A9FFF798FF03B05DF83D
:106C200004FB00BFF0B50746406A066895B01D46F4
:106C3000346A002CFCD1CDE90944CDE90E44CDE9FC
:106C4000104406948DF820401394304C0B9204F1BC
:106C5000A40300932E4B01930223029301232D4A98
:106C60008DF80C308DF834308DF848303B7F04922D
:106C700004F19C0205921A1D0C950792002B3ED040
:106C80000B0E84F89D3004F19E03234E6268D6F803
:106C9000F8C09970080C090A59701870BCEB520FB3
:106CA000786A4FEA52012DD2072302224908520086
:106CB0008C4592B201D2013BF8D17B7F8280E3B157
:106CC00069463BF07DFA786A03681A6A002AFCD1AB
:106CD0006268D6F80831B3EB520F4FEA520113D273
:106CE00007240222490852008B4292B201D2013C91
:106CF000F8D18280284615B0F0BD05A9E1E704F17E
:106D00009D03C2E70222D8E70222F2E7000000203A
:106D10004C2A00200567000848290020F0B5826948
:106D200092F8BC30012B8BB0054625D0023B012BDD
:106D30002DD892F82C31D26F164C63F07F0313706C
:106D40008669D6F880305F1C0FCCEC46ACE80F00AB
:106D5000F36FCDE900370FCCACE80F0094E80300E7
:106D60008CE80300694606F110003BF029FAAA6995
:106D700011690B6A002BFCD1D2F880305A8852BAC4
:106D8000EA819A8852BA2A82DB885BBA6B82012038
:106D90000BB0F0BD24CD0408F0B590F8BC30D0F8AD
:106DA0008060012B8BB0044648D032D9023B012BC6
:106DB0002CD890F82D31C26F434D63F07F031370D0
:106DC000D0F880305F1C0FCDEC46ACE80F00E36FCD
:106DD000CDE900370FCDACE80F0095E803008CE853
:106DE0000300694604F110003BF0EAF92269136AD6
:106DF000002BFCD173885BBAA4F8B030B3885BBABF
:106E0000A4F8B230F3885BBAA4F8B43001200BB018
:106E1000F0BDC36F4FF0FF321A605A609A60DA60BB
:106E2000D0F8C0300522B3F57A7FC0F8D0201FD843
:106E3000032380F8BC3001200BB0F0BD90F82C216A
:106E400090F82D319B1A5B100133DBB206EB430245
:106E500036F813305BBAA0F8B03053885BBAA0F8AC
:106E6000B23093885BBAA0F8B43001200BB0F0BD0B
:106E700003691A7B1AB35B690BB390F87830F3B1EE
:106E800090F82C31C26FC4F8840063F07F03137054
:106E900090F82C1190F82D31D0F880200B48C4F8D0
:106EA000E4005B1A07330121C4F8DC30E36F84F897
:106EB000E0100A44C4E9353284F8BC10A6E7022386
:106EC00084F8BC30A2E700BF24CD040801600008AC
:106ED000F8B50C4B1D685A69154005405D617DB1E0
:106EE000094F0126B5FA85F4C4F11F0407EB8403AA
:106EF00006FA04F4D3F80C0103689847A543F1D1CE
:106F0000F8BD00BF00040140482900202DE9F843E6
:106F10000269C36812EA030828D005460E464FF0FE
:106F20000047B8FA88F327FA03F2D2431B3B2A61E1
:106F300008EA0208042B16D8DFE803F03B30251AD4
:106F40000300B36A002B3FD003F1FF3900231FFA7F
:106F500089F9B362746A34B1236820464946984778
:106F60006468002CF8D1B8F1000FDAD1BDE8F883DD
:106F700070680028F7D0696B036889B29847B8F148
:106F8000000FCED1F2E7B0680028ECD0A96B0368FF
:106F900089B29847B8F1000FC3D1E7E7F06800283D
:106FA000E1D0E96B036889B29847B8F1000FB8D116
:106FB000DCE730690028D6D0296C036889B298478D
:106FC000B8F1000FADD1D1E7EB6A1FFA83F9C1E741
:106FD0002DE9F8430768D7E90415A8610A7D0E6812
:106FE0002C68022303FA02F242F00C0272602A7D3E
:106FF000934043F00C036360097A184BBA69581840
:1070000010F8018C56F808C02CF0010C46F808C0A6
:1070100095F808904B44304613F8015C635923F00F
:1070200001036351635943F00203635140F0B0FD23
:10703000FA694946204640F0ABFD56F808307A68B8
:1070400043F0010346F80830635943F001036351EC
:10705000536843F003035360BDE8F883BC4505085B
:10706000F8B5314D05EB401393F8B43303B9F8BDCF
:107070002E4B93F84CE193F84D2196454FEA40147E
:107080000CD002EB420C03EBCC0C9CF85061771E49
:10709000012F4FEA420C3AD9032E33D0244B2C4413
:1070A00003EB4010A4F898130FF0C2FD2B78D4F82E
:1070B000B023D4F89C138BB1D2F8943001248C40C7
:1070C00003F1C001420010F4004F90B202D15A689F
:1070D00022435A600C338B42F4D1F8BDD2F894307D
:1070E000012401F11002944003F1C001420010F4A8
:1070F000004F90B202D15A6822435A600C338B423F
:10710000F4D1F8BD561C06F003067645C6D094446B
:1071100003EBCC03034493F85D110029BED02B1977
:10712000012283F89A23B9E750180020482900204B
:10713000E81B002070B5384C4FF49A7303FB0043F2
:1071400093F8BB3703B970BD344D95F84CC195F831
:107150004D319C450ED003EB430205EBC20292F881
:1071600050E10EF1FF36012E4FEA430231D9BEF154
:10717000030F29D04FF49A7303FB00F0284B04440B
:107180001844A4F8AC170FF053FD95F8B411D5F8D6
:10719000B031024669BB0121D4F8DC089847D4F825
:1071A000D858B4F8B837D4F8D428B5F8B41019437F
:1071B0005368A5F8B4106FF30F03034353601368CB
:1071C00043F00103136070BD5E1C06F003066645C4
:1071D000D0D01A4405EBC202024492F85D11002996
:1071E000C8D04FF49A7303FB0043012283F8AE2703
:1071F000C0E7D4F8B417D4F8D8084979D0F8B0006B
:1072000001F0FC01084404219847D4F8D8388000E4
:10721000A3F8AC0070BD00BF501800204829002022
:10722000FC1F002086E700BF10B5044644F0C6FCF2
:1072300081B22046BDE8104012E700BF10B50446F9
:1072400044F0BCFC81B22046BDE8104072E700BFAC
:1072500038B50B4D00EB400005F2AC4303EBC00327
:1072600093ED027AD3ED037AE7EE007AC400254469
:10727000B0EE670A44F0A2FCD5F8AC34186038BD13
:107280005018002070B5274C94F84C2194F84D31DB
:107290009A4242D194F878275AB302EB4201224B2A
:1072A00094F8B401C2EBC10C03EBCC0CD4F8B821B8
:1072B00008B31E4D1E4C40F20D3E00E01A68D3F894
:1072C000A810B3F8AC004E682E4030434860086800
:1072D00040F001000860D2F8DC13214041EA0E01C1
:1072E000C2F8DC13D168B83341F480716345D160D2
:1072F000E4D170BD1A6811689C8821F0800111608A
:10730000D4625062B3F8B410D468B83321436345F3
:10731000D16023F8040CEDD170BD42F099FF002834
:10732000B8D170BD48290020002B00200000FFFFCD
:10733000E0E0FFFFF8B5A0F507642379DB0725D56A
:10734000657994F8543805F001073D46FBB1D4F84F
:1073500048341A68D36A5B08536294F8583823B1EA
:10736000B4F862380133A4F86238606C85F001012A
:1073700040F0FEFD012384F85738002384F8553887
:1073800084F85638A4F85E3884F85438F8BD94F878
:107390005768012E04BF94F8553884F856382046B3
:1073A000FEF799FF4EB9012384F8573887EA0301A5
:1073B000606CBDE8F84040F0DBBD002384F857382E
:1073C0003946F5E770B5094C05460726013E00D160
:1073D00070BD94F9000012F0F1F9031E04DBEA1805
:1073E00061789171A278EA540434EFE74CCD040837
:1073F0002DE9F843DDF820800F46154600212022B4
:1074000004461E4645F002F9B8F1000F0CD0D8F83A
:107410000030E3811B0C2382D8F80430B8F80A202E
:10742000E3821B0C62822383384643F099FCEB060F
:1074300019D4431EB8B107EB000C01E0013B12D395
:107440001CF801EDBEF12E0FF8D1C01A421E032A1E
:10745000A8BF0322082B03F10109A8BF0823904607
:10746000B9441A4606E008280246B946A8BF0822D1
:107470004FF000084FF02033394623606360204608
:1074800045F0A2F904F10800154B23814246494614
:10749000837045F099F9611EE21D11F801CFACF13E
:1074A0006103192B9CBFACF1200C81F800C0914204
:1074B000F3D104F10A0011F8013FA3F16102192A86
:1074C0009CBF203B0B708142F5D118232373330CF2
:1074D000A382E572099B6683E361BDE8F88300BF80
:1074E000202020002DE9F04FDFF844B4DBF8A400A1
:1074F00085B0CBF8A800002B5ED013440C4617468D
:1075000001F5FE7A99461DE0002F62D0DBF8D430F9
:10751000BB4200F0C480DBF8D030BB4200F0F68004
:10752000DBE93631BB424BD8B94200F26E81791AA1
:1075300020463EF055FD01374F4504F500740AF52D
:10754000007A39D0DBF8E030BB42DDD8DBF8F05010
:10755000FB1A296BDA0802328A4203F0070602D3CB
:10756000AB6B9A420BD92946104602923EF008FDB9
:10757000029A0546002800F06881CBF8F0002B79CC
:10758000002B40F01C81D5F82880B8F1000F00F0E6
:1075900055812B6BD21AEB6806EBC20203EB422239
:1075A00020462B464FF400710137C0474F4504F584
:1075B00000740AF5007AC5D1002005B0BDE8F08F4F
:1075C000B942B4D94FF400720021204645F01EF8AC
:1075D000B1E74FF400723946204645F017F8802392
:1075E00084F8BE310C2384F8C231DBF8D010C44AD1
:1075F000DBF8C830C4F8C6119142C4F8CA3100F3B0
:107600000981C04AC04D82FB010285FB01050A4485
:10761000C817C0EB6212C0EB2530BC4D84F8C10125
:1076200085FB0265C2EB82168010891B013120F0B8
:107630003F0015440843D117C1EBE5110A4484F813
:10764000BF21AF4A84F8C001013B934200F3EE80B2
:10765000AC4AAD4882FB031280FB03101A44D917D1
:10766000C1EB6212C1EB2031A84884F8C51180FB40
:107670000250C2EB821589105B1B013321F03F01E0
:1076800010441943D317C3EBE0131A4484F8C41110
:1076900084F8C3214AF65523A4F8FE314BE74FF096
:1076A000FF3384F8EC3184F8ED3184F8EE3184F85E
:1076B000EF315223237063706123A37084F8E731A4
:1076C0004123E37084F8E6317223002584F8E43125
:1076D00084F8E531DBF8E830C4F8E8314FF4F072B3
:1076E0002946201D44F092FF552384F8FE316FF0A7
:1076F0005503C4F8F051C4F8F451C4F8F85184F8B3
:10770000FC5184F8FD5184F8FF3114E74FF4007206
:107710000021204644F07AFF7D4B03CB45F6EB0376
:10772000238090230222C4F80710A3700821F823B5
:10773000C4F80300617322746375DBF8C8302273E8
:10774000A27384F82C20DBF8D0209B1A2362DBE99B
:1077500036239B1A63620023E372E3736377A37794
:10776000E37784F82D3084F82E3084F82F3084F8B5
:107770003130684BA361684BC4F842303E23237715
:10778000012384F83030654A802384F8403084F83F
:1077900046104AF65521A4F8FE1103CA604BC4F8FE
:1077A0004700C4F84B1003CB1388A4F84F309378EC
:1077B000C4F85200C4F8561084F85130BBE64FF4B8
:1077C00000720021204644F021FF002E44D12B6C92
:1077D00004F12008002B7BD02B6B52491122CDE9FC
:1077E00000662046FFF704FE2B6C1A6C002A7ED040
:1077F0001B6B4D49CDE9006640461122FFF7F8FDAD
:1078000004F140084FF4E0736DE0F91A20463EF0B1
:10781000E7FB90E6FF2284F8C1214FF6FF72A4F83F
:10782000BF21374A013B93427FF712AFFF2384F811
:10783000C5314FF6FF73A4F8C3312BE741464FF42F
:107840000072204644F0E2FE75E6384A231F43F8F2
:10785000042F9A45FBD16EE6D5E910253301002AA5
:1078600043D0023B002D3FF466AE013BAD6CF9D135
:10787000A0464FF40073002D3FF45DAECDE9027ACF
:1078800008EB0306A24608E00024CDE900C4FFF798
:10789000AFFDAD6CBDB1B04515D02C7929682B6B0F
:1078A000404605F11C0C112208F12008002CEBD1F8
:1078B0006A792C6942F02102CDE900C4FFF798FDF6
:1078C000AD6C002DE7D15446029FDDF80CA032E6E6
:1078D000CDE900663346DBF8CC1008222046FFF7DE
:1078E00087FD4FF4F0736D6CC5E7013BBAE7CDE956
:1078F00000660D49334640461122FFF779FD7FE7C8
:10790000FF03FB00832008829755454181808080DA
:10791000084505083F00FF0029940E0D1445050891
:10792000204505080045050804450508DEADBEEF05
:107930004829002000207047704700BF01483BF0F5
:10794000BBBA00BFDC300020084810B4D0F8943730
:10795000D0F8C84799691A682CB1234600F2947090
:107960005DF8044B18475DF8044B70474829002028
:1079700001483BF0A1BA00BF40310020084810B4D4
:10798000D0F8F837D0F82C4899691A682CB12346FA
:1079900000F5FF605DF8044B18475DF8044B704735
:1079A0004829002001483BF087BA00BFA4310020DD
:1079B000084810B4D0F85C38D0F8904899691A6833
:1079C0002CB1234600F65C005DF8044B18475DF8C7
:1079D000044B70474829002001483BF06DBA00BFB6
:1079E00008320020084810B4D0F8C038D0F8F44865
:1079F00099691A682CB1234600F50C605DF8044BB8
:107A000018475DF8044B70474829002010B10368FF
:107A100082889A61704700BF10B1036882889A62B9
:107A2000704700BFD3B20F2B21D8124B00B503F122
:107A30006F0E02E00333734516D093F800C08445FF
:107A4000F8D193F801C08C45F4D10B489B7802EB38
:107A5000420200EB8201A83000EB8200C1F8B03096
:107A600081F8A8305DF804FB00205DF804FB0020DD
:107A7000704700BF64CD04080000002010B40C4C17
:107A8000002304F60C1C01E0152B0CD003EB430281
:107A900001331CF802108142F6D1144494F90E0906
:107AA0005DF8044B70474FF0FF305DF8044B7047B2
:107AB0004829002030B5124C002304F5B87C02E0C0
:107AC00001331F2B1AD05CF833508542F8D10CEBF0
:107AD000C30EDD009EF804E08E45F1D1094802EBAB
:107AE00042022C4400EB820394F87511C3F8B010E5
:107AF000A83000EB820083F8A81030BD002030BD14
:107B000064CC0408000000200348D0F8783113B199
:107B100000F5B47018477047000000200348D0F803
:107B20009C3113B100F5C670184770470000002063
:107B30000348D0F8C03113B100F5D870184770472A
:107B4000000000200348D0F8E43113B100F5EA70DA
:107B500018477047000000200348D0F8083213B1DE
:107B600000F5FC7018477047000000200348D0F86B
:107B70002C3213B100F50770184770470000002041
:107B80000348D0F8503213B100F510701847704711
:107B9000000000200348D0F8743213B100F51970CA
:107BA00018477047000000200348D0F8983213B1FE
:107BB00000F5227018477047000000200348D0F8F5
:107BC000BC3213B100F52B7018477047000000203D
:107BD0000348D0F8E03213B100F53470184770470D
:107BE000000000200348D0F8043313B100F53D70C5
:107BF00018477047000000200348D0F8283313B11D
:107C000000F5467018477047000000200348D0F880
:107C10004C3313B100F54F70184770470000002037
:107C20000348D0F8703313B100F558701847704707
:107C3000000000200348D0F8943313B100F56170C0
:107C40001847704700000020104A114B013800EB24
:107C5000C00002EB80020F48D2F86821996C824282
:107C600014BF02220122114382B09964996C0A4028
:107C70000192019A9A6C42F004029A649B6C03F0A0
:107C800004030093009B02B0704700BF0000002077
:107C90000010024000000240F0B50138194C00EB22
:107CA000C00004EB80041D461748D4F8683183B047
:107CB000834214BFA120A0200E4617463EF0EAFDE5
:107CC000124B9A6C42F004029A649B6C94F97D0109
:107CD000C4F8786103F004030193B909019BC4F867
:107CE00080513EF099FC94F97D31002B08DB580956
:107CF000074903F01F03012202FA03F341F8203081
:107D000003B0F0BD0000002000000240001002405F
:107D100000E100E0800AA0F58010542807D8054B48
:107D200003441B7E0B2B02D8034AD0567047002019
:107D3000704700BF64CC0408AC4505080120FFF77C
:107D4000C7B800BF0220FFF7C3B800BF0420FFF789
:107D5000BFB800BF0820FFF7BBB800BF1020FFF777
:107D6000B7B800BF4FF47870FFF7B2B84FF47C405B
:107D7000FFF7AEB830B1036882881B691A4214BF9E
:107D800001200020704700BF70B50D4682B0164636
:107D90000446B8B1036803F138439B0A0B4A134405
:107DA00093F868023EF076FDC5F38103CDE9003615
:107DB00005F01302A1882068C5F3411340F0EAFBE7
:107DC00002B070BD4FF0FF33E8E700BF64CC040899
:107DD00000B1D9E770472DE9F84FBD4F642303FB8D
:107DE00000730646D3F87C47D3F88487D3F88857C6
:107DF000002C00F06281B8F1000F04D098F9063031
:107E0000002B40F05A8125B195F90630002B40F047
:107E10005481731CDBB2B8F1000F04D0152288F82E
:107E2000062088F8073015B11622AA71EB714FF0C1
:107E3000640A0AFB06FA07EB0A0994F828003EF0E8
:107E400029FD2946404642F0E7F899F88E3799F81F
:107E50008C27002B0CBF4FF01E0B4FF03E0B404603
:107E60005946FFF7B5FF28469A4D99F88D27594690
:107E70005544FFF7ADFF4C220021284644F0C6FBD5
:107E8000D9F87C379FED947A5B68C9F89437934BA7
:107E9000B9F890A79A68924B9FED925AC2F30222CA
:107EA0001344B0EE084A93F870228F4B5B6802F0DF
:107EB0001F02D34007EE903AF8EE677A4FF0000CBD
:107EC000C7EE275A40F2145807EE90AA9FED877A22
:107ED000F8EEE77A25EE844AC7EE274ADFED847A8A
:107EE000B0EE007AE5EE877AA5EE875A74EEE72ABF
:107EF00037EE856AF7EE003ABAF5C87F0CF1010E4D
:107F000007EE90EAD5BF4FF49672782264233223AD
:107F10001344F8EEE76A07EE903A66EEA56AB8EE0B
:107F2000E77AA2F13202C7EE267AD5BF4FF416796E
:107F30004FF4827941464FF4FA7107EE102A77EE3A
:107F4000E37AB8EEC77AFCEEE77A37EE447A17EEBA
:107F5000903AC7EE267A01EB0902FCEEE77A17EEBB
:107F6000900A07EE909AB8EEE73A07EE902A23EED1
:107F7000243AF8EEE77A83EE277A37EE453A32EE86
:107F8000C77AC3EE267A77EEE37AFCEEE77A17EE4D
:107F9000901AC7EE267A77EEE37AFCEEE77A17EED0
:107FA000902A02F1020909EB010B07EE90BAF8EEF4
:107FB000677AB0EE467AA6EEA77AF4EEC74AF1EEFB
:107FC00010FA7EDC43EA00095FFA89F9B9F10F0F74
:107FD00079D841EA02091FFA89F9B9F1FF0F72D87D
:107FE0001B05000400F47F0003F07F630343414856
:107FF00043EA0C7300EA01210B4392B2134364225B
:1080000002FB067628460027C6F898370123C6F8F3
:10801000A037C6F89C77C6F8A477C6F8A877C6F844
:10802000B077C6F8B47740F067FA96F8D537202BCA
:10803000D9B21AD196F8D437012B16D0242386F85A
:10804000D537D6F894371A6822F001021A601A68F8
:1080500022F480521A601A681A601A6842F001020B
:108060001A6086F8D51786F8D47794F92A0000218B
:108070003EF0D2FA94F92A2094F82A30002A08DB3C
:108080005909012203F01F0302FA03F31A4A42F8C6
:10809000213094F9290000213EF0BEFA94F92920FC
:1080A00094F82930002A08DB5909012203F01F0344
:1080B00002FA03F3104A42F82130BDE8F88FF44683
:1080C0001AE701316FE7BEF10F0FF8D1002396E7F1
:1080D00048290020DC300020286B6E4E0010024042
:1080E00064CC0408000016430000002000247449FA
:1080F0000000704200FFFF0000E100E008B1002234
:1081000042E6704770B50F4C94F86C65BEB104F54B
:108110006674002504E00135B54204F120040ED058
:10812000237F002BF7D0E06800220028F3D0217DC8
:108130000135FFF729FEB54204F12004F0D10120FA
:1081400070BD00BF5018002070B590F8BE311C09FA
:10815000013C052C0FD81A4E06EB44020546B2F836
:10816000780203F00F0340FA03F2D20703D595F823
:10817000C121012A01D0012070BD9A40013A10406E
:10818000264444F0EFFB96F884320E4A034402EB97
:10819000C30452F83320A38810691840ECD00023A0
:1081A00095F8BF2185F8C13102212046FFF7ECFD8B
:1081B000D5F82021136843F008031360DBE700BF04
:1081C00064CC040894320020800000F1804000F567
:1081D00014500068704700BF800000F1804000F537
:1081E00014500160704700BF10B4254B2548996DAD
:1081F000254A41F0805183B09965996D01F0805115
:1082000001910199016841F480710160996D41F417
:1082100080619965996D01F4806100910099D3F8AE
:10822000901041F40041C3F89010FF24CA2053215C
:10823000546250625162D3F89430DB0014D4134B73
:1082400013490022C3F80425C3F80825C3F80C25F8
:10825000C3F81025C3F81425C3F81825C3F8001572
:1082600003B05DF8044B7047A2F50062084BD2F8EA
:1082700000259A42E3D103B05DF8044B704700BF7C
:108280000010024000700040002800400020004024
:10829000316665422DE9F84FD0F828618368F5B260
:1082A0001F68534B083DA3FB05352D09044626F0F6
:1082B000FF08013500F1F80A00F1BC0929464046E3
:1082C0003FF0A8FCD4F8E8200023B2F5807F84F8C2
:1082D000EC301CD00ED9B2F5804F18D070D8B2F562
:1082E000806F14D0B2F5805F6FF4006114BF382343
:1082F00004230FE0102A78D06BD8012A4ED0042A2C
:1083000016BF6FF400616FF00801382302E06FF0D0
:1083100008010423524607F1180A38465AF803C0E8
:1083200001EA0C014AF80310D4F8E8B059463FF0CE
:1083300027FABBF5807F2DD01DD8BBF1100F51D08F
:108340002FD8BBF1010F02D0BBF1040F2CD10827AD
:10835000DAF800303B43CAF800301023C4F8C430C8
:108360004A46294640463FF013FC336843F0020377
:108370003360BDE8F88FBBF5804F0BD019D8BBF543
:10838000806F07D0BBF5805F0ED107F11C0A4FF458
:108390000067DDE707F11C0A0827D9E76FF008013D
:1083A000B8E7BBF1400FD2D00AF1380A4FF40067AA
:1083B000CEE7BBF5803FF7D107F1500A0827C7E7A2
:1083C000B2F5803F14BF6FF400616FF008013823ED
:1083D000A0E7402A15BF6FF400616FF00801382351
:1083E000002397E74FF40067B2E76FF4006191E76D
:1083F000CDCCCCCC2DE9F04FD0F8B831067993F93B
:1084000025A093F82590BAF1000F83B0044606F03A
:108410000206C0F277814FEA59139B0003F16043D3
:1084200003F5614309F01F011F68CF4007F0010702
:10843000002E40F0408101228A40C3F88020BFF323
:108440004F8FBFF36F8FD4F8AC11086820F4F87029
:108450000860886820F001008860C3F88021BFF3BD
:108460004F8FBFF36F8F04F59078D4F82051BA493D
:108470002423C4F8A0312B6823F001032B600023D0
:108480002B606B60AB60C4F8A831C4E94D33C4F80D
:10849000A03184F89C31C4F84031C4F8A431637928
:1084A0009A0202F48052C4F828211A0302F40052FE
:1084B000C4F82C211A0202F480628D42C4F83021E3
:1084C000A268C4F8242104BF0422C4F844212279FC
:1084D00012F0010B03F0010100F0D8800420C4F871
:1084E000340116B10C20C4F83401002940F0E980B1
:1084F00094F8C0214AB1D4F8482142F00802C4F8E7
:1085000048214FF40042C4F8582113F0080FD4F862
:10851000A0314FF02403C4F8A0312B6823F00103ED
:108520002B60404600F006813AF0B2FD012817D0DA
:10853000D4F84831002B40F041816B6823F490431C
:108540006B60AB6823F02203AB60AB6843F00803B9
:10855000AB602B6843F001032B6040463FF01AFCF0
:10856000BBF1000F5CD0D4F8FCB0BBF1000F00F001
:10857000B6800023C4E91133C4E91433D4F80431BC
:10858000C4F8A03080234FF0200CE3644FF48053F4
:10859000C4E916C304F13C031846C4F83CB0009388
:1085A00040F09EF900983AF0D5FAD4F8A421009B47
:1085B000C4F89831202AC4F8648001922CD16269F1
:1085C00052B3E36899B239B394F89C01012823D0DF
:1085D000A4F87C110021C4F8A81161675F49A16665
:1085E0005F49E1665F4921672221C4F8A411009820
:1085F000C4F878219BB205F124013AF039FB002838
:1086000000F0CD804FF00003019A84F89C311023D4
:10861000C4F8A831C4F8A021DBF80430C4F8143140
:108620007EB3D4F8005115B30023C4E92C33C4F849
:10863000A830C4F8B830D4F80831C4F8A0301023FA
:10864000C4F8A4308023C4F8AC3004F19C064FF485
:1086500080533046C4F89C50C4F8BC3040F040F918
:1086600030463AF077FA002800F09380FEE7D4F81D
:10867000AC311A6842F080021A601A6842F0400277
:108680001A60002F70D103B0BDE8F08F16B108203A
:10869000C4F8340100293FF42BAF92077FF528AFCF
:1086A000D4F8482142F00102C4F848214FF40032C6
:1086B000C4F84C211CE790F8BE61003E18BF0126AB
:1086C000B9E6D4F8481141F00201C4F84811920704
:1086D0004FF48031C4F850117FF50AAFE0E7D4F8C9
:1086E000AC311A6842F480721A609A6842F0010252
:1086F0009A601A6842F020021A601A6842F010026A
:108700001A608DE7D0F8AC3126B190F8BE61003E1A
:1087100018BF01261A6822F4F8721A609A6822F0CB
:1087200001029A60BFF34F8FBFF36F8F002704F5EC
:1087300090789AE63AF0ACFC01283FF411AFD4F8F7
:108740004831002B3ED16B6823F490436B60AB68DB
:1087500023F02A03FCE600BF0080004039F603083E
:108760006DF6030871F60308BAF1000F8BDB4FEAD0
:1087700059139B0003F1604303F5614309F01F099E
:10878000012202FA09F2C3F880211A6003B0BDE8A1
:10879000F08FC4F89461C4F8C480686071E784F80D
:1087A0009C012B6843F480732B60AB6843F001039A
:1087B000AB60AB6843F04003AB602DE740463AF056
:1087C0003FFFBAE640463AF03BFFBCE738B5040944
:1087D000013C052C1AD80F4D05EB440200F00F03A5
:1087E000B2F8780240FA03F212F0010210D001222E
:1087F00002FA03F3013B1840254444F0B3F895F81E
:108800008432054A034402EBC30038BD002038BD62
:10881000104638BD64CC0408943200202DE9F043A2
:10882000002489B0CDE90344CDE905440DF10C0CD9
:10883000C0E93544C0E93744C0F8E440054600F1DA
:10884000E80EBCE80F00AEE80F00CEF8004095F847
:108850000101079444F23B36A5F82C6110B909B028
:10886000BDE8F083FFF7B2FF064680B381882A4F48
:10887000DFF8BCC0294A2623C380B1FA81FE284B09
:1088800045F80C3FCEF11F039C4407EB83031068AF
:10889000C3F80C514FF0004929FA0EF59CF88C8270
:1088A00020EA050010602346556130681D4ACDE975
:1088B00000443FF06FFE07EB080393F84C2C5AB9C5
:1088C000164A13682B43136009B0BDE8F083144BBC
:1088D000EB6009B0BDE8F08383F84C4C124B13F900
:1088E00008502146284613F808403DF095FE002D1B
:1088F000B5880CDB61090D4A04F01F040123B5FAA9
:1089000085F5A34042F8213029FA05F5D8E7B5FAF4
:1089100085F529FA05F5D3E7482900200004014030
:108920008168000800001110C845050800E100E05A
:1089300064CC04082DE9F84F6F4EC0EB001306EB32
:10894000C303D3F8544C002C00F0908093F8C48CEF
:108950000546070140463DF09DFF4FEA58130122AE
:1089600008F01F08013B02FA08F2052B09D8DFE8DE
:1089700003F0ABB103B7BDA560498B6B23EA0203DB
:108980008B637B1B06EBC30305F1010B93F8580CBB
:10899000FFF71CFF5FFA8BFB804618B1122380F8AB
:1089A00007B083717B1B06EBC30393F8590CFFF7E9
:1089B0000DFF824618B1132380F807B083717B1B2B
:1089C00006EBC30393F85A0CFFF700FF814618B17A
:1089D000142380F807B083717F1B06EBC70650464F
:1089E00096F85C2C2E21FFF7F3F996F85D2C48469B
:1089F0000E21FFF7EDF996F85B2C2E214046FFF78C
:108A0000E7F923683E4A23F04003944223602FD0C5
:108A10003C4B9C4236D103F5EC339A6B42F48042D6
:108A20009A639A6B22F480429A63636843F480539A
:108A3000636023685B0611D4236823F47F4323F02B
:108A4000BF0343F4457343F003032360636823F4D7
:108A5000706323F0040343F4E0636360E36923F489
:108A60000063E361236843F040032360BDE8F88FAF
:108A7000224B1A6C42F480521A641A6C22F480520F
:108A80001A64D2E7204B9C420DD0204B9C42CCD1A3
:108A900003F554431A6C42F400421A641A6C22F42F
:108AA00000421A64C1E703F5EA339A6B42F40042CC
:108AB0009A639A6B22F400429A63B6E70F490B6BF4
:108AC00023EA02030B635CE70C49CB6A23EA020347
:108AD000CB6256E709490B6C23EA02030B6450E7AB
:108AE0000649CB6B23EA0203CB634AE703498B6A4F
:108AF00023EA02038B6244E7482900200010024069
:108B00000030014000380040003C0040003C014083
:108B10002DE9F04FDFF890929E4E9F4F83B0824632
:108B20004FF00108DAF800506C684C4500F04981BC
:108B30009A4B9C4200F0488103F580639C4200F010
:108B40004681974A94420CBF4FF0030C4FF0FF3C14
:108B50002368BAF8041028899AF86820009223F054
:108B60004003884285F82480236014D0B1F5807FCB
:108B70000B46A8BF4FF48073022BB8BF02232068B6
:108B800093FAA3F3B3FA83F320F03800013B40EAF1
:108B9000C303236029819AF80CB0A97A59451ED0E5
:108BA0008049CCEB0C1201EBC202019292F8580CF6
:108BB000FFF70CFE019A92F85B2CBBF1000F40F01E
:108BC000D98010B12E21FFF7DFF8226842F00102B0
:108BD0002260226842F00202226085F80AB023680F
:108BE00095F80CE043F0400323602B6A9A68002A52
:108BF00000F0F28000201433844653F8101C944493
:108C000001EA060239B16969002937D0B2F1805F03
:108C100034D0BA4232D053F8142C143302EA06018D
:108C200022B1B1F1805F29D0B94227D053F80C2C82
:108C30000130002AE1D1BEF1000F1FD0009BEBB143
:108C4000012802D8BCF1070F10D9296ADAF8000010
:108C500041F006FDDAF8083013B11A689B88936278
:108C6000504603B0BDE8F04FFEF7B2B900EB80000C
:108C700082002B6A13441B7B002BE6D02B6A9B6877
:108C80004FF0000B002B00F09180BBF1000F02D0E1
:108C90009BF80C302BB1DAF8083013B11A689B88B6
:108CA00093622B6A18682B6A59682B6AD3F808C03C
:108CB0006368BCF1010F23F48053636014DD6246E6
:108CC000A3689B07FCD5002851D030F8023BA38154
:108CD000A368DB07FCD5E36809B121F8023B023A3F
:108CE000012AEDDC0CF0010C636843F480536360EF
:108CF000BCF1000F14D12B6A1B7B1BBB2B6A1B69B9
:108D0000002B2AD02B6ADAF874001B6998470128D7
:108D100028D0022821D100232B6203B0BDE8F08FB8
:108D2000A3689A07FCD5002831D003782373A36881
:108D3000DB07FCD5E3680029DDD00B702B6A1B7BB9
:108D4000002BDBD0DAF80830002BD7D01A689B88CC
:108D500093612B6A1B69002BD4D1D5F820B02B6A04
:108D600014332B622B6A9B6803B36C688DE74FF654
:108D7000FF73ACE710B14E21FFF706F8226822F02E
:108D800001022260226822F00202226025E7FF230E
:108D9000CCE700BF0080FFFF0080012000380040CA
:108DA000003C014048290020003001402B6A1B682C
:108DB00083B12B6AD3E900A100222962C3E9002212
:108DC000B0E64FF0000CC3E64FF0010CC0E64FF0E8
:108DD000020CBDE62B62A0E7BEF1000F3FF44EAFE0
:108DE000009B002B7FF445AF48E700BFF8B58569CD
:108DF000002D56D02C68236A1B7B002B5DD1D4E953
:108E000004160F680B7A4249626830680B4413F805
:108E100001CC57F80C3023F0010347F80C30377AB7
:108E20003944022311F801CC50F80C1021F0010153
:108E300040F80C10317D8B4043F00C0343605368C5
:108E400023F002035360536823F001035360236A45
:108E50001B693BB1236A686F1B69984701284AD098
:108E6000022820D0236ADA694AB9586900282BD031
:108E700099692162C3E90522BDE8F84048E6216A04
:108E800094F824200E7B1433F6B223621ABB002E12
:108E90002AD12846FEF79CF82868016ACB69002B86
:108EA00014DCF8BD2362236ADA691433002AF9D18D
:108EB000236ADA69002AE2D1D7E7AB68002B9ED09B
:108EC0001A689B8893619AE72062F8BDBDE8F84074
:108ED000143141F0C5BB216A286841F0C1FB002371
:108EE00084F82430002ED4D0AB68002BD1D01A687F
:108EF0009B889362CDE7236A2868143B2362016A4A
:108F0000CB69002BAEDD143141F0AAFBAAE700BF0C
:108F1000BC45050808B51D20FFF758FC10B190F9B5
:108F2000063053B11E20FFF751FC10B190F9063006
:108F300003B108BD5523C38008BD5523C380F1E7A5
:108F4000F8B50E4C94F86C75A7B104F2AC74C7F187
:108F500009070925013D0FD0A6683079FFF736FCD7
:108F600094F8B810F27908B1FEF70EFFAF4204F59D
:108F70009A74EFD10120F8BDAB68FFDE50180020D5
:108F80002DE9F0410446EFF31185502383F3128855
:108F900003799B0702D590F8BE313BB9012384F8D1
:108FA000B031EDB285F31188BDE8F081D0F8003121
:108FB0001B6813F00103F4D1D0F8A021D0F8A4115C
:108FC0000A4302F02102212AEBD0D0E90912914292
:108FD000E4D090B23BD8194623691B1A9BB2D4F84F
:108FE000A071A1620026202F84F8B061D9D1A169B7
:108FF0008918D6D0002BD4D094F89C21012AD0D047
:109000000122D4F8940184F89C212122A4F876311D
:10901000D4F82081C4F8A861C4F87011A4F87431A0
:10902000C4F8A021B0B1124AC262124A0263124AC5
:109030004263866308F1280239F01AFE50B110230A
:10904000C4F8A83184F89C61C4F8A071A9E7081A93
:1090500083B2C4E700234022C8F8202084F89C3162
:10906000D8F8083043F08003C8F8083099E700BF0B
:1090700011F6030835F6030871F603082DE9F843E5
:10908000037913F00206054604D090F8BE61003E55
:1090900018BF0126D5F820412768D4F8088017F0BA
:1090A00020095AD1FB0540F18480E369DA0744BF07
:1090B0000123236218F0010F77D0E3699B0744BFB7
:1090C00002232362E369580701D504232362E3697D
:1090D000190744BF08232362002E5CD07A0628D5E6
:1090E000E3695E0625D54023236295F8C161002E11
:1090F00000F08680D5F80031002B5ED02846FFF7BF
:109100003FFF95F8B031A3B195F8C1418CB995F8FE
:10911000BE01FFF75BFBD5F820211368012123F086
:109120000803136085F8C11118B122462021FEF70B
:109130002BFED5F80031002B3FD0F9060BD5D5F822
:109140002031DA69D20606D56A6B12B19047D5F89C
:10915000203110221A62BDE8F883E369980614D51D
:10916000606AEB6AC0B2002B3ED0296B9847D5F8F5
:109170002041236823F480732360A36823F0010354
:10918000A360A36943F00803A361F9058DD418F027
:10919000010F9CD091E7236823F0C0032360E369AB
:1091A0005B06CAD540232362C7E7B9F1000F93D00D
:1091B0008DE718F0010F80D18EE73C06BDD5D5F8BC
:1091C0002021D3691806B8D5D5E909138B422AD0D6
:1091D000A969C95CC9B291622A690133B3FBF2F192
:1091E00002FB1133AB62A8E7EB696A69D054EB6903
:1091F000EA680133B3FBF2F102FB1133EB61B6E72E
:1092000095F8BE01FFF7E2FA2368012223F0080374
:10921000236085F8C12100283FF46CAF324620213D
:10922000FEF7B2FD66E7136823F08003136084E75E
:10923000BFF34F8F0549064BCA6802F4E06213433F
:10924000CB60BFF34F8F00BFFDE700BF00ED00E034
:109250000400FA052DE9F843BFF35F8F464A002169
:109260000B46C2F894100846C2F898300133112B0F
:10927000C2F89C10C2F8A010F6D10523C2F89430B1
:10928000BFF34F8FBFF36F8FBFF35F8F3B4C3A4FEE
:10929000C2F894000026012520E0002A3AD0D4F834
:1092A0000080637AA17AE07A1B0643EA017343EAFD
:1092B0004203217B627BC7F8986043EA804343EA1C
:1092C000414343EA0243013643F00103032EC7F84A
:1092D0009C8004F11004C7F8A0301CD06368227A87
:1092E000002BDAD0D4F80080002ADAD128F01F024F
:1092F000A3EB0209B9F1200F38BF4FF0200948460F
:1093000043F064F9431E05FA03F2914508BF18467D
:10931000C2B2C6E7FEE70523C7F89430BFF34F8F0C
:10932000BFF36F8FFB68164C4FF6FF02134043F0FC
:109330000523144A43F47A03FB60D2F89430C4F84E
:10934000343E39F0F7FDD7F8FC100F4B0F4AB0FB55
:10935000F2F241F08071C7F8FC10002159601968E1
:109360000B4841F0010119608368C4F8382E43F4BA
:1093700080438360BDE8F88300ED00E0A80300208F
:109380004829002000100240001000E040420F0079
:109390000070004008B572B6FFF74AFF03689B0AE9
:1093A000A3F58013542B57D8F0B5374C23441B7EBC
:1093B0000B2B50D8354D407905EB83148708D4F832
:1093C0003C6E334C03EB83004FF0020E03EB400086
:1093D0000EFA07FE38444FEA831CF768002941D093
:1093E00047EA0E0704EB800ECEF87415CEF88425FC
:1093F000F760EFF3118E502282F312882C2101FBCB
:109400000340D0F8702542B3C0F89425111D214ABD
:10941000214E03EB830003EB400080000644103034
:10942000024452F8040F08B10860011DB242F8D19D
:1094300000225FFA8EFE0A608EF311882C2202FB56
:109440000344D4F89435BBB1AC44DCF83C2ED3686B
:1094500043F00103D360F0BD70470E4A01FB0321C6
:109460002431D5E727EA0E07F76004EB8006C6F83B
:109470007415C6F88425BCE76544D5F83C2ED3683E
:1094800023F00103D360F0BD64CC04084829002018
:1094900050180020C01D0020E01D002003689B0A1A
:1094A000A3F58013542B00D970470E4A13441B7E3A
:1094B0000B2BF9D810B40C4C427904EB83109208B2
:1094C000D0F83C0E02239340C26829B922EA030374
:1094D0005DF8044BC360704713435DF8044BC360F1
:1094E000704700BF64CC04084829002003689B0A29
:1094F000A3F58013542B0FD8084A13441B7E0B2B63
:109500000AD80749427901EB831192080223D1F866
:109510003C1E9340DB430B61704700BF64CC0408E2
:109520004829002001490248FDF7F0BCC01D002079
:10953000002C014010B5064C064804F5AE61FDF75D
:10954000E5FC04F2FC610448BDE81040FDF7DEBC18
:1095500050180020002C01400044014002494FF007
:109560008040FDF7D3BC00BFEC1D0020014902483C
:10957000FDF7CCBC181E0020000400400149024841
:10958000FDF7C4BC441E0020000800400149024809
:10959000FDF7BCBC701E0020000C0040F8B5164D55
:1095A000164E2A69EB681A404FF00040B2FA82F377
:1095B00020FA03F3DB4302EA0301C2B1012A2B6163
:1095C00001D00A46F2E7D6F874768FB1013F002346
:1095D000BFB2C6F87436D6F8704634B12368204658
:1095E000394698476468002CF8D10022DCE7F8BDC2
:1095F000EF6ABFB2EFE700BF001000405018002034
:1096000001490248FDF782BCF41E002000340140ED
:1096100001490248FDF77ABCF41E002000340140E5
:1096200001490248FDF772BC201F002000400140A4
:1096300001490248FDF76ABC781F0020004801403C
:1096400001490248FDF762BCA41F00200050014000
:109650002DE9F0414FF40F728CB05648564D002161
:1096600042F0D4FF554B1A6E42F400621A661A6E2D
:1096700002F400620092009A9A6D42F001029A652B
:109680009A6D02F001020192019A9A6D42F0020273
:109690009A659A6D02F002020292029A9A6D42F065
:1096A00004029A659A6D02F004020392039A9A6D7D
:1096B00042F008029A659A6D02F008020492049A38
:1096C0009A6D42F010029A659A6D02F010020592AE
:1096D000059A9A6D42F020029A659A6D02F0200276
:1096E0000692069A1A6E42F400521A661A6E02F434
:1096F00000520792079A1A6E42F480321A661A6E66
:1097000002F480320892089A1A6E42F400321A6605
:109710001A6E02F400320992099A1A6E42F48022FB
:109720001A661A6E02F480220A920A9A1A6E42F49B
:1097300080121A661B6E03F480130B930B9B4FF081
:109740000008A5F5277605F62C2440F28B2755F85E
:109750002810002354F83320914226D001330C2BDB
:10976000F8D1002008F107083DF094F8B845EED193
:109770004FF0000840F28B2755F82810002354F8CA
:10978000332091420CD001330C2BF8D1002008F18A
:1097900007083DF07FF8B845EED10CB0BDE8F08188
:1097A00006EBC30393F8CC0CF1E706EBC30393F885
:1097B000CC0CD7E7C01D002000CF040800100240E9
:1097C000800AA0F5801054280DD8074B03441A7E58
:1097D0000B2A08D8054B03EB8213D3F83C2E1368F1
:1097E00043F001031360704764CC0408482900204B
:1097F0001F4A204B904210B45B6827D002F50062EC
:10980000904223D002F5406290421FD002F5806260
:1098100090421BD002F58062904217D002F50062A0
:10982000904213D01448154A81688468C1F302211C
:109830000A4414F4E06F92F8702202F01F0223FA37
:1098400002F000D040005DF8044B70470A480B4A14
:1098500081688468C1F3C2210A4414F4605F92F8FD
:10986000702202F01F0223FA02F0ECD04000EAE777
:10987000002C0140000000200010024064CC0408CD
:109880002DE9F04F93B000230093A74BA74CA84FAE
:10989000A3F62856A44D4FF00009A64BD5F800B00A
:1098A00093F896204FEA9B23A3F58013542B00F2E4
:1098B000CC8033441B7E0B2B00F2C780012A17F9A2
:1098C00003A000F00381022A02D1BAF1080F34D1BB
:1098D0004FF00008414650460EF0C4FC0EF04EFD1D
:1098E00090F9003013B1542B40F0DB8108F10408EB
:1098F0001FFA88F8B8F1100FECD1009B0021002B63
:1099000000F0AD80894A0AE033441B7E0B2B0DD852
:10991000FB5653450DD0E432944200F09D80906890
:1099200003689B0AA3F58013542BEDD900235345FC
:10993000F1D1437968799842EDD109F10109B9F182
:10994000080F05F11C05A8D1009B0133042B0093DF
:1099500004F1E4049ED1784A92F86C35013302F5A3
:10996000667A03934FF0010B039B5B456AD0714B02
:10997000DAF80C609AF8102093F8AA300092002EC2
:1099800060D06D4AD6F800905568B288019209F10E
:109990003840002D4FEA902040F3A880634A00240D
:1099A00005E00134AC4202F1E40200F09C80116851
:1099B0008142F6D15D4B019DE42202FB0434009B01
:1099C0008AF81030019BCAF80C60B3FA83F7C7F12C
:1099D0001F034FF00302CAF80430CAF81840B271EE
:1099E00086F807B0A16C206C5E0001224FF0030CDA
:1099F0000CFA06FC02FA06F63143A1644E490E78D1
:109A000040EA0C0002FA03F32064D4F84CC0D4F806
:109A1000940099B2002E00F04A8143EA0C03E364FB
:109A2000C9F81850FCF744FB20460BF1010BFCF77A
:109A300013FB40F20113BBF1090FAAF81C300AF125
:109A4000200A91D113B0BDE8F08F013A012A7FF6C8
:109A500074AF4FF0000A3BE700297FF46EAFA868AF
:109A60003649002205E00132102A01F10C0100F014
:109A700064834B689842F6D1697952B25846FEF732
:109A800019F82F4A406851680023884203F1010306
:109A900009D0102B02F124023FF44FAF51688842E5
:109AA00003F10103F5D1DBB2264A013B03EBC3030B
:109AB00002EB830393F98431002B7FF43EAF1A4B02
:109AC000C9EBC90903EB8903A3603DE7BAF1010FB4
:109AD0003FF4FEAE09F10109B9F1080F05F11C05CB
:109AE0007FF4DBAE30E7042C00F03E82124AE42122
:109AF00001FB052211690591002900F0EA829060BE
:109B00004FF05401013082F8E810C4B20A4982F8DB
:109B1000E9406A1C4A60059A116802915179976878
:109B200004910022054915E08CD90408581800203A
:109B3000AC450508403A002050180020A80000203D
:109B400068010020000000200132102A01F10C0100
:109B500000F0F38248688742F6D104990298069390
:109B600052B2FDF7A7FF994BDFF89082D0E901715F
:109B7000E42202FB0532C2E907714146002248682F
:109B8000069B874202F1010209D0102A01F124014B
:109B90003FF458AF4868874202F10102F5D1D2B2D2
:109BA0008B49013A02EBC20201EB820292F9841165
:109BB00000297FF447AFE421079301FB05F3590027
:109BC00001EBA301C1EB412101EB8141494282F844
:109BD00085418048069301EB41044FF08C0C04EB67
:109BE000041400EB84040CFB01F100F54C7000EB55
:109BF000410176481844C0E9351C542182F884118B
:109C00003322C0F8A020744AC0F89C40C0F80C90E1
:109C10000298D418FFF7ECFD079B062B00F0AB81F0
:109C2000072B6E496E4B6F4A18BF1A466E4B18BF12
:109C30000B46B0FBF3F3B0FBF2F26448DDF808909A
:109C4000E42101FB0501013B9BB2013AA1F8A420EC
:109C5000A1F86C30A365069B03F1500100F10803E5
:109C600019440023A4F85030E365636548463DF08D
:109C700039FFD9F80030049A43F08003C9F8003066
:109C80000C2A22D8DFE812F0E10121002100210096
:109C9000BD012100210021009E01210021002100A1
:109CA0007A01009B0121002B7FF42CAE45E6C7F121
:109CB0002F0702FA07F343EA0C032D04E36432464C
:109CC000C9F81850FCF7F4F9AEE6404A0298E423CC
:109CD00003FB0523022259690368079123F001035E
:109CE000036060230A934FF48073109301230B9356
:109CF0000A234FF00009CDE90D320AAACDF83090C1
:109D0000CDF83C90CDF844903DF03AFD0799B1F57F
:109D1000807F0AD040F2D181B1F5804F05D000F2AA
:109D2000DF81B1F5806F40F0EA8108234FF004092C
:109D3000029A02F1180151F80920134341F8093041
:109D4000059B1879002840F0A681029A136843F019
:109D5000010313600023D8F80420974203F10103A4
:109D600000F09481102B08F12408F4D14FF0FF3358
:109D70004FF00008164A03EBC30302EB8303474688
:109D8000D3F86801194B984214BFA120A0203CF0E1
:109D900081FD174B0D499A6C1648DDF808C042F05A
:109DA00004029A649B6C049A03F004030C2A09933E
:109DB000099B9BBF104B03EB42030022B3F8082E14
:109DC000E42303FB05131A83002320E0501800202E
:109DD00000000020EC3A002058180020D0DD0600DA
:109DE000449508001055220040771B0000000240F7
:109DF000001002407C42002064CC0408680100206E
:109E00008C4500F079810133042B00F0998150F8E2
:109E100033100029F4D1C049B8460F46D1F85C1878
:109E20000131C7F85C1807EBC301029FC1F83C7809
:109E3000DB000344404699880A439A80B749234689
:109E40009022FDF729FFB64BE42707FB05374FF0BB
:109E50000008FD692A6842F002022A602A6842F07E
:109E60000A022A60C4E91D883A6AC4F88C204FF4BB
:109E70004052C4F8902080231022E3672267D7F86D
:109E8000A020C4F88820E9B2A64AD7F80C90069B17
:109E90000839A2FB01214FF40072C4F8802009F1B7
:109EA0001802A26603F168029F4B4FF4006C1A443B
:109EB0000909D7F89C30E36625F0FF000131C4F8AA
:109EC00084C0049102903DF063FED5F800E0C4F830
:109ED00020E0D5F804E0C4F824E0069BD5F808E0BB
:109EE000C4F828E0D5F80CE0C4F82CE0C4E92A88CE
:109EF00003F1A0028C4BC4F8B0801A443B6AC4F84A
:109F0000C4308023C4F8B4304FF40053C4F8C830D0
:109F1000D7F8D830C4F8C03009F110094FF4807375
:109F2000C4F8A090C4F8B830D7F8D430C4F8A4303E
:109F30004FF48063C4F8BC30049902983DF028FEC9
:109F40002B6823636B686363AB68A363EB68E363AD
:109F50002B68D6F8009043F002032B602B6843F087
:109F60000A032B60B5882AE56B4A032382F8AB30DD
:109F700013B0BDE8F08F6D4A6D4B5AE60298684900
:109F80000368E42202FB051223F001034FF4805121
:109F90005161036000230C930F93119360230A9384
:109FA0004FF48073109301230B934FF0020C0A239C
:109FB0000AAACDE90D3C4FF004093DF0E1FB4FF456
:109FC0000063B5E6029856490368E42202FB0512D5
:109FD00023F001034FF480715161036000230C935F
:109FE0000F9311934FF0600E0123CDE90AE34FF078
:109FF00002090A230AAACDE90D3910913DF0C0FBF0
:10A0000093E6029846490368E42202FB051223F016
:10A01000010310215161036060230A934FF48073A0
:10A02000109301230B9302220A23CDE90D324FF046
:10A0300000090AAACDF83090CDF83C90CDF84490B4
:10A040003DF09EFB4FF4006372E6029834490368CA
:10A05000E42202FB051223F0010301215161036098
:10A0600000230C930F93119360230A934FF4807392
:10A0700010934FF002090A230AAACDE90D390B917A
:10A080003DF07EFB08234FF0000951E65FFA83F8AC
:10A0900008F1FF336EE6FEF799FB814638B1059B68
:10A0A0000221DA79FDF770FE5423A9F80630029AEE
:10A0B000536C43F40043536447E610293AD018D850
:10A0C000012926D00429DDD04FF400634FF0380970
:10A0D0002EE6114A022382F8AB3013B0BDE8F08FB0
:10A0E000B1F5803F14BF4FF4006308234FF03809E7
:10A0F0001EE64029C6D0E7E7B846DB0099E6B1F591
:10A10000805F4FF4006314BF4FF038094FF004092B
:10A110000EE608230CE600BF403A0020F960000874
:10A1200050180020CDCCCCCC58180020882A110023
:10A13000A0BB0D004FF40063FAE500235B68FFDE6F
:10A1400000239B88FFDE00BFF8B5830AA3F58013C8
:10A15000542B1BD80E4C23441E7E0B2E16D80D4CB0
:10A16000013904EB861789B21546C7F8481EFFF778
:10A170003FFBB0FBF5F2013AD7F83C0EC7F8402E92
:10A1800007F56461BDE8F84038F00CBFF8BD00BFCA
:10A1900064CC0408482900202DE9F843830AA3F57C
:10A1A0008013542B50D81546444A13441F7E0B2F5E
:10A1B0004AD8DFF8149109EB87160446D6F83C3EDE
:10A1C00083424FEA87183FD0013989B2C6F8481E4A
:10A1D000C6F83C0EFFF70CFB09F63C6108F10803DA
:10A1E00000220B44B0FBF5F00138C6F8442EC6F847
:10A1F000400EC3E9022296F8793E03F0FF022BB32A
:10A2000009EB080501EB871104312046022685F889
:10A21000796E38F0C7FE2A4A0123944285F8793EC8
:10A2200038D0B4F1804F14D0A2F59432944210D0BB
:10A2300002F5806294420CD002F58062944208D00C
:10A2400002F59432944225D0BDE8F88386F8782E42
:10A25000D6E795F8782E012AF6D085F8796EA168B0
:10A26000184A0A40A26085F8793E85F8796E6368DD
:10A27000A26823F00073C14423F07003636022F0EE
:10A28000800201210023A26089F8791E89F8783EB6
:10A29000BDE8F88395F8782E012AD5D085F8796E37
:10A2A000A168084A0A40A26085F8793E85F8796E6F
:10A2B0006368A26823F47003DBE700BF64CC040882
:10A2C000002C01408800CEFF4829002070B50468AA
:10A2D000A30AA3F58013542B04D82D4E33441D7EBE
:10A2E0000B2D00D970BD2046FFF756FF294BA80162
:10A2F00003EB85150222D5F83C1E85F8792E8D6872
:10A30000254A2A40062A06D0B2F5803F03D00A68C3
:10A3100042F001020A6003440122204983F8792EA9
:10A32000002351F8332094420AD001330C2BF8D18A
:10A33000012100203CF070F9194B01221A6070BD18
:10A3400006EBC306012196F9CD4C96F8CD5C20466C
:10A350003CF062F9002CC5DB114C6B0905F01F02C3
:10A36000012101FA02F21B2D44F8232006D1192005
:10A370003CF052F94FF00073236070BD2E2DB1D127
:10A380002C203CF049F94FF48053636070BD00BF4E
:10A3900064CC040848290020070001002CD90408D7
:10A3A00000E100E037B590F86738032B04462FD161
:10A3B0000023204D8DF807309DF8073094F8682869
:10A3C0009A4201D803B030BD9DF8073005EBC303B6
:10A3D00093F864388BB181F0010383B19DF80730A5
:10A3E00005EBC303D3F86008FDF710FB9DF80730B9
:10A3F0000133DBB28DF80730DEE70B46EDE79DF861
:10A40000073005EBC303D3F86008FDF705FBEDE764
:10A41000D0E910039B7903F00103994204D003B003
:10A42000BDE83040FDF7F2BA03B0BDE83040FDF7BB
:10A43000F3BA00BF403A002038B5044600790D4613
:10A4400050B1FEF7C3F908B10323C380E27929466E
:10A45000BDE83840FDF7BCBC38BD10B5222104462C
:10A46000FFF7EAFF2046FFF741F8BDE81040012161
:10A47000FFF714B810B501210446FFF7DDFF2046B1
:10A480000021BDE81040FFF709B838B510F8133CBB
:10A49000A0F66C041BBB94F858388BBBD4E9092395
:10A4A0009A421CD05A1CA169A262CB5C21695B0054
:10A4B00043F40073A4F85C380A2384F85A38012363
:10A4C00084F8583894F867388A4228BF0022012B54
:10A4D000A26201D0042B02D1606CFFF7CBFF94F88D
:10A4E0005438002B6DD194F855380133DBB2092B69
:10A4F00084F8553825D12046BDE83840FBF7EBBE3F
:10A5000094F95A586DB1B4F85C184B08A4F85C384B
:10A5100001F001012046013DFFF744FF84F85A583D
:10A52000DDE7D4E909239A4284F85858D7D194F842
:10A530006738012B01D0042BD1D1606CFFF78DFF60
:10A54000CDE70A2B3DD194F857382BB9B4F85E38D3
:10A5500043F00103A4F85E382379D9070AD5B4F88B
:10A560005E08820501D4C30718D4B4F864380133F7
:10A57000A4F86438012284F8542894F8572800235A
:10A58000012A84F855381CD1617984F85738606CF9
:10A5900001F00101BDE838403DF0EABCE36AC0F3D8
:10A5A000470013B1216B9847E4E7E3696269D0542F
:10A5B000E369E2680133B3FBF2F102FB1133E361BB
:10A5C000D8E738BD904BD3F80C25012A2DE9F0418E
:10A5D00000F07F828D4A8E4CD2F888308D4943F44A
:10A5E00070038C42C2F8883004D08B4A2046121B7C
:10A5F00042F0EAF8854B89499C600A68884D42F42C
:10A6000080720A60D968874A4FF6FF0001400A430A
:10A61000DA603CF0A1F87C4BD3F80805FBF7B6FEF6
:10A62000814A136803F4C063B3F5806FD2F88030B9
:10A6300023F48073C2F8803060D0734A7B4BD2F829
:10A640000415D3F8A474D3F8A064D3F8988451B156
:10A6500077498B68C96803F00C030C2B6BD0082B6F
:10A660006DD1734B1B68734C71498B68C96803F0DB
:10A670000C030C2B74D0042B76D16D490B684B68FE
:10A6800023F0FE4343F080434B603CF065F8002824
:10A6900040F0B9806649D1F8943043F00103C1F825
:10A6A0009430D4F8A00804E0D4F8A0381B1A022B88
:10A6B00055D8D1F894309B07F6D5D1F8983043F0AF
:10A6C0000103C1F89830D4F8A008594904E0D4F83F
:10A6D000A0381B1A022B42D8D1F898309A07F6D529
:10A6E0008B6803F00C030C2B00F0B9810B6823F08E
:10A6F00080730B60D4F8A0084D4951E013684E49AF
:10A7000023F4C06343F4007313606B68322000FBD2
:10A7100003F3A1FB031351699B0C480503F10103EB
:10A7200006D500E023B15169490503F1FF33F9D49F
:10A730003D4B5B6981E701F00301032991D03C495E
:10A740003C4C0B6843F480330B60D4F8A0080B68D2
:10A750009B0389D4D4F8A0381B1A642BF7D9FEE7E1
:10A7600001F00301022988D031490B6843F480735A
:10A770000B60D4F8A00804E0D4F8A0381B1A022B10
:10A78000EDD80B685A05F7D54B6823F0FE4343F02C
:10A7900080434B607EE7D4F8A0381B1A022BDED82A
:10A7A0000B689B01F7D4C868244A731E024048EA2C
:10A7B0000313134343EA072343F08053CB600B6832
:10A7C0001B4A43F080730B60CB6843F08073CB600F
:10A7D000D4F8A01804E0D4F8A0385B1A022BBED835
:10A7E00013689801F7D50D4B1A68110728D41A6819
:10A7F00022F00F0242F008021A601B6803F00F03F8
:10A80000082B1DD0FEE7AAE70020004000ED00E085
:10A8100000F0012000000008D8F1012000200240D3
:10A82000000000200003FA050070004050180020CE
:10A8300000100240403A002083DE1B430C809F0141
:10A84000B44B1A68920140F1F380D968DA68DB688A
:10A8500001F003010329C2F303120CBFAE49AF4953
:10A860000132B1FBF2F2AB49C3F3062302FB03F35F
:10A87000CA68C2F3416201325200B3FBF2F3A84A44
:10A88000934206D98B688B6823F0F00343F0800372
:10A890008B60A04B9A6842F003029A60D4F8A0182B
:10A8A00041F2883004E0D4F8A028521A8242A9D894
:10A8B0009A6802F00C020C2AF5D19968994A41F481
:10A8C000E0619960996821F47C5141F4E0619960FC
:10A8D000996821F0F0019960136803F00F03082BC9
:10A8E00000F2A7808B4C904EA36823F4E063A36032
:10A8F000A36823F46053A36038F01CFBA368C3F380
:10A900000313334493F8243E03F01F0320FA03F7A4
:10A910006F603BF021FF002840F0DA80D4F88830E7
:10A92000824A834923F00303C4F88830D4F888307E
:10A9300023F00C03C4F88830D4F8883023F03003B7
:10A94000C4F88830D4F8883023F0C003C4F88830C5
:10A95000D4F8883023F44073C4F88830D4F88830B1
:10A9600023F44063C4F88830D4F8883023F440538B
:10A97000C4F88830D4F8883023F44043C4F88830D1
:10A98000D4F8883023F44033C4F88830D4F89C30AD
:10A9900023F00303C4F89C30D4F8883023F04073CC
:10A9A00043F00073C4F88830D4F8883023F0406353
:10A9B000C4F88830D4F8883023F0405343F0005373
:10A9C000C4F88830D4F8883023F0404343F0004383
:10A9D000C4F88830A36B43F48073A363A36B23F4A0
:10A9E0008073A363534B5A601A6822F4FE4242F408
:10A9F00000521A601A6842F060021A60494A1160F7
:10AA0000D3F80435A26802F00C02082A05D00C2AFB
:10AA100043D0424B042A18BF3B463E4A9268C2F3D9
:10AA20000312164496F8242ED3406B60BDE8F081E3
:10AA3000E8E6136823F00F0343F008031360D4F82B
:10AA4000A01841F28830136803F00F03082B3FF47D
:10AA500049AFD4F8A0385B1A8342F4D9D2E6CB6868
:10AA600003F0030188457FF47AAE013E03F0F00263
:10AA7000B2EB061F7FF473AE03F4FE42B2EB072F76
:10AA80007FF46DAE03F07842B2F1805F7FF467AE81
:10AA900013F0CC6F3FF4A7AE61E6E168E26801F025
:10AAA00003010229C2F3031202F1010208BF1B4B8A
:10AAB000B3FBF2F3174AD168D268C2F34162C1F323
:10AAC0000621013201FB03F35200B3FBF2F3A4E7CA
:10AAD00098E6104A184C0021C3F80C15D4F8A018B9
:10AAE000136843F48073136004E0D4F8A0385B1A51
:10AAF000022B51D813685D05F7D55368054D43F017
:10AB0000804353600121D4F8A008916041F288325B
:10AB100019E000BF0010024000127A000024F40087
:10AB200000B4C4040020024064CC04087FBB22208F
:10AB30000407040000200040403A0020D4F8A03868
:10AB40001B1A934228D8AB6803F00C03042BF5D1F1
:10AB50001C4B1D4A5A603BF0FFFDE8B94FF480736F
:10AB60002B602B60D4F8A018184B04E0D4F8A02870
:10AB7000521A022A10D81A6812F00072F6D14FF455
:10AB800080504FF0FF31D8609A611962D3F8942059
:10AB900042F40002C3F894204FF0E02300221A612F
:10ABA0005A619A6172B60A490A4A0B68106823F022
:10ABB000070343F001030B6080F30888536898474C
:10ABC000FEE700BF000000200024F4000010024057
:10ABD000000001400000FF1F10B504460220FDF7F1
:10ABE000F3FA042C034628BF00240120FDF7ECFAF9
:10ABF0009C420AD128B10B4A936803F00303032B4C
:10AC000000D010BDD368DB07FBD42046FBF7BEFBAA
:10AC10000028F6D021460220FDF7DEFA72B6FEF7D4
:10AC200007FB00BF0010024010B4EFF311821023A5
:10AC300083F312880D4C0E4BD4F8A4104FF0E02093
:10AC40000131C4F8A4108169C3F8A4180021C3F825
:10AC5000A8180169D2B282F31188D3F8A0285DF850
:10AC6000044B0132C3F8A028704700BF48290020D8
:10AC7000403A002030B4EFF31183102282F312889F
:10AC80004FF0E0220F4894691169C90344BF0121C4
:10AC9000C0F8A8180C4948BF9469D1F8A450D0F85E
:10ACA000A828DBB283F31188D1F8381E4FF47A70EC
:10ACB0002A4400FB01F31B1B30BCB3FBF1F300FB88
:10ACC00002307047403A002048290020134B5B684F
:10ACD000C3F308030BBBEFF31183F3B910B4104BAC
:10ACE000104C4FF0E02CD3F8A420DCF81800D3F877
:10ACF000A4108A42F7D1D4F8A4188842F3D8D3F824
:10AD0000384E4FF47A7101FB04F31B1AB3FBF4F3D2
:10AD10005DF8044B01FB02307047ABE700ED00E04B
:10AD200048290020403A00202DE9F04FBD4F87B060
:10AD30003B7805931BB9012007B0BDE8F08F97F869
:10AD40006C350393B84BDFF8F0B2D3F8A43004931A
:10AD500007F566770BF5387A4FF00009ABF6AC06CD
:10AD6000039B994500F0F680BB69D7F80480D3E9CE
:10AD70003354FFF7ABFF019096F8950C96F894CCFE
:10AD800004F1004139390122542805EB410102FA4E
:10AD900008F205EB4C0301D1A6F89ECC994240F293
:10ADA0002D81B3F800E01EEA020F00F01F81B3F816
:10ADB00002E01EEA020F00F03081B3F804E01EEA60
:10ADC000020F00F02C81B3F806E01EEA020F03F137
:10ADD0000803E3D1A3EB050E99424FEA6E0E40F251
:10ADE0000D81A4EB0E04452C28BF452403EB44043D
:10ADF000A34280F00A8100259C46A8462946CDF84A
:10AE00000890B3F8009009EA0209894518BF023397
:10AE10001AD1B3F8029009EA0209494518BF043370
:10AE200012D1B3F8049009EA0209494518BF063364
:10AE30000AD1B3F8069009EA0209494503F108036B
:10AE400002D19C42DDD802E09C4200F2A480B8F11D
:10AE5000110FDDF8089040F2D880D8F1150200F10A
:10AE6000D4807249019CD1F8D8339E45D6F8A83CCD
:10AE700038BFC1F8D8E3E11A002918DB03F5F42341
:10AE800003F590739C4284BF23460533C6F8A83C63
:10AE9000664B6649D3F8D833052B86BF053BDBB23A
:10AEA000002386F8943C4FF0FF33C1F8D8333AB111
:10AEB00005FA02F2C8F11408012505FA08F5154350
:10AEC0005B4AC5F3C43302EB8303D3F8341E05F0A9
:10AED0001F0302EB8303D3F8343E43EA0133C5F387
:10AEE000441102EB8101C5F3842502EB8502D1F800
:10AEF000341ED2F8342E43EA011343EA022383EAD4
:10AF0000132282EA1212D6F8941B02F00F020F2AC3
:10AF100001F101015AD1B3F5803F57D254284FEACD
:10AF200013131ED0B3F5606FC6F8941B23D0AAF894
:10AF30000C300599049A58460BF004FF09F10109F9
:10AF4000B9F1080F0BF15C0B07F120070AF1140AA5
:10AF50007FF406AF0123012086F8903C07B0BDE8DE
:10AF6000F08FB6F8982CC6F8941B0132B3F5606FD9
:10AF7000A6F8982CDBD12C4991F84D2102EB420226
:10AF800001EBC2024A4492F85D210D2ACFD1802301
:10AF90008AF81E30CDE7A3EB0C0C26494FEA6C0C67
:10AFA0000CF1010C81FB0C91A1EBEC710129B8BFF4
:10AFB00001218D404FF0010C884401390CFA01F158
:10AFC0000D4333F8021C9C4611401AE7542804D163
:10AFD000B6F8983C0133A6F8983CD6F8903BC6F8F2
:10AFE000941B0133C6F8903B0021A3E70233A3EB87
:10AFF000050E99424FEA6E0E3FF6F3AEBCF1000F1C
:10B0000003D00CF1FF3C86F894CC542896D1B6F8C6
:10B010009A3C0133A6F89A3C90E70433DAE606330B
:10B02000D8E600BF5018002048290020000000206A
:10B0300064CC040856555555EC42002070B51F4BA2
:10B0400093F84C2193F84D319A4231D11C48456810
:10B05000002D10DD10F8086B002406B3037F012BD0
:10B0600020D042691368013443F00103A54200F186
:10B07000E4001360F1D1FFF729FE124BD3F85C48CE
:10B08000002C0BDD03F63C0303EBC40419689A881B
:10B09000C86808330243A342CA60F7D170BDFAF70B
:10B0A000DBFFDEE7002380F8D430FAF7D5FFD8E7DE
:10B0B0003FF0CEF80028C9D170BD00BF482900205C
:10B0C00050180020403A00202DE9F047044600685F
:10B0D000217D026802238B401A4209D0A669A04D47
:10B0E0004FF49A7202FB065292F8981811B143601D
:10B0F000BDE8F0879B4F9C49D7F804C091F8B41184
:10B100009A4FC7F8ACCC002900F0A480D2F8B4273D
:10B11000D2F810C01168DCF8002022F00102CCF84F
:10B120000020CA6822F48072CA602A78002ADED021
:10B130004FF49A7306FB03F305EB030A8C49DAF824
:10B14000D4088C4A03EB0109C1B20839A2FB0121E2
:10B15000DAF8B4370909013120F0FF00D3F8008094
:10B160003CF058FD01238AF89838D7F8B43C002BFE
:10B1700000F08280D8F800204FF49A7303FB065346
:10B1800042F08002C8F80020D3F894284FF0FF3135
:10B19000B2F5807FC8F82C1073D000F29680012A97
:10B1A00000F0BA80102A22D1D8F82020D3F8D01885
:10B1B00022F01002C8F82020D3F8C82842EA010083
:10B1C000D8F81820D3F8CC1822F47F42014342EA81
:10B1D0001122C8F81820D3F8C428D8F8203023F05A
:10B1E000A00343EA021343F01003C8F820304FF4E1
:10B1F0009A7303FB06550023D5F8D408C5F87038B8
:10B20000C1B2A3F133330839A3FB013109094A461E
:10B21000013120F0FF003CF0BBFCD5F8D4282068B9
:10B2200053686FF30F0343F016035360136843F042
:10B2300001031360D5F8B427B5F8B8371268D168A0
:10B240000B43D360474B227D5968C7F8B01C0223DB
:10B2500093404CE7D2F8D4C8DCF8001021F001018B
:10B26000CCF80010D2F8B417B2F8B8C70968CA68A9
:10B2700022EA0C02CA6058E7FFF728FDC7F8B40CB1
:10B2800078E7D8F82020D3F8D01822F48072C8F8D4
:10B290002020D3F8C82842EA0100D8F81C20D3F8AF
:10B2A000CC1822F0FF02014342EA1142C8F81C20E8
:10B2B000D3F8C428D8F8203023F4206343EA0223CB
:10B2C00043F48073C8F8203091E7B2F5805F8ED1E7
:10B2D000D8F82020D3F8D01822F48052C8F82020C3
:10B2E000D3F8C82842EA0100D8F81C20D3F8CC18BB
:10B2F00022F47F42014342EA1122C8F81C20D3F80D
:10B30000C428D8F8203023F4204343EA023343F41E
:10B310008053C8F820306AE7D8F82020D3F8D01836
:10B3200022F00102C8F82020D3F8C82842EA010020
:10B33000D8F81820D3F8CC1822F0FF02014342EAD3
:10B340001142C8F81820D3F8C428D8F8203023F0C8
:10B350000A03134343F00103C8F8203047E700BF56
:10B3600050180020001000E048290020403A00203A
:10B37000B8200020CDCCCCCC2DE9F04F864C2378E2
:10B3800087B01BB9012007B0BDE8F08F834BD3F81D
:10B39000A4300493FFF79AFC94F86C350193002BCA
:10B3A00000F0F2807E4AD2F8B43C04F2AC74A0EB18
:10B3B000030902F6AC0B02F68C3A2546002601275B
:10B3C0000594B9F1000F04DBD5F8F0304B4500F3DC
:10B3D000C180714A4FF49A7303FB062393F898389F
:10B3E00003F0FF08002B7DD0AB68A9891A68D5F857
:10B3F00028315C68D368A4B2C4F1160423EA0103BF
:10B40000072CD3606ED9664AD2F8943B0133C2F858
:10B41000943BD5F830310022CDE9028618689E466B
:10B420009446012116E0BCF1140F1FDC16F1080848
:10B4300048BF06F117084FEA28160CEB281C06F146
:10B44000FF38013102FA06F607FA08F88C4248EA9A
:10B4500006020BD306465EF8040F8C42A0EB0606EC
:10B46000E1D8CCF115064FF0150CE8E7BCF1150F4B
:10B47000DDE9028664D14B4CC2F38421C2F344104F
:10B4800004EB810104EB8000D1F8B41ED0F8B40EB7
:10B49000090241EA001102F01F0004EB8000C2F330
:10B4A000C43204EB8202D0F8B40ED2F8B42E0143B9
:10B4B00041EA023181EA112282EA121202F00F02FD
:10B4C0000F2A3DD1C1F30F114FF6FF72914237D0D1
:10B4D000B1F5606F42D0AAF80C10049A4146584664
:10B4E0000BF030FC2846FCF7D5FE019B0136B34239
:10B4F00005F59A750BF15C0B0AF1140A7FF461AF44
:10B500002749059C0122002381F8902C019AC1F85B
:10B51000B43C4FF49A7303FB0243A26894F8B4104E
:10B520001268D4F8E80011F0020F116A04F59A7459
:10B5300014BF41EA80010143A3421162EDD121E72A
:10B540001749D1F8902B0132C1F8902BB6B14FF0CA
:10B550000008C2E7002007B0BDE8F08F0F4A92F85C
:10B560004D3103EB430302EBC303334493F85D31E6
:10B570000D2BB0D180238AF81E30AEE71946582231
:10B58000094841F021F9E2E7054B012283F8902CAC
:10B59000019AC3F8B42CF5E6501800204829002081
:10B5A000403A002064CC0408784600202DE9F84F8A
:10B5B000FFF78CFB2E4FDFF8C4B07D682D4C2E4E6C
:10B5C00082464FF00008002D46DD00231A46E42095
:10B5D00000FB0371013391F8DD109D4242EA010244
:10B5E000F6D142EA08095FFA89F99046DBF804309F
:10B5F000C3F308036BBBEFF3118353BB4FF0E020A1
:10B60000D4F8A4308169D4F8A4209342F8D1D6F8B4
:10B61000A4289142F4D8D4F838CE4FF47A7202FBC1
:10B620000CF0401AB0FBFCF002FB0300A0EB0A0395
:10B63000B3F5FA6F02DCB8F1000FC4D1B9F1000F15
:10B6400004D00D4B93F8952C542A09D04846BDE8F8
:10B65000F88FFFF70FFBE9E7C1464FF00008C5E799
:10B66000B3F89C2C0132A3F89C2C4846BDE8F88F17
:10B670005018002048290020403A002000ED00E04A
:10B680002DE9F0410746FFF721FBDFF86480164CF7
:10B69000164D0646D8F80430C3F3080303BBEFF396
:10B6A0001183EBB94FF0E02CD4F8A430DCF818107B
:10B6B000D4F8A4209342F7D1D5F8A4289142F3D826
:10B6C000D4F838CE4FF47A7202FB0CF0401AB0FB7B
:10B6D000FCF002FB0300831BBB42DBD3BDE8F0811F
:10B6E000FFF7C8FAF7E700BF48290020403A0020DA
:10B6F00000ED00E02DE9F843DFF8B080294C2A4F37
:10B70000461E4FF0E025D8F80430C3F30803002BA1
:10B7100044D1EFF31183002B40D1D4F8A430A969B0
:10B72000D4F8A4209342F8D1D7F8A4289142F4D8B1
:10B73000D4F8380E4FF47A7202FB00F9A9EB010934
:10B74000B9FBF0F902FB0399D8F80430C3F30803FE
:10B750000BBBEFF31183F3B9D4F8A430A969D4F883
:10B76000A4209342F8D1D7F8A4289142F4D8D4F871
:10B7700038CE4FF47A7202FB0CF0401AB0FBFCF0AA
:10B7800002FB0300A0EB0903B3F57A7FDCD3013E93
:10B79000B9D2BDE8F883FFF76DFAF3E7FFF76AFA6D
:10B7A0008146D1E748290020403A002000ED00E022
:10B7B00038B5094C04F5407502E00834AC420AD0B3
:10B7C00094F90620002AF8D1204620210834FCF7FD
:10B7D000DBFAAC42F4D138BD943200202DE9F04FB1
:10B7E000874C83B0D4F8B0B094F8B83000910646D6
:10B7F000BBF1000F0BD083F00202BBF80410C2F3C0
:10B800004002120101FA02F2DBF800108A61D4F85A
:10B81000AC703FB1BA8803F001031B0102FA03F3D5
:10B820003A689361013E774DDFF8DCA1F6B2BBF1D7
:10B83000000F08D0DBF80020BBF8043051690B4240
:10B8400018BF1B04936137B13A68BB8851690B423A
:10B8500018BF1B04936101200CF056FCDDF800803A
:10B86000019646466B68C3F30803002B40F0BF8087
:10B87000EFF31183002B40F0BA804FF0E02CD4F8A6
:10B88000A430DCF81800D4F8A4209342F7D1DAF8F9
:10B89000A4289042F3D8D4F8382E4FF47A7101FBE3
:10B8A00002F8A8EB0008B8FBF2F801FB03884FF0A0
:10B8B000E0296B68C3F30803002B40F09580EFF399
:10B8C0001183002B40F09080D4F8A430D9F81810E0
:10B8D000D4F8A4209342F7D1DAF8A4289142F3D8FF
:10B8E000D4F838CE4FF47A7202FB0CF0401AB0FB59
