:020000040800F2
:1010000000200020BD45000831610008356100085E
:1010100000000000000000000000000000000000D0
:10102000000000000000000000000000396100081E
:1010300000000000000000003D6100084161000860
:101040000D4600080D4600080D4600080D46000834
:101050000D4600080D4600080D46000819630008FB
:101060000D460008CD6200080D46000845610008E5
:1010700009620008F56200080D4600080D460008E8
:10108000A96200084D6200080000000069620008C3
:10109000856200087D6200080D4600080D460008C4
:1010A0000D4600080D4600080D4600088162000844
:1010B0000D460008000000000D460008000000007A
:1010C000002243088B4274D303098B425FD3030A87
:1010D0008B4244D3030B8B4228D3030C8B420DD39A
:1010E000FF22090212BA030C8B4202D31212090228
:1010F00065D0030B8B4219D300E0090AC30B8B4266
:1011000001D3CB03C01A5241830B8B4201D38B0313
:10111000C01A5241430B8B4201D34B03C01A5241B8
:10112000030B8B4201D30B03C01A5241C30A8B42FB
:1011300001D3CB02C01A5241830A8B4201D38B02E6
:10114000C01A5241430A8B4201D34B02C01A52418A
:10115000030A8B4201D30B02C01A5241CDD2C309FC
:101160008B4201D3CB01C01A524183098B4201D378
:101170008B01C01A524143098B4201D34B01C01A63
:10118000524103098B4201D30B01C01A5241C308DB
:101190008B4201D3CB00C01A524183088B4201D34A
:1011A0008B00C01A524143088B4201D34B00C01A36
:1011B0005241411A00D20146524110467047FFE7A2
:1011C00001B5002000F0F0F802BDC0460029F7D0BC
:1011D00076E7704703460B437FD4002243088B42D7
:1011E00074D303098B425FD3030A8B4244D3030BAE
:1011F0008B4228D3030C8B420DD3FF22090212BA73
:10120000030C8B4202D31212090265D0030B8B42EE
:1012100019D300E0090AC30B8B4201D3CB03C01AD8
:101220005241830B8B4201D38B03C01A5241430BB3
:101230008B4201D34B03C01A5241030B8B4201D3A3
:101240000B03C01A5241C30A8B4201D3CB02C01A0E
:101250005241830A8B4201D38B02C01A5241430A86
:101260008B4201D34B02C01A5241030A8B4201D375
:101270000B02C01A5241CDD2C3098B4201D3CB011C
:10128000C01A524183098B4201D38B01C01A5241CB
:1012900043098B4201D34B01C01A524103098B42CF
:1012A00001D30B01C01A5241C3088B4201D3CB00BA
:1012B000C01A524183088B4201D38B00C01A52419D
:1012C00043088B4201D34B00C01A5241411A00D24D
:1012D00001465241104670475DE0CA0F00D04942B6
:1012E000031000D34042534000229C4603098B4226
:1012F0002DD3030A8B4212D3FC22890112BA030AAE
:101300008B420CD3890192118B4208D3890192112F
:101310008B4204D389013AD0921100E08909C309B4
:101320008B4201D3CB01C01A524183098B4201D3B6
:101330008B01C01A524143098B4201D34B01C01AA1
:10134000524103098B4201D30B01C01A5241C30819
:101350008B4201D3CB00C01A524183088B4201D388
:101360008B00C01A5241D9D243088B4201D34B00A3
:10137000C01A5241411A00D20146634652415B10E5
:10138000104601D34042002B00D5494270476346C6
:101390005B1000D3404201B5002000F005F802BD0B
:1013A0000029F8D016E770477047C0460448054B3F
:1013B00010B5834203D0044B002B00D0984710BDDA
:1013C0009804002098040020000000000648074907
:1013D000091A8B10C90FC91810B5491003D0044B56
:1013E000002B00D0984710BD9804002098040020DE
:1013F0000000000010B5074C2378002B09D1FFF73F
:10140000D5FF054B002B02D0044800E000BF0123AC
:10141000237010BD08090020000000009C63000834
:10142000054B10B5002B03D00449054800E000BF70
:10143000FFF7CCFF10BDC046000000000C090020E3
:101440009C630008F0B54E464546DE465746D44BF1
:10145000E0B5D96F1D88D34E89B2481BD24C80B2FB
:10146000368842098BB020806280864200D3CFE06C
:10147000CE4E3688864200D8CAE0CD480600099094
:101480000020308058689E68401BDD6880B2AD1B2C
:10149000ADB2AA42AD416D421E69A846A5605D6924
:1014A00082428041AD1BADB2AA42AD416D429E6900
:1014B0000695E560DD694042AD1BADB2AA42AD4183
:1014C0006E4205965D6A26611E6A0790AD1BADB23D
:1014D000AA42AD419E6A6F42DD6A0497AD1BADB270
:1014E000AA42AD416D421E6B0395A5615D6B6761BC
:1014F000AD1BADB2AA42AD416E420296DD6BE66114
:101500009E6B6060AD1BADB2AA42AD416F420197C8
:1015100027621E6C5D6C9F6DAD1BADB2AA42AD41E2
:101520006D429E6CAB466562DD6C986EAD1BADB2D4
:10153000AA42AD416D421E6DAC46A5625D6DAD1B0C
:10154000ADB2AA42AD416D42AA46E562DD6D1E6EA6
:10155000EF1B5D6EBFB2AE1BDD6EB6B22D1AADB223
:10156000AA42AD41684281465D6FA063186F9B6FD0
:101570002D1AC91A89B2ADB2BA42BF41B242B641C0
:10158000AA42AD418A429241079804995342424689
:101590004140584608932364039B41405A4013003E
:1015A00060464340C9009B00019A0B4305997F4266
:1015B0005140524627634F401F430299069B764293
:1015C0004B4053405B001F434B4666639B00F60055
:1015D0001E43089B6D421E43E563764B6D009946A2
:1015E0001B783543744E002B03D13378002B00D188
:1015F00072E03378002B02D00F235D1BEDB2BD42A9
:101600000DD05422A35A0133A35248230022E2549E
:101610000BB0F0BCBB46B246A946A046F0BD0023C5
:10162000099A13804622A35A0133A352236B012B3C
:1016300001D1624A13704246079B52029B02134338
:1016400052461343069A482112021343059AD201C7
:101650001343049A92011343039A52011343029ACB
:1016600012011343019AD20013435A4692001343C6
:10167000624652001343625C002A1CD12F2B4FDDBF
:101680004D21615C00295ED14D4D2B78002BBFD0E0
:101690004C4A1278002ABBD14A461278002AB7D0A9
:1016A0005022A15C994267D0A354052B6ED94E23DA
:1016B0000122E254ACE7012A40D0022A39D0032AA1
:1016C000A6D1252BA4D14C2047323F4BA25A205CF7
:1016D0009854002363549BE703F092FC002808D041
:1016E0004422A35C0133DBB2A354642B01D9012350
:1016F000337063680793A3689846E3680693236989
:10170000059363690493A3690393E3690293236ACE
:101710000193636A9B46A36A9C46E36A9A4668E71C
:10172000591E2E2917D82949254DDBB20A802B7066
:10173000AEE74A32A3540323635469E74932A35204
:101740000223635464E721499BB20B801C4B1A703F
:101750004E23E2545CE7002B96D14F22A25C012A73
:1017600001D14C32A35400210022184B1980144B94
:101770001A704E23E2544BE7052B07D94E21625CC9
:101780000132D2B26254052A00D841E74E2200212C
:10179000A154242B21D80E4A9B00D3589F46C04603
:1017A00008080020F407002098040020840400208A
:1017B000C40600208C060020E1060020BA060020A6
:1017C000FC060020740600201C070020760600207E
:1017D000B463000801222E4B1A702E4B2A781A701F
:1017E00000232B7014E748230122E254F5E72A4A2C
:1017F0002A4B527C1A70F0E7274A284B517C012271
:10180000521A1A70E9E751230022E25402330132DE
:10181000E254E2E701235122A354D218A3544E33D9
:10182000E35C012BD9D1053AA354D6E700F03EFC86
:10183000194A174B527C01321A70CEE70122164B1F
:101840009A74CAE70022144B9A74C6E70122124B1D
:101850005A740022114B1A70BFE700220E4B5A74C3
:101860000E4B01321A70B8E701220D4B1A70B4E723
:101870000522074B1A70B0E70422054B1A70ACE73B
:101880000322034B1A70A8E70222014B1A70A4E747
:101890008D060020FD0600201C07002014010020FA
:1018A000E6060020F8B5CE464746522380B5BB4C2D
:1018B000E15C0133E25C023BE35C002B0AD058237D
:1018C0009846230058339D79AC46002D00D178E02E
:1018D00000259D71002934D052230021E154002AB3
:1018E00000D1A8E053230022E254AD4BAD4A2100C1
:1018F000012058318871A366AB4B62661F78AB4BF1
:1019000040229C4661467B1C9B00CA506346BF0038
:101910000433D95963460126D8192D3A350095402C
:10192000A36E89092B40D34059408901816004305E
:10193000013AF3D200236246D351C0BCB946B04647
:10194000F8BD002ACED19A4B1B78002B76D0C3135A
:10195000012B00D1FEE08313012B00D1F8E04313EB
:10196000012B00D1F2E00313012B00D1ECE0C312F4
:10197000012B00D1E6E08312012B00D1E0E04312FD
:10198000012B00D1B9E000230F21020A23660309CD
:1019900053400A004340874D9A4300010243000B25
:1019A0002B5C08001040285CDB0303431012084046
:1019B000285C8002034310110140695C49010B431C
:1019C00099E75E8847460136B6B2B1465E80464624
:1019D0009D88E75B01350137ADB2BFB29D80A7534B
:1019E000272D30D974480025405F65469D80002929
:1019F00000D071E7002A00D074E76431FFF7EAFBFA
:101A0000C022FF23D20018401300034306201A000F
:101A1000190941404A400F210800904302000D007F
:101A20001B0164481A431B0A0B40C35C1540465D0A
:101A30009B02B02558E0614B614A58E70721614B92
:101A4000614A216657E74D46C72D25D965465F484F
:101A50005D800088002900D03EE7002A00D041E7E1
:101A60001931FFF72DFBFF23184080230421DB00F1
:101A700003431A094A400F2108005A4090430200CC
:101A80000D001B014B481A431B0A0B40C35C154059
:101A9000465D9B02E82527E0C72F00D81AE7654678
:101AA0004B4BA5531B881BB2002900D014E7002A1A
:101AB00000D017E78022FF31920019401300022066
:101AC0000B431A00190941404A400F210800904376
:101AD00002000D001B0137481A431540465D902552
:101AE0001B0A0B40C35C9B022D0335432B4315118E
:101AF0002940415C49010B43F9E6092108390841B5
:101B00004B02184383B21D0A1A096A400F2553403D
:101B10002A002E009A430001024326481313C35C97
:101B20001640865DDB03334316122E40865D216628
:101B3000B602334316113540405D40010343DAE6F7
:101B40000A21DBE70B21D9E70C21D7E70D21D5E7E7
:101B50000E21D3E7E02212011300C01103430F2529
:101B60000F211A0018096840424008009043020003
:101B70000D001B010F481A431540465DF0251B0A56
:101B80000B40C35CED0235439B022B4315112940EA
:101B9000415C49010B4307212166ACE69804002013
:101BA000FB3D0700F1EF00000508002008050020BC
:101BB0007406002048640008BC0600203B6707004C
:101BC00001E00000F9BD0700F0FF0000B6060020AC
:101BD000E206002070B50600049D8E420CDC0FE08A
:101BE000AB420FD08C18581964104010A14206D097
:101BF000A64209DC050022009642F1DB280070BDF8
:101C00009642FBDA1800FAE70300611CE5E7C046DC
:101C10000300401A00D5C81A7047C046044980B274
:101C20004A6A92B24B6A9B1A9BB28342FAD37047BC
:101C30000048014010B5441E00280BD0FA20064988
:101C400080004A6A92B24B6A9B1A9BB28342FAD3D3
:101C5000013CF6D210BDC0460048014070B50400FA
:101C60000D1E63D000220020072128E04000C6B2EC
:101C700040B200282EDB7600F0B276B2002E2FDBC9
:101C80004000C3B240B2002830DB5B00D8B25BB288
:101C9000002B31DB4000C3B240B2002832DB5B00D6
:101CA000DEB25BB2002B33DB7600F0B276B2002EF0
:101CB00034DB01324000D3B2C0B29D4235D9A35CBF
:101CC000584046B2002ED1DA76004E4070B2F6B2DD
:101CD0000028D0DA43004B405EB2D8B2002ECFDAF3
:101CE00076004E4070B2F3B20028CEDA4000484091
:101CF00043B2C0B2002BCDDA5B004B4058B2DBB22E
:101D00000028CCDA46004E4073B2F6B2002BCBDA94
:101D10005800484046B2C0B2002ECADA76000132FE
:101D20004E40D3B2F0B29D42C9D870BD0020FCE74E
:101D300070B504AC25880A4C2070A170080A110AFD
:101D40006070E1702271A3711A0A09212B0A200028
:101D500025726271E371FFF781FF607270BDC0464A
:101D60009C05002010B5064C30222000054904F0E7
:101D70000BFB30212000FFF771FF3023E05410BD32
:101D80009C0500201C070020F0B5C64600B5BB4CE2
:101D9000BB4DC0222000296882B003F029FA637885
:101DA000022B67D8A02363719F3BE380B54B0126CC
:101DB000A36000239846E3602374E37D10222A2B5E
:101DC00002D8191F05295FD8AF4F3A70227E130041
:101DD000083BDBB2882B67D8642006215043FFF70D
:101DE000F9F90100A948FFF7F5F9A94BA880D862D5
:101DF0004346312B36D8B300F3185B001A009132FA
:101E0000FF3292B22B81617E08003238642801D8FB
:101E1000CB189BB2AA8128226B81A37E0220534358
:101E20001433EB8102F0C2F96378002B41D1EE89C3
:101E3000FA239B0098469621F53BFF3B0093300028
:101E40004346944A4900FFF7C5FE4C23E852A37C61
:101E5000002B0BD04346BB60237D3B7302B080BC9C
:101E6000B846F0BDC82200235200CBE7FA23DB00BE
:101E7000BB60F1E7637B092B01D900236373A6796B
:101E8000731EDBB2984698E7032B00D9E8E0DB002D
:101E9000DAB213007C4F0A333A70227EE3751300E6
:101EA000083BDBB2882B97D97B4B794AEB80D36216
:101EB0009EE7A07F0B2800D87BE0052002F076F992
:101EC0002023E35C754A7833FF335B002B822123A8
:101ED0009446E35C724A63445B006B82222394461F
:101EE000E35C00226344AB822323E35CAB752523D0
:101EF000E35CFA332B832723E2542832A35C053BAF
:101F0000142B01D90523A3542922A35C013B092BDF
:101F100001D90A23A3542A23E25C511E08292DD992
:101F20000A22E2542B22A35C463B462B01D9FF2315
:101F3000A3542C23E35C013B632B01D801237B706A
:101F40002D22637A5B002B62A37A6B62E37A5B00DB
:101F5000AB62A35C013B092B01D90523A3542E23BB
:101F6000E35C092B28D8022B77D000D97BE0002B2B
:101F700023D001234B4ABB70137023E053019B1AFB
:101F80009B009B1A4E2250215B003D3BDBB2AB54C1
:101F90006A899A186A812A899A182A816A5A9A182B
:101FA0006A52AA899A18AA81394A516C0B43536420
:101FB000B8E702F0FBF883E700230122BB70FB7057
:101FC000384B1A706079092831D809233B713B33AB
:101FD000E8540133E8540133E854EE89142E02D852
:101FE00047230022EA54E17E00291AD02020FFF77F
:101FF000F1F88046002814D064213000FFF760F823
:10200000414680B2FFF7E6F848230C21E852300041
:10201000FFF756F8414680B2FFF7DCF84A23E85252
:1020200006E700234822AB520232AB5200E70023FE
:102030000A213B71FFF744F84423EA5CC0B29042A6
:1020400000D2E8544523EA5C904200D2E85446238B
:10205000EA5C9042C1D2E854BFE70123FB70B1E7CC
:102060000A3BDAB2B0E6042BACD1012200210E4BC0
:10207000BA701A700B4B1970A4E7C0461C070020F9
:10208000C00000200A640064D005002070330C00FA
:10209000002C0140B80B0000CF0700006B030000CC
:1020A0005E050000E5040020E704002010B5034BA6
:1020B000C0211A68024803F005F810BDC0000020D6
:1020C0001C0700205423552170B5264CE25C635C4C
:1020D000012A2FD05A1ED2B2002A23D062540122E4
:1020E000214D13405222A35472B67D23EB5C002B8A
:1020F0002ED062B602F0C2FFAA681C4BF5321968F6
:10210000FF328A4202D256220121A15400227A21B2
:102110006A541A715532A25CA16D013A52009B18A3
:10212000198170BD062301220F4D63547633EA54A2
:102130007B3BD7E70133DBB2062B0ED80A4D635445
:102140001A405223E25472B67D23EB5C002BD0D1AF
:102150005533E05C03F0D2FCCBE77C23024D6254A4
:10216000EA54EEE7C0000020D00500205006002011
:1021700001211B4A10B5D3688B43D360FFF7A2FF40
:10218000184C194AA38AE08A916D1B185B105B18E2
:102190002F215B089365154B5B5C002B17D114490D
:1021A000936D09784B439B099BB2916D63834908FA
:1021B000CB1A9BB2A3835623D35C002B0DD0226A8B
:1021C0000C4B9A4202D8236A0133236210BD936DEF
:1021D000217E4B439B099BB2E7E702F045FFEEE708
:1021E0000020004050060020C00000201C070020F6
:1021F000D00500200F270000F8B55C23154DEB5CDF
:10220000002B0DD0002452265C2703E0EB5D013447
:10221000A34205DD02F004FFAB5D9842F6D1F8BDA4
:1022200072B602F013FF802000210B4AC005D38A4A
:102230009BB29382436A9BB2D382084B416259623C
:10224000928B0132DA621961DA6801310A43DA608D
:1022500062B6E4E7C00000205006002000200040E5
:10226000F0B5D6464F464646C0B5C34D82B0AB7CAE
:10227000002B57D02623C14FE85CBA78C04E002A05
:1022800000D1F3E0BF4C2623EB5C002B00D1C5E16D
:102290008323E28CDB009A4215D35423697CF25CE1
:1022A0008A4200D1FAE27D23FB5C002B0BD12A236A
:1022B0000022E254B44AE38C94465D225B00B25C97
:1022C00063449B1A23858323E28CDB009A421AD253
:1022D000E38C2F2B17D95422B35C697C9C460123D5
:1022E000581A844501D100F0B7FB7D23FB5C002B1D
:1022F00009D12A230022E254E38C5D32B25C5B00F8
:10230000313B9B1A2385E38C2F2B0FD80023238589
:102310007D33FA5C002A09D00022FA540122533B93
:10232000E25403E0974C964EE38C238530275E23DE
:10233000E25DF35C9A4203D9AB7D002B00D012E141
:10234000EF7C002F00D179E02823208DEB5C1D2845
:1023500000D9F7E0002363862823EB5C9900C918B5
:102360008900884200DBF7E02E23E35C002B5FD17D
:102370003C33E35C002B5BD0EA7C608E93009B18BF
:102380001B012E33834200DB7DE12427E35D002B1C
:1023900000D11BE33389002A00D138E2FA22D200AF
:1023A000283300928921794AFFF714FC83B29846BA
:1023B00040234246E2521A3BEB5C002B00D016E26F
:1023C0007D226E4FBB54E97C628E8B005B181B0133
:1023D0002E339A4200DC57E11E23687F216A0341B5
:1023E0008B420BD97389434502D9402198466352E9
:1023F000B389434502D240219846635264494B8ACF
:10240000434502D24020984623527B78002B04D0CB
:102410001423CB5E984500DD18E2E06C002807DD50
:102420002F2A05D95B49FEF7D5FE40234044E052F0
:1024300002B0E0BCBA46B146A846F0BD3423E35C26
:10244000002B00D17BE03523E35C002B00D025E19D
:10245000A06B5049FEF7BEFE802380B260861B0150
:10246000984200D283E1494B63867DE7FA218900D7
:102470008946B37D434C5B009944002800D18BE032
:10248000E08C48451BDD687C80465420315C8C46DE
:10249000414500D181E27D22BA5C002A0FD12A2376
:1024A0000022E254FA22E08C384B4946009380B275
:1024B0002F23D200FFF78EFBB37D20855B00FA222D
:1024C000E18C9200D21A91421FDA697C8C46542129
:1024D0008A46715C604689460121081A814500D10F
:1024E00012E27D21795C00290FD12A230021E08CA2
:1024F000E1540533009380B2244BFFF76BFBFA22C3
:10250000B37D92005B002085D21AE18C914211DBF1
:10251000FA2189008C46E28C63449A420ADC00234B
:1025200023857D33FA5C002A04D00022FA5401226C
:10253000533BE254BB78002B00D1F7E6A3E6238D92
:10254000638611E71E2800D106E79A00D218920090
:102550001100824200DDBAE00C4AA0230092FFF78E
:1025600039FB608600E703F085FA02F06FFD002377
:1025700063866633E355F7E61C070020D00500208C
:10258000C000002050060020FFF7FFFFFF070000FB
:102590004001002010270000E28C4A4512DD542241
:1025A0006B7CB25C9A4200D1D8E1FA22E08CC34B3A
:1025B0004946009380B22F23D200FFF70BFBB37D77
:1025C00020855B00FA22E18C9200D21A914215DA42
:1025D0005423697CF05C533B5B1A984200D1A2E122
:1025E0002F23E08C0021009380B2B44BFFF7F2FA66
:1025F000FA22B37D92005B002085D21AE18C9142D1
:1026000098DBFA2189008C46E28C63449A4291DC83
:102610000023002223852F33E2548BE78323E28CAF
:10262000DB009A420ED354226B7CB25C9A4200D1FA
:1026300052E1A34AE38C94465D225B00B25C6344A2
:102640009B1A23858323E28CDB009A4211D2E38C10
:102650002F2B0ED954236A7CF15C533B9B1A994271
:1026600000D1E5E15D22E38CB25C5B00313B9B1A5B
:102670002385E38C2F2B00D958E6002300222385E5
:102680002F33E25452E68F4F3D23E35C002B2CD0D6
:10269000052B27D88C4A9B00D3589F46726E336E09
:1026A0002F21208D0092854AFFF794FA0100874878
:1026B000FEF790FDE97E4908FEF78CFD238DE0864C
:1026C0002E2B00D9C4E66786B766A7634CE6A02325
:1026D0001E210093713BFFF77DFA6086208D3BE65B
:1026E00001F0D0FE3D230022E25424232A7DE35C46
:1026F000002A42D140216252002B00D093E0563292
:102700003F39B15423622B7F002B00D089E07D2319
:10271000FB5C002B00D1CDE12623EB5C002B00D12C
:1027200086E6BB78002B00D1ADE18323E28CDB0091
:102730009A420AD2E38C2F2B07D95D22E38CB25C3C
:102740005B00313B9B1A4222A3528323E28CDB00C5
:102750009A4200D3BCE14223E35A5D4A934200D837
:10276000A2E103F081FB7D23FB5C98463BE02F2830
:1027700000D9F9E530236386F6E5002B6CD0EA7CBE
:102780007D23FB5C984655233C21F35C013B4B4386
:102790005049098A5B18B42198B21BB249008B4298
:1027A00004DB0300693BFF3B98B21BB24421635238
:1027B0000100B42377315B0009B29C46994200DBEB
:1027C00012E1233BFF3BE1520300EF331BB26345B1
:1027D00000DB0DE148216352012A01D12E23E2548E
:1027E00040230022E2524346002B27D020E6E97C1A
:1027F000628E8B005B181B012E33934200DB42E795
:102800007D23304FFB5C002B00D011E6E4E5FA227B
:10281000D20000922F21294AFFF7DCF983B29846B3
:10282000C6E503F021FB7D23FB5C98462623EB5C89
:10283000002BD8D04346002B00D072E74023628E95
:10284000E35A98462E2A00D8D8E5C5E59BB29846AB
:1028500040234146E152E0E556220121B1542532A0
:102860002362BB542B7F9846002B00D102E1EA7C07
:10287000002A85D1012B00D082E72923C822EB5CF6
:102880005343863AA352124A934200D82CE103F0F4
:10289000EBFA7D23FB5CEA7C984674E7002101207B
:1028A00021857D3178542930205C002800D10AE54B
:1028B0000120821AF25400237B54F8E4FF07000041
:1028C000FFF7FFFFD005002058640008008793033E
:1028D000CE070000400100204C21B26D715A914298
:1028E00000D388E0A28DC72A00D984E00122D31A40
:1028F00054220027B3545623533AF254276202F06D
:10290000A5FB2F23E75494E6002020857D30395421
:102910002931615C002900D1F7E5634651467354C3
:1029200000233B54E1E54C20B36D305A984271D2FC
:10293000A38DC72B6ED800230122984623625633FD
:10294000F254023BF15402F081FB2F234246E25441
:10295000FA22B37D92005B00D21A41E64C20B26DA0
:10296000305A90424ED2A28DC72A4BD80122D31A98
:102970005422B35400239846533A23625633F254F8
:1029800002F064FB2F234246E254FA239B009C464C
:10299000B17D49006144894607E6012122857D22F7
:1029A000B9542931615C002900D188E501236146D1
:1029B0005B1A33540023BB5471E501F0F1FC91E63E
:1029C00001F0C4FD8EE601F08FFD8BE603F052F8B6
:1029D0005623F35C002B25D024230122E254738973
:1029E000608EE387EA7CD5E403004621F13B635225
:1029F000793803B2EEE62E22A25C002A00D075E7F9
:102A0000E28416E62E22A25C002AAFD1FA239B00B4
:102A1000E384CAE52E23E35C002B8CD1FA239B00D0
:102A2000E384DDE5E35D002B47D002F01DFBD3E737
:102A30004C21B36D715A99421FD2A38DC72B1CD85C
:102A4000562301210027F154023BF254276202F081
:102A5000FDFA2F23E75405E6002020857D303B5406
:102A60002933E35C002B00D14DE40023B1543B54E7
:102A7000FFF73FFC02F0FEFF81E62E23E35C002B14
:102A8000DED1E384EEE5FA20E18C800089B2FFF725
:102A9000BFF8FA2342229B00C3189BB2A352BA7814
:102AA000002A00D159E640E602F0A4FF7D23FB5C3A
:102AB000984698E602F0DEFFB5E6FFF703FB0E4B03
:102AC0000E4AB3658023DB055A620123E355ACE768
:102AD0000B4AE38C94465D225B00B25C63449B1A14
:102AE00042229BB2A35238E602F084FF42467D2385
:102AF000FA54EA7C47E6C04610270000881300001D
:102B0000FFF7FFFF70B550250F4C635D012B12D00E
:102B10005023E35C022B02D0FFF7A2FB70BD8023A1
:102B2000606D5B0298420BDA80B2FEF7BBFE502369
:102B30000022E254F2E7FEF785FC00236355E7E745
:102B40000248FEF7AFFEF2E750060020FFFF00004C
:102B5000F0B54646D6464F4654224423C0B5494EAA
:102B6000494CB25CE35A002A1ED1013369321BB2D0
:102B7000FF32934200DB7DE01A004421635246237A
:102B8000E35A253101331BB2FF318B4200DB0023B6
:102B9000462163524823E35A233101331BB2FF31EC
:102BA0008B421BDB002319E0013B1AB21B0400D54A
:102BB00063E01300442163524623E35A013B19B2F8
:102BC0001B0401D56821FF314623E1520233E15A4B
:102BD00001390BB2090401D56823FF3348218A4625
:102BE0006352FA21294F5200D35F294AB088914697
:102BF000D28AC9009B185843FEF7ECFA2D23254DC5
:102C00009846EB5C0A215843FEF7E4FA80B202F0E2
:102C100029FE4623E35EFA215B00DB5F4A46D28A47
:102C2000B0889B185843C900FEF7D4FA4346EB5CC2
:102C30000A215843FEF7CEFA80B202F019FE53463D
:102C4000E35EFA215B00DB5F4A46D28AB0889B18BC
:102C50005843C900FEF7BEFA4346EB5C0A215843CD
:102C6000FEF7B8FA80B202F009FEE0BCBA46B146FF
:102C7000A846F0BD002300227FE76823FF331A0037
:102C800098E7C046C00000205006002098010020B0
:102C9000400100201C0700208021C9054B6A70B547
:102CA000234C9BB2E3820023224D4B62E08AAA6D43
:102CB000214E53009B181B189B08AB65AB6D3278F7
:102CC0005343AA6D9B099BB252086383D31A9BB2EC
:102CD000A38302E0236A042B03D94A6AA38B9A4296
:102CE000F8D3A38B154A9BB2D362FFF7EBF900230D
:102CF0007A222621B3540132B354236A104A013395
:102D00002362537F525C134304D1AA6DB3689A4285
:102D100008D370BD236A132BFBD9FA23AA6DDB00FD
:102D20009A42F6D856230022EA5402F09DF9F0E7C1
:102D300050060020C0000020D005002000200040E8
:102D40001C070020F8B540235822CE464746602590
:102D5000AF4C80B5E35A615DA385A35A0133A352FA
:102D60000232A35A0133A3520232A35A0133A352AF
:102D70000232A35A0133A352223AA35C0B4304D17B
:102D80006121605C002800D0E2E0A24EF17F0029C2
:102D90000ED06820A04A235A127E0133013A5218FD
:102DA00091009BB28A1823529200934200DD7EE08C
:102DB0002E23E35C9846002B43D12433E35C974DEC
:102DC00099465623EB5C002B43D1954F5E23E25A84
:102DD000142A00D875E06B220121A1540022E2528E
:102DE0007B78002B69D1737F002B00D124E14B4607
:102DF000002B66D0884B9846D1E1A2853C23E35C4A
:102E0000002B00D184E04B46002B00D0E1E07D2375
:102E1000FB5C002B00D08FE0337F022B00D153E10D
:102E2000FA21A08DED88C9006843FEF7D3F970231D
:102E300080B2E052A38DE3877A4BDD6258639863DA
:102E4000D8637422A35A0133A352C0BCB946B0461A
:102E5000F8BD4B46002BB8D002F0F8F802F0E0F8CD
:102E60005223EB5C6E4F002B00D044E1002800D0D1
:102E7000E1E17B22BB5C0133DBB2BB54283AAA5CA4
:102E80009A4201D27A23F8542379002B0BD1522392
:102E9000EB5C002B00D1F6E17A235F4AFB5C527EAB
:102EA0009A4200D2F6E12423E35C99468EE76A2336
:102EB0000122E254002323527AE74B46002B00D034
:102EC0002AE15C233979E05AE28F884200D894E7FE
:102ED0000021E152236A952B00D98AE04423EB5C60
:102EE000DBB248204C490B54A18D891A994202DD6E
:102EF000991889B2A185A18D511A8B4200DB7DE71B
:102F0000D31A9BB2A3853C23E35C002B00D07AE765
:102F10004B46002B00D17AE7638E2E2B00D976E743
:102F2000737B012B00D18CE1022B00D08EE16E224D
:102F3000013B3B73A35473E74223ED88E05A3A49BF
:102F40006843FEF747F97023281880B2E05271E712
:102F5000208D002800D0B4E06226A35B334F0133FC
:102F60009BB2A353BB4200D80FE76423E35A1E2B46
:102F700000D894E10123274EA3542333F35C012BA3
:102F800000D090E1B9216533E75A49003800FEF7D7
:102F900097F8B92360555B0000259F4210D3244B5E
:102FA00060279946234B984601F034FA6420FEF7D7
:102FB00041FE4B4642461A60E35D0135AB42F3DC0D
:102FC000174FFB78BA78134300D0DFE62622B354BC
:102FD000DCE6638E2F2BA0D96E23E25CED88002AFD
:102FE00000D11DE10022E254337D3B737023E05A8F
:102FF00020E7952A00D871E7FA2321685B009942FF
:1030000000D809E1B03BFF3BEB5CDBB269E7C046AF
:10301000500600201C07002040010020C0000020B6
:10302000D0050020002C014030F8FFFF204E0000AA
:1030300000300040AAAA00003423E35C002B00D13A
:103040003FE74B46002B00D13BE7E38E616D2A6FD3
:10305000C91A88234A43A86FEB581218A9669A42E6
:1030600000DD1A005B429A4200DA1A00802398467B
:10307000E8586B6F081A43439C46EB674346E95098
:103080000C33E858EB6EAA674B4363449B188342AA
:1030900000DD03004042834200DA03008422AB508B
:1030A000A26BD318DA43D2171340804A934200DD53
:1030B0001300A363236A632B00D902E70023AB67E5
:1030C000FFE66222A35260E63A33E35C002B00D1B4
:1030D000A6E6022002F012FDFA21307BED88C9003D
:1030E0006843FEF777F883001818702340002D30EE
:1030F00080B2E0529EE6002800D19CE07B22BB5CBF
:103100000133DBB2BB54283AAA5C9A4200D3BBE637
:103110007A234246FA54B7E66C23E25E2C23F15C34
:103120009C334B43D21A6B6AE86A5343E96B1B1812
:10313000EA618B4200DD0B0049428B4200DA0B0052
:10314000686BA96A101A41438C46286A2963504368
:10315000296C6044C018EB626A63884200DD080095
:103160004942884200DA0800514B52499846A86308
:10317000FEF730F843469B8A181A434600B29882FD
:103180002B89984202DA18B243469882FA23DB0070
:10319000984201DD42469382737F002B36D043462E
:1031A00042469B8BA96D4046C91A4346926A006B02
:1031B0004A4319621B6C12189A4200DD1A005B42E6
:1031C0009A4200DA1A004346986B1A63DB6A081ABF
:1031D00043439C464346604699635863586C5B6A18
:1031E0004B4363449B18834200DD0300404283420B
:1031F00000DA03004246D363E26CD318DA43D217F5
:1032000013402D4A934200DD1300E3643423E35C52
:10321000002B00D019E754E64623EB5CDBB260E6F6
:10322000FA21A08DC9006843FDF7D4FF7023013057
:1032300080B2E052FEE57A22BB5C0133DBB2BB54C4
:1032400022E600223A736E32A354E9E5DA1E062A1A
:1032500000D9E5E56E22A15C002909D1023B0432C8
:10326000A3545823134AE2526E230122E254D7E5B5
:103270007223E35C002BF7D1A25C012AF4D1233244
:103280002362A354F0E77A23094AFB5C927E9A42B8
:1032900000D308E601232371FFF7FEFC03E6A053E9
:1032A0006054064E72E501F0B5F889E6F058380131
:1032B000400100201027000060E316001C070020DA
:1032C000F0B5DE464E4657464546E0B585B001F0BE
:1032D000C3FFFE231B01BA4A1968BA4E914205D1B9
:1032E000B94A5968914201D100F04BFC02F09AF9B9
:1032F00002F0DAFAFEF748FDB44FFB78022B04D156
:103300003B79152B01D100F098FC0223FB7013339D
:103310003B71C021113B380032687B7001F0D2FE56
:103320007B7C013B5A1E93415422B354B388F380F3
:103330003B7D002B00D1FB742623FB5C002B01D0CE
:1033400000F02CFCA24B9B46A24B984600F0E2FFFB
:1033500064230022A04CE25202F038F89F4BA04AAE
:103360001A6001F0BDFD3523E35C002B02D034234D
:103370000122E2549B4A9C4D13681B051B0D1360F0
:10338000A367136880221B0C5201E36793429B41A1
:10339000E62213402B7001F039FE628923899B18C5
:1033A000A2899B18E2899B18228A9B18628A9B1823
:1033B0000433226A5B1063650223042A03D8BB7CB2
:1033C0005A4253410333424653769376834B844AA1
:1033D0001A607B7D012B00D18DE2022B00D143E2EC
:1033E0007423824AE35A93420BD93C229146A25C51
:1033F000D1B2002A00D0A2E37D4A934201D900F065
:10340000EBFB582399464A467A4BA25A9A4212D964
:103410006C23B421E05E49000004FDF7DBFE6B681D
:103420004A46C0180023A3521A32A35C6860002BDE
:1034300001D0013BA354FA22216A238D92009142CC
:1034400000D9E9E1002B00D0E9E13022A3542A7A27
:10345000236A002A00D132E230230022E254032101
:10346000606DFDF7B7FE7C235A46D35C2060002BCD
:1034700003D0236A0A2B00D98AE26B7C002B00D18F
:10348000C2E0B36D782B00D8BEE0C2215A4B890050
:103490005A58C4201202120A5A50802180001A5829
:1034A000C9051202120A0A43C3211A50FF208900DB
:1034B0005A588243BF3802435A506A239946E35C04
:1034C000DAB29246002B00D0BBE0AB7D002B00D0DF
:1034D00009E26B23E35C012B00D1CAE02E23E25CFE
:1034E0000023994649462733E954002A00D057E182
:1034F000616D4248FDF76EFE2423E35C0A215843C8
:1035000080B2A882FDF7DCFD4723F35C80B22885FA
:10351000002B00D028E2FA20C00043462B2258821C
:103520006B8AB95C1BB28B4200DDF2E1236A632B2C
:1035300005D8FA23B26D0C205B009A4209D80C23FF
:10354000FA222068642100935200093BFEF742FBF7
:10355000C0B25C23B26DF054312A01D80222F25479
:103560002F23FB5C002B00D044E28023DB055A6A4A
:10357000234B9A4200D810E700239A4652466E33F6
:10358000E2544A3B9946E35C002B00D105E7303218
:10359000A35C0133A3545A463B7D137301F056FDDF
:1035A00056230122F254638E2F2B04D84B465246E9
:1035B000E254144BB36500232362FFF76DFBECE686
:1035C000DAE32559C0000020D963B84E1C0700205B
:1035D000D0050020400100205006002000300040AF
:1035E000AAAA000000580140D006002010270000C1
:1035F000409C0000204E000000E100E0C0270900D0
:10360000C8AF000088130000C2208021CA4B800090
:103610001A58C9051202120A0A43C4211A50FF207F
:1036200089005A581202120A5A5004395A588243D1
:103630005A506A239946E35CDAB29246002B00D1D5
:1036400043E7EB886C229A466621688AAB8AA25AC5
:10365000615A40B200935346FEF76AFB0A2002F01B
:1036600047FD00234A46A3546B23E35C012B00D0A3
:1036700034E701F03BFBB14AB1499368288B0B401A
:1036800004210B439360AF4B1B889A46AE4B190045
:1036900058439946FDF714FD5346C31A9800C018C5
:1036A000AA4B000119885346C91AFDF793FD4B46F2
:1036B0001E3000B268836882A88BA5495843FDF785
:1036C00089FD42464C23D35A64215843FDF782FDBD
:1036D0006622A15ACB005B1AC018C310A3525A46E7
:1036E0009A465B46D2895B7B94465A4659001069DC
:1036F00059448A8A60440391801A3121002201339F
:10370000DBB29942524152421340624603998A8287
:103710005A46322153731061FDF7D2FC7822594684
:10372000030488524846CD211B0C58432B62890064
:10373000FDF750FD03B2DB43DB1718406C23E0526A
:10374000483BFB5C012B00D189E1022B0BD13222DB
:103750003B7A5A4353461B041B0C9A4200DC88E117
:10376000AB8C0133AB842E23E25C99469000801829
:1037700003011B1A58011B1876489B0084465B42C4
:10378000A98C6344994200DD7AE16B230021E15466
:103790000023994649462733E954002A00D1A7E679
:1037A000638E302B49D93C22A25C002A45D00122ED
:1037B0006B21313B6254572B00D983E12A239A466F
:1037C000EB5C002B00D027E2FFF7C2F9FB7E6248DA
:1037D00019009946FDF7FEFC628E494603905F484A
:1037E0009246FDF7F7FC30217822039B009050466B
:1037F000FEF7F0F95023994643464A469852000492
:10380000000CFEF70BFA43464A469620995A800070
:10381000FDF7E0FCA882C0E530220021A154226A15
:10382000642A3ED9C72B4ED92A7A002A57D0C822FB
:103830005200934200D312E60EE624220023012117
:10384000A3540632A9543A7F9146012A00D1DDE003
:10385000022A00D1F0E0424A53639363D36302F03B
:1038600009F90023AB8298E52368F92B06D8236871
:10387000642B03D923689A009B18F3802368632B79
:1038800005D82368002B02D0FA235B00F38023685D
:10389000F92B03D82368002B00D0A1E5314BF3802E
:1038A0009EE5F97C2A7A002930D09F2BBDD83021A3
:1038B00000206054002A00D0CEE5952B0FD85E235F
:1038C0006422F254CBE530220021A154F97C2A7AFB
:1038D0000029EFD09F2BEAD9002A00D0BCE55E2357
:1038E0000A22F254BBE5FEF73DFA312002F000FC5B
:1038F0005346AB75EDE5B288B06D53080092602178
:10390000C822FEF767F9F0807B7D66E5002AD4D0F7
:103910008DE742464E23D35A0A005B08994601239D
:10392000688A0A32009300B24B460A39FEF752F910
:1039300043465882FAE5C04600E100E00024014019
:10394000E8FFFF7FB8F7FF1FE40C0000C2F7FF1F7E
:10395000FF0F000010270000581B00002A03000082
:10396000002C0140E204000050234A22F35A48216F
:103970009946B35A715A9A464E239C46434662462C
:103980009B5A524600934B46FEF724F980B2C4E599
:103990002168E868FEF73CF923685B0898421CD967
:1039A000FA232268DB009A4217D2002323622B7C81
:1039B00001332B74BB7C002B16D1638E2F2B13D9B4
:1039C00024230022E25456230122F254236A642B5A
:1039D00000D9D3E073895B08E3877C230022594632
:1039E000CA542368EB6048E5FA23B26D9B009A4203
:1039F000E9D9E5E71723FA22A08D6421009380B26C
:103A00000A3BD200FEF7E6F82076AEE52933F85CF3
:103A10009F335843863BE052F3888F4958439A4678
:103A2000FDF7D8FB7023504480B29A46E0526328D9
:103A30003BD802F019FA14E7022002F05FF8FA21ED
:103A40003B7BF088C9005843FDF7C4FB83001B187B
:103A5000824A5B002D3353639363D36301E753467C
:103A60001A046023E15C338B120C4B439A4200DA58
:103A700076E62623EB5C002B00D074E6AB8472E67E
:103A800001222623EA5400239A46638601F0F2FFBE
:103A900001F0DCFA002224235146E2544033E15283
:103AA000283BE2544B46E25C6FE601F0A3FF53462D
:103AB000E25A6A4B49465A639A63DA637D235A464F
:103AC000D154CEE62A23EA54FFF742F8638EC82B7E
:103AD00005D944234A46E25242460C33D35250237E
:103AE0004246D05AFEF79AF84423E35E002B00D0FA
:103AF00053E42E222421A3542D3A625432317254BD
:103B0000574AB26522602168E9608021C9054A628E
:103B100014225946226269328B5442465233D25C97
:103B20000333F2547B7F002B03D04A234246D35AFF
:103B3000E387FEF7C7FA01F0A7FEFFF72EFC01F0BE
:103B400099FF00254B46E5542533E5540333E552F0
:103B5000424B65865D639D63DD6301F09DFE8022BF
:103B6000290052003F4802F007FCBFF34F8F3E4B45
:103B70003E4ADA60BFF34F8FC046FDE73C4B2360FF
:103B800028E71B7B2B2B5FD0352B61D01F2B01D05F
:103B9000FFF7ACFB374B3360FFF7A8FBFA2250234B
:103BA0009200F2520122093BF25400237A82324AF7
:103BB0007B731373BB82BB75338993463233338176
:103BC0002E4B4A22984641469B5A32338B52738978
:103BD00032337381FFF7BAFB8A4601F04BFF52463E
:103BE0004B46E2546123E2540333E2521B4B62869C
:103BF0005A639A63DA6301F04FFE8022002152007B
:103C0000184802F0B9FBBFF34F8F174B174ADA6021
:103C1000BFF34F8FC046FDE71949CB689343CB6094
:103C200001F014FA4A460D4B5A639A63DA6302F0C4
:103C30005FF953464A46EA54C6E57B78032B01D91F
:103C4000FFF76EFBFFF761FB0E4B3360FFF74EFB98
:103C50000D4B3360FFF74AFB30F8FFFF002C0140AB
:103C6000282300000808002000ED00E00400FA0509
:103C700088130000007C0008D005002040010020CF
:103C80000020004000F8010800F80008F0B5674C7B
:103C900083B023686068C01A654B0100C218654B89
:103CA0009A4245D80023644E644D33802B78002B14
:103CB00053D06B78002B17D1AB78002B00D19CE050
:103CC000A8885F4F01333988AB70FDF7A1FF322818
:103CD00000D872E000232B703B88AB806B78002B00
:103CE00013D061682368C91A564AAB79914209D842
:103CF000554801330488DBB2E200121B5218D20887
:103D0000AB7102804B2B00D97AE000234F49504A17
:103D1000A868338012680B88C31A934214DC0B889E
:103D20001B1A9A4216DA0B889B1A9BB20B800FE083
:103D30000022484B1A80414B98684449444A0B88FA
:103D40001268C31A9342EADD0B889B189BB20B8062
:103D500003B0F0BD80B20880FAE73F4B9B7C002B9C
:103D600010D03E4B1A8890421BD8374B1988FA2343
:103D70009B0000930023FDF72DFF0300AB600023A1
:103D80003380DAE72E4B1A882F4B1988344B009377
:103D90002F23FDF71FFF03003028EFDC0023002056
:103DA000ECE7274B511C1C88FA23DB000093220010
:103DB0002C4BFDF70FFF0300E0E7398822686368AA
:103DC0009B1ACA00521A9B18DB08AA789BB23B8048
:103DD000322A00D881E72449193B8C469BB23B80AC
:103DE0006344D90FCB1821211B4A5B105354012384
:103DF0006B7000F047FB3B886FE780B2A88060E7FC
:103E0000114A00241388144919339BB21380174AAE
:103E10002C7094466344DA0FD31820225B108B5425
:103E2000FEF744F9AC7100F05FFB6EE70808002074
:103E3000DFFCFFFF76050000C4060020DC07002041
:103E4000D2000020E1040000D0000020760600200F
:103E50007C040020B40600201C070020D4000020B1
:103E6000FF070000E90300002AF9FFFF12FDFFFF32
:103E7000F0B54746CE465B4D80B52A0000260020AF
:103E80000027594B594C9C469C8008CA7C351168C8
:103E90008B4206D0CB1AA34201D201279CB2012645
:103EA000C01804320B009542F1D1002E34D04009E5
:103EB000002F14D063464E4D4E499C802B78C8602D
:103EC000012B3ED04C4A1678012E12D0002B02D185
:103ED0001678002E22D0C0BCB946B046F0BD444D85
:103EE00044492B78C860012B7AD0434A14783F4C60
:103EF000ECE72600414FC93EB6B2BE42E6D80126E5
:103F00002F27B14616703E4E377002266746BE71A7
:103F10004F463C4E3770D9E70020C9E7661E022E97
:103F20002DD83B28D7D80B740E21354A1370364B49
:103F300001221970202361468B71324B2A701A704E
:103F4000C9E7621E022A3DD83B2840D800262C4AE9
:103F50000E7416702C4A2B700E3616702022664690
:103F6000B271284A1370244A1678F3B2012EB2D1E6
:103F70002600224FC93EB6B2BE42C0D9ABE7231FCE
:103F8000042B0FD9C93C1D4BA4B29C42A3D80121DC
:103F900011702F221A4B1A70022362469371194B2B
:103FA000197098E7632896D801230B740721144AE7
:103FB0002B701370144A1170202261468A71114AC5
:103FC000137088E7221F042ACDD8632802D90A4B30
:103FD0001B7880E70A4A072613700B740A4ABCE76D
:103FE000024CC0E7080800207C040020204E00009E
:103FF000D2050020DC070020D3050020564D00002C
:1040000086040020B10600200508002070B5584C39
:104010002378002B03D0574B1B78002B08D1564B2D
:104020001A78002A00D170E01B78012B0AD070BDED
:10403000524B1B78002B55D000F052FF0222504B00
:104040001A70F4E74B4B1B78002B51D14D4D2B7858
:10405000012B75D04C4B1B78012B67D02378002B9C
:10406000E5D12B78002B1DD0484A537C072B19D85B
:1040700047490988052915D946480133C16F0068A9
:10408000DBB2091A506989B2091853745161082BBF
:1040900008D1CB08C9099BB289B23F485C185B1AAA
:1040A000048113833D4C2088002836D03C4BDB79BB
:1040B000002BBCD1364A002613803A4B9842B6D921
:1040C000324D698BFDF7A4FD32284FD82B7F013389
:1040D000DBB22B77322B02D96B78002B42D02388AE
:1040E0006B83A4E700F044FF0122254B1A709EE782
:1040F000224B1B78002B0DD02B4B1888FDF7D2FBE1
:10410000FDF7A0F900F0ECFE91E7FFF7B1FE00F03B
:10411000E7FE8CE700F02CFF89E71C4B1B78002B97
:1041200013D11B4A13880133138080E700F068FF26
:10413000194B002811D003229A7100F0D1FE8DE7AF
:10414000FDF780F900F0CCFE84E7154BDB79002BFE
:1041500000D06CE70E4A138069E702229A71FFF7DC
:1041600095FDEAE700F0F2F901232B702E77B6E710
:104170008C060020E1060020B10600200408002083
:10418000A0060020D2050020D3050020DC07002077
:10419000B4060020080800207C04002078060020D7
:1041A0001C070020DC050000A40600200449021CB6
:1041B0000B2800D90B2253009B180B707047C04688
:1041C000F9070020F0B5DE464E4657464546E0B5B5
:1041D000032083B001F092FC7C239B460026414BD8
:1041E000414C9846414BA3449A46414B9946414B1A
:1041F000019353464A461A600023424625781380AD
:104200002A0063781A4316D0FF2D28D0002B3CD10A
:104210000022394B3002801B5A6340199A63DA63DB
:10422000FDF708FD3322354B00269B5CEF2B1FD892
:104230000234A345DDD101F01DFC002330492E4A94
:1042400009889362D16242461380284B284A1A603B
:1042500003B0F0BCBB46B246A946A046F0BD002B59
:10426000D6D03322254B01369B5CF6B2EF2BDFD93B
:104270000021214A51639163D163FF22D31A980030
:10428000C0184000FDF7D6FCD2E75A01D21AD2007E
:10429000D31AFA221201944663441A000923164FD6
:1042A0001100BB6217480092FCF70AFF0100164894
:1042B000FCF790FF019BF8621B7814495843FCF708
:1042C00089FF7863B863F8633002009A801B401955
:1042D00050430F49FCF7F4FE0004000CFDF7AAFC64
:1042E000A0E7C046C4060020500700200030004070
:1042F000AAAA0000F9070020002C01401C0700209A
:10430000C400002080969800003E4900CF070000BE
:10431000F82A000010B572B6032001F0EFFB30223E
:10432000194B9B5CFF2B07D0FFF74CFF174B1A88EC
:10433000174BDA6262B610BD154C164B0320E362D0
:10434000154B1B786363A363E36301F0D7FB37234B
:10435000C820A362FDF76EFC052001F0CFFB2823E7
:10436000C820A362FDF766FC062001F0C7FB1923F5
:10437000C820A362FDF75EFC01F07CFB0023074A26
:10438000A3621380D2E7C0461C070020C4000020AF
:10439000002C0140CF070000F9070020C4060020D0
:1043A00070B5154B154CE36272B63C23144D154E97
:1043B00001202E60A362144B1B786363A363E36345
:1043C00001F09CFB4B20FDF735FC50234B20A362F2
:1043D000FDF730FC5A234B20A3622E60FDF72AFC28
:1043E00001F048FB0023094AA3621380084B1B8895
:1043F000E36262B670BDC046CF070000002C0140EA
:1044000000300040AAAA0000F9070020C4060020DE
:10441000C400002010B572B6134C144B144AE3626A
:10442000144B03201A605023A362134B1B78636361
:10443000A363E36301F062FB6420FDF7FBFB46230B
:104440006420A362FDF7F6FB28236420A362FDF736
:10445000F1FB01F00FFB0023084AA3621380084B15
:104460001B88E36262B610BD002C0140CF0700003C
:10447000AAAA000000300040F9070020C40600206E
:10448000C400002010B5114B114C0220E36232230E
:10449000A362104B1B786363A363E36301F02EFBFD
:1044A0009620FDF7C7FB0C4A0C4B96201A601E2382
:1044B000A362FDF7BFFB01F0DDFA0023084AA36207
:1044C0001380084B1B88E36210BDC046CF07000075
:1044D000002C0140F9070020AAAA0000003000408B
:1044E000C4060020C400002010B5114B114C02205E
:1044F000E3622823A362104B1B786363A363E36327
:1045000001F0FCFA9620FDF795FB0C4A0C4B962027
:104510001A605023A362FDF78DFB01F0ABFA002374
:10452000084AA3621380084B1B88E36210BDC04693
:10453000CF070000002C0140F9070020AAAA0000C4
:1045400000300040C4060020C4000020F8B5144D1F
:10455000144BEB6272B67724134B144F1B78144E36
:104560006B63AB63EB63142120003E60FCF732FE0B
:10457000C0B201F0C3FA63100A330A20AB62023CF6
:10458000FDF758FB631CEED101F074FA0023094AD1
:10459000AB621380084B1B88EB6262B6F8BDC04665
:1045A000002C0140CF070000F90700200030004038
:1045B000AAAA0000C4060020C40000200D488546B9
:1045C0000D480E490E4A002302E0D458C45004336B
:1045D000C4188C42F9D30B4A0B4C002301E0136042
:1045E0000432A242FBD301F0A1FE01F0A1FEFEF7CE
:1045F00067FEFEE700200020C00000209804002095
:10460000B06400089804002024090020FEE70000A0
:104610008268030010B50120D20710D48C684A6864
:10462000D8682243CC6809682243054C20400243E5
:104630000020DA601A69920092080A431A6110BDDC
:10464000C73FFFFF8368020010B50120DB070ED4CF
:104650004C680B68D06823438C682343CC68096995
:1046600023430B430249014000200B43D36010BD9C
:104670003CC2FEFFF0B557464E46DE4645464A6808
:104680000B6891468A46E0B5013A002B00D1A8E0BC
:10469000012A26D90025012634001A00AC40224008
:1046A000234213D052435400A4464C4694446746D8
:1046B00054430168B9430C430460C16888465146BD
:1046C0000C6962434446BC432243C2601A00013570
:1046D000EA40E1D10020F0BCBB46B246A946A04664
:1046E000F0BD49460022012602294ED135001C00AA
:1046F00095402C402B422DD02500654369008C4607
:10470000A846E044414607688F4361460F4351463F
:1047100007600F6981686F4389465146BC468F68C0
:1047200049466F43BB464746B9435F460F43414640
:104730008760C7688F4361460F435146C7604F6922
:10474000FF2C13D86D432901491B7D43046A8C4318
:104750002C4304621C000132D440C7D15146426848
:10476000C9689A434B4313434360B3E7240A644345
:10477000644321016743091B1C00456A01328D43D4
:104780003D43D4404562B1D1E8E7002435001A002A
:10479000A5402A402B4218D0514652430768550085
:1047A000AD18AF43174307600F69816857438846C8
:1047B0005146BC468F6861467A434746AF433A4309
:1047C0008260C268AA430A43C2601A000134E24010
:1047D000DCD151464268C9689A434B431343436056
:1047E00078E7012A00D975E7B8E7C0460C23164AD6
:1047F00070B5516805000B40082B11D0134B1248BF
:104800002B60426812491206120F8A5C1149D3408C
:104810006B6042685205520F8A5CD340AB6070BD3A
:104820000D4B0F249C465068D16AC003C017184036
:104830002140604401315668FCF742FCB30C234030
:1048400002334343DBE7C0460010024000127A0007
:1048500090640008A064000800093D00030070B5E2
:104860000020002B2ED12B4A0333116B0B40022B5F
:1048700040D0032B43D05168012B24D00C230B4094
:10488000082B44D1244B0F249C465068D16AC003A6
:10489000C01718402140604401315568FCF710FCF6
:1048A0000300AD0C2C40A01C58431A4B1B495A68FE
:1048B0005B681206120F8A5C5B05D040184A5B0FDA
:1048C000D35CD84070BD0B330B40082B1DD1124B6D
:1048D0000F249C465068D16AC003C017184021407D
:1048E000604401315568FCF7EBFBAD0C2C40023401
:1048F0006043E7E7106A8007C00FC003E2E7136870
:104900000222100018401A42DCD00648DAE70548B7
:10491000CBE7C0460010024000093D00906400084B
:10492000A064000800127A001C4A30B503688D6844
:104930000C8890422DD08022D20590421DD0184A7A
:1049400090421AD0174A90421BD0174A904205D085
:10495000164A904202D0164A904216D1154A134088
:10496000CA6813430360C56284620B7C036301223F
:10497000436913434361002030BD702293434A686A
:1049800013430C4A1340CA6813430360C562846230
:10499000EDE7702293434A681343DFE7002C0140A0
:1049A000000400400020004000400140004401405D
:1049B00000480140FFFCFFFF802370B55B00994277
:1049C00000D173E03FD8012900D1AAE010296BD1B2
:1049D000036A6F4C8B430362066A45688369234010
:1049E000146824021C4320239E4313691B01334394
:1049F0008B43516809011943664B984208D0664BB6
:104A0000984205D0654B984202D0654B984213D12D
:104A10008023994353699B010B4340218B43916849
:104A2000890119435F4B1D4093699B002B435E4DE9
:104A30002B40D569ED001D43D368456084618363D5
:104A40000162002031E080235B0199422CD1036A8E
:104A5000564E4F4D33400362046A4168C3692B4090
:104A600015682D021D43524B1C4013691B03234341
:104A70005468334024032343464CA04208D0464C9C
:104A8000A04205D0454CA04202D0454CA04204D1E2
:104A9000484C0C40916989012143D2684160C5614D
:104AA00002640362002000E0012070BD036A424EF0
:104AB000334003627323046A4568C16999431368EC
:104AC00019433E4B1C4013691B0223435468334077
:104AD00024021C432F4B984208D02F4B984205D0FC
:104AE0002E4B984202D02E4B984213D12E4B1C4095
:104AF00053699B0223432B4C23409468A4021C431C
:104B00002A4B1D4093691B012B43294D2B40D5692E
:104B10006D011D43D3684560C161C3630462002019
:104B2000C3E77326036A8B430362036A446885699B
:104B3000B543166835430226B343166933438B43A6
:104B400051680B431349884208D01349884205D065
:104B50001249884202D01249884212D108218B435F
:104B60005169890019430423994393689B000B43BF
:104B70001149214094692143104C2140D4696400BB
:104B80000C43D268446085614263036200208CE775
:104B9000FF8CFFFF002C0140004001400044014019
:104BA00000480140FFFBFFFFFFF7FFFFFFEFFFFFA4
:104BB000FFDFFFFFFFBFFFFFFFFEFFFFFFFDFFFF68
:104BC0008A680B7B13430B4A13404A6813430A4A13
:104BD00013400A681343094A1340CA891343084A19
:104BE00013400A691343074A13404A691343436455
:104BF00000207047FFFBFFFFFFF7FFFFFFEFFFFF06
:104C0000FFDFFFFFFF3FFFFF30B5036804000D002B
:104C100085B0DB071DD44B68C96802680B4329695E
:104C20000B43A9690B4320490A40134303604368BF
:104C30001E4A1340AA681343436083681C4A13400A
:104C40006A69134383601B4B984205D01A4B984204
:104C500018D0012005B030BD0020FFF7FFFD00286F
:104C6000F7D029680029F4D08022AD694B081202E0
:104C700095420CD0C018FCF723FA03041B0C00204B
:104C8000E360E7E701A8FFF7B1FD0398E7E740001D
:104C9000C018FCF715FA094B03400007400F1843F2
:104CA000E0600020D6E7C046F369FFFFFFCFFFFFBB
:104CB000FFFCFFFF0038014000440040F0FF00000F
:104CC000FA2110B58900FCF7FBF90022034B0138EB
:104CD00058609A6005321A6010BDC04610E000E0CE
:104CE000014B18607047C04694040020054A064BEB
:104CF00091881980054B118819805288044B1A80BD
:104D00007047C046FC070020E8060020EC060020A3
:104D1000DE050020074A0849084B91600321D36053
:104D200053681B0C1B040B435360136802390B437D
:104D3000136070470800024040240140FC07002037
:104D40000023114A82B001939168104B1940183327
:104D50000B4393609368002BFCDB01230193019BC1
:104D6000002B05D0019B013B0193019B002BF9D146
:104D7000054A064993680B4001210B439360136871
:104D80001942FCD002B0704700240140E8FFFF7FC9
:104D900070B592B01022002103A801F0EDFA1422A0
:104DA000002107A801F0E8FA102200210EA801F066
:104DB000E3FA8021414B89009A6990240A439A6161
:104DC0009A69E4050A4080210292029A5A6989028E
:104DD0000A435A615B6940220B400193019B032304
:104DE0000CA9200000250C920D93FFF743FC08222C
:104DF00003230CA920000C920D931095FFF73AFCA9
:104E00002F4B30491A6840200A401A601A682E4910
:104E100008260A4020211A601A682C4C0A431A609E
:104E20001A68603182431A601A680A431A60196866
:104E3000274A1140802252000A431A601968254A05
:104E400011408022D2000A431A60A36A22493343E8
:104E5000A362A36A0343A3628023A26A5B02134393
:104E6000A3620A681D4B20001A4080231B041343D1
:104E70000B60802303A91B060393049505950695F3
:104E8000FFF7C6FB012307A920000A9307950895A1
:104E900009950B95FFF7D6FB04220721E36893439E
:104EA000E36063698B4301390B4363616368934338
:104EB00063606368B343636012B070BD001002406A
:104EC00008000240EFBFFFFFFFCFFFFF00240140BB
:104ED000FFFCFFFFFFF3FFFF08270140FFFF3FFE3E
:104EE00000208022174B52021870174BD9680A43D2
:104EF000DA60DA6815490A40DA6041220121144B70
:104F00009A61373A1A62134A12789A62124ADA623E
:104F10005A690A435A615862104A1148D0601148D0
:104F20009060114800785060104810608022D86866
:104F300092000243DA601A6A0A431A621A680A4344
:104F40001A6070470408002000100240FFFFFEFFB7
:104F50000040014086040020FFFF0000580002408E
:104F60000808002034400140820400208B09000022
:104F70000122802119481A4B10B50270DC684902E1
:104F80002143D960D968174C2140D9606021164B64
:104F9000164C99615D3919621549097899623D216C
:104FA000D9625969114359611249CC60124C8C6025
:104FB000407817304860114808608021D86889001F
:104FC0000143D960196A114319628021586C0902A2
:104FD0000143596419680A431A6010BD040800208F
:104FE00000100240FFFFFEFF0040014008050020C6
:104FF000EC07002058000240344001409B090000AB
:1050000090230420DB051B69184070479022302153
:10501000D205D3688B4320390B43D3607047C04619
:10502000074A084B944680221868074BD2011B6838
:105030006344DB009A400E331040D840C0B2704742
:10504000E4FFFEBF1C00014088040020044B05491A
:105050001A680A401A60802292035A617047C0465B
:1050600000040140FFFFDFFF8023034A9B03116818
:105070000B4313607047C046000401400D4B1A6893
:10508000C8235B009A420FD204210B4A13688B435A
:1050900013600A490B785A425341094A5B059360F1
:1050A0000B785B05D36070470421034A13680B43F8
:1050B0001360EEE7500600201C00014012010020A2
:1050C00000040140F0B54746CE4680B585B01600D5
:1050D0006A46CB0F5B185B1098465B000733DB0812
:1050E000DB00D31A00AF9D466D460C008146424658
:1050F0000021280001F040F9012C0BDD4846002377
:105100004178027809025C000A4301332A530230D5
:105110009845F5DC43460121334A7B60D368194248
:10512000FCD113691B0604D5304B196851605B68CC
:105130005360B30517D102212B4A13690B43136146
:10514000566113693E310B4313613F39D3681942ED
:10515000FCD12023D1680B4200D0D3600221224A27
:1051600013698B4313610023BB60FB60FA687B68A3
:105170009A421FD2012020241B490B6903430B6173
:10518000FA68BB685200525B9B191A80CB681842C0
:10519000FCD1CB681C4218D0CC600B6983430B61F7
:1051A000BB680233BB60FB680133FB60FB687A6855
:1051B0009A42E2D88021BD460B4A13690B43136122
:1051C00005B0C0BCB946B046F0BD0B6983430B6166
:1051D000BB680233BB60FB680133FB60FA687B6825
:1051E0009A42CAD3E6E7C046002002408C04002061
:1051F000F0B5002A26DD531E062B24D903000B43ED
:105200009B0720D14B1CC31A022B1CD90B009608FC
:10521000B6008F19441A1D68E5500433BB42FAD119
:10522000B2420FD0032314009C432300645CC45497
:10523000731C9A4206DDCC5C0236C454B24201DDD6
:105240008B5D8355F0BD8A18441A0B786354013185
:105250008A42FAD1F6E7C04600B51B4B1B4883B023
:105260001B4A9A1802CB11608342F9D10123194AD3
:105270009169194391610321926913400193019B44
:10528000154B1A688A431A601A680A43FA211A6091
:10529000124B89001868FBF713FF802301385B0469
:1052A000984200D3FEE7C0210D4A090650600D4820
:1052B000036A1B021B0A0B4303620023936007333C
:1052C000136062B603B000BD00100008C0100008F3
:1052D00000F0FF170010024000000140940400207D
:1052E00010E000E000ED00E00121334A10B5136842
:1052F0008B430B4313601368304A13680B431360EE
:10530000013113681942FCD0F82113688B437839B6
:105310000B431360536B7F390B435363274A0131AF
:10532000536B1942FCD0F821536B8B4378390B43F4
:105330005363536A7F390B435362204A0131536AE6
:105340001942FCD051681E4B1940A0239B030B430C
:105350000F215360D36A8B43D362802311685B04AF
:105360000B4380211360154A890413680B42FCD05B
:10537000F0215368114C8B435360536811490B4023
:105380000321536053688B4301390B4353600C2254
:1053900063681340082BFBD10B48FFF791FC0A48C8
:1053A000FFF79EFC0422636B93436363236B013A14
:1053B0009343236310BDC04600200240001002400A
:1053C000FFFFC2FFFFF8FFFF006CDC02064B074A3D
:1053D0001A60074A1A6002225A60FA2212019A6081
:1053E000044A1A607047C04600300040CCCC000030
:1053F00055550000AAAA0000F0B5DE4657464E46B5
:105400004546E0B59DB01422002103A800F0B4FF8A
:105410002022002114A800F0AFFF1822002108A8C4
:1054200000F0AAFF182200210EA800F0A5FF80229C
:10543000744E1201B369744D1343B361B36903A988
:1054400013400293029B714B280090460593FFF78F
:105450006BFA80222B68914613432B60AB686C4A31
:105460006C4F13400822AB603B68002413433B6041
:1054700060239346012114AA2800149315941694CE
:10548000179418941A9419941B94FFF795FA042210
:105490003B689246934342463B603B68102113436E
:1054A0003B6014AA280015941694FFF785FA594614
:1054B0003B68594A280013403B60584F3B680B43F8
:1054C0003B6080235B009B4614AB1A005946159441
:1054D0001694FFF771FA51463B6828008B4341460A
:1054E0003B603B680B4380213B6014AB1A004901D1
:1054F00015941694FFF760FA3B68474A2C21134035
:1055000070223B606B68280093434A466B60AB682F
:1055100002279343AB6000220023089209936A4656
:105520002D23521813706B468022DC8500239201D4
:1055300008A90C920D930A94FFF742FB802273692D
:105540009202134373617369022513408022019311
:10555000019B7369D2021343736173690026134080
:105560000093009B2E4B0EA9984618001296139795
:105570000E950F9510941194FFF77CF801230EA956
:1055800040460E93129613970F9510941194FFF7BF
:1055900071F84B460E939023DB050EA91800984630
:1055A000129613970F9510941194FFF763F88023C8
:1055B0000EA9DB0040460E93129613970F95109498
:1055C0001194FFF757F880230EA99B0040460E93D5
:1055D000129613970F9510941194FFF74BF85B46B2
:1055E00040460EA9129613970E930F95109411949E
:1055F000FFF740F81DB0F0BCBB46B246A946A04636
:10560000F0BDC04600100240002C0140CF07000052
:10561000F8BFFFFF182C0140FFFBFFFF1C2C0140CF
:1056200000040048F0B5DE4657464E464546E0B514
:10563000012693B0FFF758FE802210217F4C5205BF
:10564000A36980273343A361A369BF023340059355
:10565000059BE3697A4D1343E361E3691340794A9B
:105660000493049B13680B43136080226369D20286
:105670003B436361636993463B400293029B6369CA
:1056800013436361636913400393039B9023DB051A
:105690009A46802352461B029362636933436361D7
:1056A000636933400B930B9BC2239B00EA589846D7
:1056B000654B1A408023DB0313434246AB508023E3
:1056C000DB002B60AB5880221B02D2051B0A9146DF
:1056D00013434246AB5080231B012B60FFF78CFE27
:1056E000E36948463343E361E36917221E400196AC
:1056F0004E46019B826255480021F062073A0EA88F
:1057000000F03AFE636902223B43636163690CAEB9
:105710003B400A930A9B03233100504600260C921B
:105720000D93FEF7A7FF202203230CA8010050468B
:105730000C920D931096FEF79DFFC322FF2192005D
:10574000AB5880208B43AB50802380225B012B60C1
:10575000E36952001343E361E3693D491340099350
:10576000099BE93AFA238A62C4221B01CB629200A8
:10577000AB581B021B0AAB5080231B032B600B682A
:1057800003430B601021E3690B43E361E3690B40C2
:105790000893089BA9582F4B1940C0231B020B43A9
:1057A000AB5032212F222C4B2F609A62D96259467E
:1057B000A3690B43A361A3690B400093009B274B94
:1057C00000219A62214ADA621A6882431A600FA89D
:1057D000082200F0D1FD8022A36952021343A36185
:1057E000A3690CA913400693069B636904223B43FB
:1057F0006361636950463B400793079B02230C9209
:105800000D93032311960E93FEF734FF4246AB58D7
:105810004A461B021B0A13434246AB5080233F22D9
:105820001B012B600E4B9E62DA6200F0C3FB13B0CB
:10583000F0BCBB46B246A946A046F0BD00100240EF
:1058400000E100E000200240FFFF00FFFFFF00003A
:1058500000200040FF00FFFF001000400048014012
:1058600000400140014B58637047C046002C014086
:10587000014B98637047C046002C0140014BD86330
:105880007047C046002C01400121024A53690B4376
:1058900053617047002C01400022024B9A625A6209
:1058A0007047C0460040014010B501241021474B0D
:1058B00082B01A6A22431A621A6A0A431A62802262
:1058C000196A52000A4304211A621A6A0A431A62C8
:1058D0001A6A3C310A431A628022196AD2000A43CA
:1058E0001A628022196A52010A431A6264221A64F7
:1058F0001A6822431A608022596C12020A435A64C1
:105900005A6922435A61324B1A6A22431A621A6850
:1059100022431A602F4B1A6822431A605A692243A5
:105920005A61DA682243DA60DA68A243DA602A4B05
:105930001A6822431A605A6922435A618023DB05A0
:105940001A6822431A605A6922435A61234B1A6823
:1059500022431A605A6922435A61DA682243DA60A4
:10596000FFF716FAFFF7D6F9FFF7EAF900231C4A0A
:10597000019313681B49234313601B4B1868FBF703
:105980009FFB0301181A0A218000FBF799FB019085
:10599000019B002B05D0019B013B0193019B002B38
:1059A000F9D1C1208021114A8000135809061B0239
:1059B0001B0A0B4313508023136080230C4A1B02E5
:1059C00011680B43136002B010BDC046002C0140AB
:1059D000004001400020004000480140001000400D
:1059E0001C000140400D03009404002000E100E091
:1059F000000401409023DB051968194A0C2011406E
:105A0000802252030A431A608022D2009A621968E7
:105A1000144A11408022D2020A431A608022920066
:105A20009A621968104A1140802252020A431A6091
:105A300080220E4952009A620A6882430438024367
:105A40000A600A6805388243013802430A6019680F
:105A5000074A1140802212020A431A607047C0466A
:105A6000FFFFCFFFFFFFF3FFFFFFFCFF0004004835
:105A7000FF3FFFFF0C211C4A13688B4308390B437F
:105A80001360022393629023DB05186817490840CE
:105A9000802149030143196080210320C9009962D4
:105AA0001168814302380143116090621968104AFD
:105AB00011408022D2020A431A60802292009A6228
:105AC00019680C4A11408022D2010A431A608022D0
:105AD0009A621968084A1140802252020A431A60E9
:105AE000802252009A62704700040048FFFFCFFFF7
:105AF000FFFFF3FFFF3FFFFFFFFFFCFF10B506288E
:105B000043D8D14B80001B589F460321CF4A1368CE
:105B10008B4302390B43136090239162DB051868B5
:105B2000CB4908408021C9020143196080218900C6
:105B300099621868C74908408021C901014319606A
:105B4000802199611868C4490840802149020143B5
:105B50001960802149009962C04B1B78002B00D04E
:105B600049E11368F4398B4308390B43136002236E
:105B700093629021C905BA4B0A681A4080239B039F
:105B8000134341220B60B74B1A6010BD9023DB0515
:105B90001968B04A032011408022D2010A431A60DA
:105BA00080229A621968AC4A1140802252020A434C
:105BB0001A60802252009A62A44A11688143023816
:105BC0000143116090611868A14908408021C90211
:105BD00001431960802189009962A04B1B78002B3A
:105BE00000D015E11368F539FF398B4308390B43B1
:105BF0001360022393629021C905994B0A681A40E9
:105C000080239B03134361220B60964B1A60BCE711
:105C10000C218E4A13688B4308390B43136002230F
:105C200093629023DB0518688D4908408021490361
:105C30000143196080210320C900996211688143E2
:105C400002380143116090611968814A1140802235
:105C5000D2020A431A60802292009A627F4A127826
:105C60001968002A00D0E0E07A4A11408022D2016F
:105C70000A431A6080229A629021C905764B0A680D
:105C80001A4080239B02134351220B60754B1A600C
:105C90007BE79023DB0519686E4A0C2011408022B7
:105CA000D2010A431A6080229A6219686A4A022461
:105CB0001140802252020A431A60802252009A62E6
:105CC000624A116881430838014311609461186881
:105CD0006349084080214903014319608021C900BC
:105CE00099625E4B1B78002B00D098E0032113686B
:105CF0008B4302390B43136091629021C905544BC9
:105D00000A681A4080231B037CE703214F4A13686B
:105D10008B4302390B43136090239162DB051868B3
:105D20004B4908408021C9020143196080210C20A1
:105D3000890099621168814308380143116002218A
:105D400091611968464A1140802252030A431A6041
:105D50008022D2009A62414A12781968002A6BD1D7
:105D60003C4A11408022D2010A431A6080229A6282
:105D70009021C905384B0A681A4080239B02FFE630
:105D80000C21324A022413688B4308390B431360F9
:105D900090239462DB05186831490840802149034B
:105DA000014319608021C900996218682949084097
:105DB0008021C90101431960802199611868264931
:105DC00008408021490201431960802149009962FD
:105DD000224B1B78002B15D11368FD398B430239F8
:105DE0000B43136091629021C905194B0A681A4050
:105DF00080231B0347E70C2113688B4304390B43B3
:105E00001360B6E6032113688B4323431360EAE76C
:105E10000C2113688B4304390B431360EBE6032119
:105E200013688B432343136067E70A4A11408022BB
:105E300012020A431A601FE7064A1140802212022A
:105E40000A431A6094E7C0467464000800040048DE
:105E5000FFFFF3FFFF3FFFFFFFFFFCFFDC0500201C
:105E6000FFFFCFFF1C0001400C211C4A13688B432D
:105E700008390B431360022393619023DB051868F4
:105E800017490840802149030143196080210320FC
:105E9000C900996211688143023801431160906121
:105EA0001968104A11408022D2020A431A608022E7
:105EB00092009A6219680C4A11408022D2010A436A
:105EC0001A6080229A611968084A114080225202A1
:105ED0000A431A60802252009A6270470004004808
:105EE000FFFFCFFFFFFFF3FFFF3FFFFFFFFFFCFFC1
:105EF0002A4A2B491378002B3AD10C200B68834394
:105F0000083803430B6002238B629020C0050168B0
:105F1000244B194080239B030B43036013782049D3
:105F2000002B33D103200B688343023803430B60FB
:105F300088629023DB0518681B490840802109030B
:105F40000143196012781968002A18D1174A1140C4
:105F50008022D2010A431A6080229A629021C905E8
:105F60000A68134B1A4080239B0213430B6070474F
:105F70000C200B688343043803430B60C5E70B4ACE
:105F80001140802212020A431A60E7E703200B68DF
:105F90008343013803430B60CBE7C046DC05002098
:105FA00000040048FFFFCFFFFFFFF3FFFF3FFFFFAD
:105FB000FFFFFCFF30B5002591B01C22002108A88E
:105FC00000F0DAF980213D4B05959A69C9010A4331
:105FD0009A619A693A4C0A4080210192019A5A6961
:105FE000C9020A435A615B6940220B400093009B3F
:105FF000022302920393032301220493002302A9A4
:10600000304806920793FEF735FB23682E4A08A90D
:10601000134010221343236023682C4A134020228C
:1060200023602368934323602368203293432360D3
:1060300023684032134323602368254A13402360BA
:106040002368244A13402360E1235B02042208935F
:10605000002309950A950B950E951F4D0C920D93F3
:106060002800FEF7D1FDAB681C4A1D491340AB6008
:106070006B681C4A13402A226B60AB689343AB6089
:106080002B68293A13432B602368174A0B40102BC7
:1060900010D0164BA260E3603121094A53681B0CF3
:1060A0001B040B4353600C4A4F3193680B439360BE
:1060B00011B030BD0D4BE260A360EDE7001002406F
:1060C0001C00024000040048EFBFFFFFFFCFFFFFAE
:1060D000FFFCFFFFFFF3FFFF00380140FFFBFFFF66
:1060E00010400000FFB7FFFF9C050020283801404A
:1060F00030B50C24082201250B490B68A343134338
:106100000A4A0B601368AB43136053681B0C1B04F3
:106110000343536013682B43136004220B68A343AB
:1061200013430B6030BDC046003801401C000240E4
:106130007047C046FEE7C0467047C0467047C0463D
:106140007047C04610B5274B1B78002B03D0264B59
:106150001B78002B1CD18022244BD20219681142DB
:106160000BD023490978002907D00A242148016A65
:10617000A143083C214301625A601C4B1A689203F8
:106180001FD41A68120302D5802252025A6010BD31
:106190008023164A5B0251680B4353600022164B62
:1061A0001A60164B1B78002B16D0FEF799FE0222C0
:1061B000134B1A708023134A1B0211690B4313619E
:1061C000E5E78022012152025A600B4A13688B4393
:1061D0001360FDF71BFFEDE7FEF7CAFE0122084B37
:1061E0001A70E7E78C060020E1060020000002405C
:1061F000D305002000400140580002400408002060
:10620000A00600200004014070B580250C4CAD03B1
:1062100063692B420AD08023DB055A6A094B1B684D
:106220005B089A4203D96561FBF7E6FF70BDFEF794
:10623000F7FE054B1B789842F8D16561F6E7C0463A
:10624000000401405006002012010020054A10B54C
:106250001369DB0704D502235B421361FCF772FD6F
:1062600010BDC04600100040022210B5024B524241
:106270001A61FBF77DFF10BD002000407047C0464B
:106280007047C046074A13699B0702D503235B4248
:106290001361044A1369DB0702D502235B421361D1
:1062A0007047C04600400140074A13699B0702D56A
:1062B00003235B421361044A1369DB0702D50223FF
:1062C0005B4213617047C04600040040084A10B5A5
:1062D00013689B0706D40822054B19680A4200D0B0
:1062E0005A6010BD01235360FEF700FDF3E7C0467E
:1062F00000000240074A13699B0702D503235B4253
:106300001361044A1369DB0702D502235B42136160
:106310007047C046002C0140802210B5024B12028B
:106320005A61FCF7EFFB10BD000401407047C04606
:1063300070B500260C4C0D4D641BA410A64209D16B
:10634000002600F02BF80A4C0A4D641BA410A6424C
:1063500005D170BDB300EB5898470136EEE7B300A6
:10636000EB5898470136F2E7A8640008A8640008D3
:10637000AC640008A864000803008218934200D1AE
:10638000704719700133F9E7002310B59A4200D124
:1063900010BDCC5CC4540133F8E70000F8B5C0462A
:1063A000F8BC08BC9E467047F8B5C046F8BC08BCAF
:0463B0009E4670474E
:1063B400DA170008D41700088818000880180008A5
:1063C4007818000870180008681800085A1800089F
:1063D4004C180008441800083C180008DA17000894
:1063E4002C1800081418000806180008DA1700080A
:1063F400DA170008DA170008DA170008DA170008B5
:10640400F8170008EE170008DA170008DA17000872
:10641400DA170008DA170008DA170008DA17000894
:10642400DA170008DA170008DA170008DA17000884
:10643400DA170008DA170008DA170008DA17000874
:10644400E6170008191B12131D1516171A090A0B53
:106454001E0D0E0FE4260008E0260008C6290008D9
:10646400C0290008BA290008E0260008320000000C
:106474008A5B00088C5B0008105C00080A5D000859
:10648400925C0008805D00080A5B000800000000C0
:1064940000000000010203040607080900000000D0
:0464A40001020304EA
:0464A80021140008B3
:0464AC00F5130008DC
:1064B000007C0008CF07CF072D007800C800D00768
:1064C0004C046C07DC0564004A0100000000000079
:1064D0009001000000000000E80300000000000040
:1064E000000000000000000000000000204E00003E
:1064F000A08601000206100114004600DC052D00F4
:106500009001010201010100D430000005010A00E0
:10651000E803000010270000000000000A0000004F
:106520000000000064000000000000000000000007
:1065300000000000000000001027000050C3000011
:10654000B400D007D0072D001E020200641900001D
:106550000000000001000000000000003200000008
:10656000000000000000000000000000000000002B
:106570001027000050C3000002002D004100D0078A
:1065800064000500E8030000B400B700BA00BD00D5
:10659000C100C400C700CA00CD00D000D300D6009F
:1065A000D900DC00E000E300E600E900EC00EF00C9
:1065B000F200F500F700FA00FD00000103010601FA
:1065C00009010B010E0111011301160119011B0133
:1065D0001E0120012301250128012A012C012F0180
:1065E00031013301350138013A013C013E014001DE
:1065F000420144014601470149014B014D014E0151
:1066000050015101530154015601570158015A01DB
:106610005B015C015D015E015F016001610162017E
:10662000630163016401650165016601660167013B
:106630006701670168016801680168016801680114
:106640006801680168016701670167016601660109
:10665000650165016401630163016201610160011B
:106660005F015E015D015C015B015A015801570148
:10667000560154015301510150014E014D014B018E
:106680004901470146014401420140013E013C01EC
:106690003A0138013501330131012F012C012A0162
:1066A00028012501230120011E011B0119011601EA
:1066B000130111010E010B01090106010301000183
:1066C000FD00FA00F700F500F200EF00EC00E90031
:1066D000E600E300E000DC00D900D600D300D000E3
:1066E000CD00CA00C700C400C100BD00BA00B70099
:1066F000B400B100AE00AB00A700A400A1009E0052
:106700009B009800950092008F008C008800850007
:1067100082007F007C0079007600730071006E00BB
:106720006B006800650062005F005D005A00570062
:10673000550052004F004D004A00480045004300FC
:1067400040003E003C003900370035003300300087
:106750002E002C002A002800260024002200210000
:106760001F001D001B001A00180017001500140060
:106770001200110010000E000D000C000B000A00AA
:1067800009000800070006000500050004000300DA
:1067900003000200020001000100010000000000EF
:1067A00000000000000000000000000000000100E8
:1067B00001000100020002000300030004000500C4
:1067C000050006000700080009000A000B000C0085
:1067D0000D000E001000110012001400150017002B
:1067E00018001A001B001D001F00210022002400B9
:1067F000260028002A002C002E003000330035002F
:10680000370039003C003E0040004300450048008E
:106810004A004D004F005200550057005A005D00DD
:106820005F006200650068006B006E00710073001D
:10683000760079007C007F008200850088008C0053
:106840008F009200950098009B009E00A100A4007C
:10685000A700AB00AE00B1000614013278004B0077
:1068600001005A005A001E0002010000FA00000058
:10687000204E200050C308001C0001402301674542
:08688000AB89EFCD00127A0094
:107BE0004644363238385F463035310000000000F8
:107BF0000000000000000000000000000000000085
:04000005080045BDED
:00000001FF
